{
  "address": "0x5FbDB2315678afecb367f032d93F642f64180aa3",
  "abi": [
    {
      "inputs": [],
      "stateMutability": "nonpayable",
      "type": "constructor"
    },
    {
      "anonymous": false,
      "inputs": [
        {
          "indexed": true,
          "internalType": "string",
          "name": "uid",
          "type": "string"
        },
        {
          "indexed": true,
          "internalType": "address",
          "name": "customer",
          "type": "address"
        },
        {
          "indexed": true,
          "internalType": "uint256",
          "name": "timestamp",
          "type": "uint256"
        }
      ],
      "name": "AlbumBought",
      "type": "event"
    },
    {
      "anonymous": false,
      "inputs": [
        {
          "indexed": true,
          "internalType": "string",
          "name": "albumUid",
          "type": "string"
        },
        {
          "indexed": true,
          "internalType": "address",
          "name": "customer",
          "type": "address"
        }
      ],
      "name": "OrderDelivered",
      "type": "event"
    },
    {
      "inputs": [
        {
          "internalType": "string",
          "name": "uid",
          "type": "string"
        },
        {
          "internalType": "string",
          "name": "title",
          "type": "string"
        },
        {
          "internalType": "uint256",
          "name": "price",
          "type": "uint256"
        },
        {
          "internalType": "uint256",
          "name": "quantity",
          "type": "uint256"
        }
      ],
      "name": "addAlbum",
      "outputs": [],
      "stateMutability": "nonpayable",
      "type": "function"
    },
    {
      "inputs": [
        {
          "internalType": "uint256",
          "name": "",
          "type": "uint256"
        }
      ],
      "name": "albums",
      "outputs": [
        {
          "internalType": "uint256",
          "name": "index",
          "type": "uint256"
        },
        {
          "internalType": "string",
          "name": "uid",
          "type": "string"
        },
        {
          "internalType": "string",
          "name": "title",
          "type": "string"
        },
        {
          "internalType": "uint256",
          "name": "price",
          "type": "uint256"
        },
        {
          "internalType": "uint256",
          "name": "quantity",
          "type": "uint256"
        }
      ],
      "stateMutability": "view",
      "type": "function"
    },
    {
      "inputs": [],
      "name": "allAlbums",
      "outputs": [
        {
          "components": [
            {
              "internalType": "uint256",
              "name": "index",
              "type": "uint256"
            },
            {
              "internalType": "string",
              "name": "uid",
              "type": "string"
            },
            {
              "internalType": "string",
              "name": "title",
              "type": "string"
            },
            {
              "internalType": "uint256",
              "name": "price",
              "type": "uint256"
            },
            {
              "internalType": "uint256",
              "name": "quantity",
              "type": "uint256"
            }
          ],
          "internalType": "struct MusicStore.Album[]",
          "name": "",
          "type": "tuple[]"
        }
      ],
      "stateMutability": "view",
      "type": "function"
    },
    {
      "inputs": [
        {
          "internalType": "uint256",
          "name": "_index",
          "type": "uint256"
        }
      ],
      "name": "buy",
      "outputs": [],
      "stateMutability": "payable",
      "type": "function"
    },
    {
      "inputs": [],
      "name": "currentIndex",
      "outputs": [
        {
          "internalType": "uint256",
          "name": "",
          "type": "uint256"
        }
      ],
      "stateMutability": "view",
      "type": "function"
    },
    {
      "inputs": [
        {
          "internalType": "uint256",
          "name": "_index",
          "type": "uint256"
        }
      ],
      "name": "delivered",
      "outputs": [],
      "stateMutability": "nonpayable",
      "type": "function"
    },
    {
      "inputs": [
        {
          "internalType": "uint256",
          "name": "",
          "type": "uint256"
        }
      ],
      "name": "orders",
      "outputs": [
        {
          "internalType": "string",
          "name": "albumUid",
          "type": "string"
        },
        {
          "internalType": "address",
          "name": "customer",
          "type": "address"
        },
        {
          "internalType": "uint256",
          "name": "orderAt",
          "type": "uint256"
        },
        {
          "internalType": "enum MusicStore.OrderStatus",
          "name": "status",
          "type": "uint8"
        }
      ],
      "stateMutability": "view",
      "type": "function"
    },
    {
      "inputs": [],
      "name": "owner",
      "outputs": [
        {
          "internalType": "address",
          "name": "",
          "type": "address"
        }
      ],
      "stateMutability": "view",
      "type": "function"
    },
    {
      "stateMutability": "payable",
      "type": "receive"
    }
  ],
  "transactionHash": "0x549bfa830c08437549afd9a14c677d2837783168858a769eeed73e12f2c93d27",
  "args": [],
  "numDeployments": 1,
  "solcInputHash": "1415a8e94d6b690b5208e2cbfa1e66fa",
  "bytecode": "0x608060405234801561001057600080fd5b5033600260006101000a81548173ffffffffffffffffffffffffffffffffffffffff021916908373ffffffffffffffffffffffffffffffffffffffff1602179055506119d3806100616000396000f3fe60806040526004361061007f5760003560e01c8063c557f9791161004e578063c557f97914610183578063d96a094a146101ac578063ea5df059146101c8578063ec34297a14610209576100bf565b806326987b60146100c45780634b5e4108146100ef5780638da5cb5b14610118578063a85c38ef14610143576100bf565b366100bf576040517f08c379a00000000000000000000000000000000000000000000000000000000081526004016100b690610df0565b60405180910390fd5b600080fd5b3480156100d057600080fd5b506100d9610234565b6040516100e69190610e29565b60405180910390f35b3480156100fb57600080fd5b5061011660048036038101906101119190610e7a565b61023a565b005b34801561012457600080fd5b5061012d610418565b60405161013a9190610ee8565b60405180910390f35b34801561014f57600080fd5b5061016a60048036038101906101659190610e7a565b61043e565b60405161017a9493929190610ff9565b60405180910390f35b34801561018f57600080fd5b506101aa60048036038101906101a591906110aa565b610533565b005b6101c660048036038101906101c19190610e7a565b61070b565b005b3480156101d457600080fd5b506101ef60048036038101906101ea9190610e7a565b6109d2565b604051610200959493929190611151565b60405180910390f35b34801561021557600080fd5b5061021e610b28565b60405161022b919061134a565b60405180910390f35b60035481565b3373ffffffffffffffffffffffffffffffffffffffff16600260009054906101000a900473ffffffffffffffffffffffffffffffffffffffff1673ffffffffffffffffffffffffffffffffffffffff16146102ca576040517f08c379a00000000000000000000000000000000000000000000000000000000081526004016102c1906113b8565b60405180910390fd5b6000600182815481106102e0576102df6113d8565b5b9060005260206000209060040201905060018081111561030357610302610f82565b5b8160030160009054906101000a900460ff16600181111561032757610326610f82565b5b03610367576040517f08c379a000000000000000000000000000000000000000000000000000000000815260040161035e90611453565b60405180910390fd5b60018160030160006101000a81548160ff0219169083600181111561038f5761038e610f82565b5b02179055508060010160009054906101000a900473ffffffffffffffffffffffffffffffffffffffff1673ffffffffffffffffffffffffffffffffffffffff16816000016040516103e09190611576565b60405180910390207f0428dc7031c0c35b6cfc8c2573c1f2eecf691dcffacf2a33fd549f311ae5f29d60405160405180910390a35050565b600260009054906101000a900473ffffffffffffffffffffffffffffffffffffffff1681565b6001818154811061044e57600080fd5b9060005260206000209060040201600091509050806000018054610471906114a2565b80601f016020809104026020016040519081016040528092919081815260200182805461049d906114a2565b80156104ea5780601f106104bf576101008083540402835291602001916104ea565b820191906000526020600020905b8154815290600101906020018083116104cd57829003601f168201915b5050505050908060010160009054906101000a900473ffffffffffffffffffffffffffffffffffffffff16908060020154908060030160009054906101000a900460ff16905084565b3373ffffffffffffffffffffffffffffffffffffffff16600260009054906101000a900473ffffffffffffffffffffffffffffffffffffffff1673ffffffffffffffffffffffffffffffffffffffff16146105c3576040517f08c379a00000000000000000000000000000000000000000000000000000000081526004016105ba906113b8565b60405180910390fd5b60006040518060a00160405280600354815260200188888080601f016020809104026020016040519081016040528093929190818152602001838380828437600081840152601f19601f82011690508083019250505050505050815260200186868080601f016020809104026020016040519081016040528093929190818152602001838380828437600081840152601f19601f8201169050808301925050505050505081526020018481526020018381525090806001815401808255809150506001900390600052602060002090600502016000909190919091506000820151816000015560208201518160010190816106be9190611753565b5060408201518160020190816106d49190611753565b5060608201518160030155608082015181600401555050600360008154809291906106fe90611854565b9190505550505050505050565b60008082815481106107205761071f6113d8565b5b9060005260206000209060050201905080600301543414610776576040517f08c379a000000000000000000000000000000000000000000000000000000000815260040161076d906118e8565b60405180910390fd5b60008160040154116107bd576040517f08c379a00000000000000000000000000000000000000000000000000000000081526004016107b490611954565b60405180910390fd5b8060040160008154809291906107d290611974565b9190505550600160405180608001604052808360010180546107f3906114a2565b80601f016020809104026020016040519081016040528092919081815260200182805461081f906114a2565b801561086c5780601f106108415761010080835404028352916020019161086c565b820191906000526020600020905b81548152906001019060200180831161084f57829003601f168201915b505050505081526020013373ffffffffffffffffffffffffffffffffffffffff168152602001428152602001600060018111156108ac576108ab610f82565b5b815250908060018154018082558091505060019003906000526020600020906004020160009091909190915060008201518160000190816108ed9190611753565b5060208201518160010160006101000a81548173ffffffffffffffffffffffffffffffffffffffff021916908373ffffffffffffffffffffffffffffffffffffffff1602179055506040820151816002015560608201518160030160006101000a81548160ff0219169083600181111561096a57610969610f82565b5b02179055505050423373ffffffffffffffffffffffffffffffffffffffff168260010160405161099a9190611576565b60405180910390207fe42b480ee660a78470e1b85e3dd92f3d137f19f9e17ff60a9151f87c1a3e2c9e60405160405180910390a45050565b600081815481106109e257600080fd5b9060005260206000209060050201600091509050806000015490806001018054610a0b906114a2565b80601f0160208091040260200160405190810160405280929190818152602001828054610a37906114a2565b8015610a845780601f10610a5957610100808354040283529160200191610a84565b820191906000526020600020905b815481529060010190602001808311610a6757829003601f168201915b505050505090806002018054610a99906114a2565b80601f0160208091040260200160405190810160405280929190818152602001828054610ac5906114a2565b8015610b125780601f10610ae757610100808354040283529160200191610b12565b820191906000526020600020905b815481529060010190602001808311610af557829003601f168201915b5050505050908060030154908060040154905085565b60606000808054905067ffffffffffffffff811115610b4a57610b4961158d565b5b604051908082528060200260200182016040528015610b8357816020015b610b70610d3e565b815260200190600190039081610b685790505b50905060005b600080549050811015610d365760008181548110610baa57610ba96113d8565b5b90600052602060002090600502016040518060a001604052908160008201548152602001600182018054610bdd906114a2565b80601f0160208091040260200160405190810160405280929190818152602001828054610c09906114a2565b8015610c565780601f10610c2b57610100808354040283529160200191610c56565b820191906000526020600020905b815481529060010190602001808311610c3957829003601f168201915b50505050508152602001600282018054610c6f906114a2565b80601f0160208091040260200160405190810160405280929190818152602001828054610c9b906114a2565b8015610ce85780601f10610cbd57610100808354040283529160200191610ce8565b820191906000526020600020905b815481529060010190602001808311610ccb57829003601f168201915b5050505050815260200160038201548152602001600482015481525050828281518110610d1857610d176113d8565b5b60200260200101819052508080610d2e90611854565b915050610b89565b508091505090565b6040518060a0016040528060008152602001606081526020016060815260200160008152602001600081525090565b600082825260208201905092915050565b7f506c656173652075736520746865206275792066756e6374696f6e20746f207060008201527f7572636861736520616c62756d73210000000000000000000000000000000000602082015250565b6000610dda602f83610d6d565b9150610de582610d7e565b604082019050919050565b60006020820190508181036000830152610e0981610dcd565b9050919050565b6000819050919050565b610e2381610e10565b82525050565b6000602082019050610e3e6000830184610e1a565b92915050565b600080fd5b600080fd5b610e5781610e10565b8114610e6257600080fd5b50565b600081359050610e7481610e4e565b92915050565b600060208284031215610e9057610e8f610e44565b5b6000610e9e84828501610e65565b91505092915050565b600073ffffffffffffffffffffffffffffffffffffffff82169050919050565b6000610ed282610ea7565b9050919050565b610ee281610ec7565b82525050565b6000602082019050610efd6000830184610ed9565b92915050565b600081519050919050565b60005b83811015610f2c578082015181840152602081019050610f11565b60008484015250505050565b6000601f19601f8301169050919050565b6000610f5482610f03565b610f5e8185610d6d565b9350610f6e818560208601610f0e565b610f7781610f38565b840191505092915050565b7f4e487b7100000000000000000000000000000000000000000000000000000000600052602160045260246000fd5b60028110610fc257610fc1610f82565b5b50565b6000819050610fd382610fb1565b919050565b6000610fe382610fc5565b9050919050565b610ff381610fd8565b82525050565b600060808201905081810360008301526110138187610f49565b90506110226020830186610ed9565b61102f6040830185610e1a565b61103c6060830184610fea565b95945050505050565b600080fd5b600080fd5b600080fd5b60008083601f84011261106a57611069611045565b5b8235905067ffffffffffffffff8111156110875761108661104a565b5b6020830191508360018202830111156110a3576110a261104f565b5b9250929050565b600080600080600080608087890312156110c7576110c6610e44565b5b600087013567ffffffffffffffff8111156110e5576110e4610e49565b5b6110f189828a01611054565b9650965050602087013567ffffffffffffffff81111561111457611113610e49565b5b61112089828a01611054565b9450945050604061113389828a01610e65565b925050606061114489828a01610e65565b9150509295509295509295565b600060a0820190506111666000830188610e1a565b81810360208301526111788187610f49565b9050818103604083015261118c8186610f49565b905061119b6060830185610e1a565b6111a86080830184610e1a565b9695505050505050565b600081519050919050565b600082825260208201905092915050565b6000819050602082019050919050565b6111e781610e10565b82525050565b600082825260208201905092915050565b600061120982610f03565b61121381856111ed565b9350611223818560208601610f0e565b61122c81610f38565b840191505092915050565b600060a08301600083015161124f60008601826111de565b506020830151848203602086015261126782826111fe565b9150506040830151848203604086015261128182826111fe565b915050606083015161129660608601826111de565b5060808301516112a960808601826111de565b508091505092915050565b60006112c08383611237565b905092915050565b6000602082019050919050565b60006112e0826111b2565b6112ea81856111bd565b9350836020820285016112fc856111ce565b8060005b85811015611338578484038952815161131985826112b4565b9450611324836112c8565b925060208a01995050600181019050611300565b50829750879550505050505092915050565b6000602082019050818103600083015261136481846112d5565b905092915050565b7f4e6f7420616e206f776e65722100000000000000000000000000000000000000600082015250565b60006113a2600d83610d6d565b91506113ad8261136c565b602082019050919050565b600060208201905081810360008301526113d181611395565b9050919050565b7f4e487b7100000000000000000000000000000000000000000000000000000000600052603260045260246000fd5b7f696e76616c696420737461747573000000000000000000000000000000000000600082015250565b600061143d600e83610d6d565b915061144882611407565b602082019050919050565b6000602082019050818103600083015261146c81611430565b9050919050565b7f4e487b7100000000000000000000000000000000000000000000000000000000600052602260045260246000fd5b600060028204905060018216806114ba57607f821691505b6020821081036114cd576114cc611473565b5b50919050565b600081905092915050565b60008190508160005260206000209050919050565b60008154611500816114a2565b61150a81866114d3565b94506001821660008114611525576001811461153a5761156d565b60ff198316865281151582028601935061156d565b611543856114de565b60005b8381101561156557815481890152600182019150602081019050611546565b838801955050505b50505092915050565b600061158282846114f3565b915081905092915050565b7f4e487b7100000000000000000000000000000000000000000000000000000000600052604160045260246000fd5b60006020601f8301049050919050565b600082821b905092915050565b6000600883026116097fffffffffffffffffffffffffffffffffffffffffffffffffffffffffffffffff826115cc565b61161386836115cc565b95508019841693508086168417925050509392505050565b6000819050919050565b600061165061164b61164684610e10565b61162b565b610e10565b9050919050565b6000819050919050565b61166a83611635565b61167e61167682611657565b8484546115d9565b825550505050565b600090565b611693611686565b61169e818484611661565b505050565b5b818110156116c2576116b760008261168b565b6001810190506116a4565b5050565b601f821115611707576116d8816114de565b6116e1846115bc565b810160208510156116f0578190505b6117046116fc856115bc565b8301826116a3565b50505b505050565b600082821c905092915050565b600061172a6000198460080261170c565b1980831691505092915050565b60006117438383611719565b9150826002028217905092915050565b61175c82610f03565b67ffffffffffffffff8111156117755761177461158d565b5b61177f82546114a2565b61178a8282856116c6565b600060209050601f8311600181146117bd57600084156117ab578287015190505b6117b58582611737565b86555061181d565b601f1984166117cb866114de565b60005b828110156117f3578489015182556001820191506020850194506020810190506117ce565b86831015611810578489015161180c601f891682611719565b8355505b6001600288020188555050505b505050505050565b7f4e487b7100000000000000000000000000000000000000000000000000000000600052601160045260246000fd5b600061185f82610e10565b91507fffffffffffffffffffffffffffffffffffffffffffffffffffffffffffffffff820361189157611890611825565b5b600182019050919050565b7f696e76616c696420707269636500000000000000000000000000000000000000600082015250565b60006118d2600d83610d6d565b91506118dd8261189c565b602082019050919050565b60006020820190508181036000830152611901816118c5565b9050919050565b7f6f7574206f662073746f636b0000000000000000000000000000000000000000600082015250565b600061193e600c83610d6d565b915061194982611908565b602082019050919050565b6000602082019050818103600083015261196d81611931565b9050919050565b600061197f82610e10565b91506000820361199257611991611825565b5b60018203905091905056fea2646970667358221220cd5d9bb2792ae1048ea7593470f91d44e17ef8052b6f484fb0f3d67f2214f15864736f6c63430008110033",
  "devdoc": {
    "kind": "dev",
    "methods": {},
    "version": 1
  },
  "userdoc": {
    "kind": "user",
    "methods": {},
    "version": 1
  },
  "storageLayout": {
    "storage": [
      {
        "astId": 29,
        "contract": "contracts/MusicStore.sol:MusicStore",
        "label": "albums",
        "offset": 0,
        "slot": "0",
        "type": "t_array(t_struct(Album)12_storage)dyn_storage"
      },
      {
        "astId": 33,
        "contract": "contracts/MusicStore.sol:MusicStore",
        "label": "orders",
        "offset": 0,
        "slot": "1",
        "type": "t_array(t_struct(Order)22_storage)dyn_storage"
      },
      {
        "astId": 35,
        "contract": "contracts/MusicStore.sol:MusicStore",
        "label": "owner",
        "offset": 0,
        "slot": "2",
        "type": "t_address"
      },
      {
        "astId": 37,
        "contract": "contracts/MusicStore.sol:MusicStore",
        "label": "currentIndex",
        "offset": 0,
        "slot": "3",
        "type": "t_uint256"
      }
    ],
    "types": {
      "t_address": {
        "encoding": "inplace",
        "label": "address",
        "numberOfBytes": "20"
      },
      "t_array(t_struct(Album)12_storage)dyn_storage": {
        "base": "t_struct(Album)12_storage",
        "encoding": "dynamic_array",
        "label": "struct MusicStore.Album[]",
        "numberOfBytes": "32"
      },
      "t_array(t_struct(Order)22_storage)dyn_storage": {
        "base": "t_struct(Order)22_storage",
        "encoding": "dynamic_array",
        "label": "struct MusicStore.Order[]",
        "numberOfBytes": "32"
      },
      "t_enum(OrderStatus)25": {
        "encoding": "inplace",
        "label": "enum MusicStore.OrderStatus",
        "numberOfBytes": "1"
      },
      "t_string_storage": {
        "encoding": "bytes",
        "label": "string",
        "numberOfBytes": "32"
      },
      "t_struct(Album)12_storage": {
        "encoding": "inplace",
        "label": "struct MusicStore.Album",
        "members": [
          {
            "astId": 3,
            "contract": "contracts/MusicStore.sol:MusicStore",
            "label": "index",
            "offset": 0,
            "slot": "0",
            "type": "t_uint256"
          },
          {
            "astId": 5,
            "contract": "contracts/MusicStore.sol:MusicStore",
            "label": "uid",
            "offset": 0,
            "slot": "1",
            "type": "t_string_storage"
          },
          {
            "astId": 7,
            "contract": "contracts/MusicStore.sol:MusicStore",
            "label": "title",
            "offset": 0,
            "slot": "2",
            "type": "t_string_storage"
          },
          {
            "astId": 9,
            "contract": "contracts/MusicStore.sol:MusicStore",
            "label": "price",
            "offset": 0,
            "slot": "3",
            "type": "t_uint256"
          },
          {
            "astId": 11,
            "contract": "contracts/MusicStore.sol:MusicStore",
            "label": "quantity",
            "offset": 0,
            "slot": "4",
            "type": "t_uint256"
          }
        ],
        "numberOfBytes": "160"
      },
      "t_struct(Order)22_storage": {
        "encoding": "inplace",
        "label": "struct MusicStore.Order",
        "members": [
          {
            "astId": 14,
            "contract": "contracts/MusicStore.sol:MusicStore",
            "label": "albumUid",
            "offset": 0,
            "slot": "0",
            "type": "t_string_storage"
          },
          {
            "astId": 16,
            "contract": "contracts/MusicStore.sol:MusicStore",
            "label": "customer",
            "offset": 0,
            "slot": "1",
            "type": "t_address"
          },
          {
            "astId": 18,
            "contract": "contracts/MusicStore.sol:MusicStore",
            "label": "orderAt",
            "offset": 0,
            "slot": "2",
            "type": "t_uint256"
          },
          {
            "astId": 21,
            "contract": "contracts/MusicStore.sol:MusicStore",
            "label": "status",
            "offset": 0,
            "slot": "3",
            "type": "t_enum(OrderStatus)25"
          }
        ],
        "numberOfBytes": "128"
      },
      "t_uint256": {
        "encoding": "inplace",
        "label": "uint256",
        "numberOfBytes": "32"
      }
    }
  }
}