{
	"contracts/MusicStore.sol": {
		"MusicStore": {
			"abi": [
				{
					"inputs": [],
					"stateMutability": "nonpayable",
					"type": "constructor"
				},
				{
					"inputs": [
						{
							"internalType": "string",
							"name": "uid",
							"type": "string"
						},
						{
							"internalType": "string",
							"name": "title",
							"type": "string"
						},
						{
							"internalType": "uint256",
							"name": "price",
							"type": "uint256"
						},
						{
							"internalType": "uint256",
							"name": "quantity",
							"type": "uint256"
						}
					],
					"name": "addAlbum",
					"outputs": [],
					"stateMutability": "nonpayable",
					"type": "function"
				},
				{
					"inputs": [
						{
							"internalType": "uint256",
							"name": "",
							"type": "uint256"
						}
					],
					"name": "albums",
					"outputs": [
						{
							"internalType": "uint256",
							"name": "index",
							"type": "uint256"
						},
						{
							"internalType": "string",
							"name": "uid",
							"type": "string"
						},
						{
							"internalType": "string",
							"name": "title",
							"type": "string"
						},
						{
							"internalType": "uint256",
							"name": "price",
							"type": "uint256"
						},
						{
							"internalType": "uint256",
							"name": "quantity",
							"type": "uint256"
						}
					],
					"stateMutability": "view",
					"type": "function"
				},
				{
					"inputs": [],
					"name": "allAlbums",
					"outputs": [
						{
							"components": [
								{
									"internalType": "uint256",
									"name": "index",
									"type": "uint256"
								},
								{
									"internalType": "string",
									"name": "uid",
									"type": "string"
								},
								{
									"internalType": "string",
									"name": "title",
									"type": "string"
								},
								{
									"internalType": "uint256",
									"name": "price",
									"type": "uint256"
								},
								{
									"internalType": "uint256",
									"name": "quantity",
									"type": "uint256"
								}
							],
							"internalType": "struct MusicStore.Album[]",
							"name": "",
							"type": "tuple[]"
						}
					],
					"stateMutability": "view",
					"type": "function"
				},
				{
					"inputs": [],
					"name": "buy",
					"outputs": [],
					"stateMutability": "payable",
					"type": "function"
				},
				{
					"inputs": [
						{
							"internalType": "uint256",
							"name": "",
							"type": "uint256"
						}
					],
					"name": "orders",
					"outputs": [
						{
							"internalType": "string",
							"name": "albumUid",
							"type": "string"
						},
						{
							"internalType": "address",
							"name": "customer",
							"type": "address"
						},
						{
							"internalType": "uint256",
							"name": "orderAt",
							"type": "uint256"
						},
						{
							"internalType": "enum MusicStore.OrderStatus",
							"name": "status",
							"type": "uint8"
						}
					],
					"stateMutability": "view",
					"type": "function"
				},
				{
					"inputs": [],
					"name": "owner",
					"outputs": [
						{
							"internalType": "address",
							"name": "",
							"type": "address"
						}
					],
					"stateMutability": "view",
					"type": "function"
				}
			],
			"devdoc": {
				"kind": "dev",
				"methods": {},
				"version": 1
			},
			"evm": {
				"assembly": "    /* \"contracts/MusicStore.sol\":57:1343  contract MusicStore {... */\n  mstore(0x40, 0x80)\n    /* \"contracts/MusicStore.sol\":588:638  constructor() {... */\n  callvalue\n  dup1\n  iszero\n  tag_1\n  jumpi\n  0x00\n  dup1\n  revert\ntag_1:\n  pop\n    /* \"contracts/MusicStore.sol\":621:631  msg.sender */\n  caller\n    /* \"contracts/MusicStore.sol\":612:631  owner == msg.sender */\n  0xffffffffffffffffffffffffffffffffffffffff\n  and\n    /* \"contracts/MusicStore.sol\":612:617  owner */\n  0x02\n  0x00\n  swap1\n  sload\n  swap1\n  0x0100\n  exp\n  swap1\n  pop\n  pop\n    /* \"contracts/MusicStore.sol\":612:631  owner == msg.sender */\n  pop\n    /* \"contracts/MusicStore.sol\":57:1343  contract MusicStore {... */\n  dataSize(sub_0)\n  dup1\n  dataOffset(sub_0)\n  0x00\n  codecopy\n  0x00\n  return\nstop\n\nsub_0: assembly {\n        /* \"contracts/MusicStore.sol\":57:1343  contract MusicStore {... */\n      mstore(0x40, 0x80)\n      jumpi(tag_1, lt(calldatasize, 0x04))\n      shr(0xe0, calldataload(0x00))\n      dup1\n      0x8da5cb5b\n      eq\n      tag_2\n      jumpi\n      dup1\n      0xa6f2ae3a\n      eq\n      tag_3\n      jumpi\n      dup1\n      0xa85c38ef\n      eq\n      tag_4\n      jumpi\n      dup1\n      0xc557f979\n      eq\n      tag_5\n      jumpi\n      dup1\n      0xea5df059\n      eq\n      tag_6\n      jumpi\n      dup1\n      0xec34297a\n      eq\n      tag_7\n      jumpi\n    tag_1:\n      0x00\n      dup1\n      revert\n        /* \"contracts/MusicStore.sol\":438:458  address public owner */\n    tag_2:\n      callvalue\n      dup1\n      iszero\n      tag_8\n      jumpi\n      0x00\n      dup1\n      revert\n    tag_8:\n      pop\n      tag_9\n      tag_10\n      jump\t// in\n    tag_9:\n      mload(0x40)\n      tag_11\n      swap2\n      swap1\n      tag_12\n      jump\t// in\n    tag_11:\n      mload(0x40)\n      dup1\n      swap2\n      sub\n      swap1\n      return\n        /* \"contracts/MusicStore.sol\":1037:1077  function buy() external payable {... */\n    tag_3:\n      tag_13\n      tag_14\n      jump\t// in\n    tag_13:\n      stop\n        /* \"contracts/MusicStore.sol\":410:431  Order[] public orders */\n    tag_4:\n      callvalue\n      dup1\n      iszero\n      tag_15\n      jumpi\n      0x00\n      dup1\n      revert\n    tag_15:\n      pop\n      tag_16\n      0x04\n      dup1\n      calldatasize\n      sub\n      dup2\n      add\n      swap1\n      tag_17\n      swap2\n      swap1\n      tag_18\n      jump\t// in\n    tag_17:\n      tag_19\n      jump\t// in\n    tag_16:\n      mload(0x40)\n      tag_20\n      swap5\n      swap4\n      swap3\n      swap2\n      swap1\n      tag_21\n      jump\t// in\n    tag_20:\n      mload(0x40)\n      dup1\n      swap2\n      sub\n      swap1\n      return\n        /* \"contracts/MusicStore.sol\":644:1031  function addAlbum(... */\n    tag_5:\n      callvalue\n      dup1\n      iszero\n      tag_22\n      jumpi\n      0x00\n      dup1\n      revert\n    tag_22:\n      pop\n      tag_23\n      0x04\n      dup1\n      calldatasize\n      sub\n      dup2\n      add\n      swap1\n      tag_24\n      swap2\n      swap1\n      tag_25\n      jump\t// in\n    tag_24:\n      tag_26\n      jump\t// in\n    tag_23:\n      stop\n        /* \"contracts/MusicStore.sol\":383:404  Album[] public albums */\n    tag_6:\n      callvalue\n      dup1\n      iszero\n      tag_27\n      jumpi\n      0x00\n      dup1\n      revert\n    tag_27:\n      pop\n      tag_28\n      0x04\n      dup1\n      calldatasize\n      sub\n      dup2\n      add\n      swap1\n      tag_29\n      swap2\n      swap1\n      tag_18\n      jump\t// in\n    tag_29:\n      tag_30\n      jump\t// in\n    tag_28:\n      mload(0x40)\n      tag_31\n      swap6\n      swap5\n      swap4\n      swap3\n      swap2\n      swap1\n      tag_32\n      jump\t// in\n    tag_31:\n      mload(0x40)\n      dup1\n      swap2\n      sub\n      swap1\n      return\n        /* \"contracts/MusicStore.sol\":1083:1341  function allAlbums() external view returns(Album[] memory) {... */\n    tag_7:\n      callvalue\n      dup1\n      iszero\n      tag_33\n      jumpi\n      0x00\n      dup1\n      revert\n    tag_33:\n      pop\n      tag_34\n      tag_35\n      jump\t// in\n    tag_34:\n      mload(0x40)\n      tag_36\n      swap2\n      swap1\n      tag_37\n      jump\t// in\n    tag_36:\n      mload(0x40)\n      dup1\n      swap2\n      sub\n      swap1\n      return\n        /* \"contracts/MusicStore.sol\":438:458  address public owner */\n    tag_10:\n      0x02\n      0x00\n      swap1\n      sload\n      swap1\n      0x0100\n      exp\n      swap1\n      div\n      0xffffffffffffffffffffffffffffffffffffffff\n      and\n      dup2\n      jump\t// out\n        /* \"contracts/MusicStore.sol\":1037:1077  function buy() external payable {... */\n    tag_14:\n      jump\t// out\n        /* \"contracts/MusicStore.sol\":410:431  Order[] public orders */\n    tag_19:\n      0x01\n      dup2\n      dup2\n      sload\n      dup2\n      lt\n      tag_39\n      jumpi\n      0x00\n      dup1\n      revert\n    tag_39:\n      swap1\n      0x00\n      mstore\n      keccak256(0x00, 0x20)\n      swap1\n      0x04\n      mul\n      add\n      0x00\n      swap2\n      pop\n      swap1\n      pop\n      dup1\n      0x00\n      add\n      dup1\n      sload\n      tag_41\n      swap1\n      tag_42\n      jump\t// in\n    tag_41:\n      dup1\n      0x1f\n      add\n      0x20\n      dup1\n      swap2\n      div\n      mul\n      0x20\n      add\n      mload(0x40)\n      swap1\n      dup2\n      add\n      0x40\n      mstore\n      dup1\n      swap3\n      swap2\n      swap1\n      dup2\n      dup2\n      mstore\n      0x20\n      add\n      dup3\n      dup1\n      sload\n      tag_43\n      swap1\n      tag_42\n      jump\t// in\n    tag_43:\n      dup1\n      iszero\n      tag_44\n      jumpi\n      dup1\n      0x1f\n      lt\n      tag_45\n      jumpi\n      0x0100\n      dup1\n      dup4\n      sload\n      div\n      mul\n      dup4\n      mstore\n      swap2\n      0x20\n      add\n      swap2\n      jump(tag_44)\n    tag_45:\n      dup3\n      add\n      swap2\n      swap1\n      0x00\n      mstore\n      keccak256(0x00, 0x20)\n      swap1\n    tag_46:\n      dup2\n      sload\n      dup2\n      mstore\n      swap1\n      0x01\n      add\n      swap1\n      0x20\n      add\n      dup1\n      dup4\n      gt\n      tag_46\n      jumpi\n      dup3\n      swap1\n      sub\n      0x1f\n      and\n      dup3\n      add\n      swap2\n    tag_44:\n      pop\n      pop\n      pop\n      pop\n      pop\n      swap1\n      dup1\n      0x01\n      add\n      0x00\n      swap1\n      sload\n      swap1\n      0x0100\n      exp\n      swap1\n      div\n      0xffffffffffffffffffffffffffffffffffffffff\n      and\n      swap1\n      dup1\n      0x02\n      add\n      sload\n      swap1\n      dup1\n      0x03\n      add\n      0x00\n      swap1\n      sload\n      swap1\n      0x0100\n      exp\n      swap1\n      div\n      0xff\n      and\n      swap1\n      pop\n      dup5\n      jump\t// out\n        /* \"contracts/MusicStore.sol\":644:1031  function addAlbum(... */\n    tag_26:\n        /* \"contracts/MusicStore.sol\":536:546  msg.sender */\n      caller\n        /* \"contracts/MusicStore.sol\":527:546  owner == msg.sender */\n      0xffffffffffffffffffffffffffffffffffffffff\n      and\n        /* \"contracts/MusicStore.sol\":527:532  owner */\n      0x02\n      0x00\n      swap1\n      sload\n      swap1\n      0x0100\n      exp\n      swap1\n      div\n      0xffffffffffffffffffffffffffffffffffffffff\n      and\n        /* \"contracts/MusicStore.sol\":527:546  owner == msg.sender */\n      0xffffffffffffffffffffffffffffffffffffffff\n      and\n      eq\n        /* \"contracts/MusicStore.sol\":519:564  require(owner == msg.sender, \"Not an owner!\") */\n      tag_48\n      jumpi\n      mload(0x40)\n      0x08c379a000000000000000000000000000000000000000000000000000000000\n      dup2\n      mstore\n      0x04\n      add\n      tag_49\n      swap1\n      tag_50\n      jump\t// in\n    tag_49:\n      mload(0x40)\n      dup1\n      swap2\n      sub\n      swap1\n      revert\n    tag_48:\n        /* \"contracts/MusicStore.sol\":802:808  albums */\n      0x00\n        /* \"contracts/MusicStore.sol\":814:994  Album({... */\n      mload(0x40)\n      dup1\n      0xa0\n      add\n      0x40\n      mstore\n      dup1\n        /* \"contracts/MusicStore.sol\":845:857  currentIndex */\n      sload(0x03)\n        /* \"contracts/MusicStore.sol\":814:994  Album({... */\n      dup2\n      mstore\n      0x20\n      add\n        /* \"contracts/MusicStore.sol\":880:883  uid */\n      dup9\n      dup9\n        /* \"contracts/MusicStore.sol\":814:994  Album({... */\n      dup1\n      dup1\n      0x1f\n      add\n      0x20\n      dup1\n      swap2\n      div\n      mul\n      0x20\n      add\n      mload(0x40)\n      swap1\n      dup2\n      add\n      0x40\n      mstore\n      dup1\n      swap4\n      swap3\n      swap2\n      swap1\n      dup2\n      dup2\n      mstore\n      0x20\n      add\n      dup4\n      dup4\n      dup1\n      dup3\n      dup5\n      calldatacopy\n      0x00\n      dup2\n      dup5\n      add\n      mstore\n      not(0x1f)\n      0x1f\n      dup3\n      add\n      and\n      swap1\n      pop\n      dup1\n      dup4\n      add\n      swap3\n      pop\n      pop\n      pop\n      pop\n      pop\n      pop\n      pop\n      dup2\n      mstore\n      0x20\n      add\n        /* \"contracts/MusicStore.sol\":908:913  title */\n      dup7\n      dup7\n        /* \"contracts/MusicStore.sol\":814:994  Album({... */\n      dup1\n      dup1\n      0x1f\n      add\n      0x20\n      dup1\n      swap2\n      div\n      mul\n      0x20\n      add\n      mload(0x40)\n      swap1\n      dup2\n      add\n      0x40\n      mstore\n      dup1\n      swap4\n      swap3\n      swap2\n      swap1\n      dup2\n      dup2\n      mstore\n      0x20\n      add\n      dup4\n      dup4\n      dup1\n      dup3\n      dup5\n      calldatacopy\n      0x00\n      dup2\n      dup5\n      add\n      mstore\n      not(0x1f)\n      0x1f\n      dup3\n      add\n      and\n      swap1\n      pop\n      dup1\n      dup4\n      add\n      swap3\n      pop\n      pop\n      pop\n      pop\n      pop\n      pop\n      pop\n      dup2\n      mstore\n      0x20\n      add\n        /* \"contracts/MusicStore.sol\":938:943  price */\n      dup5\n        /* \"contracts/MusicStore.sol\":814:994  Album({... */\n      dup2\n      mstore\n      0x20\n      add\n        /* \"contracts/MusicStore.sol\":971:979  quantity */\n      dup4\n        /* \"contracts/MusicStore.sol\":814:994  Album({... */\n      dup2\n      mstore\n      pop\n        /* \"contracts/MusicStore.sol\":802:995  albums.push(Album({... */\n      swap1\n      dup1\n      0x01\n      dup2\n      sload\n      add\n      dup1\n      dup3\n      sstore\n      dup1\n      swap2\n      pop\n      pop\n      0x01\n      swap1\n      sub\n      swap1\n      0x00\n      mstore\n      keccak256(0x00, 0x20)\n      swap1\n      0x05\n      mul\n      add\n      0x00\n      swap1\n      swap2\n      swap1\n      swap2\n      swap1\n      swap2\n      pop\n      0x00\n      dup3\n      add\n      mload\n      dup2\n      0x00\n      add\n      sstore\n      0x20\n      dup3\n      add\n      mload\n      dup2\n      0x01\n      add\n      swap1\n      dup1\n      mload\n      swap1\n      0x20\n      add\n      swap1\n      tag_53\n      swap3\n      swap2\n      swap1\n      tag_54\n      jump\t// in\n    tag_53:\n      pop\n      0x40\n      dup3\n      add\n      mload\n      dup2\n      0x02\n      add\n      swap1\n      dup1\n      mload\n      swap1\n      0x20\n      add\n      swap1\n      tag_55\n      swap3\n      swap2\n      swap1\n      tag_54\n      jump\t// in\n    tag_55:\n      pop\n      0x60\n      dup3\n      add\n      mload\n      dup2\n      0x03\n      add\n      sstore\n      0x80\n      dup3\n      add\n      mload\n      dup2\n      0x04\n      add\n      sstore\n      pop\n      pop\n        /* \"contracts/MusicStore.sol\":1010:1022  currentIndex */\n      0x03\n      0x00\n        /* \"contracts/MusicStore.sol\":1010:1024  currentIndex++ */\n      dup2\n      sload\n      dup1\n      swap3\n      swap2\n      swap1\n      tag_56\n      swap1\n      tag_57\n      jump\t// in\n    tag_56:\n      swap2\n      swap1\n      pop\n      sstore\n      pop\n        /* \"contracts/MusicStore.sol\":644:1031  function addAlbum(... */\n      pop\n      pop\n      pop\n      pop\n      pop\n      pop\n      jump\t// out\n        /* \"contracts/MusicStore.sol\":383:404  Album[] public albums */\n    tag_30:\n      0x00\n      dup2\n      dup2\n      sload\n      dup2\n      lt\n      tag_58\n      jumpi\n      0x00\n      dup1\n      revert\n    tag_58:\n      swap1\n      0x00\n      mstore\n      keccak256(0x00, 0x20)\n      swap1\n      0x05\n      mul\n      add\n      0x00\n      swap2\n      pop\n      swap1\n      pop\n      dup1\n      0x00\n      add\n      sload\n      swap1\n      dup1\n      0x01\n      add\n      dup1\n      sload\n      tag_60\n      swap1\n      tag_42\n      jump\t// in\n    tag_60:\n      dup1\n      0x1f\n      add\n      0x20\n      dup1\n      swap2\n      div\n      mul\n      0x20\n      add\n      mload(0x40)\n      swap1\n      dup2\n      add\n      0x40\n      mstore\n      dup1\n      swap3\n      swap2\n      swap1\n      dup2\n      dup2\n      mstore\n      0x20\n      add\n      dup3\n      dup1\n      sload\n      tag_61\n      swap1\n      tag_42\n      jump\t// in\n    tag_61:\n      dup1\n      iszero\n      tag_62\n      jumpi\n      dup1\n      0x1f\n      lt\n      tag_63\n      jumpi\n      0x0100\n      dup1\n      dup4\n      sload\n      div\n      mul\n      dup4\n      mstore\n      swap2\n      0x20\n      add\n      swap2\n      jump(tag_62)\n    tag_63:\n      dup3\n      add\n      swap2\n      swap1\n      0x00\n      mstore\n      keccak256(0x00, 0x20)\n      swap1\n    tag_64:\n      dup2\n      sload\n      dup2\n      mstore\n      swap1\n      0x01\n      add\n      swap1\n      0x20\n      add\n      dup1\n      dup4\n      gt\n      tag_64\n      jumpi\n      dup3\n      swap1\n      sub\n      0x1f\n      and\n      dup3\n      add\n      swap2\n    tag_62:\n      pop\n      pop\n      pop\n      pop\n      pop\n      swap1\n      dup1\n      0x02\n      add\n      dup1\n      sload\n      tag_65\n      swap1\n      tag_42\n      jump\t// in\n    tag_65:\n      dup1\n      0x1f\n      add\n      0x20\n      dup1\n      swap2\n      div\n      mul\n      0x20\n      add\n      mload(0x40)\n      swap1\n      dup2\n      add\n      0x40\n      mstore\n      dup1\n      swap3\n      swap2\n      swap1\n      dup2\n      dup2\n      mstore\n      0x20\n      add\n      dup3\n      dup1\n      sload\n      tag_66\n      swap1\n      tag_42\n      jump\t// in\n    tag_66:\n      dup1\n      iszero\n      tag_67\n      jumpi\n      dup1\n      0x1f\n      lt\n      tag_68\n      jumpi\n      0x0100\n      dup1\n      dup4\n      sload\n      div\n      mul\n      dup4\n      mstore\n      swap2\n      0x20\n      add\n      swap2\n      jump(tag_67)\n    tag_68:\n      dup3\n      add\n      swap2\n      swap1\n      0x00\n      mstore\n      keccak256(0x00, 0x20)\n      swap1\n    tag_69:\n      dup2\n      sload\n      dup2\n      mstore\n      swap1\n      0x01\n      add\n      swap1\n      0x20\n      add\n      dup1\n      dup4\n      gt\n      tag_69\n      jumpi\n      dup3\n      swap1\n      sub\n      0x1f\n      and\n      dup3\n      add\n      swap2\n    tag_67:\n      pop\n      pop\n      pop\n      pop\n      pop\n      swap1\n      dup1\n      0x03\n      add\n      sload\n      swap1\n      dup1\n      0x04\n      add\n      sload\n      swap1\n      pop\n      dup6\n      jump\t// out\n        /* \"contracts/MusicStore.sol\":1083:1341  function allAlbums() external view returns(Album[] memory) {... */\n    tag_35:\n        /* \"contracts/MusicStore.sol\":1126:1140  Album[] memory */\n      0x60\n        /* \"contracts/MusicStore.sol\":1152:1177  Album[] memory albumsList */\n      0x00\n        /* \"contracts/MusicStore.sol\":1192:1198  albums */\n      dup1\n        /* \"contracts/MusicStore.sol\":1192:1205  albums.length */\n      dup1\n      sload\n      swap1\n      pop\n        /* \"contracts/MusicStore.sol\":1180:1206  new Album[](albums.length) */\n      0xffffffffffffffff\n      dup2\n      gt\n      iszero\n      tag_71\n      jumpi\n      tag_72\n      tag_73\n      jump\t// in\n    tag_72:\n    tag_71:\n      mload(0x40)\n      swap1\n      dup1\n      dup3\n      mstore\n      dup1\n      0x20\n      mul\n      0x20\n      add\n      dup3\n      add\n      0x40\n      mstore\n      dup1\n      iszero\n      tag_74\n      jumpi\n      dup2\n      0x20\n      add\n    tag_75:\n      tag_76\n      tag_77\n      jump\t// in\n    tag_76:\n      dup2\n      mstore\n      0x20\n      add\n      swap1\n      0x01\n      swap1\n      sub\n      swap1\n      dup2\n      tag_75\n      jumpi\n      swap1\n      pop\n    tag_74:\n      pop\n        /* \"contracts/MusicStore.sol\":1152:1206  Album[] memory albumsList = new Album[](albums.length) */\n      swap1\n      pop\n        /* \"contracts/MusicStore.sol\":1221:1227  uint i */\n      0x00\n        /* \"contracts/MusicStore.sol\":1217:1307  for(uint i = 0; i < albums.length; i++) {... */\n    tag_78:\n        /* \"contracts/MusicStore.sol\":1237:1243  albums */\n      0x00\n        /* \"contracts/MusicStore.sol\":1237:1250  albums.length */\n      dup1\n      sload\n      swap1\n      pop\n        /* \"contracts/MusicStore.sol\":1233:1234  i */\n      dup2\n        /* \"contracts/MusicStore.sol\":1233:1250  i < albums.length */\n      lt\n        /* \"contracts/MusicStore.sol\":1217:1307  for(uint i = 0; i < albums.length; i++) {... */\n      iszero\n      tag_79\n      jumpi\n        /* \"contracts/MusicStore.sol\":1287:1293  albums */\n      0x00\n        /* \"contracts/MusicStore.sol\":1294:1295  i */\n      dup2\n        /* \"contracts/MusicStore.sol\":1287:1296  albums[i] */\n      dup2\n      sload\n      dup2\n      lt\n      tag_81\n      jumpi\n      tag_82\n      tag_83\n      jump\t// in\n    tag_82:\n    tag_81:\n      swap1\n      0x00\n      mstore\n      keccak256(0x00, 0x20)\n      swap1\n      0x05\n      mul\n      add\n        /* \"contracts/MusicStore.sol\":1271:1296  albumsList[i] = albums[i] */\n      mload(0x40)\n      dup1\n      0xa0\n      add\n      0x40\n      mstore\n      swap1\n      dup2\n      0x00\n      dup3\n      add\n      sload\n      dup2\n      mstore\n      0x20\n      add\n      0x01\n      dup3\n      add\n      dup1\n      sload\n      tag_85\n      swap1\n      tag_42\n      jump\t// in\n    tag_85:\n      dup1\n      0x1f\n      add\n      0x20\n      dup1\n      swap2\n      div\n      mul\n      0x20\n      add\n      mload(0x40)\n      swap1\n      dup2\n      add\n      0x40\n      mstore\n      dup1\n      swap3\n      swap2\n      swap1\n      dup2\n      dup2\n      mstore\n      0x20\n      add\n      dup3\n      dup1\n      sload\n      tag_86\n      swap1\n      tag_42\n      jump\t// in\n    tag_86:\n      dup1\n      iszero\n      tag_87\n      jumpi\n      dup1\n      0x1f\n      lt\n      tag_88\n      jumpi\n      0x0100\n      dup1\n      dup4\n      sload\n      div\n      mul\n      dup4\n      mstore\n      swap2\n      0x20\n      add\n      swap2\n      jump(tag_87)\n    tag_88:\n      dup3\n      add\n      swap2\n      swap1\n      0x00\n      mstore\n      keccak256(0x00, 0x20)\n      swap1\n    tag_89:\n      dup2\n      sload\n      dup2\n      mstore\n      swap1\n      0x01\n      add\n      swap1\n      0x20\n      add\n      dup1\n      dup4\n      gt\n      tag_89\n      jumpi\n      dup3\n      swap1\n      sub\n      0x1f\n      and\n      dup3\n      add\n      swap2\n    tag_87:\n      pop\n      pop\n      pop\n      pop\n      pop\n      dup2\n      mstore\n      0x20\n      add\n      0x02\n      dup3\n      add\n      dup1\n      sload\n      tag_90\n      swap1\n      tag_42\n      jump\t// in\n    tag_90:\n      dup1\n      0x1f\n      add\n      0x20\n      dup1\n      swap2\n      div\n      mul\n      0x20\n      add\n      mload(0x40)\n      swap1\n      dup2\n      add\n      0x40\n      mstore\n      dup1\n      swap3\n      swap2\n      swap1\n      dup2\n      dup2\n      mstore\n      0x20\n      add\n      dup3\n      dup1\n      sload\n      tag_91\n      swap1\n      tag_42\n      jump\t// in\n    tag_91:\n      dup1\n      iszero\n      tag_92\n      jumpi\n      dup1\n      0x1f\n      lt\n      tag_93\n      jumpi\n      0x0100\n      dup1\n      dup4\n      sload\n      div\n      mul\n      dup4\n      mstore\n      swap2\n      0x20\n      add\n      swap2\n      jump(tag_92)\n    tag_93:\n      dup3\n      add\n      swap2\n      swap1\n      0x00\n      mstore\n      keccak256(0x00, 0x20)\n      swap1\n    tag_94:\n      dup2\n      sload\n      dup2\n      mstore\n      swap1\n      0x01\n      add\n      swap1\n      0x20\n      add\n      dup1\n      dup4\n      gt\n      tag_94\n      jumpi\n      dup3\n      swap1\n      sub\n      0x1f\n      and\n      dup3\n      add\n      swap2\n    tag_92:\n      pop\n      pop\n      pop\n      pop\n      pop\n      dup2\n      mstore\n      0x20\n      add\n      0x03\n      dup3\n      add\n      sload\n      dup2\n      mstore\n      0x20\n      add\n      0x04\n      dup3\n      add\n      sload\n      dup2\n      mstore\n      pop\n      pop\n        /* \"contracts/MusicStore.sol\":1271:1281  albumsList */\n      dup3\n        /* \"contracts/MusicStore.sol\":1282:1283  i */\n      dup3\n        /* \"contracts/MusicStore.sol\":1271:1284  albumsList[i] */\n      dup2\n      mload\n      dup2\n      lt\n      tag_95\n      jumpi\n      tag_96\n      tag_83\n      jump\t// in\n    tag_96:\n    tag_95:\n      0x20\n      mul\n      0x20\n      add\n      add\n        /* \"contracts/MusicStore.sol\":1271:1296  albumsList[i] = albums[i] */\n      dup2\n      swap1\n      mstore\n      pop\n        /* \"contracts/MusicStore.sol\":1252:1255  i++ */\n      dup1\n      dup1\n      tag_97\n      swap1\n      tag_57\n      jump\t// in\n    tag_97:\n      swap2\n      pop\n      pop\n        /* \"contracts/MusicStore.sol\":1217:1307  for(uint i = 0; i < albums.length; i++) {... */\n      jump(tag_78)\n    tag_79:\n      pop\n        /* \"contracts/MusicStore.sol\":1324:1334  albumsList */\n      dup1\n        /* \"contracts/MusicStore.sol\":1317:1334  return albumsList */\n      swap2\n      pop\n      pop\n        /* \"contracts/MusicStore.sol\":1083:1341  function allAlbums() external view returns(Album[] memory) {... */\n      swap1\n      jump\t// out\n    tag_54:\n      dup3\n      dup1\n      sload\n      tag_98\n      swap1\n      tag_42\n      jump\t// in\n    tag_98:\n      swap1\n      0x00\n      mstore\n      keccak256(0x00, 0x20)\n      swap1\n      0x1f\n      add\n      0x20\n      swap1\n      div\n      dup2\n      add\n      swap3\n      dup3\n      tag_100\n      jumpi\n      0x00\n      dup6\n      sstore\n      jump(tag_99)\n    tag_100:\n      dup3\n      0x1f\n      lt\n      tag_101\n      jumpi\n      dup1\n      mload\n      not(0xff)\n      and\n      dup4\n      dup1\n      add\n      or\n      dup6\n      sstore\n      jump(tag_99)\n    tag_101:\n      dup3\n      dup1\n      add\n      0x01\n      add\n      dup6\n      sstore\n      dup3\n      iszero\n      tag_99\n      jumpi\n      swap2\n      dup3\n      add\n    tag_102:\n      dup3\n      dup2\n      gt\n      iszero\n      tag_103\n      jumpi\n      dup3\n      mload\n      dup3\n      sstore\n      swap2\n      0x20\n      add\n      swap2\n      swap1\n      0x01\n      add\n      swap1\n      jump(tag_102)\n    tag_103:\n    tag_99:\n      pop\n      swap1\n      pop\n      tag_104\n      swap2\n      swap1\n      tag_105\n      jump\t// in\n    tag_104:\n      pop\n      swap1\n      jump\t// out\n    tag_77:\n      mload(0x40)\n      dup1\n      0xa0\n      add\n      0x40\n      mstore\n      dup1\n      0x00\n      dup2\n      mstore\n      0x20\n      add\n      0x60\n      dup2\n      mstore\n      0x20\n      add\n      0x60\n      dup2\n      mstore\n      0x20\n      add\n      0x00\n      dup2\n      mstore\n      0x20\n      add\n      0x00\n      dup2\n      mstore\n      pop\n      swap1\n      jump\t// out\n    tag_105:\n    tag_106:\n      dup1\n      dup3\n      gt\n      iszero\n      tag_107\n      jumpi\n      0x00\n      dup2\n      0x00\n      swap1\n      sstore\n      pop\n      0x01\n      add\n      jump(tag_106)\n    tag_107:\n      pop\n      swap1\n      jump\t// out\n        /* \"#utility.yul\":21:574   */\n    tag_109:\n        /* \"#utility.yul\":79:87   */\n      0x00\n        /* \"#utility.yul\":89:95   */\n      dup1\n        /* \"#utility.yul\":139:142   */\n      dup4\n        /* \"#utility.yul\":132:136   */\n      0x1f\n        /* \"#utility.yul\":124:130   */\n      dup5\n        /* \"#utility.yul\":120:137   */\n      add\n        /* \"#utility.yul\":116:143   */\n      slt\n        /* \"#utility.yul\":106:228   */\n      tag_111\n      jumpi\n        /* \"#utility.yul\":147:226   */\n      tag_112\n      tag_113\n      jump\t// in\n    tag_112:\n        /* \"#utility.yul\":106:228   */\n    tag_111:\n        /* \"#utility.yul\":260:266   */\n      dup3\n        /* \"#utility.yul\":247:267   */\n      calldataload\n        /* \"#utility.yul\":237:267   */\n      swap1\n      pop\n        /* \"#utility.yul\":290:308   */\n      0xffffffffffffffff\n        /* \"#utility.yul\":282:288   */\n      dup2\n        /* \"#utility.yul\":279:309   */\n      gt\n        /* \"#utility.yul\":276:393   */\n      iszero\n      tag_114\n      jumpi\n        /* \"#utility.yul\":312:391   */\n      tag_115\n      tag_116\n      jump\t// in\n    tag_115:\n        /* \"#utility.yul\":276:393   */\n    tag_114:\n        /* \"#utility.yul\":426:430   */\n      0x20\n        /* \"#utility.yul\":418:424   */\n      dup4\n        /* \"#utility.yul\":414:431   */\n      add\n        /* \"#utility.yul\":402:431   */\n      swap2\n      pop\n        /* \"#utility.yul\":480:483   */\n      dup4\n        /* \"#utility.yul\":472:476   */\n      0x01\n        /* \"#utility.yul\":464:470   */\n      dup3\n        /* \"#utility.yul\":460:477   */\n      mul\n        /* \"#utility.yul\":450:458   */\n      dup4\n        /* \"#utility.yul\":446:478   */\n      add\n        /* \"#utility.yul\":443:484   */\n      gt\n        /* \"#utility.yul\":440:568   */\n      iszero\n      tag_117\n      jumpi\n        /* \"#utility.yul\":487:566   */\n      tag_118\n      tag_119\n      jump\t// in\n    tag_118:\n        /* \"#utility.yul\":440:568   */\n    tag_117:\n        /* \"#utility.yul\":21:574   */\n      swap3\n      pop\n      swap3\n      swap1\n      pop\n      jump\t// out\n        /* \"#utility.yul\":580:719   */\n    tag_120:\n        /* \"#utility.yul\":626:631   */\n      0x00\n        /* \"#utility.yul\":664:670   */\n      dup2\n        /* \"#utility.yul\":651:671   */\n      calldataload\n        /* \"#utility.yul\":642:671   */\n      swap1\n      pop\n        /* \"#utility.yul\":680:713   */\n      tag_122\n        /* \"#utility.yul\":707:712   */\n      dup2\n        /* \"#utility.yul\":680:713   */\n      tag_123\n      jump\t// in\n    tag_122:\n        /* \"#utility.yul\":580:719   */\n      swap3\n      swap2\n      pop\n      pop\n      jump\t// out\n        /* \"#utility.yul\":725:1890   */\n    tag_25:\n        /* \"#utility.yul\":835:841   */\n      0x00\n        /* \"#utility.yul\":843:849   */\n      dup1\n        /* \"#utility.yul\":851:857   */\n      0x00\n        /* \"#utility.yul\":859:865   */\n      dup1\n        /* \"#utility.yul\":867:873   */\n      0x00\n        /* \"#utility.yul\":875:881   */\n      dup1\n        /* \"#utility.yul\":924:927   */\n      0x80\n        /* \"#utility.yul\":912:921   */\n      dup8\n        /* \"#utility.yul\":903:910   */\n      dup10\n        /* \"#utility.yul\":899:922   */\n      sub\n        /* \"#utility.yul\":895:928   */\n      slt\n        /* \"#utility.yul\":892:1012   */\n      iszero\n      tag_125\n      jumpi\n        /* \"#utility.yul\":931:1010   */\n      tag_126\n      tag_127\n      jump\t// in\n    tag_126:\n        /* \"#utility.yul\":892:1012   */\n    tag_125:\n        /* \"#utility.yul\":1079:1080   */\n      0x00\n        /* \"#utility.yul\":1068:1077   */\n      dup8\n        /* \"#utility.yul\":1064:1081   */\n      add\n        /* \"#utility.yul\":1051:1082   */\n      calldataload\n        /* \"#utility.yul\":1109:1127   */\n      0xffffffffffffffff\n        /* \"#utility.yul\":1101:1107   */\n      dup2\n        /* \"#utility.yul\":1098:1128   */\n      gt\n        /* \"#utility.yul\":1095:1212   */\n      iszero\n      tag_128\n      jumpi\n        /* \"#utility.yul\":1131:1210   */\n      tag_129\n      tag_130\n      jump\t// in\n    tag_129:\n        /* \"#utility.yul\":1095:1212   */\n    tag_128:\n        /* \"#utility.yul\":1244:1309   */\n      tag_131\n        /* \"#utility.yul\":1301:1308   */\n      dup10\n        /* \"#utility.yul\":1292:1298   */\n      dup3\n        /* \"#utility.yul\":1281:1290   */\n      dup11\n        /* \"#utility.yul\":1277:1299   */\n      add\n        /* \"#utility.yul\":1244:1309   */\n      tag_109\n      jump\t// in\n    tag_131:\n        /* \"#utility.yul\":1226:1309   */\n      swap7\n      pop\n      swap7\n      pop\n        /* \"#utility.yul\":1022:1319   */\n      pop\n        /* \"#utility.yul\":1386:1388   */\n      0x20\n        /* \"#utility.yul\":1375:1384   */\n      dup8\n        /* \"#utility.yul\":1371:1389   */\n      add\n        /* \"#utility.yul\":1358:1390   */\n      calldataload\n        /* \"#utility.yul\":1417:1435   */\n      0xffffffffffffffff\n        /* \"#utility.yul\":1409:1415   */\n      dup2\n        /* \"#utility.yul\":1406:1436   */\n      gt\n        /* \"#utility.yul\":1403:1520   */\n      iszero\n      tag_132\n      jumpi\n        /* \"#utility.yul\":1439:1518   */\n      tag_133\n      tag_130\n      jump\t// in\n    tag_133:\n        /* \"#utility.yul\":1403:1520   */\n    tag_132:\n        /* \"#utility.yul\":1552:1617   */\n      tag_134\n        /* \"#utility.yul\":1609:1616   */\n      dup10\n        /* \"#utility.yul\":1600:1606   */\n      dup3\n        /* \"#utility.yul\":1589:1598   */\n      dup11\n        /* \"#utility.yul\":1585:1607   */\n      add\n        /* \"#utility.yul\":1552:1617   */\n      tag_109\n      jump\t// in\n    tag_134:\n        /* \"#utility.yul\":1534:1617   */\n      swap5\n      pop\n      swap5\n      pop\n        /* \"#utility.yul\":1329:1627   */\n      pop\n        /* \"#utility.yul\":1666:1668   */\n      0x40\n        /* \"#utility.yul\":1692:1745   */\n      tag_135\n        /* \"#utility.yul\":1737:1744   */\n      dup10\n        /* \"#utility.yul\":1728:1734   */\n      dup3\n        /* \"#utility.yul\":1717:1726   */\n      dup11\n        /* \"#utility.yul\":1713:1735   */\n      add\n        /* \"#utility.yul\":1692:1745   */\n      tag_120\n      jump\t// in\n    tag_135:\n        /* \"#utility.yul\":1682:1745   */\n      swap3\n      pop\n        /* \"#utility.yul\":1637:1755   */\n      pop\n        /* \"#utility.yul\":1794:1796   */\n      0x60\n        /* \"#utility.yul\":1820:1873   */\n      tag_136\n        /* \"#utility.yul\":1865:1872   */\n      dup10\n        /* \"#utility.yul\":1856:1862   */\n      dup3\n        /* \"#utility.yul\":1845:1854   */\n      dup11\n        /* \"#utility.yul\":1841:1863   */\n      add\n        /* \"#utility.yul\":1820:1873   */\n      tag_120\n      jump\t// in\n    tag_136:\n        /* \"#utility.yul\":1810:1873   */\n      swap2\n      pop\n        /* \"#utility.yul\":1765:1883   */\n      pop\n        /* \"#utility.yul\":725:1890   */\n      swap3\n      swap6\n      pop\n      swap3\n      swap6\n      pop\n      swap3\n      swap6\n      jump\t// out\n        /* \"#utility.yul\":1896:2225   */\n    tag_18:\n        /* \"#utility.yul\":1955:1961   */\n      0x00\n        /* \"#utility.yul\":2004:2006   */\n      0x20\n        /* \"#utility.yul\":1992:2001   */\n      dup3\n        /* \"#utility.yul\":1983:1990   */\n      dup5\n        /* \"#utility.yul\":1979:2002   */\n      sub\n        /* \"#utility.yul\":1975:2007   */\n      slt\n        /* \"#utility.yul\":1972:2091   */\n      iszero\n      tag_138\n      jumpi\n        /* \"#utility.yul\":2010:2089   */\n      tag_139\n      tag_127\n      jump\t// in\n    tag_139:\n        /* \"#utility.yul\":1972:2091   */\n    tag_138:\n        /* \"#utility.yul\":2130:2131   */\n      0x00\n        /* \"#utility.yul\":2155:2208   */\n      tag_140\n        /* \"#utility.yul\":2200:2207   */\n      dup5\n        /* \"#utility.yul\":2191:2197   */\n      dup3\n        /* \"#utility.yul\":2180:2189   */\n      dup6\n        /* \"#utility.yul\":2176:2198   */\n      add\n        /* \"#utility.yul\":2155:2208   */\n      tag_120\n      jump\t// in\n    tag_140:\n        /* \"#utility.yul\":2145:2208   */\n      swap2\n      pop\n        /* \"#utility.yul\":2101:2218   */\n      pop\n        /* \"#utility.yul\":1896:2225   */\n      swap3\n      swap2\n      pop\n      pop\n      jump\t// out\n        /* \"#utility.yul\":2231:2471   */\n    tag_141:\n        /* \"#utility.yul\":2342:2352   */\n      0x00\n        /* \"#utility.yul\":2377:2465   */\n      tag_143\n        /* \"#utility.yul\":2461:2464   */\n      dup4\n        /* \"#utility.yul\":2453:2459   */\n      dup4\n        /* \"#utility.yul\":2377:2465   */\n      tag_144\n      jump\t// in\n    tag_143:\n        /* \"#utility.yul\":2363:2465   */\n      swap1\n      pop\n        /* \"#utility.yul\":2231:2471   */\n      swap3\n      swap2\n      pop\n      pop\n      jump\t// out\n        /* \"#utility.yul\":2477:2595   */\n    tag_145:\n        /* \"#utility.yul\":2564:2588   */\n      tag_147\n        /* \"#utility.yul\":2582:2587   */\n      dup2\n        /* \"#utility.yul\":2564:2588   */\n      tag_148\n      jump\t// in\n    tag_147:\n        /* \"#utility.yul\":2559:2562   */\n      dup3\n        /* \"#utility.yul\":2552:2589   */\n      mstore\n        /* \"#utility.yul\":2477:2595   */\n      pop\n      pop\n      jump\t// out\n        /* \"#utility.yul\":2663:3742   */\n    tag_149:\n        /* \"#utility.yul\":2824:2827   */\n      0x00\n        /* \"#utility.yul\":2853:2928   */\n      tag_151\n        /* \"#utility.yul\":2922:2927   */\n      dup3\n        /* \"#utility.yul\":2853:2928   */\n      tag_152\n      jump\t// in\n    tag_151:\n        /* \"#utility.yul\":2944:3051   */\n      tag_153\n        /* \"#utility.yul\":3044:3050   */\n      dup2\n        /* \"#utility.yul\":3039:3042   */\n      dup6\n        /* \"#utility.yul\":2944:3051   */\n      tag_154\n      jump\t// in\n    tag_153:\n        /* \"#utility.yul\":2937:3051   */\n      swap4\n      pop\n        /* \"#utility.yul\":3077:3080   */\n      dup4\n        /* \"#utility.yul\":3122:3126   */\n      0x20\n        /* \"#utility.yul\":3114:3120   */\n      dup3\n        /* \"#utility.yul\":3110:3127   */\n      mul\n        /* \"#utility.yul\":3105:3108   */\n      dup6\n        /* \"#utility.yul\":3101:3128   */\n      add\n        /* \"#utility.yul\":3152:3229   */\n      tag_155\n        /* \"#utility.yul\":3223:3228   */\n      dup6\n        /* \"#utility.yul\":3152:3229   */\n      tag_156\n      jump\t// in\n    tag_155:\n        /* \"#utility.yul\":3252:3259   */\n      dup1\n        /* \"#utility.yul\":3283:3284   */\n      0x00\n        /* \"#utility.yul\":3268:3697   */\n    tag_157:\n        /* \"#utility.yul\":3293:3299   */\n      dup6\n        /* \"#utility.yul\":3290:3291   */\n      dup2\n        /* \"#utility.yul\":3287:3300   */\n      lt\n        /* \"#utility.yul\":3268:3697   */\n      iszero\n      tag_159\n      jumpi\n        /* \"#utility.yul\":3364:3373   */\n      dup5\n        /* \"#utility.yul\":3358:3362   */\n      dup5\n        /* \"#utility.yul\":3354:3374   */\n      sub\n        /* \"#utility.yul\":3349:3352   */\n      dup10\n        /* \"#utility.yul\":3342:3375   */\n      mstore\n        /* \"#utility.yul\":3415:3421   */\n      dup2\n        /* \"#utility.yul\":3409:3422   */\n      mload\n        /* \"#utility.yul\":3443:3549   */\n      tag_160\n        /* \"#utility.yul\":3544:3548   */\n      dup6\n        /* \"#utility.yul\":3529:3542   */\n      dup3\n        /* \"#utility.yul\":3443:3549   */\n      tag_141\n      jump\t// in\n    tag_160:\n        /* \"#utility.yul\":3435:3549   */\n      swap5\n      pop\n        /* \"#utility.yul\":3572:3653   */\n      tag_161\n        /* \"#utility.yul\":3646:3652   */\n      dup4\n        /* \"#utility.yul\":3572:3653   */\n      tag_162\n      jump\t// in\n    tag_161:\n        /* \"#utility.yul\":3562:3653   */\n      swap3\n      pop\n        /* \"#utility.yul\":3682:3686   */\n      0x20\n        /* \"#utility.yul\":3677:3680   */\n      dup11\n        /* \"#utility.yul\":3673:3687   */\n      add\n        /* \"#utility.yul\":3666:3687   */\n      swap10\n      pop\n        /* \"#utility.yul\":3328:3697   */\n      pop\n        /* \"#utility.yul\":3315:3316   */\n      0x01\n        /* \"#utility.yul\":3312:3313   */\n      dup2\n        /* \"#utility.yul\":3308:3317   */\n      add\n        /* \"#utility.yul\":3303:3317   */\n      swap1\n      pop\n        /* \"#utility.yul\":3268:3697   */\n      jump(tag_157)\n    tag_159:\n        /* \"#utility.yul\":3272:3286   */\n      pop\n        /* \"#utility.yul\":3713:3717   */\n      dup3\n        /* \"#utility.yul\":3706:3717   */\n      swap8\n      pop\n        /* \"#utility.yul\":3733:3736   */\n      dup8\n        /* \"#utility.yul\":3726:3736   */\n      swap6\n      pop\n        /* \"#utility.yul\":2829:3742   */\n      pop\n      pop\n      pop\n      pop\n      pop\n        /* \"#utility.yul\":2663:3742   */\n      swap3\n      swap2\n      pop\n      pop\n      jump\t// out\n        /* \"#utility.yul\":3748:3903   */\n    tag_163:\n        /* \"#utility.yul\":3847:3896   */\n      tag_165\n        /* \"#utility.yul\":3890:3895   */\n      dup2\n        /* \"#utility.yul\":3847:3896   */\n      tag_166\n      jump\t// in\n    tag_165:\n        /* \"#utility.yul\":3842:3845   */\n      dup3\n        /* \"#utility.yul\":3835:3897   */\n      mstore\n        /* \"#utility.yul\":3748:3903   */\n      pop\n      pop\n      jump\t// out\n        /* \"#utility.yul\":3909:4253   */\n    tag_167:\n        /* \"#utility.yul\":3987:3990   */\n      0x00\n        /* \"#utility.yul\":4015:4054   */\n      tag_169\n        /* \"#utility.yul\":4048:4053   */\n      dup3\n        /* \"#utility.yul\":4015:4054   */\n      tag_170\n      jump\t// in\n    tag_169:\n        /* \"#utility.yul\":4070:4131   */\n      tag_171\n        /* \"#utility.yul\":4124:4130   */\n      dup2\n        /* \"#utility.yul\":4119:4122   */\n      dup6\n        /* \"#utility.yul\":4070:4131   */\n      tag_172\n      jump\t// in\n    tag_171:\n        /* \"#utility.yul\":4063:4131   */\n      swap4\n      pop\n        /* \"#utility.yul\":4140:4192   */\n      tag_173\n        /* \"#utility.yul\":4185:4191   */\n      dup2\n        /* \"#utility.yul\":4180:4183   */\n      dup6\n        /* \"#utility.yul\":4173:4177   */\n      0x20\n        /* \"#utility.yul\":4166:4171   */\n      dup7\n        /* \"#utility.yul\":4162:4178   */\n      add\n        /* \"#utility.yul\":4140:4192   */\n      tag_174\n      jump\t// in\n    tag_173:\n        /* \"#utility.yul\":4217:4246   */\n      tag_175\n        /* \"#utility.yul\":4239:4245   */\n      dup2\n        /* \"#utility.yul\":4217:4246   */\n      tag_176\n      jump\t// in\n    tag_175:\n        /* \"#utility.yul\":4212:4215   */\n      dup5\n        /* \"#utility.yul\":4208:4247   */\n      add\n        /* \"#utility.yul\":4201:4247   */\n      swap2\n      pop\n        /* \"#utility.yul\":3991:4253   */\n      pop\n        /* \"#utility.yul\":3909:4253   */\n      swap3\n      swap2\n      pop\n      pop\n      jump\t// out\n        /* \"#utility.yul\":4259:4623   */\n    tag_177:\n        /* \"#utility.yul\":4347:4350   */\n      0x00\n        /* \"#utility.yul\":4375:4414   */\n      tag_179\n        /* \"#utility.yul\":4408:4413   */\n      dup3\n        /* \"#utility.yul\":4375:4414   */\n      tag_170\n      jump\t// in\n    tag_179:\n        /* \"#utility.yul\":4430:4501   */\n      tag_180\n        /* \"#utility.yul\":4494:4500   */\n      dup2\n        /* \"#utility.yul\":4489:4492   */\n      dup6\n        /* \"#utility.yul\":4430:4501   */\n      tag_181\n      jump\t// in\n    tag_180:\n        /* \"#utility.yul\":4423:4501   */\n      swap4\n      pop\n        /* \"#utility.yul\":4510:4562   */\n      tag_182\n        /* \"#utility.yul\":4555:4561   */\n      dup2\n        /* \"#utility.yul\":4550:4553   */\n      dup6\n        /* \"#utility.yul\":4543:4547   */\n      0x20\n        /* \"#utility.yul\":4536:4541   */\n      dup7\n        /* \"#utility.yul\":4532:4548   */\n      add\n        /* \"#utility.yul\":4510:4562   */\n      tag_174\n      jump\t// in\n    tag_182:\n        /* \"#utility.yul\":4587:4616   */\n      tag_183\n        /* \"#utility.yul\":4609:4615   */\n      dup2\n        /* \"#utility.yul\":4587:4616   */\n      tag_176\n      jump\t// in\n    tag_183:\n        /* \"#utility.yul\":4582:4585   */\n      dup5\n        /* \"#utility.yul\":4578:4617   */\n      add\n        /* \"#utility.yul\":4571:4617   */\n      swap2\n      pop\n        /* \"#utility.yul\":4351:4623   */\n      pop\n        /* \"#utility.yul\":4259:4623   */\n      swap3\n      swap2\n      pop\n      pop\n      jump\t// out\n        /* \"#utility.yul\":4629:4995   */\n    tag_184:\n        /* \"#utility.yul\":4771:4774   */\n      0x00\n        /* \"#utility.yul\":4792:4859   */\n      tag_186\n        /* \"#utility.yul\":4856:4858   */\n      0x0d\n        /* \"#utility.yul\":4851:4854   */\n      dup4\n        /* \"#utility.yul\":4792:4859   */\n      tag_181\n      jump\t// in\n    tag_186:\n        /* \"#utility.yul\":4785:4859   */\n      swap2\n      pop\n        /* \"#utility.yul\":4868:4961   */\n      tag_187\n        /* \"#utility.yul\":4957:4960   */\n      dup3\n        /* \"#utility.yul\":4868:4961   */\n      tag_188\n      jump\t// in\n    tag_187:\n        /* \"#utility.yul\":4986:4988   */\n      0x20\n        /* \"#utility.yul\":4981:4984   */\n      dup3\n        /* \"#utility.yul\":4977:4989   */\n      add\n        /* \"#utility.yul\":4970:4989   */\n      swap1\n      pop\n        /* \"#utility.yul\":4629:4995   */\n      swap2\n      swap1\n      pop\n      jump\t// out\n        /* \"#utility.yul\":5059:6246   */\n    tag_144:\n        /* \"#utility.yul\":5160:5163   */\n      0x00\n        /* \"#utility.yul\":5196:5200   */\n      0xa0\n        /* \"#utility.yul\":5191:5194   */\n      dup4\n        /* \"#utility.yul\":5187:5201   */\n      add\n        /* \"#utility.yul\":5284:5288   */\n      0x00\n        /* \"#utility.yul\":5277:5282   */\n      dup4\n        /* \"#utility.yul\":5273:5289   */\n      add\n        /* \"#utility.yul\":5267:5290   */\n      mload\n        /* \"#utility.yul\":5303:5366   */\n      tag_190\n        /* \"#utility.yul\":5360:5364   */\n      0x00\n        /* \"#utility.yul\":5355:5358   */\n      dup7\n        /* \"#utility.yul\":5351:5365   */\n      add\n        /* \"#utility.yul\":5337:5349   */\n      dup3\n        /* \"#utility.yul\":5303:5366   */\n      tag_191\n      jump\t// in\n    tag_190:\n        /* \"#utility.yul\":5211:5376   */\n      pop\n        /* \"#utility.yul\":5457:5461   */\n      0x20\n        /* \"#utility.yul\":5450:5455   */\n      dup4\n        /* \"#utility.yul\":5446:5462   */\n      add\n        /* \"#utility.yul\":5440:5463   */\n      mload\n        /* \"#utility.yul\":5510:5513   */\n      dup5\n        /* \"#utility.yul\":5504:5508   */\n      dup3\n        /* \"#utility.yul\":5500:5514   */\n      sub\n        /* \"#utility.yul\":5493:5497   */\n      0x20\n        /* \"#utility.yul\":5488:5491   */\n      dup7\n        /* \"#utility.yul\":5484:5498   */\n      add\n        /* \"#utility.yul\":5477:5515   */\n      mstore\n        /* \"#utility.yul\":5536:5609   */\n      tag_192\n        /* \"#utility.yul\":5604:5608   */\n      dup3\n        /* \"#utility.yul\":5590:5602   */\n      dup3\n        /* \"#utility.yul\":5536:5609   */\n      tag_167\n      jump\t// in\n    tag_192:\n        /* \"#utility.yul\":5528:5609   */\n      swap2\n      pop\n        /* \"#utility.yul\":5386:5620   */\n      pop\n        /* \"#utility.yul\":5703:5707   */\n      0x40\n        /* \"#utility.yul\":5696:5701   */\n      dup4\n        /* \"#utility.yul\":5692:5708   */\n      add\n        /* \"#utility.yul\":5686:5709   */\n      mload\n        /* \"#utility.yul\":5756:5759   */\n      dup5\n        /* \"#utility.yul\":5750:5754   */\n      dup3\n        /* \"#utility.yul\":5746:5760   */\n      sub\n        /* \"#utility.yul\":5739:5743   */\n      0x40\n        /* \"#utility.yul\":5734:5737   */\n      dup7\n        /* \"#utility.yul\":5730:5744   */\n      add\n        /* \"#utility.yul\":5723:5761   */\n      mstore\n        /* \"#utility.yul\":5782:5855   */\n      tag_193\n        /* \"#utility.yul\":5850:5854   */\n      dup3\n        /* \"#utility.yul\":5836:5848   */\n      dup3\n        /* \"#utility.yul\":5782:5855   */\n      tag_167\n      jump\t// in\n    tag_193:\n        /* \"#utility.yul\":5774:5855   */\n      swap2\n      pop\n        /* \"#utility.yul\":5630:5866   */\n      pop\n        /* \"#utility.yul\":5949:5953   */\n      0x60\n        /* \"#utility.yul\":5942:5947   */\n      dup4\n        /* \"#utility.yul\":5938:5954   */\n      add\n        /* \"#utility.yul\":5932:5955   */\n      mload\n        /* \"#utility.yul\":5968:6031   */\n      tag_194\n        /* \"#utility.yul\":6025:6029   */\n      0x60\n        /* \"#utility.yul\":6020:6023   */\n      dup7\n        /* \"#utility.yul\":6016:6030   */\n      add\n        /* \"#utility.yul\":6002:6014   */\n      dup3\n        /* \"#utility.yul\":5968:6031   */\n      tag_191\n      jump\t// in\n    tag_194:\n        /* \"#utility.yul\":5876:6041   */\n      pop\n        /* \"#utility.yul\":6127:6131   */\n      0x80\n        /* \"#utility.yul\":6120:6125   */\n      dup4\n        /* \"#utility.yul\":6116:6132   */\n      add\n        /* \"#utility.yul\":6110:6133   */\n      mload\n        /* \"#utility.yul\":6146:6209   */\n      tag_195\n        /* \"#utility.yul\":6203:6207   */\n      0x80\n        /* \"#utility.yul\":6198:6201   */\n      dup7\n        /* \"#utility.yul\":6194:6208   */\n      add\n        /* \"#utility.yul\":6180:6192   */\n      dup3\n        /* \"#utility.yul\":6146:6209   */\n      tag_191\n      jump\t// in\n    tag_195:\n        /* \"#utility.yul\":6051:6219   */\n      pop\n        /* \"#utility.yul\":6236:6240   */\n      dup1\n        /* \"#utility.yul\":6229:6240   */\n      swap2\n      pop\n        /* \"#utility.yul\":5165:6246   */\n      pop\n        /* \"#utility.yul\":5059:6246   */\n      swap3\n      swap2\n      pop\n      pop\n      jump\t// out\n        /* \"#utility.yul\":6252:6360   */\n    tag_191:\n        /* \"#utility.yul\":6329:6353   */\n      tag_197\n        /* \"#utility.yul\":6347:6352   */\n      dup2\n        /* \"#utility.yul\":6329:6353   */\n      tag_198\n      jump\t// in\n    tag_197:\n        /* \"#utility.yul\":6324:6327   */\n      dup3\n        /* \"#utility.yul\":6317:6354   */\n      mstore\n        /* \"#utility.yul\":6252:6360   */\n      pop\n      pop\n      jump\t// out\n        /* \"#utility.yul\":6366:6484   */\n    tag_199:\n        /* \"#utility.yul\":6453:6477   */\n      tag_201\n        /* \"#utility.yul\":6471:6476   */\n      dup2\n        /* \"#utility.yul\":6453:6477   */\n      tag_198\n      jump\t// in\n    tag_201:\n        /* \"#utility.yul\":6448:6451   */\n      dup3\n        /* \"#utility.yul\":6441:6478   */\n      mstore\n        /* \"#utility.yul\":6366:6484   */\n      pop\n      pop\n      jump\t// out\n        /* \"#utility.yul\":6490:6712   */\n    tag_12:\n        /* \"#utility.yul\":6583:6587   */\n      0x00\n        /* \"#utility.yul\":6621:6623   */\n      0x20\n        /* \"#utility.yul\":6610:6619   */\n      dup3\n        /* \"#utility.yul\":6606:6624   */\n      add\n        /* \"#utility.yul\":6598:6624   */\n      swap1\n      pop\n        /* \"#utility.yul\":6634:6705   */\n      tag_203\n        /* \"#utility.yul\":6702:6703   */\n      0x00\n        /* \"#utility.yul\":6691:6700   */\n      dup4\n        /* \"#utility.yul\":6687:6704   */\n      add\n        /* \"#utility.yul\":6678:6684   */\n      dup5\n        /* \"#utility.yul\":6634:6705   */\n      tag_145\n      jump\t// in\n    tag_203:\n        /* \"#utility.yul\":6490:6712   */\n      swap3\n      swap2\n      pop\n      pop\n      jump\t// out\n        /* \"#utility.yul\":6718:7175   */\n    tag_37:\n        /* \"#utility.yul\":6903:6907   */\n      0x00\n        /* \"#utility.yul\":6941:6943   */\n      0x20\n        /* \"#utility.yul\":6930:6939   */\n      dup3\n        /* \"#utility.yul\":6926:6944   */\n      add\n        /* \"#utility.yul\":6918:6944   */\n      swap1\n      pop\n        /* \"#utility.yul\":6990:6999   */\n      dup2\n        /* \"#utility.yul\":6984:6988   */\n      dup2\n        /* \"#utility.yul\":6980:7000   */\n      sub\n        /* \"#utility.yul\":6976:6977   */\n      0x00\n        /* \"#utility.yul\":6965:6974   */\n      dup4\n        /* \"#utility.yul\":6961:6978   */\n      add\n        /* \"#utility.yul\":6954:7001   */\n      mstore\n        /* \"#utility.yul\":7018:7168   */\n      tag_205\n        /* \"#utility.yul\":7163:7167   */\n      dup2\n        /* \"#utility.yul\":7154:7160   */\n      dup5\n        /* \"#utility.yul\":7018:7168   */\n      tag_149\n      jump\t// in\n    tag_205:\n        /* \"#utility.yul\":7010:7168   */\n      swap1\n      pop\n        /* \"#utility.yul\":6718:7175   */\n      swap3\n      swap2\n      pop\n      pop\n      jump\t// out\n        /* \"#utility.yul\":7181:7849   */\n    tag_21:\n        /* \"#utility.yul\":7390:7394   */\n      0x00\n        /* \"#utility.yul\":7428:7431   */\n      0x80\n        /* \"#utility.yul\":7417:7426   */\n      dup3\n        /* \"#utility.yul\":7413:7432   */\n      add\n        /* \"#utility.yul\":7405:7432   */\n      swap1\n      pop\n        /* \"#utility.yul\":7478:7487   */\n      dup2\n        /* \"#utility.yul\":7472:7476   */\n      dup2\n        /* \"#utility.yul\":7468:7488   */\n      sub\n        /* \"#utility.yul\":7464:7465   */\n      0x00\n        /* \"#utility.yul\":7453:7462   */\n      dup4\n        /* \"#utility.yul\":7449:7466   */\n      add\n        /* \"#utility.yul\":7442:7489   */\n      mstore\n        /* \"#utility.yul\":7506:7584   */\n      tag_207\n        /* \"#utility.yul\":7579:7583   */\n      dup2\n        /* \"#utility.yul\":7570:7576   */\n      dup8\n        /* \"#utility.yul\":7506:7584   */\n      tag_177\n      jump\t// in\n    tag_207:\n        /* \"#utility.yul\":7498:7584   */\n      swap1\n      pop\n        /* \"#utility.yul\":7594:7666   */\n      tag_208\n        /* \"#utility.yul\":7662:7664   */\n      0x20\n        /* \"#utility.yul\":7651:7660   */\n      dup4\n        /* \"#utility.yul\":7647:7665   */\n      add\n        /* \"#utility.yul\":7638:7644   */\n      dup7\n        /* \"#utility.yul\":7594:7666   */\n      tag_145\n      jump\t// in\n    tag_208:\n        /* \"#utility.yul\":7676:7748   */\n      tag_209\n        /* \"#utility.yul\":7744:7746   */\n      0x40\n        /* \"#utility.yul\":7733:7742   */\n      dup4\n        /* \"#utility.yul\":7729:7747   */\n      add\n        /* \"#utility.yul\":7720:7726   */\n      dup6\n        /* \"#utility.yul\":7676:7748   */\n      tag_199\n      jump\t// in\n    tag_209:\n        /* \"#utility.yul\":7758:7842   */\n      tag_210\n        /* \"#utility.yul\":7838:7840   */\n      0x60\n        /* \"#utility.yul\":7827:7836   */\n      dup4\n        /* \"#utility.yul\":7823:7841   */\n      add\n        /* \"#utility.yul\":7814:7820   */\n      dup5\n        /* \"#utility.yul\":7758:7842   */\n      tag_163\n      jump\t// in\n    tag_210:\n        /* \"#utility.yul\":7181:7849   */\n      swap6\n      swap5\n      pop\n      pop\n      pop\n      pop\n      pop\n      jump\t// out\n        /* \"#utility.yul\":7855:8274   */\n    tag_50:\n        /* \"#utility.yul\":8021:8025   */\n      0x00\n        /* \"#utility.yul\":8059:8061   */\n      0x20\n        /* \"#utility.yul\":8048:8057   */\n      dup3\n        /* \"#utility.yul\":8044:8062   */\n      add\n        /* \"#utility.yul\":8036:8062   */\n      swap1\n      pop\n        /* \"#utility.yul\":8108:8117   */\n      dup2\n        /* \"#utility.yul\":8102:8106   */\n      dup2\n        /* \"#utility.yul\":8098:8118   */\n      sub\n        /* \"#utility.yul\":8094:8095   */\n      0x00\n        /* \"#utility.yul\":8083:8092   */\n      dup4\n        /* \"#utility.yul\":8079:8096   */\n      add\n        /* \"#utility.yul\":8072:8119   */\n      mstore\n        /* \"#utility.yul\":8136:8267   */\n      tag_212\n        /* \"#utility.yul\":8262:8266   */\n      dup2\n        /* \"#utility.yul\":8136:8267   */\n      tag_184\n      jump\t// in\n    tag_212:\n        /* \"#utility.yul\":8128:8267   */\n      swap1\n      pop\n        /* \"#utility.yul\":7855:8274   */\n      swap2\n      swap1\n      pop\n      jump\t// out\n        /* \"#utility.yul\":8280:9126   */\n    tag_32:\n        /* \"#utility.yul\":8525:8529   */\n      0x00\n        /* \"#utility.yul\":8563:8566   */\n      0xa0\n        /* \"#utility.yul\":8552:8561   */\n      dup3\n        /* \"#utility.yul\":8548:8567   */\n      add\n        /* \"#utility.yul\":8540:8567   */\n      swap1\n      pop\n        /* \"#utility.yul\":8577:8648   */\n      tag_214\n        /* \"#utility.yul\":8645:8646   */\n      0x00\n        /* \"#utility.yul\":8634:8643   */\n      dup4\n        /* \"#utility.yul\":8630:8647   */\n      add\n        /* \"#utility.yul\":8621:8627   */\n      dup9\n        /* \"#utility.yul\":8577:8648   */\n      tag_199\n      jump\t// in\n    tag_214:\n        /* \"#utility.yul\":8695:8704   */\n      dup2\n        /* \"#utility.yul\":8689:8693   */\n      dup2\n        /* \"#utility.yul\":8685:8705   */\n      sub\n        /* \"#utility.yul\":8680:8682   */\n      0x20\n        /* \"#utility.yul\":8669:8678   */\n      dup4\n        /* \"#utility.yul\":8665:8683   */\n      add\n        /* \"#utility.yul\":8658:8706   */\n      mstore\n        /* \"#utility.yul\":8723:8801   */\n      tag_215\n        /* \"#utility.yul\":8796:8800   */\n      dup2\n        /* \"#utility.yul\":8787:8793   */\n      dup8\n        /* \"#utility.yul\":8723:8801   */\n      tag_177\n      jump\t// in\n    tag_215:\n        /* \"#utility.yul\":8715:8801   */\n      swap1\n      pop\n        /* \"#utility.yul\":8848:8857   */\n      dup2\n        /* \"#utility.yul\":8842:8846   */\n      dup2\n        /* \"#utility.yul\":8838:8858   */\n      sub\n        /* \"#utility.yul\":8833:8835   */\n      0x40\n        /* \"#utility.yul\":8822:8831   */\n      dup4\n        /* \"#utility.yul\":8818:8836   */\n      add\n        /* \"#utility.yul\":8811:8859   */\n      mstore\n        /* \"#utility.yul\":8876:8954   */\n      tag_216\n        /* \"#utility.yul\":8949:8953   */\n      dup2\n        /* \"#utility.yul\":8940:8946   */\n      dup7\n        /* \"#utility.yul\":8876:8954   */\n      tag_177\n      jump\t// in\n    tag_216:\n        /* \"#utility.yul\":8868:8954   */\n      swap1\n      pop\n        /* \"#utility.yul\":8964:9036   */\n      tag_217\n        /* \"#utility.yul\":9032:9034   */\n      0x60\n        /* \"#utility.yul\":9021:9030   */\n      dup4\n        /* \"#utility.yul\":9017:9035   */\n      add\n        /* \"#utility.yul\":9008:9014   */\n      dup6\n        /* \"#utility.yul\":8964:9036   */\n      tag_199\n      jump\t// in\n    tag_217:\n        /* \"#utility.yul\":9046:9119   */\n      tag_218\n        /* \"#utility.yul\":9114:9117   */\n      0x80\n        /* \"#utility.yul\":9103:9112   */\n      dup4\n        /* \"#utility.yul\":9099:9118   */\n      add\n        /* \"#utility.yul\":9090:9096   */\n      dup5\n        /* \"#utility.yul\":9046:9119   */\n      tag_199\n      jump\t// in\n    tag_218:\n        /* \"#utility.yul\":8280:9126   */\n      swap7\n      swap6\n      pop\n      pop\n      pop\n      pop\n      pop\n      pop\n      jump\t// out\n        /* \"#utility.yul\":9213:9366   */\n    tag_156:\n        /* \"#utility.yul\":9301:9305   */\n      0x00\n        /* \"#utility.yul\":9324:9327   */\n      dup2\n        /* \"#utility.yul\":9316:9327   */\n      swap1\n      pop\n        /* \"#utility.yul\":9354:9358   */\n      0x20\n        /* \"#utility.yul\":9349:9352   */\n      dup3\n        /* \"#utility.yul\":9345:9359   */\n      add\n        /* \"#utility.yul\":9337:9359   */\n      swap1\n      pop\n        /* \"#utility.yul\":9213:9366   */\n      swap2\n      swap1\n      pop\n      jump\t// out\n        /* \"#utility.yul\":9372:9507   */\n    tag_152:\n        /* \"#utility.yul\":9460:9466   */\n      0x00\n        /* \"#utility.yul\":9494:9499   */\n      dup2\n        /* \"#utility.yul\":9488:9500   */\n      mload\n        /* \"#utility.yul\":9478:9500   */\n      swap1\n      pop\n        /* \"#utility.yul\":9372:9507   */\n      swap2\n      swap1\n      pop\n      jump\t// out\n        /* \"#utility.yul\":9513:9612   */\n    tag_170:\n        /* \"#utility.yul\":9565:9571   */\n      0x00\n        /* \"#utility.yul\":9599:9604   */\n      dup2\n        /* \"#utility.yul\":9593:9605   */\n      mload\n        /* \"#utility.yul\":9583:9605   */\n      swap1\n      pop\n        /* \"#utility.yul\":9513:9612   */\n      swap2\n      swap1\n      pop\n      jump\t// out\n        /* \"#utility.yul\":9618:9752   */\n    tag_162:\n        /* \"#utility.yul\":9709:9713   */\n      0x00\n        /* \"#utility.yul\":9741:9745   */\n      0x20\n        /* \"#utility.yul\":9736:9739   */\n      dup3\n        /* \"#utility.yul\":9732:9746   */\n      add\n        /* \"#utility.yul\":9724:9746   */\n      swap1\n      pop\n        /* \"#utility.yul\":9618:9752   */\n      swap2\n      swap1\n      pop\n      jump\t// out\n        /* \"#utility.yul\":9758:9963   */\n    tag_154:\n        /* \"#utility.yul\":9878:9889   */\n      0x00\n        /* \"#utility.yul\":9912:9918   */\n      dup3\n        /* \"#utility.yul\":9907:9910   */\n      dup3\n        /* \"#utility.yul\":9900:9919   */\n      mstore\n        /* \"#utility.yul\":9952:9956   */\n      0x20\n        /* \"#utility.yul\":9947:9950   */\n      dup3\n        /* \"#utility.yul\":9943:9957   */\n      add\n        /* \"#utility.yul\":9928:9957   */\n      swap1\n      pop\n        /* \"#utility.yul\":9758:9963   */\n      swap3\n      swap2\n      pop\n      pop\n      jump\t// out\n        /* \"#utility.yul\":9969:10128   */\n    tag_172:\n        /* \"#utility.yul\":10043:10054   */\n      0x00\n        /* \"#utility.yul\":10077:10083   */\n      dup3\n        /* \"#utility.yul\":10072:10075   */\n      dup3\n        /* \"#utility.yul\":10065:10084   */\n      mstore\n        /* \"#utility.yul\":10117:10121   */\n      0x20\n        /* \"#utility.yul\":10112:10115   */\n      dup3\n        /* \"#utility.yul\":10108:10122   */\n      add\n        /* \"#utility.yul\":10093:10122   */\n      swap1\n      pop\n        /* \"#utility.yul\":9969:10128   */\n      swap3\n      swap2\n      pop\n      pop\n      jump\t// out\n        /* \"#utility.yul\":10134:10303   */\n    tag_181:\n        /* \"#utility.yul\":10218:10229   */\n      0x00\n        /* \"#utility.yul\":10252:10258   */\n      dup3\n        /* \"#utility.yul\":10247:10250   */\n      dup3\n        /* \"#utility.yul\":10240:10259   */\n      mstore\n        /* \"#utility.yul\":10292:10296   */\n      0x20\n        /* \"#utility.yul\":10287:10290   */\n      dup3\n        /* \"#utility.yul\":10283:10297   */\n      add\n        /* \"#utility.yul\":10268:10297   */\n      swap1\n      pop\n        /* \"#utility.yul\":10134:10303   */\n      swap3\n      swap2\n      pop\n      pop\n      jump\t// out\n        /* \"#utility.yul\":10309:10405   */\n    tag_148:\n        /* \"#utility.yul\":10346:10353   */\n      0x00\n        /* \"#utility.yul\":10375:10399   */\n      tag_229\n        /* \"#utility.yul\":10393:10398   */\n      dup3\n        /* \"#utility.yul\":10375:10399   */\n      tag_230\n      jump\t// in\n    tag_229:\n        /* \"#utility.yul\":10364:10399   */\n      swap1\n      pop\n        /* \"#utility.yul\":10309:10405   */\n      swap2\n      swap1\n      pop\n      jump\t// out\n        /* \"#utility.yul\":10411:10550   */\n    tag_231:\n        /* \"#utility.yul\":10462:10469   */\n      0x00\n        /* \"#utility.yul\":10491:10496   */\n      dup2\n        /* \"#utility.yul\":10480:10496   */\n      swap1\n      pop\n        /* \"#utility.yul\":10497:10544   */\n      tag_233\n        /* \"#utility.yul\":10538:10543   */\n      dup3\n        /* \"#utility.yul\":10497:10544   */\n      tag_234\n      jump\t// in\n    tag_233:\n        /* \"#utility.yul\":10411:10550   */\n      swap2\n      swap1\n      pop\n      jump\t// out\n        /* \"#utility.yul\":10556:10682   */\n    tag_230:\n        /* \"#utility.yul\":10593:10600   */\n      0x00\n        /* \"#utility.yul\":10633:10675   */\n      0xffffffffffffffffffffffffffffffffffffffff\n        /* \"#utility.yul\":10626:10631   */\n      dup3\n        /* \"#utility.yul\":10622:10676   */\n      and\n        /* \"#utility.yul\":10611:10676   */\n      swap1\n      pop\n        /* \"#utility.yul\":10556:10682   */\n      swap2\n      swap1\n      pop\n      jump\t// out\n        /* \"#utility.yul\":10688:10765   */\n    tag_198:\n        /* \"#utility.yul\":10725:10732   */\n      0x00\n        /* \"#utility.yul\":10754:10759   */\n      dup2\n        /* \"#utility.yul\":10743:10759   */\n      swap1\n      pop\n        /* \"#utility.yul\":10688:10765   */\n      swap2\n      swap1\n      pop\n      jump\t// out\n        /* \"#utility.yul\":10771:10910   */\n    tag_166:\n        /* \"#utility.yul\":10833:10842   */\n      0x00\n        /* \"#utility.yul\":10866:10904   */\n      tag_238\n        /* \"#utility.yul\":10898:10903   */\n      dup3\n        /* \"#utility.yul\":10866:10904   */\n      tag_231\n      jump\t// in\n    tag_238:\n        /* \"#utility.yul\":10853:10904   */\n      swap1\n      pop\n        /* \"#utility.yul\":10771:10910   */\n      swap2\n      swap1\n      pop\n      jump\t// out\n        /* \"#utility.yul\":10916:11223   */\n    tag_174:\n        /* \"#utility.yul\":10984:10985   */\n      0x00\n        /* \"#utility.yul\":10994:11107   */\n    tag_240:\n        /* \"#utility.yul\":11008:11014   */\n      dup4\n        /* \"#utility.yul\":11005:11006   */\n      dup2\n        /* \"#utility.yul\":11002:11015   */\n      lt\n        /* \"#utility.yul\":10994:11107   */\n      iszero\n      tag_242\n      jumpi\n        /* \"#utility.yul\":11093:11094   */\n      dup1\n        /* \"#utility.yul\":11088:11091   */\n      dup3\n        /* \"#utility.yul\":11084:11095   */\n      add\n        /* \"#utility.yul\":11078:11096   */\n      mload\n        /* \"#utility.yul\":11074:11075   */\n      dup2\n        /* \"#utility.yul\":11069:11072   */\n      dup5\n        /* \"#utility.yul\":11065:11076   */\n      add\n        /* \"#utility.yul\":11058:11097   */\n      mstore\n        /* \"#utility.yul\":11030:11032   */\n      0x20\n        /* \"#utility.yul\":11027:11028   */\n      dup2\n        /* \"#utility.yul\":11023:11033   */\n      add\n        /* \"#utility.yul\":11018:11033   */\n      swap1\n      pop\n        /* \"#utility.yul\":10994:11107   */\n      jump(tag_240)\n    tag_242:\n        /* \"#utility.yul\":11125:11131   */\n      dup4\n        /* \"#utility.yul\":11122:11123   */\n      dup2\n        /* \"#utility.yul\":11119:11132   */\n      gt\n        /* \"#utility.yul\":11116:11217   */\n      iszero\n      tag_243\n      jumpi\n        /* \"#utility.yul\":11205:11206   */\n      0x00\n        /* \"#utility.yul\":11196:11202   */\n      dup5\n        /* \"#utility.yul\":11191:11194   */\n      dup5\n        /* \"#utility.yul\":11187:11203   */\n      add\n        /* \"#utility.yul\":11180:11207   */\n      mstore\n        /* \"#utility.yul\":11116:11217   */\n    tag_243:\n        /* \"#utility.yul\":10965:11223   */\n      pop\n        /* \"#utility.yul\":10916:11223   */\n      pop\n      pop\n      pop\n      jump\t// out\n        /* \"#utility.yul\":11229:11549   */\n    tag_42:\n        /* \"#utility.yul\":11273:11279   */\n      0x00\n        /* \"#utility.yul\":11310:11311   */\n      0x02\n        /* \"#utility.yul\":11304:11308   */\n      dup3\n        /* \"#utility.yul\":11300:11312   */\n      div\n        /* \"#utility.yul\":11290:11312   */\n      swap1\n      pop\n        /* \"#utility.yul\":11357:11358   */\n      0x01\n        /* \"#utility.yul\":11351:11355   */\n      dup3\n        /* \"#utility.yul\":11347:11359   */\n      and\n        /* \"#utility.yul\":11378:11396   */\n      dup1\n        /* \"#utility.yul\":11368:11449   */\n      tag_245\n      jumpi\n        /* \"#utility.yul\":11434:11438   */\n      0x7f\n        /* \"#utility.yul\":11426:11432   */\n      dup3\n        /* \"#utility.yul\":11422:11439   */\n      and\n        /* \"#utility.yul\":11412:11439   */\n      swap2\n      pop\n        /* \"#utility.yul\":11368:11449   */\n    tag_245:\n        /* \"#utility.yul\":11496:11498   */\n      0x20\n        /* \"#utility.yul\":11488:11494   */\n      dup3\n        /* \"#utility.yul\":11485:11499   */\n      lt\n        /* \"#utility.yul\":11465:11483   */\n      dup2\n        /* \"#utility.yul\":11462:11500   */\n      eq\n        /* \"#utility.yul\":11459:11543   */\n      iszero\n      tag_246\n      jumpi\n        /* \"#utility.yul\":11515:11533   */\n      tag_247\n      tag_248\n      jump\t// in\n    tag_247:\n        /* \"#utility.yul\":11459:11543   */\n    tag_246:\n        /* \"#utility.yul\":11280:11549   */\n      pop\n        /* \"#utility.yul\":11229:11549   */\n      swap2\n      swap1\n      pop\n      jump\t// out\n        /* \"#utility.yul\":11555:11788   */\n    tag_57:\n        /* \"#utility.yul\":11594:11597   */\n      0x00\n        /* \"#utility.yul\":11617:11641   */\n      tag_250\n        /* \"#utility.yul\":11635:11640   */\n      dup3\n        /* \"#utility.yul\":11617:11641   */\n      tag_198\n      jump\t// in\n    tag_250:\n        /* \"#utility.yul\":11608:11641   */\n      swap2\n      pop\n        /* \"#utility.yul\":11663:11729   */\n      0xffffffffffffffffffffffffffffffffffffffffffffffffffffffffffffffff\n        /* \"#utility.yul\":11656:11661   */\n      dup3\n        /* \"#utility.yul\":11653:11730   */\n      eq\n        /* \"#utility.yul\":11650:11753   */\n      iszero\n      tag_251\n      jumpi\n        /* \"#utility.yul\":11733:11751   */\n      tag_252\n      tag_253\n      jump\t// in\n    tag_252:\n        /* \"#utility.yul\":11650:11753   */\n    tag_251:\n        /* \"#utility.yul\":11780:11781   */\n      0x01\n        /* \"#utility.yul\":11773:11778   */\n      dup3\n        /* \"#utility.yul\":11769:11782   */\n      add\n        /* \"#utility.yul\":11762:11782   */\n      swap1\n      pop\n        /* \"#utility.yul\":11555:11788   */\n      swap2\n      swap1\n      pop\n      jump\t// out\n        /* \"#utility.yul\":11794:11974   */\n    tag_253:\n        /* \"#utility.yul\":11842:11919   */\n      0x4e487b7100000000000000000000000000000000000000000000000000000000\n        /* \"#utility.yul\":11839:11840   */\n      0x00\n        /* \"#utility.yul\":11832:11920   */\n      mstore\n        /* \"#utility.yul\":11939:11943   */\n      0x11\n        /* \"#utility.yul\":11936:11937   */\n      0x04\n        /* \"#utility.yul\":11929:11944   */\n      mstore\n        /* \"#utility.yul\":11963:11967   */\n      0x24\n        /* \"#utility.yul\":11960:11961   */\n      0x00\n        /* \"#utility.yul\":11953:11968   */\n      revert\n        /* \"#utility.yul\":11980:12160   */\n    tag_255:\n        /* \"#utility.yul\":12028:12105   */\n      0x4e487b7100000000000000000000000000000000000000000000000000000000\n        /* \"#utility.yul\":12025:12026   */\n      0x00\n        /* \"#utility.yul\":12018:12106   */\n      mstore\n        /* \"#utility.yul\":12125:12129   */\n      0x21\n        /* \"#utility.yul\":12122:12123   */\n      0x04\n        /* \"#utility.yul\":12115:12130   */\n      mstore\n        /* \"#utility.yul\":12149:12153   */\n      0x24\n        /* \"#utility.yul\":12146:12147   */\n      0x00\n        /* \"#utility.yul\":12139:12154   */\n      revert\n        /* \"#utility.yul\":12166:12346   */\n    tag_248:\n        /* \"#utility.yul\":12214:12291   */\n      0x4e487b7100000000000000000000000000000000000000000000000000000000\n        /* \"#utility.yul\":12211:12212   */\n      0x00\n        /* \"#utility.yul\":12204:12292   */\n      mstore\n        /* \"#utility.yul\":12311:12315   */\n      0x22\n        /* \"#utility.yul\":12308:12309   */\n      0x04\n        /* \"#utility.yul\":12301:12316   */\n      mstore\n        /* \"#utility.yul\":12335:12339   */\n      0x24\n        /* \"#utility.yul\":12332:12333   */\n      0x00\n        /* \"#utility.yul\":12325:12340   */\n      revert\n        /* \"#utility.yul\":12352:12532   */\n    tag_83:\n        /* \"#utility.yul\":12400:12477   */\n      0x4e487b7100000000000000000000000000000000000000000000000000000000\n        /* \"#utility.yul\":12397:12398   */\n      0x00\n        /* \"#utility.yul\":12390:12478   */\n      mstore\n        /* \"#utility.yul\":12497:12501   */\n      0x32\n        /* \"#utility.yul\":12494:12495   */\n      0x04\n        /* \"#utility.yul\":12487:12502   */\n      mstore\n        /* \"#utility.yul\":12521:12525   */\n      0x24\n        /* \"#utility.yul\":12518:12519   */\n      0x00\n        /* \"#utility.yul\":12511:12526   */\n      revert\n        /* \"#utility.yul\":12538:12718   */\n    tag_73:\n        /* \"#utility.yul\":12586:12663   */\n      0x4e487b7100000000000000000000000000000000000000000000000000000000\n        /* \"#utility.yul\":12583:12584   */\n      0x00\n        /* \"#utility.yul\":12576:12664   */\n      mstore\n        /* \"#utility.yul\":12683:12687   */\n      0x41\n        /* \"#utility.yul\":12680:12681   */\n      0x04\n        /* \"#utility.yul\":12673:12688   */\n      mstore\n        /* \"#utility.yul\":12707:12711   */\n      0x24\n        /* \"#utility.yul\":12704:12705   */\n      0x00\n        /* \"#utility.yul\":12697:12712   */\n      revert\n        /* \"#utility.yul\":12724:12841   */\n    tag_116:\n        /* \"#utility.yul\":12833:12834   */\n      0x00\n        /* \"#utility.yul\":12830:12831   */\n      dup1\n        /* \"#utility.yul\":12823:12835   */\n      revert\n        /* \"#utility.yul\":12847:12964   */\n    tag_113:\n        /* \"#utility.yul\":12956:12957   */\n      0x00\n        /* \"#utility.yul\":12953:12954   */\n      dup1\n        /* \"#utility.yul\":12946:12958   */\n      revert\n        /* \"#utility.yul\":12970:13087   */\n    tag_119:\n        /* \"#utility.yul\":13079:13080   */\n      0x00\n        /* \"#utility.yul\":13076:13077   */\n      dup1\n        /* \"#utility.yul\":13069:13081   */\n      revert\n        /* \"#utility.yul\":13093:13210   */\n    tag_130:\n        /* \"#utility.yul\":13202:13203   */\n      0x00\n        /* \"#utility.yul\":13199:13200   */\n      dup1\n        /* \"#utility.yul\":13192:13204   */\n      revert\n        /* \"#utility.yul\":13216:13333   */\n    tag_127:\n        /* \"#utility.yul\":13325:13326   */\n      0x00\n        /* \"#utility.yul\":13322:13323   */\n      dup1\n        /* \"#utility.yul\":13315:13327   */\n      revert\n        /* \"#utility.yul\":13339:13441   */\n    tag_176:\n        /* \"#utility.yul\":13380:13386   */\n      0x00\n        /* \"#utility.yul\":13431:13433   */\n      0x1f\n        /* \"#utility.yul\":13427:13434   */\n      not\n        /* \"#utility.yul\":13422:13424   */\n      0x1f\n        /* \"#utility.yul\":13415:13420   */\n      dup4\n        /* \"#utility.yul\":13411:13425   */\n      add\n        /* \"#utility.yul\":13407:13435   */\n      and\n        /* \"#utility.yul\":13397:13435   */\n      swap1\n      pop\n        /* \"#utility.yul\":13339:13441   */\n      swap2\n      swap1\n      pop\n      jump\t// out\n        /* \"#utility.yul\":13447:13610   */\n    tag_188:\n        /* \"#utility.yul\":13587:13602   */\n      0x4e6f7420616e206f776e65722100000000000000000000000000000000000000\n        /* \"#utility.yul\":13583:13584   */\n      0x00\n        /* \"#utility.yul\":13575:13581   */\n      dup3\n        /* \"#utility.yul\":13571:13585   */\n      add\n        /* \"#utility.yul\":13564:13603   */\n      mstore\n        /* \"#utility.yul\":13447:13610   */\n      pop\n      jump\t// out\n        /* \"#utility.yul\":13616:13735   */\n    tag_234:\n        /* \"#utility.yul\":13703:13704   */\n      0x02\n        /* \"#utility.yul\":13696:13701   */\n      dup2\n        /* \"#utility.yul\":13693:13705   */\n      lt\n        /* \"#utility.yul\":13683:13729   */\n      tag_268\n      jumpi\n        /* \"#utility.yul\":13709:13727   */\n      tag_269\n      tag_255\n      jump\t// in\n    tag_269:\n        /* \"#utility.yul\":13683:13729   */\n    tag_268:\n        /* \"#utility.yul\":13616:13735   */\n      pop\n      jump\t// out\n        /* \"#utility.yul\":13741:13863   */\n    tag_123:\n        /* \"#utility.yul\":13814:13838   */\n      tag_271\n        /* \"#utility.yul\":13832:13837   */\n      dup2\n        /* \"#utility.yul\":13814:13838   */\n      tag_198\n      jump\t// in\n    tag_271:\n        /* \"#utility.yul\":13807:13812   */\n      dup2\n        /* \"#utility.yul\":13804:13839   */\n      eq\n        /* \"#utility.yul\":13794:13857   */\n      tag_272\n      jumpi\n        /* \"#utility.yul\":13853:13854   */\n      0x00\n        /* \"#utility.yul\":13850:13851   */\n      dup1\n        /* \"#utility.yul\":13843:13855   */\n      revert\n        /* \"#utility.yul\":13794:13857   */\n    tag_272:\n        /* \"#utility.yul\":13741:13863   */\n      pop\n      jump\t// out\n\n    auxdata: 0xa2646970667358221220aaba206a81dc7fa9a4e21a07f1fb07f6a6985d5e8ae6053a7c3839deb395422a64736f6c63430008070033\n}\n",
				"bytecode": {
					"linkReferences": {},
					"object": "608060405234801561001057600080fd5b503373ffffffffffffffffffffffffffffffffffffffff16600260009054906101000a90505050610fd9806100466000396000f3fe6080604052600436106100555760003560e01c80638da5cb5b1461005a578063a6f2ae3a14610085578063a85c38ef1461008f578063c557f979146100cf578063ea5df059146100f8578063ec34297a14610139575b600080fd5b34801561006657600080fd5b5061006f610164565b60405161007c9190610bbb565b60405180910390f35b61008d61018a565b005b34801561009b57600080fd5b506100b660048036038101906100b191906109b7565b61018c565b6040516100c69493929190610bf8565b60405180910390f35b3480156100db57600080fd5b506100f660048036038101906100f19190610910565b610281565b005b34801561010457600080fd5b5061011f600480360381019061011a91906109b7565b610467565b604051610130959493929190610c64565b60405180910390f35b34801561014557600080fd5b5061014e6105bd565b60405161015b9190610bd6565b60405180910390f35b600260009054906101000a900473ffffffffffffffffffffffffffffffffffffffff1681565b565b6001818154811061019c57600080fd5b90600052602060002090600402016000915090508060000180546101bf90610dbf565b80601f01602080910402602001604051908101604052809291908181526020018280546101eb90610dbf565b80156102385780601f1061020d57610100808354040283529160200191610238565b820191906000526020600020905b81548152906001019060200180831161021b57829003601f168201915b5050505050908060010160009054906101000a900473ffffffffffffffffffffffffffffffffffffffff16908060020154908060030160009054906101000a900460ff16905084565b3373ffffffffffffffffffffffffffffffffffffffff16600260009054906101000a900473ffffffffffffffffffffffffffffffffffffffff1673ffffffffffffffffffffffffffffffffffffffff1614610311576040517f08c379a000000000000000000000000000000000000000000000000000000000815260040161030890610c44565b60405180910390fd5b60006040518060a00160405280600354815260200188888080601f016020809104026020016040519081016040528093929190818152602001838380828437600081840152601f19601f82011690508083019250505050505050815260200186868080601f016020809104026020016040519081016040528093929190818152602001838380828437600081840152601f19601f8201169050808301925050505050505081526020018481526020018381525090806001815401808255809150506001900390600052602060002090600502016000909190919091506000820151816000015560208201518160010190805190602001906104139291906107d3565b5060408201518160020190805190602001906104309291906107d3565b50606082015181600301556080820151816004015550506003600081548092919061045a90610df1565b9190505550505050505050565b6000818154811061047757600080fd5b90600052602060002090600502016000915090508060000154908060010180546104a090610dbf565b80601f01602080910402602001604051908101604052809291908181526020018280546104cc90610dbf565b80156105195780601f106104ee57610100808354040283529160200191610519565b820191906000526020600020905b8154815290600101906020018083116104fc57829003601f168201915b50505050509080600201805461052e90610dbf565b80601f016020809104026020016040519081016040528092919081815260200182805461055a90610dbf565b80156105a75780601f1061057c576101008083540402835291602001916105a7565b820191906000526020600020905b81548152906001019060200180831161058a57829003601f168201915b5050505050908060030154908060040154905085565b60606000808054905067ffffffffffffffff8111156105df576105de610ef6565b5b60405190808252806020026020018201604052801561061857816020015b610605610859565b8152602001906001900390816105fd5790505b50905060005b6000805490508110156107cb576000818154811061063f5761063e610ec7565b5b90600052602060002090600502016040518060a00160405290816000820154815260200160018201805461067290610dbf565b80601f016020809104026020016040519081016040528092919081815260200182805461069e90610dbf565b80156106eb5780601f106106c0576101008083540402835291602001916106eb565b820191906000526020600020905b8154815290600101906020018083116106ce57829003601f168201915b5050505050815260200160028201805461070490610dbf565b80601f016020809104026020016040519081016040528092919081815260200182805461073090610dbf565b801561077d5780601f106107525761010080835404028352916020019161077d565b820191906000526020600020905b81548152906001019060200180831161076057829003601f168201915b50505050508152602001600382015481526020016004820154815250508282815181106107ad576107ac610ec7565b5b602002602001018190525080806107c390610df1565b91505061061e565b508091505090565b8280546107df90610dbf565b90600052602060002090601f0160209004810192826108015760008555610848565b82601f1061081a57805160ff1916838001178555610848565b82800160010185558215610848579182015b8281111561084757825182559160200191906001019061082c565b5b5090506108559190610888565b5090565b6040518060a0016040528060008152602001606081526020016060815260200160008152602001600081525090565b5b808211156108a1576000816000905550600101610889565b5090565b60008083601f8401126108bb576108ba610f2a565b5b8235905067ffffffffffffffff8111156108d8576108d7610f25565b5b6020830191508360018202830111156108f4576108f3610f2f565b5b9250929050565b60008135905061090a81610f8c565b92915050565b6000806000806000806080878903121561092d5761092c610f39565b5b600087013567ffffffffffffffff81111561094b5761094a610f34565b5b61095789828a016108a5565b9650965050602087013567ffffffffffffffff81111561097a57610979610f34565b5b61098689828a016108a5565b9450945050604061099989828a016108fb565b92505060606109aa89828a016108fb565b9150509295509295509295565b6000602082840312156109cd576109cc610f39565b5b60006109db848285016108fb565b91505092915050565b60006109f08383610b20565b905092915050565b610a0181610d2b565b82525050565b6000610a1282610cd5565b610a1c8185610cf8565b935083602082028501610a2e85610cc5565b8060005b85811015610a6a5784840389528151610a4b85826109e4565b9450610a5683610ceb565b925060208a01995050600181019050610a32565b50829750879550505050505092915050565b610a8581610d7a565b82525050565b6000610a9682610ce0565b610aa08185610d09565b9350610ab0818560208601610d8c565b610ab981610f3e565b840191505092915050565b6000610acf82610ce0565b610ad98185610d1a565b9350610ae9818560208601610d8c565b610af281610f3e565b840191505092915050565b6000610b0a600d83610d1a565b9150610b1582610f4f565b602082019050919050565b600060a083016000830151610b386000860182610b9d565b5060208301518482036020860152610b508282610a8b565b91505060408301518482036040860152610b6a8282610a8b565b9150506060830151610b7f6060860182610b9d565b506080830151610b926080860182610b9d565b508091505092915050565b610ba681610d70565b82525050565b610bb581610d70565b82525050565b6000602082019050610bd060008301846109f8565b92915050565b60006020820190508181036000830152610bf08184610a07565b905092915050565b60006080820190508181036000830152610c128187610ac4565b9050610c2160208301866109f8565b610c2e6040830185610bac565b610c3b6060830184610a7c565b95945050505050565b60006020820190508181036000830152610c5d81610afd565b9050919050565b600060a082019050610c796000830188610bac565b8181036020830152610c8b8187610ac4565b90508181036040830152610c9f8186610ac4565b9050610cae6060830185610bac565b610cbb6080830184610bac565b9695505050505050565b6000819050602082019050919050565b600081519050919050565b600081519050919050565b6000602082019050919050565b600082825260208201905092915050565b600082825260208201905092915050565b600082825260208201905092915050565b6000610d3682610d50565b9050919050565b6000819050610d4b82610f78565b919050565b600073ffffffffffffffffffffffffffffffffffffffff82169050919050565b6000819050919050565b6000610d8582610d3d565b9050919050565b60005b83811015610daa578082015181840152602081019050610d8f565b83811115610db9576000848401525b50505050565b60006002820490506001821680610dd757607f821691505b60208210811415610deb57610dea610e98565b5b50919050565b6000610dfc82610d70565b91507fffffffffffffffffffffffffffffffffffffffffffffffffffffffffffffffff821415610e2f57610e2e610e3a565b5b600182019050919050565b7f4e487b7100000000000000000000000000000000000000000000000000000000600052601160045260246000fd5b7f4e487b7100000000000000000000000000000000000000000000000000000000600052602160045260246000fd5b7f4e487b7100000000000000000000000000000000000000000000000000000000600052602260045260246000fd5b7f4e487b7100000000000000000000000000000000000000000000000000000000600052603260045260246000fd5b7f4e487b7100000000000000000000000000000000000000000000000000000000600052604160045260246000fd5b600080fd5b600080fd5b600080fd5b600080fd5b600080fd5b6000601f19601f8301169050919050565b7f4e6f7420616e206f776e65722100000000000000000000000000000000000000600082015250565b60028110610f8957610f88610e69565b5b50565b610f9581610d70565b8114610fa057600080fd5b5056fea2646970667358221220aaba206a81dc7fa9a4e21a07f1fb07f6a6985d5e8ae6053a7c3839deb395422a64736f6c63430008070033",
					"opcodes": "PUSH1 0x80 PUSH1 0x40 MSTORE CALLVALUE DUP1 ISZERO PUSH2 0x10 JUMPI PUSH1 0x0 DUP1 REVERT JUMPDEST POP CALLER PUSH20 0xFFFFFFFFFFFFFFFFFFFFFFFFFFFFFFFFFFFFFFFF AND PUSH1 0x2 PUSH1 0x0 SWAP1 SLOAD SWAP1 PUSH2 0x100 EXP SWAP1 POP POP POP PUSH2 0xFD9 DUP1 PUSH2 0x46 PUSH1 0x0 CODECOPY PUSH1 0x0 RETURN INVALID PUSH1 0x80 PUSH1 0x40 MSTORE PUSH1 0x4 CALLDATASIZE LT PUSH2 0x55 JUMPI PUSH1 0x0 CALLDATALOAD PUSH1 0xE0 SHR DUP1 PUSH4 0x8DA5CB5B EQ PUSH2 0x5A JUMPI DUP1 PUSH4 0xA6F2AE3A EQ PUSH2 0x85 JUMPI DUP1 PUSH4 0xA85C38EF EQ PUSH2 0x8F JUMPI DUP1 PUSH4 0xC557F979 EQ PUSH2 0xCF JUMPI DUP1 PUSH4 0xEA5DF059 EQ PUSH2 0xF8 JUMPI DUP1 PUSH4 0xEC34297A EQ PUSH2 0x139 JUMPI JUMPDEST PUSH1 0x0 DUP1 REVERT JUMPDEST CALLVALUE DUP1 ISZERO PUSH2 0x66 JUMPI PUSH1 0x0 DUP1 REVERT JUMPDEST POP PUSH2 0x6F PUSH2 0x164 JUMP JUMPDEST PUSH1 0x40 MLOAD PUSH2 0x7C SWAP2 SWAP1 PUSH2 0xBBB JUMP JUMPDEST PUSH1 0x40 MLOAD DUP1 SWAP2 SUB SWAP1 RETURN JUMPDEST PUSH2 0x8D PUSH2 0x18A JUMP JUMPDEST STOP JUMPDEST CALLVALUE DUP1 ISZERO PUSH2 0x9B JUMPI PUSH1 0x0 DUP1 REVERT JUMPDEST POP PUSH2 0xB6 PUSH1 0x4 DUP1 CALLDATASIZE SUB DUP2 ADD SWAP1 PUSH2 0xB1 SWAP2 SWAP1 PUSH2 0x9B7 JUMP JUMPDEST PUSH2 0x18C JUMP JUMPDEST PUSH1 0x40 MLOAD PUSH2 0xC6 SWAP5 SWAP4 SWAP3 SWAP2 SWAP1 PUSH2 0xBF8 JUMP JUMPDEST PUSH1 0x40 MLOAD DUP1 SWAP2 SUB SWAP1 RETURN JUMPDEST CALLVALUE DUP1 ISZERO PUSH2 0xDB JUMPI PUSH1 0x0 DUP1 REVERT JUMPDEST POP PUSH2 0xF6 PUSH1 0x4 DUP1 CALLDATASIZE SUB DUP2 ADD SWAP1 PUSH2 0xF1 SWAP2 SWAP1 PUSH2 0x910 JUMP JUMPDEST PUSH2 0x281 JUMP JUMPDEST STOP JUMPDEST CALLVALUE DUP1 ISZERO PUSH2 0x104 JUMPI PUSH1 0x0 DUP1 REVERT JUMPDEST POP PUSH2 0x11F PUSH1 0x4 DUP1 CALLDATASIZE SUB DUP2 ADD SWAP1 PUSH2 0x11A SWAP2 SWAP1 PUSH2 0x9B7 JUMP JUMPDEST PUSH2 0x467 JUMP JUMPDEST PUSH1 0x40 MLOAD PUSH2 0x130 SWAP6 SWAP5 SWAP4 SWAP3 SWAP2 SWAP1 PUSH2 0xC64 JUMP JUMPDEST PUSH1 0x40 MLOAD DUP1 SWAP2 SUB SWAP1 RETURN JUMPDEST CALLVALUE DUP1 ISZERO PUSH2 0x145 JUMPI PUSH1 0x0 DUP1 REVERT JUMPDEST POP PUSH2 0x14E PUSH2 0x5BD JUMP JUMPDEST PUSH1 0x40 MLOAD PUSH2 0x15B SWAP2 SWAP1 PUSH2 0xBD6 JUMP JUMPDEST PUSH1 0x40 MLOAD DUP1 SWAP2 SUB SWAP1 RETURN JUMPDEST PUSH1 0x2 PUSH1 0x0 SWAP1 SLOAD SWAP1 PUSH2 0x100 EXP SWAP1 DIV PUSH20 0xFFFFFFFFFFFFFFFFFFFFFFFFFFFFFFFFFFFFFFFF AND DUP2 JUMP JUMPDEST JUMP JUMPDEST PUSH1 0x1 DUP2 DUP2 SLOAD DUP2 LT PUSH2 0x19C JUMPI PUSH1 0x0 DUP1 REVERT JUMPDEST SWAP1 PUSH1 0x0 MSTORE PUSH1 0x20 PUSH1 0x0 KECCAK256 SWAP1 PUSH1 0x4 MUL ADD PUSH1 0x0 SWAP2 POP SWAP1 POP DUP1 PUSH1 0x0 ADD DUP1 SLOAD PUSH2 0x1BF SWAP1 PUSH2 0xDBF JUMP JUMPDEST DUP1 PUSH1 0x1F ADD PUSH1 0x20 DUP1 SWAP2 DIV MUL PUSH1 0x20 ADD PUSH1 0x40 MLOAD SWAP1 DUP2 ADD PUSH1 0x40 MSTORE DUP1 SWAP3 SWAP2 SWAP1 DUP2 DUP2 MSTORE PUSH1 0x20 ADD DUP3 DUP1 SLOAD PUSH2 0x1EB SWAP1 PUSH2 0xDBF JUMP JUMPDEST DUP1 ISZERO PUSH2 0x238 JUMPI DUP1 PUSH1 0x1F LT PUSH2 0x20D JUMPI PUSH2 0x100 DUP1 DUP4 SLOAD DIV MUL DUP4 MSTORE SWAP2 PUSH1 0x20 ADD SWAP2 PUSH2 0x238 JUMP JUMPDEST DUP3 ADD SWAP2 SWAP1 PUSH1 0x0 MSTORE PUSH1 0x20 PUSH1 0x0 KECCAK256 SWAP1 JUMPDEST DUP2 SLOAD DUP2 MSTORE SWAP1 PUSH1 0x1 ADD SWAP1 PUSH1 0x20 ADD DUP1 DUP4 GT PUSH2 0x21B JUMPI DUP3 SWAP1 SUB PUSH1 0x1F AND DUP3 ADD SWAP2 JUMPDEST POP POP POP POP POP SWAP1 DUP1 PUSH1 0x1 ADD PUSH1 0x0 SWAP1 SLOAD SWAP1 PUSH2 0x100 EXP SWAP1 DIV PUSH20 0xFFFFFFFFFFFFFFFFFFFFFFFFFFFFFFFFFFFFFFFF AND SWAP1 DUP1 PUSH1 0x2 ADD SLOAD SWAP1 DUP1 PUSH1 0x3 ADD PUSH1 0x0 SWAP1 SLOAD SWAP1 PUSH2 0x100 EXP SWAP1 DIV PUSH1 0xFF AND SWAP1 POP DUP5 JUMP JUMPDEST CALLER PUSH20 0xFFFFFFFFFFFFFFFFFFFFFFFFFFFFFFFFFFFFFFFF AND PUSH1 0x2 PUSH1 0x0 SWAP1 SLOAD SWAP1 PUSH2 0x100 EXP SWAP1 DIV PUSH20 0xFFFFFFFFFFFFFFFFFFFFFFFFFFFFFFFFFFFFFFFF AND PUSH20 0xFFFFFFFFFFFFFFFFFFFFFFFFFFFFFFFFFFFFFFFF AND EQ PUSH2 0x311 JUMPI PUSH1 0x40 MLOAD PUSH32 0x8C379A000000000000000000000000000000000000000000000000000000000 DUP2 MSTORE PUSH1 0x4 ADD PUSH2 0x308 SWAP1 PUSH2 0xC44 JUMP JUMPDEST PUSH1 0x40 MLOAD DUP1 SWAP2 SUB SWAP1 REVERT JUMPDEST PUSH1 0x0 PUSH1 0x40 MLOAD DUP1 PUSH1 0xA0 ADD PUSH1 0x40 MSTORE DUP1 PUSH1 0x3 SLOAD DUP2 MSTORE PUSH1 0x20 ADD DUP9 DUP9 DUP1 DUP1 PUSH1 0x1F ADD PUSH1 0x20 DUP1 SWAP2 DIV MUL PUSH1 0x20 ADD PUSH1 0x40 MLOAD SWAP1 DUP2 ADD PUSH1 0x40 MSTORE DUP1 SWAP4 SWAP3 SWAP2 SWAP1 DUP2 DUP2 MSTORE PUSH1 0x20 ADD DUP4 DUP4 DUP1 DUP3 DUP5 CALLDATACOPY PUSH1 0x0 DUP2 DUP5 ADD MSTORE PUSH1 0x1F NOT PUSH1 0x1F DUP3 ADD AND SWAP1 POP DUP1 DUP4 ADD SWAP3 POP POP POP POP POP POP POP DUP2 MSTORE PUSH1 0x20 ADD DUP7 DUP7 DUP1 DUP1 PUSH1 0x1F ADD PUSH1 0x20 DUP1 SWAP2 DIV MUL PUSH1 0x20 ADD PUSH1 0x40 MLOAD SWAP1 DUP2 ADD PUSH1 0x40 MSTORE DUP1 SWAP4 SWAP3 SWAP2 SWAP1 DUP2 DUP2 MSTORE PUSH1 0x20 ADD DUP4 DUP4 DUP1 DUP3 DUP5 CALLDATACOPY PUSH1 0x0 DUP2 DUP5 ADD MSTORE PUSH1 0x1F NOT PUSH1 0x1F DUP3 ADD AND SWAP1 POP DUP1 DUP4 ADD SWAP3 POP POP POP POP POP POP POP DUP2 MSTORE PUSH1 0x20 ADD DUP5 DUP2 MSTORE PUSH1 0x20 ADD DUP4 DUP2 MSTORE POP SWAP1 DUP1 PUSH1 0x1 DUP2 SLOAD ADD DUP1 DUP3 SSTORE DUP1 SWAP2 POP POP PUSH1 0x1 SWAP1 SUB SWAP1 PUSH1 0x0 MSTORE PUSH1 0x20 PUSH1 0x0 KECCAK256 SWAP1 PUSH1 0x5 MUL ADD PUSH1 0x0 SWAP1 SWAP2 SWAP1 SWAP2 SWAP1 SWAP2 POP PUSH1 0x0 DUP3 ADD MLOAD DUP2 PUSH1 0x0 ADD SSTORE PUSH1 0x20 DUP3 ADD MLOAD DUP2 PUSH1 0x1 ADD SWAP1 DUP1 MLOAD SWAP1 PUSH1 0x20 ADD SWAP1 PUSH2 0x413 SWAP3 SWAP2 SWAP1 PUSH2 0x7D3 JUMP JUMPDEST POP PUSH1 0x40 DUP3 ADD MLOAD DUP2 PUSH1 0x2 ADD SWAP1 DUP1 MLOAD SWAP1 PUSH1 0x20 ADD SWAP1 PUSH2 0x430 SWAP3 SWAP2 SWAP1 PUSH2 0x7D3 JUMP JUMPDEST POP PUSH1 0x60 DUP3 ADD MLOAD DUP2 PUSH1 0x3 ADD SSTORE PUSH1 0x80 DUP3 ADD MLOAD DUP2 PUSH1 0x4 ADD SSTORE POP POP PUSH1 0x3 PUSH1 0x0 DUP2 SLOAD DUP1 SWAP3 SWAP2 SWAP1 PUSH2 0x45A SWAP1 PUSH2 0xDF1 JUMP JUMPDEST SWAP2 SWAP1 POP SSTORE POP POP POP POP POP POP POP JUMP JUMPDEST PUSH1 0x0 DUP2 DUP2 SLOAD DUP2 LT PUSH2 0x477 JUMPI PUSH1 0x0 DUP1 REVERT JUMPDEST SWAP1 PUSH1 0x0 MSTORE PUSH1 0x20 PUSH1 0x0 KECCAK256 SWAP1 PUSH1 0x5 MUL ADD PUSH1 0x0 SWAP2 POP SWAP1 POP DUP1 PUSH1 0x0 ADD SLOAD SWAP1 DUP1 PUSH1 0x1 ADD DUP1 SLOAD PUSH2 0x4A0 SWAP1 PUSH2 0xDBF JUMP JUMPDEST DUP1 PUSH1 0x1F ADD PUSH1 0x20 DUP1 SWAP2 DIV MUL PUSH1 0x20 ADD PUSH1 0x40 MLOAD SWAP1 DUP2 ADD PUSH1 0x40 MSTORE DUP1 SWAP3 SWAP2 SWAP1 DUP2 DUP2 MSTORE PUSH1 0x20 ADD DUP3 DUP1 SLOAD PUSH2 0x4CC SWAP1 PUSH2 0xDBF JUMP JUMPDEST DUP1 ISZERO PUSH2 0x519 JUMPI DUP1 PUSH1 0x1F LT PUSH2 0x4EE JUMPI PUSH2 0x100 DUP1 DUP4 SLOAD DIV MUL DUP4 MSTORE SWAP2 PUSH1 0x20 ADD SWAP2 PUSH2 0x519 JUMP JUMPDEST DUP3 ADD SWAP2 SWAP1 PUSH1 0x0 MSTORE PUSH1 0x20 PUSH1 0x0 KECCAK256 SWAP1 JUMPDEST DUP2 SLOAD DUP2 MSTORE SWAP1 PUSH1 0x1 ADD SWAP1 PUSH1 0x20 ADD DUP1 DUP4 GT PUSH2 0x4FC JUMPI DUP3 SWAP1 SUB PUSH1 0x1F AND DUP3 ADD SWAP2 JUMPDEST POP POP POP POP POP SWAP1 DUP1 PUSH1 0x2 ADD DUP1 SLOAD PUSH2 0x52E SWAP1 PUSH2 0xDBF JUMP JUMPDEST DUP1 PUSH1 0x1F ADD PUSH1 0x20 DUP1 SWAP2 DIV MUL PUSH1 0x20 ADD PUSH1 0x40 MLOAD SWAP1 DUP2 ADD PUSH1 0x40 MSTORE DUP1 SWAP3 SWAP2 SWAP1 DUP2 DUP2 MSTORE PUSH1 0x20 ADD DUP3 DUP1 SLOAD PUSH2 0x55A SWAP1 PUSH2 0xDBF JUMP JUMPDEST DUP1 ISZERO PUSH2 0x5A7 JUMPI DUP1 PUSH1 0x1F LT PUSH2 0x57C JUMPI PUSH2 0x100 DUP1 DUP4 SLOAD DIV MUL DUP4 MSTORE SWAP2 PUSH1 0x20 ADD SWAP2 PUSH2 0x5A7 JUMP JUMPDEST DUP3 ADD SWAP2 SWAP1 PUSH1 0x0 MSTORE PUSH1 0x20 PUSH1 0x0 KECCAK256 SWAP1 JUMPDEST DUP2 SLOAD DUP2 MSTORE SWAP1 PUSH1 0x1 ADD SWAP1 PUSH1 0x20 ADD DUP1 DUP4 GT PUSH2 0x58A JUMPI DUP3 SWAP1 SUB PUSH1 0x1F AND DUP3 ADD SWAP2 JUMPDEST POP POP POP POP POP SWAP1 DUP1 PUSH1 0x3 ADD SLOAD SWAP1 DUP1 PUSH1 0x4 ADD SLOAD SWAP1 POP DUP6 JUMP JUMPDEST PUSH1 0x60 PUSH1 0x0 DUP1 DUP1 SLOAD SWAP1 POP PUSH8 0xFFFFFFFFFFFFFFFF DUP2 GT ISZERO PUSH2 0x5DF JUMPI PUSH2 0x5DE PUSH2 0xEF6 JUMP JUMPDEST JUMPDEST PUSH1 0x40 MLOAD SWAP1 DUP1 DUP3 MSTORE DUP1 PUSH1 0x20 MUL PUSH1 0x20 ADD DUP3 ADD PUSH1 0x40 MSTORE DUP1 ISZERO PUSH2 0x618 JUMPI DUP2 PUSH1 0x20 ADD JUMPDEST PUSH2 0x605 PUSH2 0x859 JUMP JUMPDEST DUP2 MSTORE PUSH1 0x20 ADD SWAP1 PUSH1 0x1 SWAP1 SUB SWAP1 DUP2 PUSH2 0x5FD JUMPI SWAP1 POP JUMPDEST POP SWAP1 POP PUSH1 0x0 JUMPDEST PUSH1 0x0 DUP1 SLOAD SWAP1 POP DUP2 LT ISZERO PUSH2 0x7CB JUMPI PUSH1 0x0 DUP2 DUP2 SLOAD DUP2 LT PUSH2 0x63F JUMPI PUSH2 0x63E PUSH2 0xEC7 JUMP JUMPDEST JUMPDEST SWAP1 PUSH1 0x0 MSTORE PUSH1 0x20 PUSH1 0x0 KECCAK256 SWAP1 PUSH1 0x5 MUL ADD PUSH1 0x40 MLOAD DUP1 PUSH1 0xA0 ADD PUSH1 0x40 MSTORE SWAP1 DUP2 PUSH1 0x0 DUP3 ADD SLOAD DUP2 MSTORE PUSH1 0x20 ADD PUSH1 0x1 DUP3 ADD DUP1 SLOAD PUSH2 0x672 SWAP1 PUSH2 0xDBF JUMP JUMPDEST DUP1 PUSH1 0x1F ADD PUSH1 0x20 DUP1 SWAP2 DIV MUL PUSH1 0x20 ADD PUSH1 0x40 MLOAD SWAP1 DUP2 ADD PUSH1 0x40 MSTORE DUP1 SWAP3 SWAP2 SWAP1 DUP2 DUP2 MSTORE PUSH1 0x20 ADD DUP3 DUP1 SLOAD PUSH2 0x69E SWAP1 PUSH2 0xDBF JUMP JUMPDEST DUP1 ISZERO PUSH2 0x6EB JUMPI DUP1 PUSH1 0x1F LT PUSH2 0x6C0 JUMPI PUSH2 0x100 DUP1 DUP4 SLOAD DIV MUL DUP4 MSTORE SWAP2 PUSH1 0x20 ADD SWAP2 PUSH2 0x6EB JUMP JUMPDEST DUP3 ADD SWAP2 SWAP1 PUSH1 0x0 MSTORE PUSH1 0x20 PUSH1 0x0 KECCAK256 SWAP1 JUMPDEST DUP2 SLOAD DUP2 MSTORE SWAP1 PUSH1 0x1 ADD SWAP1 PUSH1 0x20 ADD DUP1 DUP4 GT PUSH2 0x6CE JUMPI DUP3 SWAP1 SUB PUSH1 0x1F AND DUP3 ADD SWAP2 JUMPDEST POP POP POP POP POP DUP2 MSTORE PUSH1 0x20 ADD PUSH1 0x2 DUP3 ADD DUP1 SLOAD PUSH2 0x704 SWAP1 PUSH2 0xDBF JUMP JUMPDEST DUP1 PUSH1 0x1F ADD PUSH1 0x20 DUP1 SWAP2 DIV MUL PUSH1 0x20 ADD PUSH1 0x40 MLOAD SWAP1 DUP2 ADD PUSH1 0x40 MSTORE DUP1 SWAP3 SWAP2 SWAP1 DUP2 DUP2 MSTORE PUSH1 0x20 ADD DUP3 DUP1 SLOAD PUSH2 0x730 SWAP1 PUSH2 0xDBF JUMP JUMPDEST DUP1 ISZERO PUSH2 0x77D JUMPI DUP1 PUSH1 0x1F LT PUSH2 0x752 JUMPI PUSH2 0x100 DUP1 DUP4 SLOAD DIV MUL DUP4 MSTORE SWAP2 PUSH1 0x20 ADD SWAP2 PUSH2 0x77D JUMP JUMPDEST DUP3 ADD SWAP2 SWAP1 PUSH1 0x0 MSTORE PUSH1 0x20 PUSH1 0x0 KECCAK256 SWAP1 JUMPDEST DUP2 SLOAD DUP2 MSTORE SWAP1 PUSH1 0x1 ADD SWAP1 PUSH1 0x20 ADD DUP1 DUP4 GT PUSH2 0x760 JUMPI DUP3 SWAP1 SUB PUSH1 0x1F AND DUP3 ADD SWAP2 JUMPDEST POP POP POP POP POP DUP2 MSTORE PUSH1 0x20 ADD PUSH1 0x3 DUP3 ADD SLOAD DUP2 MSTORE PUSH1 0x20 ADD PUSH1 0x4 DUP3 ADD SLOAD DUP2 MSTORE POP POP DUP3 DUP3 DUP2 MLOAD DUP2 LT PUSH2 0x7AD JUMPI PUSH2 0x7AC PUSH2 0xEC7 JUMP JUMPDEST JUMPDEST PUSH1 0x20 MUL PUSH1 0x20 ADD ADD DUP2 SWAP1 MSTORE POP DUP1 DUP1 PUSH2 0x7C3 SWAP1 PUSH2 0xDF1 JUMP JUMPDEST SWAP2 POP POP PUSH2 0x61E JUMP JUMPDEST POP DUP1 SWAP2 POP POP SWAP1 JUMP JUMPDEST DUP3 DUP1 SLOAD PUSH2 0x7DF SWAP1 PUSH2 0xDBF JUMP JUMPDEST SWAP1 PUSH1 0x0 MSTORE PUSH1 0x20 PUSH1 0x0 KECCAK256 SWAP1 PUSH1 0x1F ADD PUSH1 0x20 SWAP1 DIV DUP2 ADD SWAP3 DUP3 PUSH2 0x801 JUMPI PUSH1 0x0 DUP6 SSTORE PUSH2 0x848 JUMP JUMPDEST DUP3 PUSH1 0x1F LT PUSH2 0x81A JUMPI DUP1 MLOAD PUSH1 0xFF NOT AND DUP4 DUP1 ADD OR DUP6 SSTORE PUSH2 0x848 JUMP JUMPDEST DUP3 DUP1 ADD PUSH1 0x1 ADD DUP6 SSTORE DUP3 ISZERO PUSH2 0x848 JUMPI SWAP2 DUP3 ADD JUMPDEST DUP3 DUP2 GT ISZERO PUSH2 0x847 JUMPI DUP3 MLOAD DUP3 SSTORE SWAP2 PUSH1 0x20 ADD SWAP2 SWAP1 PUSH1 0x1 ADD SWAP1 PUSH2 0x82C JUMP JUMPDEST JUMPDEST POP SWAP1 POP PUSH2 0x855 SWAP2 SWAP1 PUSH2 0x888 JUMP JUMPDEST POP SWAP1 JUMP JUMPDEST PUSH1 0x40 MLOAD DUP1 PUSH1 0xA0 ADD PUSH1 0x40 MSTORE DUP1 PUSH1 0x0 DUP2 MSTORE PUSH1 0x20 ADD PUSH1 0x60 DUP2 MSTORE PUSH1 0x20 ADD PUSH1 0x60 DUP2 MSTORE PUSH1 0x20 ADD PUSH1 0x0 DUP2 MSTORE PUSH1 0x20 ADD PUSH1 0x0 DUP2 MSTORE POP SWAP1 JUMP JUMPDEST JUMPDEST DUP1 DUP3 GT ISZERO PUSH2 0x8A1 JUMPI PUSH1 0x0 DUP2 PUSH1 0x0 SWAP1 SSTORE POP PUSH1 0x1 ADD PUSH2 0x889 JUMP JUMPDEST POP SWAP1 JUMP JUMPDEST PUSH1 0x0 DUP1 DUP4 PUSH1 0x1F DUP5 ADD SLT PUSH2 0x8BB JUMPI PUSH2 0x8BA PUSH2 0xF2A JUMP JUMPDEST JUMPDEST DUP3 CALLDATALOAD SWAP1 POP PUSH8 0xFFFFFFFFFFFFFFFF DUP2 GT ISZERO PUSH2 0x8D8 JUMPI PUSH2 0x8D7 PUSH2 0xF25 JUMP JUMPDEST JUMPDEST PUSH1 0x20 DUP4 ADD SWAP2 POP DUP4 PUSH1 0x1 DUP3 MUL DUP4 ADD GT ISZERO PUSH2 0x8F4 JUMPI PUSH2 0x8F3 PUSH2 0xF2F JUMP JUMPDEST JUMPDEST SWAP3 POP SWAP3 SWAP1 POP JUMP JUMPDEST PUSH1 0x0 DUP2 CALLDATALOAD SWAP1 POP PUSH2 0x90A DUP2 PUSH2 0xF8C JUMP JUMPDEST SWAP3 SWAP2 POP POP JUMP JUMPDEST PUSH1 0x0 DUP1 PUSH1 0x0 DUP1 PUSH1 0x0 DUP1 PUSH1 0x80 DUP8 DUP10 SUB SLT ISZERO PUSH2 0x92D JUMPI PUSH2 0x92C PUSH2 0xF39 JUMP JUMPDEST JUMPDEST PUSH1 0x0 DUP8 ADD CALLDATALOAD PUSH8 0xFFFFFFFFFFFFFFFF DUP2 GT ISZERO PUSH2 0x94B JUMPI PUSH2 0x94A PUSH2 0xF34 JUMP JUMPDEST JUMPDEST PUSH2 0x957 DUP10 DUP3 DUP11 ADD PUSH2 0x8A5 JUMP JUMPDEST SWAP7 POP SWAP7 POP POP PUSH1 0x20 DUP8 ADD CALLDATALOAD PUSH8 0xFFFFFFFFFFFFFFFF DUP2 GT ISZERO PUSH2 0x97A JUMPI PUSH2 0x979 PUSH2 0xF34 JUMP JUMPDEST JUMPDEST PUSH2 0x986 DUP10 DUP3 DUP11 ADD PUSH2 0x8A5 JUMP JUMPDEST SWAP5 POP SWAP5 POP POP PUSH1 0x40 PUSH2 0x999 DUP10 DUP3 DUP11 ADD PUSH2 0x8FB JUMP JUMPDEST SWAP3 POP POP PUSH1 0x60 PUSH2 0x9AA DUP10 DUP3 DUP11 ADD PUSH2 0x8FB JUMP JUMPDEST SWAP2 POP POP SWAP3 SWAP6 POP SWAP3 SWAP6 POP SWAP3 SWAP6 JUMP JUMPDEST PUSH1 0x0 PUSH1 0x20 DUP3 DUP5 SUB SLT ISZERO PUSH2 0x9CD JUMPI PUSH2 0x9CC PUSH2 0xF39 JUMP JUMPDEST JUMPDEST PUSH1 0x0 PUSH2 0x9DB DUP5 DUP3 DUP6 ADD PUSH2 0x8FB JUMP JUMPDEST SWAP2 POP POP SWAP3 SWAP2 POP POP JUMP JUMPDEST PUSH1 0x0 PUSH2 0x9F0 DUP4 DUP4 PUSH2 0xB20 JUMP JUMPDEST SWAP1 POP SWAP3 SWAP2 POP POP JUMP JUMPDEST PUSH2 0xA01 DUP2 PUSH2 0xD2B JUMP JUMPDEST DUP3 MSTORE POP POP JUMP JUMPDEST PUSH1 0x0 PUSH2 0xA12 DUP3 PUSH2 0xCD5 JUMP JUMPDEST PUSH2 0xA1C DUP2 DUP6 PUSH2 0xCF8 JUMP JUMPDEST SWAP4 POP DUP4 PUSH1 0x20 DUP3 MUL DUP6 ADD PUSH2 0xA2E DUP6 PUSH2 0xCC5 JUMP JUMPDEST DUP1 PUSH1 0x0 JUMPDEST DUP6 DUP2 LT ISZERO PUSH2 0xA6A JUMPI DUP5 DUP5 SUB DUP10 MSTORE DUP2 MLOAD PUSH2 0xA4B DUP6 DUP3 PUSH2 0x9E4 JUMP JUMPDEST SWAP5 POP PUSH2 0xA56 DUP4 PUSH2 0xCEB JUMP JUMPDEST SWAP3 POP PUSH1 0x20 DUP11 ADD SWAP10 POP POP PUSH1 0x1 DUP2 ADD SWAP1 POP PUSH2 0xA32 JUMP JUMPDEST POP DUP3 SWAP8 POP DUP8 SWAP6 POP POP POP POP POP POP SWAP3 SWAP2 POP POP JUMP JUMPDEST PUSH2 0xA85 DUP2 PUSH2 0xD7A JUMP JUMPDEST DUP3 MSTORE POP POP JUMP JUMPDEST PUSH1 0x0 PUSH2 0xA96 DUP3 PUSH2 0xCE0 JUMP JUMPDEST PUSH2 0xAA0 DUP2 DUP6 PUSH2 0xD09 JUMP JUMPDEST SWAP4 POP PUSH2 0xAB0 DUP2 DUP6 PUSH1 0x20 DUP7 ADD PUSH2 0xD8C JUMP JUMPDEST PUSH2 0xAB9 DUP2 PUSH2 0xF3E JUMP JUMPDEST DUP5 ADD SWAP2 POP POP SWAP3 SWAP2 POP POP JUMP JUMPDEST PUSH1 0x0 PUSH2 0xACF DUP3 PUSH2 0xCE0 JUMP JUMPDEST PUSH2 0xAD9 DUP2 DUP6 PUSH2 0xD1A JUMP JUMPDEST SWAP4 POP PUSH2 0xAE9 DUP2 DUP6 PUSH1 0x20 DUP7 ADD PUSH2 0xD8C JUMP JUMPDEST PUSH2 0xAF2 DUP2 PUSH2 0xF3E JUMP JUMPDEST DUP5 ADD SWAP2 POP POP SWAP3 SWAP2 POP POP JUMP JUMPDEST PUSH1 0x0 PUSH2 0xB0A PUSH1 0xD DUP4 PUSH2 0xD1A JUMP JUMPDEST SWAP2 POP PUSH2 0xB15 DUP3 PUSH2 0xF4F JUMP JUMPDEST PUSH1 0x20 DUP3 ADD SWAP1 POP SWAP2 SWAP1 POP JUMP JUMPDEST PUSH1 0x0 PUSH1 0xA0 DUP4 ADD PUSH1 0x0 DUP4 ADD MLOAD PUSH2 0xB38 PUSH1 0x0 DUP7 ADD DUP3 PUSH2 0xB9D JUMP JUMPDEST POP PUSH1 0x20 DUP4 ADD MLOAD DUP5 DUP3 SUB PUSH1 0x20 DUP7 ADD MSTORE PUSH2 0xB50 DUP3 DUP3 PUSH2 0xA8B JUMP JUMPDEST SWAP2 POP POP PUSH1 0x40 DUP4 ADD MLOAD DUP5 DUP3 SUB PUSH1 0x40 DUP7 ADD MSTORE PUSH2 0xB6A DUP3 DUP3 PUSH2 0xA8B JUMP JUMPDEST SWAP2 POP POP PUSH1 0x60 DUP4 ADD MLOAD PUSH2 0xB7F PUSH1 0x60 DUP7 ADD DUP3 PUSH2 0xB9D JUMP JUMPDEST POP PUSH1 0x80 DUP4 ADD MLOAD PUSH2 0xB92 PUSH1 0x80 DUP7 ADD DUP3 PUSH2 0xB9D JUMP JUMPDEST POP DUP1 SWAP2 POP POP SWAP3 SWAP2 POP POP JUMP JUMPDEST PUSH2 0xBA6 DUP2 PUSH2 0xD70 JUMP JUMPDEST DUP3 MSTORE POP POP JUMP JUMPDEST PUSH2 0xBB5 DUP2 PUSH2 0xD70 JUMP JUMPDEST DUP3 MSTORE POP POP JUMP JUMPDEST PUSH1 0x0 PUSH1 0x20 DUP3 ADD SWAP1 POP PUSH2 0xBD0 PUSH1 0x0 DUP4 ADD DUP5 PUSH2 0x9F8 JUMP JUMPDEST SWAP3 SWAP2 POP POP JUMP JUMPDEST PUSH1 0x0 PUSH1 0x20 DUP3 ADD SWAP1 POP DUP2 DUP2 SUB PUSH1 0x0 DUP4 ADD MSTORE PUSH2 0xBF0 DUP2 DUP5 PUSH2 0xA07 JUMP JUMPDEST SWAP1 POP SWAP3 SWAP2 POP POP JUMP JUMPDEST PUSH1 0x0 PUSH1 0x80 DUP3 ADD SWAP1 POP DUP2 DUP2 SUB PUSH1 0x0 DUP4 ADD MSTORE PUSH2 0xC12 DUP2 DUP8 PUSH2 0xAC4 JUMP JUMPDEST SWAP1 POP PUSH2 0xC21 PUSH1 0x20 DUP4 ADD DUP7 PUSH2 0x9F8 JUMP JUMPDEST PUSH2 0xC2E PUSH1 0x40 DUP4 ADD DUP6 PUSH2 0xBAC JUMP JUMPDEST PUSH2 0xC3B PUSH1 0x60 DUP4 ADD DUP5 PUSH2 0xA7C JUMP JUMPDEST SWAP6 SWAP5 POP POP POP POP POP JUMP JUMPDEST PUSH1 0x0 PUSH1 0x20 DUP3 ADD SWAP1 POP DUP2 DUP2 SUB PUSH1 0x0 DUP4 ADD MSTORE PUSH2 0xC5D DUP2 PUSH2 0xAFD JUMP JUMPDEST SWAP1 POP SWAP2 SWAP1 POP JUMP JUMPDEST PUSH1 0x0 PUSH1 0xA0 DUP3 ADD SWAP1 POP PUSH2 0xC79 PUSH1 0x0 DUP4 ADD DUP9 PUSH2 0xBAC JUMP JUMPDEST DUP2 DUP2 SUB PUSH1 0x20 DUP4 ADD MSTORE PUSH2 0xC8B DUP2 DUP8 PUSH2 0xAC4 JUMP JUMPDEST SWAP1 POP DUP2 DUP2 SUB PUSH1 0x40 DUP4 ADD MSTORE PUSH2 0xC9F DUP2 DUP7 PUSH2 0xAC4 JUMP JUMPDEST SWAP1 POP PUSH2 0xCAE PUSH1 0x60 DUP4 ADD DUP6 PUSH2 0xBAC JUMP JUMPDEST PUSH2 0xCBB PUSH1 0x80 DUP4 ADD DUP5 PUSH2 0xBAC JUMP JUMPDEST SWAP7 SWAP6 POP POP POP POP POP POP JUMP JUMPDEST PUSH1 0x0 DUP2 SWAP1 POP PUSH1 0x20 DUP3 ADD SWAP1 POP SWAP2 SWAP1 POP JUMP JUMPDEST PUSH1 0x0 DUP2 MLOAD SWAP1 POP SWAP2 SWAP1 POP JUMP JUMPDEST PUSH1 0x0 DUP2 MLOAD SWAP1 POP SWAP2 SWAP1 POP JUMP JUMPDEST PUSH1 0x0 PUSH1 0x20 DUP3 ADD SWAP1 POP SWAP2 SWAP1 POP JUMP JUMPDEST PUSH1 0x0 DUP3 DUP3 MSTORE PUSH1 0x20 DUP3 ADD SWAP1 POP SWAP3 SWAP2 POP POP JUMP JUMPDEST PUSH1 0x0 DUP3 DUP3 MSTORE PUSH1 0x20 DUP3 ADD SWAP1 POP SWAP3 SWAP2 POP POP JUMP JUMPDEST PUSH1 0x0 DUP3 DUP3 MSTORE PUSH1 0x20 DUP3 ADD SWAP1 POP SWAP3 SWAP2 POP POP JUMP JUMPDEST PUSH1 0x0 PUSH2 0xD36 DUP3 PUSH2 0xD50 JUMP JUMPDEST SWAP1 POP SWAP2 SWAP1 POP JUMP JUMPDEST PUSH1 0x0 DUP2 SWAP1 POP PUSH2 0xD4B DUP3 PUSH2 0xF78 JUMP JUMPDEST SWAP2 SWAP1 POP JUMP JUMPDEST PUSH1 0x0 PUSH20 0xFFFFFFFFFFFFFFFFFFFFFFFFFFFFFFFFFFFFFFFF DUP3 AND SWAP1 POP SWAP2 SWAP1 POP JUMP JUMPDEST PUSH1 0x0 DUP2 SWAP1 POP SWAP2 SWAP1 POP JUMP JUMPDEST PUSH1 0x0 PUSH2 0xD85 DUP3 PUSH2 0xD3D JUMP JUMPDEST SWAP1 POP SWAP2 SWAP1 POP JUMP JUMPDEST PUSH1 0x0 JUMPDEST DUP4 DUP2 LT ISZERO PUSH2 0xDAA JUMPI DUP1 DUP3 ADD MLOAD DUP2 DUP5 ADD MSTORE PUSH1 0x20 DUP2 ADD SWAP1 POP PUSH2 0xD8F JUMP JUMPDEST DUP4 DUP2 GT ISZERO PUSH2 0xDB9 JUMPI PUSH1 0x0 DUP5 DUP5 ADD MSTORE JUMPDEST POP POP POP POP JUMP JUMPDEST PUSH1 0x0 PUSH1 0x2 DUP3 DIV SWAP1 POP PUSH1 0x1 DUP3 AND DUP1 PUSH2 0xDD7 JUMPI PUSH1 0x7F DUP3 AND SWAP2 POP JUMPDEST PUSH1 0x20 DUP3 LT DUP2 EQ ISZERO PUSH2 0xDEB JUMPI PUSH2 0xDEA PUSH2 0xE98 JUMP JUMPDEST JUMPDEST POP SWAP2 SWAP1 POP JUMP JUMPDEST PUSH1 0x0 PUSH2 0xDFC DUP3 PUSH2 0xD70 JUMP JUMPDEST SWAP2 POP PUSH32 0xFFFFFFFFFFFFFFFFFFFFFFFFFFFFFFFFFFFFFFFFFFFFFFFFFFFFFFFFFFFFFFFF DUP3 EQ ISZERO PUSH2 0xE2F JUMPI PUSH2 0xE2E PUSH2 0xE3A JUMP JUMPDEST JUMPDEST PUSH1 0x1 DUP3 ADD SWAP1 POP SWAP2 SWAP1 POP JUMP JUMPDEST PUSH32 0x4E487B7100000000000000000000000000000000000000000000000000000000 PUSH1 0x0 MSTORE PUSH1 0x11 PUSH1 0x4 MSTORE PUSH1 0x24 PUSH1 0x0 REVERT JUMPDEST PUSH32 0x4E487B7100000000000000000000000000000000000000000000000000000000 PUSH1 0x0 MSTORE PUSH1 0x21 PUSH1 0x4 MSTORE PUSH1 0x24 PUSH1 0x0 REVERT JUMPDEST PUSH32 0x4E487B7100000000000000000000000000000000000000000000000000000000 PUSH1 0x0 MSTORE PUSH1 0x22 PUSH1 0x4 MSTORE PUSH1 0x24 PUSH1 0x0 REVERT JUMPDEST PUSH32 0x4E487B7100000000000000000000000000000000000000000000000000000000 PUSH1 0x0 MSTORE PUSH1 0x32 PUSH1 0x4 MSTORE PUSH1 0x24 PUSH1 0x0 REVERT JUMPDEST PUSH32 0x4E487B7100000000000000000000000000000000000000000000000000000000 PUSH1 0x0 MSTORE PUSH1 0x41 PUSH1 0x4 MSTORE PUSH1 0x24 PUSH1 0x0 REVERT JUMPDEST PUSH1 0x0 DUP1 REVERT JUMPDEST PUSH1 0x0 DUP1 REVERT JUMPDEST PUSH1 0x0 DUP1 REVERT JUMPDEST PUSH1 0x0 DUP1 REVERT JUMPDEST PUSH1 0x0 DUP1 REVERT JUMPDEST PUSH1 0x0 PUSH1 0x1F NOT PUSH1 0x1F DUP4 ADD AND SWAP1 POP SWAP2 SWAP1 POP JUMP JUMPDEST PUSH32 0x4E6F7420616E206F776E65722100000000000000000000000000000000000000 PUSH1 0x0 DUP3 ADD MSTORE POP JUMP JUMPDEST PUSH1 0x2 DUP2 LT PUSH2 0xF89 JUMPI PUSH2 0xF88 PUSH2 0xE69 JUMP JUMPDEST JUMPDEST POP JUMP JUMPDEST PUSH2 0xF95 DUP2 PUSH2 0xD70 JUMP JUMPDEST DUP2 EQ PUSH2 0xFA0 JUMPI PUSH1 0x0 DUP1 REVERT JUMPDEST POP JUMP INVALID LOG2 PUSH5 0x6970667358 0x22 SLT KECCAK256 0xAA 0xBA KECCAK256 PUSH11 0x81DC7FA9A4E21A07F1FB07 0xF6 0xA6 SWAP9 0x5D 0x5E DUP11 0xE6 SDIV GASPRICE PUSH29 0x3839DEB395422A64736F6C634300080700330000000000000000000000 "
				},
				"gasEstimates": {
					"creation": {
						"codeDepositCost": "811400",
						"executionCost": "2986",
						"totalCost": "814386"
					},
					"external": {
						"addAlbum(string,string,uint256,uint256)": "infinite",
						"albums(uint256)": "infinite",
						"allAlbums()": "infinite",
						"buy()": "120",
						"orders(uint256)": "infinite",
						"owner()": "2492"
					}
				},
				"methodIdentifiers": {
					"addAlbum(string,string,uint256,uint256)": "c557f979",
					"albums(uint256)": "ea5df059",
					"allAlbums()": "ec34297a",
					"buy()": "a6f2ae3a",
					"orders(uint256)": "a85c38ef",
					"owner()": "8da5cb5b"
				}
			},
			"storageLayout": {
				"storage": [
					{
						"astId": 29,
						"contract": "contracts/MusicStore.sol:MusicStore",
						"label": "albums",
						"offset": 0,
						"slot": "0",
						"type": "t_array(t_struct(Album)12_storage)dyn_storage"
					},
					{
						"astId": 33,
						"contract": "contracts/MusicStore.sol:MusicStore",
						"label": "orders",
						"offset": 0,
						"slot": "1",
						"type": "t_array(t_struct(Order)22_storage)dyn_storage"
					},
					{
						"astId": 35,
						"contract": "contracts/MusicStore.sol:MusicStore",
						"label": "owner",
						"offset": 0,
						"slot": "2",
						"type": "t_address"
					},
					{
						"astId": 37,
						"contract": "contracts/MusicStore.sol:MusicStore",
						"label": "currentIndex",
						"offset": 0,
						"slot": "3",
						"type": "t_uint256"
					}
				],
				"types": {
					"t_address": {
						"encoding": "inplace",
						"label": "address",
						"numberOfBytes": "20"
					},
					"t_array(t_struct(Album)12_storage)dyn_storage": {
						"base": "t_struct(Album)12_storage",
						"encoding": "dynamic_array",
						"label": "struct MusicStore.Album[]",
						"numberOfBytes": "32"
					},
					"t_array(t_struct(Order)22_storage)dyn_storage": {
						"base": "t_struct(Order)22_storage",
						"encoding": "dynamic_array",
						"label": "struct MusicStore.Order[]",
						"numberOfBytes": "32"
					},
					"t_enum(OrderStatus)25": {
						"encoding": "inplace",
						"label": "enum MusicStore.OrderStatus",
						"numberOfBytes": "1"
					},
					"t_string_storage": {
						"encoding": "bytes",
						"label": "string",
						"numberOfBytes": "32"
					},
					"t_struct(Album)12_storage": {
						"encoding": "inplace",
						"label": "struct MusicStore.Album",
						"members": [
							{
								"astId": 3,
								"contract": "contracts/MusicStore.sol:MusicStore",
								"label": "index",
								"offset": 0,
								"slot": "0",
								"type": "t_uint256"
							},
							{
								"astId": 5,
								"contract": "contracts/MusicStore.sol:MusicStore",
								"label": "uid",
								"offset": 0,
								"slot": "1",
								"type": "t_string_storage"
							},
							{
								"astId": 7,
								"contract": "contracts/MusicStore.sol:MusicStore",
								"label": "title",
								"offset": 0,
								"slot": "2",
								"type": "t_string_storage"
							},
							{
								"astId": 9,
								"contract": "contracts/MusicStore.sol:MusicStore",
								"label": "price",
								"offset": 0,
								"slot": "3",
								"type": "t_uint256"
							},
							{
								"astId": 11,
								"contract": "contracts/MusicStore.sol:MusicStore",
								"label": "quantity",
								"offset": 0,
								"slot": "4",
								"type": "t_uint256"
							}
						],
						"numberOfBytes": "160"
					},
					"t_struct(Order)22_storage": {
						"encoding": "inplace",
						"label": "struct MusicStore.Order",
						"members": [
							{
								"astId": 14,
								"contract": "contracts/MusicStore.sol:MusicStore",
								"label": "albumUid",
								"offset": 0,
								"slot": "0",
								"type": "t_string_storage"
							},
							{
								"astId": 16,
								"contract": "contracts/MusicStore.sol:MusicStore",
								"label": "customer",
								"offset": 0,
								"slot": "1",
								"type": "t_address"
							},
							{
								"astId": 18,
								"contract": "contracts/MusicStore.sol:MusicStore",
								"label": "orderAt",
								"offset": 0,
								"slot": "2",
								"type": "t_uint256"
							},
							{
								"astId": 21,
								"contract": "contracts/MusicStore.sol:MusicStore",
								"label": "status",
								"offset": 0,
								"slot": "3",
								"type": "t_enum(OrderStatus)25"
							}
						],
						"numberOfBytes": "128"
					},
					"t_uint256": {
						"encoding": "inplace",
						"label": "uint256",
						"numberOfBytes": "32"
					}
				}
			},
			"userdoc": {
				"kind": "user",
				"methods": {},
				"version": 1
			}
		}
	}
}