{
	"contracts/MusicStore.sol": {
		"MusicStore": {
			"abi": [
				{
					"inputs": [
						{
							"internalType": "uint256",
							"name": "",
							"type": "uint256"
						}
					],
					"name": "albums",
					"outputs": [
						{
							"internalType": "string",
							"name": "uid",
							"type": "string"
						},
						{
							"internalType": "string",
							"name": "title",
							"type": "string"
						},
						{
							"internalType": "uint256",
							"name": "price",
							"type": "uint256"
						},
						{
							"internalType": "uint256",
							"name": "quantity",
							"type": "uint256"
						}
					],
					"stateMutability": "view",
					"type": "function"
				},
				{
					"inputs": [
						{
							"internalType": "uint256",
							"name": "",
							"type": "uint256"
						}
					],
					"name": "orders",
					"outputs": [
						{
							"internalType": "string",
							"name": "albumUid",
							"type": "string"
						},
						{
							"internalType": "address",
							"name": "customer",
							"type": "address"
						},
						{
							"internalType": "uint256",
							"name": "orderAt",
							"type": "uint256"
						}
					],
					"stateMutability": "view",
					"type": "function"
				}
			],
			"devdoc": {
				"kind": "dev",
				"methods": {},
				"version": 1
			},
			"evm": {
				"assembly": "    /* \"contracts/MusicStore.sol\":57:344  contract MusicStore {... */\n  mstore(0x40, 0x80)\n  callvalue\n  dup1\n  iszero\n  tag_1\n  jumpi\n  0x00\n  dup1\n  revert\ntag_1:\n  pop\n  dataSize(sub_0)\n  dup1\n  dataOffset(sub_0)\n  0x00\n  codecopy\n  0x00\n  return\nstop\n\nsub_0: assembly {\n        /* \"contracts/MusicStore.sol\":57:344  contract MusicStore {... */\n      mstore(0x40, 0x80)\n      callvalue\n      dup1\n      iszero\n      tag_1\n      jumpi\n      0x00\n      dup1\n      revert\n    tag_1:\n      pop\n      jumpi(tag_2, lt(calldatasize, 0x04))\n      shr(0xe0, calldataload(0x00))\n      dup1\n      0xa85c38ef\n      eq\n      tag_3\n      jumpi\n      dup1\n      0xea5df059\n      eq\n      tag_4\n      jumpi\n    tag_2:\n      0x00\n      dup1\n      revert\n        /* \"contracts/MusicStore.sol\":320:341  Order[] public orders */\n    tag_3:\n      tag_5\n      0x04\n      dup1\n      calldatasize\n      sub\n      dup2\n      add\n      swap1\n      tag_6\n      swap2\n      swap1\n      tag_7\n      jump\t// in\n    tag_6:\n      tag_8\n      jump\t// in\n    tag_5:\n      mload(0x40)\n      tag_9\n      swap4\n      swap3\n      swap2\n      swap1\n      tag_10\n      jump\t// in\n    tag_9:\n      mload(0x40)\n      dup1\n      swap2\n      sub\n      swap1\n      return\n        /* \"contracts/MusicStore.sol\":293:314  Album[] public albums */\n    tag_4:\n      tag_11\n      0x04\n      dup1\n      calldatasize\n      sub\n      dup2\n      add\n      swap1\n      tag_12\n      swap2\n      swap1\n      tag_7\n      jump\t// in\n    tag_12:\n      tag_13\n      jump\t// in\n    tag_11:\n      mload(0x40)\n      tag_14\n      swap5\n      swap4\n      swap3\n      swap2\n      swap1\n      tag_15\n      jump\t// in\n    tag_14:\n      mload(0x40)\n      dup1\n      swap2\n      sub\n      swap1\n      return\n        /* \"contracts/MusicStore.sol\":320:341  Order[] public orders */\n    tag_8:\n      0x01\n      dup2\n      dup2\n      sload\n      dup2\n      lt\n      tag_16\n      jumpi\n      0x00\n      dup1\n      revert\n    tag_16:\n      swap1\n      0x00\n      mstore\n      keccak256(0x00, 0x20)\n      swap1\n      0x03\n      mul\n      add\n      0x00\n      swap2\n      pop\n      swap1\n      pop\n      dup1\n      0x00\n      add\n      dup1\n      sload\n      tag_18\n      swap1\n      tag_19\n      jump\t// in\n    tag_18:\n      dup1\n      0x1f\n      add\n      0x20\n      dup1\n      swap2\n      div\n      mul\n      0x20\n      add\n      mload(0x40)\n      swap1\n      dup2\n      add\n      0x40\n      mstore\n      dup1\n      swap3\n      swap2\n      swap1\n      dup2\n      dup2\n      mstore\n      0x20\n      add\n      dup3\n      dup1\n      sload\n      tag_20\n      swap1\n      tag_19\n      jump\t// in\n    tag_20:\n      dup1\n      iszero\n      tag_21\n      jumpi\n      dup1\n      0x1f\n      lt\n      tag_22\n      jumpi\n      0x0100\n      dup1\n      dup4\n      sload\n      div\n      mul\n      dup4\n      mstore\n      swap2\n      0x20\n      add\n      swap2\n      jump(tag_21)\n    tag_22:\n      dup3\n      add\n      swap2\n      swap1\n      0x00\n      mstore\n      keccak256(0x00, 0x20)\n      swap1\n    tag_23:\n      dup2\n      sload\n      dup2\n      mstore\n      swap1\n      0x01\n      add\n      swap1\n      0x20\n      add\n      dup1\n      dup4\n      gt\n      tag_23\n      jumpi\n      dup3\n      swap1\n      sub\n      0x1f\n      and\n      dup3\n      add\n      swap2\n    tag_21:\n      pop\n      pop\n      pop\n      pop\n      pop\n      swap1\n      dup1\n      0x01\n      add\n      0x00\n      swap1\n      sload\n      swap1\n      0x0100\n      exp\n      swap1\n      div\n      0xffffffffffffffffffffffffffffffffffffffff\n      and\n      swap1\n      dup1\n      0x02\n      add\n      sload\n      swap1\n      pop\n      dup4\n      jump\t// out\n        /* \"contracts/MusicStore.sol\":293:314  Album[] public albums */\n    tag_13:\n      0x00\n      dup2\n      dup2\n      sload\n      dup2\n      lt\n      tag_24\n      jumpi\n      0x00\n      dup1\n      revert\n    tag_24:\n      swap1\n      0x00\n      mstore\n      keccak256(0x00, 0x20)\n      swap1\n      0x04\n      mul\n      add\n      0x00\n      swap2\n      pop\n      swap1\n      pop\n      dup1\n      0x00\n      add\n      dup1\n      sload\n      tag_26\n      swap1\n      tag_19\n      jump\t// in\n    tag_26:\n      dup1\n      0x1f\n      add\n      0x20\n      dup1\n      swap2\n      div\n      mul\n      0x20\n      add\n      mload(0x40)\n      swap1\n      dup2\n      add\n      0x40\n      mstore\n      dup1\n      swap3\n      swap2\n      swap1\n      dup2\n      dup2\n      mstore\n      0x20\n      add\n      dup3\n      dup1\n      sload\n      tag_27\n      swap1\n      tag_19\n      jump\t// in\n    tag_27:\n      dup1\n      iszero\n      tag_28\n      jumpi\n      dup1\n      0x1f\n      lt\n      tag_29\n      jumpi\n      0x0100\n      dup1\n      dup4\n      sload\n      div\n      mul\n      dup4\n      mstore\n      swap2\n      0x20\n      add\n      swap2\n      jump(tag_28)\n    tag_29:\n      dup3\n      add\n      swap2\n      swap1\n      0x00\n      mstore\n      keccak256(0x00, 0x20)\n      swap1\n    tag_30:\n      dup2\n      sload\n      dup2\n      mstore\n      swap1\n      0x01\n      add\n      swap1\n      0x20\n      add\n      dup1\n      dup4\n      gt\n      tag_30\n      jumpi\n      dup3\n      swap1\n      sub\n      0x1f\n      and\n      dup3\n      add\n      swap2\n    tag_28:\n      pop\n      pop\n      pop\n      pop\n      pop\n      swap1\n      dup1\n      0x01\n      add\n      dup1\n      sload\n      tag_31\n      swap1\n      tag_19\n      jump\t// in\n    tag_31:\n      dup1\n      0x1f\n      add\n      0x20\n      dup1\n      swap2\n      div\n      mul\n      0x20\n      add\n      mload(0x40)\n      swap1\n      dup2\n      add\n      0x40\n      mstore\n      dup1\n      swap3\n      swap2\n      swap1\n      dup2\n      dup2\n      mstore\n      0x20\n      add\n      dup3\n      dup1\n      sload\n      tag_32\n      swap1\n      tag_19\n      jump\t// in\n    tag_32:\n      dup1\n      iszero\n      tag_33\n      jumpi\n      dup1\n      0x1f\n      lt\n      tag_34\n      jumpi\n      0x0100\n      dup1\n      dup4\n      sload\n      div\n      mul\n      dup4\n      mstore\n      swap2\n      0x20\n      add\n      swap2\n      jump(tag_33)\n    tag_34:\n      dup3\n      add\n      swap2\n      swap1\n      0x00\n      mstore\n      keccak256(0x00, 0x20)\n      swap1\n    tag_35:\n      dup2\n      sload\n      dup2\n      mstore\n      swap1\n      0x01\n      add\n      swap1\n      0x20\n      add\n      dup1\n      dup4\n      gt\n      tag_35\n      jumpi\n      dup3\n      swap1\n      sub\n      0x1f\n      and\n      dup3\n      add\n      swap2\n    tag_33:\n      pop\n      pop\n      pop\n      pop\n      pop\n      swap1\n      dup1\n      0x02\n      add\n      sload\n      swap1\n      dup1\n      0x03\n      add\n      sload\n      swap1\n      pop\n      dup5\n      jump\t// out\n        /* \"#utility.yul\":7:146   */\n    tag_37:\n        /* \"#utility.yul\":53:58   */\n      0x00\n        /* \"#utility.yul\":91:97   */\n      dup2\n        /* \"#utility.yul\":78:98   */\n      calldataload\n        /* \"#utility.yul\":69:98   */\n      swap1\n      pop\n        /* \"#utility.yul\":107:140   */\n      tag_39\n        /* \"#utility.yul\":134:139   */\n      dup2\n        /* \"#utility.yul\":107:140   */\n      tag_40\n      jump\t// in\n    tag_39:\n        /* \"#utility.yul\":7:146   */\n      swap3\n      swap2\n      pop\n      pop\n      jump\t// out\n        /* \"#utility.yul\":152:481   */\n    tag_7:\n        /* \"#utility.yul\":211:217   */\n      0x00\n        /* \"#utility.yul\":260:262   */\n      0x20\n        /* \"#utility.yul\":248:257   */\n      dup3\n        /* \"#utility.yul\":239:246   */\n      dup5\n        /* \"#utility.yul\":235:258   */\n      sub\n        /* \"#utility.yul\":231:263   */\n      slt\n        /* \"#utility.yul\":228:347   */\n      iszero\n      tag_42\n      jumpi\n        /* \"#utility.yul\":266:345   */\n      tag_43\n      tag_44\n      jump\t// in\n    tag_43:\n        /* \"#utility.yul\":228:347   */\n    tag_42:\n        /* \"#utility.yul\":386:387   */\n      0x00\n        /* \"#utility.yul\":411:464   */\n      tag_45\n        /* \"#utility.yul\":456:463   */\n      dup5\n        /* \"#utility.yul\":447:453   */\n      dup3\n        /* \"#utility.yul\":436:445   */\n      dup6\n        /* \"#utility.yul\":432:454   */\n      add\n        /* \"#utility.yul\":411:464   */\n      tag_37\n      jump\t// in\n    tag_45:\n        /* \"#utility.yul\":401:464   */\n      swap2\n      pop\n        /* \"#utility.yul\":357:474   */\n      pop\n        /* \"#utility.yul\":152:481   */\n      swap3\n      swap2\n      pop\n      pop\n      jump\t// out\n        /* \"#utility.yul\":487:605   */\n    tag_46:\n        /* \"#utility.yul\":574:598   */\n      tag_48\n        /* \"#utility.yul\":592:597   */\n      dup2\n        /* \"#utility.yul\":574:598   */\n      tag_49\n      jump\t// in\n    tag_48:\n        /* \"#utility.yul\":569:572   */\n      dup3\n        /* \"#utility.yul\":562:599   */\n      mstore\n        /* \"#utility.yul\":487:605   */\n      pop\n      pop\n      jump\t// out\n        /* \"#utility.yul\":611:975   */\n    tag_50:\n        /* \"#utility.yul\":699:702   */\n      0x00\n        /* \"#utility.yul\":727:766   */\n      tag_52\n        /* \"#utility.yul\":760:765   */\n      dup3\n        /* \"#utility.yul\":727:766   */\n      tag_53\n      jump\t// in\n    tag_52:\n        /* \"#utility.yul\":782:853   */\n      tag_54\n        /* \"#utility.yul\":846:852   */\n      dup2\n        /* \"#utility.yul\":841:844   */\n      dup6\n        /* \"#utility.yul\":782:853   */\n      tag_55\n      jump\t// in\n    tag_54:\n        /* \"#utility.yul\":775:853   */\n      swap4\n      pop\n        /* \"#utility.yul\":862:914   */\n      tag_56\n        /* \"#utility.yul\":907:913   */\n      dup2\n        /* \"#utility.yul\":902:905   */\n      dup6\n        /* \"#utility.yul\":895:899   */\n      0x20\n        /* \"#utility.yul\":888:893   */\n      dup7\n        /* \"#utility.yul\":884:900   */\n      add\n        /* \"#utility.yul\":862:914   */\n      tag_57\n      jump\t// in\n    tag_56:\n        /* \"#utility.yul\":939:968   */\n      tag_58\n        /* \"#utility.yul\":961:967   */\n      dup2\n        /* \"#utility.yul\":939:968   */\n      tag_59\n      jump\t// in\n    tag_58:\n        /* \"#utility.yul\":934:937   */\n      dup5\n        /* \"#utility.yul\":930:969   */\n      add\n        /* \"#utility.yul\":923:969   */\n      swap2\n      pop\n        /* \"#utility.yul\":703:975   */\n      pop\n        /* \"#utility.yul\":611:975   */\n      swap3\n      swap2\n      pop\n      pop\n      jump\t// out\n        /* \"#utility.yul\":981:1099   */\n    tag_60:\n        /* \"#utility.yul\":1068:1092   */\n      tag_62\n        /* \"#utility.yul\":1086:1091   */\n      dup2\n        /* \"#utility.yul\":1068:1092   */\n      tag_63\n      jump\t// in\n    tag_62:\n        /* \"#utility.yul\":1063:1066   */\n      dup3\n        /* \"#utility.yul\":1056:1093   */\n      mstore\n        /* \"#utility.yul\":981:1099   */\n      pop\n      pop\n      jump\t// out\n        /* \"#utility.yul\":1105:1638   */\n    tag_10:\n        /* \"#utility.yul\":1274:1278   */\n      0x00\n        /* \"#utility.yul\":1312:1314   */\n      0x60\n        /* \"#utility.yul\":1301:1310   */\n      dup3\n        /* \"#utility.yul\":1297:1315   */\n      add\n        /* \"#utility.yul\":1289:1315   */\n      swap1\n      pop\n        /* \"#utility.yul\":1361:1370   */\n      dup2\n        /* \"#utility.yul\":1355:1359   */\n      dup2\n        /* \"#utility.yul\":1351:1371   */\n      sub\n        /* \"#utility.yul\":1347:1348   */\n      0x00\n        /* \"#utility.yul\":1336:1345   */\n      dup4\n        /* \"#utility.yul\":1332:1349   */\n      add\n        /* \"#utility.yul\":1325:1372   */\n      mstore\n        /* \"#utility.yul\":1389:1467   */\n      tag_65\n        /* \"#utility.yul\":1462:1466   */\n      dup2\n        /* \"#utility.yul\":1453:1459   */\n      dup7\n        /* \"#utility.yul\":1389:1467   */\n      tag_50\n      jump\t// in\n    tag_65:\n        /* \"#utility.yul\":1381:1467   */\n      swap1\n      pop\n        /* \"#utility.yul\":1477:1549   */\n      tag_66\n        /* \"#utility.yul\":1545:1547   */\n      0x20\n        /* \"#utility.yul\":1534:1543   */\n      dup4\n        /* \"#utility.yul\":1530:1548   */\n      add\n        /* \"#utility.yul\":1521:1527   */\n      dup6\n        /* \"#utility.yul\":1477:1549   */\n      tag_46\n      jump\t// in\n    tag_66:\n        /* \"#utility.yul\":1559:1631   */\n      tag_67\n        /* \"#utility.yul\":1627:1629   */\n      0x40\n        /* \"#utility.yul\":1616:1625   */\n      dup4\n        /* \"#utility.yul\":1612:1630   */\n      add\n        /* \"#utility.yul\":1603:1609   */\n      dup5\n        /* \"#utility.yul\":1559:1631   */\n      tag_60\n      jump\t// in\n    tag_67:\n        /* \"#utility.yul\":1105:1638   */\n      swap5\n      swap4\n      pop\n      pop\n      pop\n      pop\n      jump\t// out\n        /* \"#utility.yul\":1644:2379   */\n    tag_15:\n        /* \"#utility.yul\":1861:1865   */\n      0x00\n        /* \"#utility.yul\":1899:1902   */\n      0x80\n        /* \"#utility.yul\":1888:1897   */\n      dup3\n        /* \"#utility.yul\":1884:1903   */\n      add\n        /* \"#utility.yul\":1876:1903   */\n      swap1\n      pop\n        /* \"#utility.yul\":1949:1958   */\n      dup2\n        /* \"#utility.yul\":1943:1947   */\n      dup2\n        /* \"#utility.yul\":1939:1959   */\n      sub\n        /* \"#utility.yul\":1935:1936   */\n      0x00\n        /* \"#utility.yul\":1924:1933   */\n      dup4\n        /* \"#utility.yul\":1920:1937   */\n      add\n        /* \"#utility.yul\":1913:1960   */\n      mstore\n        /* \"#utility.yul\":1977:2055   */\n      tag_69\n        /* \"#utility.yul\":2050:2054   */\n      dup2\n        /* \"#utility.yul\":2041:2047   */\n      dup8\n        /* \"#utility.yul\":1977:2055   */\n      tag_50\n      jump\t// in\n    tag_69:\n        /* \"#utility.yul\":1969:2055   */\n      swap1\n      pop\n        /* \"#utility.yul\":2102:2111   */\n      dup2\n        /* \"#utility.yul\":2096:2100   */\n      dup2\n        /* \"#utility.yul\":2092:2112   */\n      sub\n        /* \"#utility.yul\":2087:2089   */\n      0x20\n        /* \"#utility.yul\":2076:2085   */\n      dup4\n        /* \"#utility.yul\":2072:2090   */\n      add\n        /* \"#utility.yul\":2065:2113   */\n      mstore\n        /* \"#utility.yul\":2130:2208   */\n      tag_70\n        /* \"#utility.yul\":2203:2207   */\n      dup2\n        /* \"#utility.yul\":2194:2200   */\n      dup7\n        /* \"#utility.yul\":2130:2208   */\n      tag_50\n      jump\t// in\n    tag_70:\n        /* \"#utility.yul\":2122:2208   */\n      swap1\n      pop\n        /* \"#utility.yul\":2218:2290   */\n      tag_71\n        /* \"#utility.yul\":2286:2288   */\n      0x40\n        /* \"#utility.yul\":2275:2284   */\n      dup4\n        /* \"#utility.yul\":2271:2289   */\n      add\n        /* \"#utility.yul\":2262:2268   */\n      dup6\n        /* \"#utility.yul\":2218:2290   */\n      tag_60\n      jump\t// in\n    tag_71:\n        /* \"#utility.yul\":2300:2372   */\n      tag_72\n        /* \"#utility.yul\":2368:2370   */\n      0x60\n        /* \"#utility.yul\":2357:2366   */\n      dup4\n        /* \"#utility.yul\":2353:2371   */\n      add\n        /* \"#utility.yul\":2344:2350   */\n      dup5\n        /* \"#utility.yul\":2300:2372   */\n      tag_60\n      jump\t// in\n    tag_72:\n        /* \"#utility.yul\":1644:2379   */\n      swap6\n      swap5\n      pop\n      pop\n      pop\n      pop\n      pop\n      jump\t// out\n        /* \"#utility.yul\":2466:2565   */\n    tag_53:\n        /* \"#utility.yul\":2518:2524   */\n      0x00\n        /* \"#utility.yul\":2552:2557   */\n      dup2\n        /* \"#utility.yul\":2546:2558   */\n      mload\n        /* \"#utility.yul\":2536:2558   */\n      swap1\n      pop\n        /* \"#utility.yul\":2466:2565   */\n      swap2\n      swap1\n      pop\n      jump\t// out\n        /* \"#utility.yul\":2571:2740   */\n    tag_55:\n        /* \"#utility.yul\":2655:2666   */\n      0x00\n        /* \"#utility.yul\":2689:2695   */\n      dup3\n        /* \"#utility.yul\":2684:2687   */\n      dup3\n        /* \"#utility.yul\":2677:2696   */\n      mstore\n        /* \"#utility.yul\":2729:2733   */\n      0x20\n        /* \"#utility.yul\":2724:2727   */\n      dup3\n        /* \"#utility.yul\":2720:2734   */\n      add\n        /* \"#utility.yul\":2705:2734   */\n      swap1\n      pop\n        /* \"#utility.yul\":2571:2740   */\n      swap3\n      swap2\n      pop\n      pop\n      jump\t// out\n        /* \"#utility.yul\":2746:2842   */\n    tag_49:\n        /* \"#utility.yul\":2783:2790   */\n      0x00\n        /* \"#utility.yul\":2812:2836   */\n      tag_78\n        /* \"#utility.yul\":2830:2835   */\n      dup3\n        /* \"#utility.yul\":2812:2836   */\n      tag_79\n      jump\t// in\n    tag_78:\n        /* \"#utility.yul\":2801:2836   */\n      swap1\n      pop\n        /* \"#utility.yul\":2746:2842   */\n      swap2\n      swap1\n      pop\n      jump\t// out\n        /* \"#utility.yul\":2848:2974   */\n    tag_79:\n        /* \"#utility.yul\":2885:2892   */\n      0x00\n        /* \"#utility.yul\":2925:2967   */\n      0xffffffffffffffffffffffffffffffffffffffff\n        /* \"#utility.yul\":2918:2923   */\n      dup3\n        /* \"#utility.yul\":2914:2968   */\n      and\n        /* \"#utility.yul\":2903:2968   */\n      swap1\n      pop\n        /* \"#utility.yul\":2848:2974   */\n      swap2\n      swap1\n      pop\n      jump\t// out\n        /* \"#utility.yul\":2980:3057   */\n    tag_63:\n        /* \"#utility.yul\":3017:3024   */\n      0x00\n        /* \"#utility.yul\":3046:3051   */\n      dup2\n        /* \"#utility.yul\":3035:3051   */\n      swap1\n      pop\n        /* \"#utility.yul\":2980:3057   */\n      swap2\n      swap1\n      pop\n      jump\t// out\n        /* \"#utility.yul\":3063:3370   */\n    tag_57:\n        /* \"#utility.yul\":3131:3132   */\n      0x00\n        /* \"#utility.yul\":3141:3254   */\n    tag_83:\n        /* \"#utility.yul\":3155:3161   */\n      dup4\n        /* \"#utility.yul\":3152:3153   */\n      dup2\n        /* \"#utility.yul\":3149:3162   */\n      lt\n        /* \"#utility.yul\":3141:3254   */\n      iszero\n      tag_85\n      jumpi\n        /* \"#utility.yul\":3240:3241   */\n      dup1\n        /* \"#utility.yul\":3235:3238   */\n      dup3\n        /* \"#utility.yul\":3231:3242   */\n      add\n        /* \"#utility.yul\":3225:3243   */\n      mload\n        /* \"#utility.yul\":3221:3222   */\n      dup2\n        /* \"#utility.yul\":3216:3219   */\n      dup5\n        /* \"#utility.yul\":3212:3223   */\n      add\n        /* \"#utility.yul\":3205:3244   */\n      mstore\n        /* \"#utility.yul\":3177:3179   */\n      0x20\n        /* \"#utility.yul\":3174:3175   */\n      dup2\n        /* \"#utility.yul\":3170:3180   */\n      add\n        /* \"#utility.yul\":3165:3180   */\n      swap1\n      pop\n        /* \"#utility.yul\":3141:3254   */\n      jump(tag_83)\n    tag_85:\n        /* \"#utility.yul\":3272:3278   */\n      dup4\n        /* \"#utility.yul\":3269:3270   */\n      dup2\n        /* \"#utility.yul\":3266:3279   */\n      gt\n        /* \"#utility.yul\":3263:3364   */\n      iszero\n      tag_86\n      jumpi\n        /* \"#utility.yul\":3352:3353   */\n      0x00\n        /* \"#utility.yul\":3343:3349   */\n      dup5\n        /* \"#utility.yul\":3338:3341   */\n      dup5\n        /* \"#utility.yul\":3334:3350   */\n      add\n        /* \"#utility.yul\":3327:3354   */\n      mstore\n        /* \"#utility.yul\":3263:3364   */\n    tag_86:\n        /* \"#utility.yul\":3112:3370   */\n      pop\n        /* \"#utility.yul\":3063:3370   */\n      pop\n      pop\n      pop\n      jump\t// out\n        /* \"#utility.yul\":3376:3696   */\n    tag_19:\n        /* \"#utility.yul\":3420:3426   */\n      0x00\n        /* \"#utility.yul\":3457:3458   */\n      0x02\n        /* \"#utility.yul\":3451:3455   */\n      dup3\n        /* \"#utility.yul\":3447:3459   */\n      div\n        /* \"#utility.yul\":3437:3459   */\n      swap1\n      pop\n        /* \"#utility.yul\":3504:3505   */\n      0x01\n        /* \"#utility.yul\":3498:3502   */\n      dup3\n        /* \"#utility.yul\":3494:3506   */\n      and\n        /* \"#utility.yul\":3525:3543   */\n      dup1\n        /* \"#utility.yul\":3515:3596   */\n      tag_88\n      jumpi\n        /* \"#utility.yul\":3581:3585   */\n      0x7f\n        /* \"#utility.yul\":3573:3579   */\n      dup3\n        /* \"#utility.yul\":3569:3586   */\n      and\n        /* \"#utility.yul\":3559:3586   */\n      swap2\n      pop\n        /* \"#utility.yul\":3515:3596   */\n    tag_88:\n        /* \"#utility.yul\":3643:3645   */\n      0x20\n        /* \"#utility.yul\":3635:3641   */\n      dup3\n        /* \"#utility.yul\":3632:3646   */\n      lt\n        /* \"#utility.yul\":3612:3630   */\n      dup2\n        /* \"#utility.yul\":3609:3647   */\n      eq\n        /* \"#utility.yul\":3606:3690   */\n      iszero\n      tag_89\n      jumpi\n        /* \"#utility.yul\":3662:3680   */\n      tag_90\n      tag_91\n      jump\t// in\n    tag_90:\n        /* \"#utility.yul\":3606:3690   */\n    tag_89:\n        /* \"#utility.yul\":3427:3696   */\n      pop\n        /* \"#utility.yul\":3376:3696   */\n      swap2\n      swap1\n      pop\n      jump\t// out\n        /* \"#utility.yul\":3702:3882   */\n    tag_91:\n        /* \"#utility.yul\":3750:3827   */\n      0x4e487b7100000000000000000000000000000000000000000000000000000000\n        /* \"#utility.yul\":3747:3748   */\n      0x00\n        /* \"#utility.yul\":3740:3828   */\n      mstore\n        /* \"#utility.yul\":3847:3851   */\n      0x22\n        /* \"#utility.yul\":3844:3845   */\n      0x04\n        /* \"#utility.yul\":3837:3852   */\n      mstore\n        /* \"#utility.yul\":3871:3875   */\n      0x24\n        /* \"#utility.yul\":3868:3869   */\n      0x00\n        /* \"#utility.yul\":3861:3876   */\n      revert\n        /* \"#utility.yul\":4011:4128   */\n    tag_44:\n        /* \"#utility.yul\":4120:4121   */\n      0x00\n        /* \"#utility.yul\":4117:4118   */\n      dup1\n        /* \"#utility.yul\":4110:4122   */\n      revert\n        /* \"#utility.yul\":4134:4236   */\n    tag_59:\n        /* \"#utility.yul\":4175:4181   */\n      0x00\n        /* \"#utility.yul\":4226:4228   */\n      0x1f\n        /* \"#utility.yul\":4222:4229   */\n      not\n        /* \"#utility.yul\":4217:4219   */\n      0x1f\n        /* \"#utility.yul\":4210:4215   */\n      dup4\n        /* \"#utility.yul\":4206:4220   */\n      add\n        /* \"#utility.yul\":4202:4230   */\n      and\n        /* \"#utility.yul\":4192:4230   */\n      swap1\n      pop\n        /* \"#utility.yul\":4134:4236   */\n      swap2\n      swap1\n      pop\n      jump\t// out\n        /* \"#utility.yul\":4242:4364   */\n    tag_40:\n        /* \"#utility.yul\":4315:4339   */\n      tag_98\n        /* \"#utility.yul\":4333:4338   */\n      dup2\n        /* \"#utility.yul\":4315:4339   */\n      tag_63\n      jump\t// in\n    tag_98:\n        /* \"#utility.yul\":4308:4313   */\n      dup2\n        /* \"#utility.yul\":4305:4340   */\n      eq\n        /* \"#utility.yul\":4295:4358   */\n      tag_99\n      jumpi\n        /* \"#utility.yul\":4354:4355   */\n      0x00\n        /* \"#utility.yul\":4351:4352   */\n      dup1\n        /* \"#utility.yul\":4344:4356   */\n      revert\n        /* \"#utility.yul\":4295:4358   */\n    tag_99:\n        /* \"#utility.yul\":4242:4364   */\n      pop\n      jump\t// out\n\n    auxdata: 0xa2646970667358221220ebdae8c3b3a1c1c88647c335c2f6e6d237809c44f5f23c305767fb5f18b87c6a64736f6c63430008070033\n}\n",
				"bytecode": {
					"linkReferences": {},
					"object": "608060405234801561001057600080fd5b5061054b806100206000396000f3fe608060405234801561001057600080fd5b50600436106100365760003560e01c8063a85c38ef1461003b578063ea5df0591461006d575b600080fd5b610055600480360381019061005091906102e7565b6100a0565b6040516100649392919061036b565b60405180910390f35b610087600480360381019061008291906102e7565b610182565b60405161009794939291906103a9565b60405180910390f35b600181815481106100b057600080fd5b90600052602060002090600302016000915090508060000180546100d390610487565b80601f01602080910402602001604051908101604052809291908181526020018280546100ff90610487565b801561014c5780601f106101215761010080835404028352916020019161014c565b820191906000526020600020905b81548152906001019060200180831161012f57829003601f168201915b5050505050908060010160009054906101000a900473ffffffffffffffffffffffffffffffffffffffff16908060020154905083565b6000818154811061019257600080fd5b90600052602060002090600402016000915090508060000180546101b590610487565b80601f01602080910402602001604051908101604052809291908181526020018280546101e190610487565b801561022e5780601f106102035761010080835404028352916020019161022e565b820191906000526020600020905b81548152906001019060200180831161021157829003601f168201915b50505050509080600101805461024390610487565b80601f016020809104026020016040519081016040528092919081815260200182805461026f90610487565b80156102bc5780601f10610291576101008083540402835291602001916102bc565b820191906000526020600020905b81548152906001019060200180831161029f57829003601f168201915b5050505050908060020154908060030154905084565b6000813590506102e1816104fe565b92915050565b6000602082840312156102fd576102fc6104e8565b5b600061030b848285016102d2565b91505092915050565b61031d81610418565b82525050565b600061032e826103fc565b6103388185610407565b9350610348818560208601610454565b610351816104ed565b840191505092915050565b6103658161044a565b82525050565b600060608201905081810360008301526103858186610323565b90506103946020830185610314565b6103a1604083018461035c565b949350505050565b600060808201905081810360008301526103c38187610323565b905081810360208301526103d78186610323565b90506103e6604083018561035c565b6103f3606083018461035c565b95945050505050565b600081519050919050565b600082825260208201905092915050565b60006104238261042a565b9050919050565b600073ffffffffffffffffffffffffffffffffffffffff82169050919050565b6000819050919050565b60005b83811015610472578082015181840152602081019050610457565b83811115610481576000848401525b50505050565b6000600282049050600182168061049f57607f821691505b602082108114156104b3576104b26104b9565b5b50919050565b7f4e487b7100000000000000000000000000000000000000000000000000000000600052602260045260246000fd5b600080fd5b6000601f19601f8301169050919050565b6105078161044a565b811461051257600080fd5b5056fea2646970667358221220ebdae8c3b3a1c1c88647c335c2f6e6d237809c44f5f23c305767fb5f18b87c6a64736f6c63430008070033",
					"opcodes": "PUSH1 0x80 PUSH1 0x40 MSTORE CALLVALUE DUP1 ISZERO PUSH2 0x10 JUMPI PUSH1 0x0 DUP1 REVERT JUMPDEST POP PUSH2 0x54B DUP1 PUSH2 0x20 PUSH1 0x0 CODECOPY PUSH1 0x0 RETURN INVALID PUSH1 0x80 PUSH1 0x40 MSTORE CALLVALUE DUP1 ISZERO PUSH2 0x10 JUMPI PUSH1 0x0 DUP1 REVERT JUMPDEST POP PUSH1 0x4 CALLDATASIZE LT PUSH2 0x36 JUMPI PUSH1 0x0 CALLDATALOAD PUSH1 0xE0 SHR DUP1 PUSH4 0xA85C38EF EQ PUSH2 0x3B JUMPI DUP1 PUSH4 0xEA5DF059 EQ PUSH2 0x6D JUMPI JUMPDEST PUSH1 0x0 DUP1 REVERT JUMPDEST PUSH2 0x55 PUSH1 0x4 DUP1 CALLDATASIZE SUB DUP2 ADD SWAP1 PUSH2 0x50 SWAP2 SWAP1 PUSH2 0x2E7 JUMP JUMPDEST PUSH2 0xA0 JUMP JUMPDEST PUSH1 0x40 MLOAD PUSH2 0x64 SWAP4 SWAP3 SWAP2 SWAP1 PUSH2 0x36B JUMP JUMPDEST PUSH1 0x40 MLOAD DUP1 SWAP2 SUB SWAP1 RETURN JUMPDEST PUSH2 0x87 PUSH1 0x4 DUP1 CALLDATASIZE SUB DUP2 ADD SWAP1 PUSH2 0x82 SWAP2 SWAP1 PUSH2 0x2E7 JUMP JUMPDEST PUSH2 0x182 JUMP JUMPDEST PUSH1 0x40 MLOAD PUSH2 0x97 SWAP5 SWAP4 SWAP3 SWAP2 SWAP1 PUSH2 0x3A9 JUMP JUMPDEST PUSH1 0x40 MLOAD DUP1 SWAP2 SUB SWAP1 RETURN JUMPDEST PUSH1 0x1 DUP2 DUP2 SLOAD DUP2 LT PUSH2 0xB0 JUMPI PUSH1 0x0 DUP1 REVERT JUMPDEST SWAP1 PUSH1 0x0 MSTORE PUSH1 0x20 PUSH1 0x0 KECCAK256 SWAP1 PUSH1 0x3 MUL ADD PUSH1 0x0 SWAP2 POP SWAP1 POP DUP1 PUSH1 0x0 ADD DUP1 SLOAD PUSH2 0xD3 SWAP1 PUSH2 0x487 JUMP JUMPDEST DUP1 PUSH1 0x1F ADD PUSH1 0x20 DUP1 SWAP2 DIV MUL PUSH1 0x20 ADD PUSH1 0x40 MLOAD SWAP1 DUP2 ADD PUSH1 0x40 MSTORE DUP1 SWAP3 SWAP2 SWAP1 DUP2 DUP2 MSTORE PUSH1 0x20 ADD DUP3 DUP1 SLOAD PUSH2 0xFF SWAP1 PUSH2 0x487 JUMP JUMPDEST DUP1 ISZERO PUSH2 0x14C JUMPI DUP1 PUSH1 0x1F LT PUSH2 0x121 JUMPI PUSH2 0x100 DUP1 DUP4 SLOAD DIV MUL DUP4 MSTORE SWAP2 PUSH1 0x20 ADD SWAP2 PUSH2 0x14C JUMP JUMPDEST DUP3 ADD SWAP2 SWAP1 PUSH1 0x0 MSTORE PUSH1 0x20 PUSH1 0x0 KECCAK256 SWAP1 JUMPDEST DUP2 SLOAD DUP2 MSTORE SWAP1 PUSH1 0x1 ADD SWAP1 PUSH1 0x20 ADD DUP1 DUP4 GT PUSH2 0x12F JUMPI DUP3 SWAP1 SUB PUSH1 0x1F AND DUP3 ADD SWAP2 JUMPDEST POP POP POP POP POP SWAP1 DUP1 PUSH1 0x1 ADD PUSH1 0x0 SWAP1 SLOAD SWAP1 PUSH2 0x100 EXP SWAP1 DIV PUSH20 0xFFFFFFFFFFFFFFFFFFFFFFFFFFFFFFFFFFFFFFFF AND SWAP1 DUP1 PUSH1 0x2 ADD SLOAD SWAP1 POP DUP4 JUMP JUMPDEST PUSH1 0x0 DUP2 DUP2 SLOAD DUP2 LT PUSH2 0x192 JUMPI PUSH1 0x0 DUP1 REVERT JUMPDEST SWAP1 PUSH1 0x0 MSTORE PUSH1 0x20 PUSH1 0x0 KECCAK256 SWAP1 PUSH1 0x4 MUL ADD PUSH1 0x0 SWAP2 POP SWAP1 POP DUP1 PUSH1 0x0 ADD DUP1 SLOAD PUSH2 0x1B5 SWAP1 PUSH2 0x487 JUMP JUMPDEST DUP1 PUSH1 0x1F ADD PUSH1 0x20 DUP1 SWAP2 DIV MUL PUSH1 0x20 ADD PUSH1 0x40 MLOAD SWAP1 DUP2 ADD PUSH1 0x40 MSTORE DUP1 SWAP3 SWAP2 SWAP1 DUP2 DUP2 MSTORE PUSH1 0x20 ADD DUP3 DUP1 SLOAD PUSH2 0x1E1 SWAP1 PUSH2 0x487 JUMP JUMPDEST DUP1 ISZERO PUSH2 0x22E JUMPI DUP1 PUSH1 0x1F LT PUSH2 0x203 JUMPI PUSH2 0x100 DUP1 DUP4 SLOAD DIV MUL DUP4 MSTORE SWAP2 PUSH1 0x20 ADD SWAP2 PUSH2 0x22E JUMP JUMPDEST DUP3 ADD SWAP2 SWAP1 PUSH1 0x0 MSTORE PUSH1 0x20 PUSH1 0x0 KECCAK256 SWAP1 JUMPDEST DUP2 SLOAD DUP2 MSTORE SWAP1 PUSH1 0x1 ADD SWAP1 PUSH1 0x20 ADD DUP1 DUP4 GT PUSH2 0x211 JUMPI DUP3 SWAP1 SUB PUSH1 0x1F AND DUP3 ADD SWAP2 JUMPDEST POP POP POP POP POP SWAP1 DUP1 PUSH1 0x1 ADD DUP1 SLOAD PUSH2 0x243 SWAP1 PUSH2 0x487 JUMP JUMPDEST DUP1 PUSH1 0x1F ADD PUSH1 0x20 DUP1 SWAP2 DIV MUL PUSH1 0x20 ADD PUSH1 0x40 MLOAD SWAP1 DUP2 ADD PUSH1 0x40 MSTORE DUP1 SWAP3 SWAP2 SWAP1 DUP2 DUP2 MSTORE PUSH1 0x20 ADD DUP3 DUP1 SLOAD PUSH2 0x26F SWAP1 PUSH2 0x487 JUMP JUMPDEST DUP1 ISZERO PUSH2 0x2BC JUMPI DUP1 PUSH1 0x1F LT PUSH2 0x291 JUMPI PUSH2 0x100 DUP1 DUP4 SLOAD DIV MUL DUP4 MSTORE SWAP2 PUSH1 0x20 ADD SWAP2 PUSH2 0x2BC JUMP JUMPDEST DUP3 ADD SWAP2 SWAP1 PUSH1 0x0 MSTORE PUSH1 0x20 PUSH1 0x0 KECCAK256 SWAP1 JUMPDEST DUP2 SLOAD DUP2 MSTORE SWAP1 PUSH1 0x1 ADD SWAP1 PUSH1 0x20 ADD DUP1 DUP4 GT PUSH2 0x29F JUMPI DUP3 SWAP1 SUB PUSH1 0x1F AND DUP3 ADD SWAP2 JUMPDEST POP POP POP POP POP SWAP1 DUP1 PUSH1 0x2 ADD SLOAD SWAP1 DUP1 PUSH1 0x3 ADD SLOAD SWAP1 POP DUP5 JUMP JUMPDEST PUSH1 0x0 DUP2 CALLDATALOAD SWAP1 POP PUSH2 0x2E1 DUP2 PUSH2 0x4FE JUMP JUMPDEST SWAP3 SWAP2 POP POP JUMP JUMPDEST PUSH1 0x0 PUSH1 0x20 DUP3 DUP5 SUB SLT ISZERO PUSH2 0x2FD JUMPI PUSH2 0x2FC PUSH2 0x4E8 JUMP JUMPDEST JUMPDEST PUSH1 0x0 PUSH2 0x30B DUP5 DUP3 DUP6 ADD PUSH2 0x2D2 JUMP JUMPDEST SWAP2 POP POP SWAP3 SWAP2 POP POP JUMP JUMPDEST PUSH2 0x31D DUP2 PUSH2 0x418 JUMP JUMPDEST DUP3 MSTORE POP POP JUMP JUMPDEST PUSH1 0x0 PUSH2 0x32E DUP3 PUSH2 0x3FC JUMP JUMPDEST PUSH2 0x338 DUP2 DUP6 PUSH2 0x407 JUMP JUMPDEST SWAP4 POP PUSH2 0x348 DUP2 DUP6 PUSH1 0x20 DUP7 ADD PUSH2 0x454 JUMP JUMPDEST PUSH2 0x351 DUP2 PUSH2 0x4ED JUMP JUMPDEST DUP5 ADD SWAP2 POP POP SWAP3 SWAP2 POP POP JUMP JUMPDEST PUSH2 0x365 DUP2 PUSH2 0x44A JUMP JUMPDEST DUP3 MSTORE POP POP JUMP JUMPDEST PUSH1 0x0 PUSH1 0x60 DUP3 ADD SWAP1 POP DUP2 DUP2 SUB PUSH1 0x0 DUP4 ADD MSTORE PUSH2 0x385 DUP2 DUP7 PUSH2 0x323 JUMP JUMPDEST SWAP1 POP PUSH2 0x394 PUSH1 0x20 DUP4 ADD DUP6 PUSH2 0x314 JUMP JUMPDEST PUSH2 0x3A1 PUSH1 0x40 DUP4 ADD DUP5 PUSH2 0x35C JUMP JUMPDEST SWAP5 SWAP4 POP POP POP POP JUMP JUMPDEST PUSH1 0x0 PUSH1 0x80 DUP3 ADD SWAP1 POP DUP2 DUP2 SUB PUSH1 0x0 DUP4 ADD MSTORE PUSH2 0x3C3 DUP2 DUP8 PUSH2 0x323 JUMP JUMPDEST SWAP1 POP DUP2 DUP2 SUB PUSH1 0x20 DUP4 ADD MSTORE PUSH2 0x3D7 DUP2 DUP7 PUSH2 0x323 JUMP JUMPDEST SWAP1 POP PUSH2 0x3E6 PUSH1 0x40 DUP4 ADD DUP6 PUSH2 0x35C JUMP JUMPDEST PUSH2 0x3F3 PUSH1 0x60 DUP4 ADD DUP5 PUSH2 0x35C JUMP JUMPDEST SWAP6 SWAP5 POP POP POP POP POP JUMP JUMPDEST PUSH1 0x0 DUP2 MLOAD SWAP1 POP SWAP2 SWAP1 POP JUMP JUMPDEST PUSH1 0x0 DUP3 DUP3 MSTORE PUSH1 0x20 DUP3 ADD SWAP1 POP SWAP3 SWAP2 POP POP JUMP JUMPDEST PUSH1 0x0 PUSH2 0x423 DUP3 PUSH2 0x42A JUMP JUMPDEST SWAP1 POP SWAP2 SWAP1 POP JUMP JUMPDEST PUSH1 0x0 PUSH20 0xFFFFFFFFFFFFFFFFFFFFFFFFFFFFFFFFFFFFFFFF DUP3 AND SWAP1 POP SWAP2 SWAP1 POP JUMP JUMPDEST PUSH1 0x0 DUP2 SWAP1 POP SWAP2 SWAP1 POP JUMP JUMPDEST PUSH1 0x0 JUMPDEST DUP4 DUP2 LT ISZERO PUSH2 0x472 JUMPI DUP1 DUP3 ADD MLOAD DUP2 DUP5 ADD MSTORE PUSH1 0x20 DUP2 ADD SWAP1 POP PUSH2 0x457 JUMP JUMPDEST DUP4 DUP2 GT ISZERO PUSH2 0x481 JUMPI PUSH1 0x0 DUP5 DUP5 ADD MSTORE JUMPDEST POP POP POP POP JUMP JUMPDEST PUSH1 0x0 PUSH1 0x2 DUP3 DIV SWAP1 POP PUSH1 0x1 DUP3 AND DUP1 PUSH2 0x49F JUMPI PUSH1 0x7F DUP3 AND SWAP2 POP JUMPDEST PUSH1 0x20 DUP3 LT DUP2 EQ ISZERO PUSH2 0x4B3 JUMPI PUSH2 0x4B2 PUSH2 0x4B9 JUMP JUMPDEST JUMPDEST POP SWAP2 SWAP1 POP JUMP JUMPDEST PUSH32 0x4E487B7100000000000000000000000000000000000000000000000000000000 PUSH1 0x0 MSTORE PUSH1 0x22 PUSH1 0x4 MSTORE PUSH1 0x24 PUSH1 0x0 REVERT JUMPDEST PUSH1 0x0 DUP1 REVERT JUMPDEST PUSH1 0x0 PUSH1 0x1F NOT PUSH1 0x1F DUP4 ADD AND SWAP1 POP SWAP2 SWAP1 POP JUMP JUMPDEST PUSH2 0x507 DUP2 PUSH2 0x44A JUMP JUMPDEST DUP2 EQ PUSH2 0x512 JUMPI PUSH1 0x0 DUP1 REVERT JUMPDEST POP JUMP INVALID LOG2 PUSH5 0x6970667358 0x22 SLT KECCAK256 0xEB 0xDA 0xE8 0xC3 0xB3 LOG1 0xC1 0xC8 DUP7 SELFBALANCE 0xC3 CALLDATALOAD 0xC2 0xF6 0xE6 0xD2 CALLDATACOPY DUP1 SWAP13 DIFFICULTY CREATE2 CALLCODE EXTCODECOPY ADDRESS JUMPI PUSH8 0xFB5F18B87C6A6473 PUSH16 0x6C634300080700330000000000000000 "
				},
				"gasEstimates": {
					"creation": {
						"codeDepositCost": "271000",
						"executionCost": "312",
						"totalCost": "271312"
					},
					"external": {
						"albums(uint256)": "infinite",
						"orders(uint256)": "infinite"
					}
				},
				"methodIdentifiers": {
					"albums(uint256)": "ea5df059",
					"orders(uint256)": "a85c38ef"
				}
			},
			"storageLayout": {
				"storage": [
					{
						"astId": 21,
						"contract": "contracts/MusicStore.sol:MusicStore",
						"label": "albums",
						"offset": 0,
						"slot": "0",
						"type": "t_array(t_struct(Album)10_storage)dyn_storage"
					},
					{
						"astId": 25,
						"contract": "contracts/MusicStore.sol:MusicStore",
						"label": "orders",
						"offset": 0,
						"slot": "1",
						"type": "t_array(t_struct(Order)17_storage)dyn_storage"
					}
				],
				"types": {
					"t_address": {
						"encoding": "inplace",
						"label": "address",
						"numberOfBytes": "20"
					},
					"t_array(t_struct(Album)10_storage)dyn_storage": {
						"base": "t_struct(Album)10_storage",
						"encoding": "dynamic_array",
						"label": "struct MusicStore.Album[]",
						"numberOfBytes": "32"
					},
					"t_array(t_struct(Order)17_storage)dyn_storage": {
						"base": "t_struct(Order)17_storage",
						"encoding": "dynamic_array",
						"label": "struct MusicStore.Order[]",
						"numberOfBytes": "32"
					},
					"t_string_storage": {
						"encoding": "bytes",
						"label": "string",
						"numberOfBytes": "32"
					},
					"t_struct(Album)10_storage": {
						"encoding": "inplace",
						"label": "struct MusicStore.Album",
						"members": [
							{
								"astId": 3,
								"contract": "contracts/MusicStore.sol:MusicStore",
								"label": "uid",
								"offset": 0,
								"slot": "0",
								"type": "t_string_storage"
							},
							{
								"astId": 5,
								"contract": "contracts/MusicStore.sol:MusicStore",
								"label": "title",
								"offset": 0,
								"slot": "1",
								"type": "t_string_storage"
							},
							{
								"astId": 7,
								"contract": "contracts/MusicStore.sol:MusicStore",
								"label": "price",
								"offset": 0,
								"slot": "2",
								"type": "t_uint256"
							},
							{
								"astId": 9,
								"contract": "contracts/MusicStore.sol:MusicStore",
								"label": "quantity",
								"offset": 0,
								"slot": "3",
								"type": "t_uint256"
							}
						],
						"numberOfBytes": "128"
					},
					"t_struct(Order)17_storage": {
						"encoding": "inplace",
						"label": "struct MusicStore.Order",
						"members": [
							{
								"astId": 12,
								"contract": "contracts/MusicStore.sol:MusicStore",
								"label": "albumUid",
								"offset": 0,
								"slot": "0",
								"type": "t_string_storage"
							},
							{
								"astId": 14,
								"contract": "contracts/MusicStore.sol:MusicStore",
								"label": "customer",
								"offset": 0,
								"slot": "1",
								"type": "t_address"
							},
							{
								"astId": 16,
								"contract": "contracts/MusicStore.sol:MusicStore",
								"label": "orderAt",
								"offset": 0,
								"slot": "2",
								"type": "t_uint256"
							}
						],
						"numberOfBytes": "96"
					},
					"t_uint256": {
						"encoding": "inplace",
						"label": "uint256",
						"numberOfBytes": "32"
					}
				}
			},
			"userdoc": {
				"kind": "user",
				"methods": {},
				"version": 1
			}
		}
	}
}