{
	"contracts/MusicStore.sol": {
		"MusicStore": {
			"abi": [
				{
					"inputs": [],
					"stateMutability": "nonpayable",
					"type": "constructor"
				},
				{
					"inputs": [
						{
							"internalType": "string",
							"name": "uid",
							"type": "string"
						},
						{
							"internalType": "string",
							"name": "title",
							"type": "string"
						},
						{
							"internalType": "uint256",
							"name": "price",
							"type": "uint256"
						},
						{
							"internalType": "uint256",
							"name": "quantity",
							"type": "uint256"
						}
					],
					"name": "addAlbum",
					"outputs": [],
					"stateMutability": "nonpayable",
					"type": "function"
				},
				{
					"inputs": [
						{
							"internalType": "uint256",
							"name": "",
							"type": "uint256"
						}
					],
					"name": "albums",
					"outputs": [
						{
							"internalType": "uint256",
							"name": "index",
							"type": "uint256"
						},
						{
							"internalType": "string",
							"name": "uid",
							"type": "string"
						},
						{
							"internalType": "string",
							"name": "title",
							"type": "string"
						},
						{
							"internalType": "uint256",
							"name": "price",
							"type": "uint256"
						},
						{
							"internalType": "uint256",
							"name": "quantity",
							"type": "uint256"
						}
					],
					"stateMutability": "view",
					"type": "function"
				},
				{
					"inputs": [],
					"name": "allAlbums",
					"outputs": [
						{
							"components": [
								{
									"internalType": "uint256",
									"name": "index",
									"type": "uint256"
								},
								{
									"internalType": "string",
									"name": "uid",
									"type": "string"
								},
								{
									"internalType": "string",
									"name": "title",
									"type": "string"
								},
								{
									"internalType": "uint256",
									"name": "price",
									"type": "uint256"
								},
								{
									"internalType": "uint256",
									"name": "quantity",
									"type": "uint256"
								}
							],
							"internalType": "struct MusicStore.Album[]",
							"name": "",
							"type": "tuple[]"
						}
					],
					"stateMutability": "view",
					"type": "function"
				},
				{
					"inputs": [
						{
							"internalType": "uint256",
							"name": "_index",
							"type": "uint256"
						}
					],
					"name": "buy",
					"outputs": [],
					"stateMutability": "payable",
					"type": "function"
				},
				{
					"inputs": [
						{
							"internalType": "uint256",
							"name": "",
							"type": "uint256"
						}
					],
					"name": "orders",
					"outputs": [
						{
							"internalType": "string",
							"name": "albumUid",
							"type": "string"
						},
						{
							"internalType": "address",
							"name": "customer",
							"type": "address"
						},
						{
							"internalType": "uint256",
							"name": "orderAt",
							"type": "uint256"
						},
						{
							"internalType": "enum MusicStore.OrderStatus",
							"name": "status",
							"type": "uint8"
						}
					],
					"stateMutability": "view",
					"type": "function"
				},
				{
					"inputs": [],
					"name": "owner",
					"outputs": [
						{
							"internalType": "address",
							"name": "",
							"type": "address"
						}
					],
					"stateMutability": "view",
					"type": "function"
				}
			],
			"devdoc": {
				"kind": "dev",
				"methods": {},
				"version": 1
			},
			"evm": {
				"assembly": "    /* \"contracts/MusicStore.sol\":57:1560  contract MusicStore {... */\n  mstore(0x40, 0x80)\n    /* \"contracts/MusicStore.sol\":588:638  constructor() {... */\n  callvalue\n  dup1\n  iszero\n  tag_1\n  jumpi\n  0x00\n  dup1\n  revert\ntag_1:\n  pop\n    /* \"contracts/MusicStore.sol\":621:631  msg.sender */\n  caller\n    /* \"contracts/MusicStore.sol\":612:631  owner == msg.sender */\n  0xffffffffffffffffffffffffffffffffffffffff\n  and\n    /* \"contracts/MusicStore.sol\":612:617  owner */\n  0x02\n  0x00\n  swap1\n  sload\n  swap1\n  0x0100\n  exp\n  swap1\n  pop\n  pop\n    /* \"contracts/MusicStore.sol\":612:631  owner == msg.sender */\n  pop\n    /* \"contracts/MusicStore.sol\":57:1560  contract MusicStore {... */\n  dataSize(sub_0)\n  dup1\n  dataOffset(sub_0)\n  0x00\n  codecopy\n  0x00\n  return\nstop\n\nsub_0: assembly {\n        /* \"contracts/MusicStore.sol\":57:1560  contract MusicStore {... */\n      mstore(0x40, 0x80)\n      jumpi(tag_1, lt(calldatasize, 0x04))\n      shr(0xe0, calldataload(0x00))\n      dup1\n      0x8da5cb5b\n      eq\n      tag_2\n      jumpi\n      dup1\n      0xa85c38ef\n      eq\n      tag_3\n      jumpi\n      dup1\n      0xc557f979\n      eq\n      tag_4\n      jumpi\n      dup1\n      0xd96a094a\n      eq\n      tag_5\n      jumpi\n      dup1\n      0xea5df059\n      eq\n      tag_6\n      jumpi\n      dup1\n      0xec34297a\n      eq\n      tag_7\n      jumpi\n    tag_1:\n      0x00\n      dup1\n      revert\n        /* \"contracts/MusicStore.sol\":438:458  address public owner */\n    tag_2:\n      callvalue\n      dup1\n      iszero\n      tag_8\n      jumpi\n      0x00\n      dup1\n      revert\n    tag_8:\n      pop\n      tag_9\n      tag_10\n      jump\t// in\n    tag_9:\n      mload(0x40)\n      tag_11\n      swap2\n      swap1\n      tag_12\n      jump\t// in\n    tag_11:\n      mload(0x40)\n      dup1\n      swap2\n      sub\n      swap1\n      return\n        /* \"contracts/MusicStore.sol\":410:431  Order[] public orders */\n    tag_3:\n      callvalue\n      dup1\n      iszero\n      tag_13\n      jumpi\n      0x00\n      dup1\n      revert\n    tag_13:\n      pop\n      tag_14\n      0x04\n      dup1\n      calldatasize\n      sub\n      dup2\n      add\n      swap1\n      tag_15\n      swap2\n      swap1\n      tag_16\n      jump\t// in\n    tag_15:\n      tag_17\n      jump\t// in\n    tag_14:\n      mload(0x40)\n      tag_18\n      swap5\n      swap4\n      swap3\n      swap2\n      swap1\n      tag_19\n      jump\t// in\n    tag_18:\n      mload(0x40)\n      dup1\n      swap2\n      sub\n      swap1\n      return\n        /* \"contracts/MusicStore.sol\":644:1031  function addAlbum(... */\n    tag_4:\n      callvalue\n      dup1\n      iszero\n      tag_20\n      jumpi\n      0x00\n      dup1\n      revert\n    tag_20:\n      pop\n      tag_21\n      0x04\n      dup1\n      calldatasize\n      sub\n      dup2\n      add\n      swap1\n      tag_22\n      swap2\n      swap1\n      tag_23\n      jump\t// in\n    tag_22:\n      tag_24\n      jump\t// in\n    tag_21:\n      stop\n        /* \"contracts/MusicStore.sol\":1037:1294  function buy(uint _index) external payable {... */\n    tag_5:\n      tag_25\n      0x04\n      dup1\n      calldatasize\n      sub\n      dup2\n      add\n      swap1\n      tag_26\n      swap2\n      swap1\n      tag_16\n      jump\t// in\n    tag_26:\n      tag_27\n      jump\t// in\n    tag_25:\n      stop\n        /* \"contracts/MusicStore.sol\":383:404  Album[] public albums */\n    tag_6:\n      callvalue\n      dup1\n      iszero\n      tag_28\n      jumpi\n      0x00\n      dup1\n      revert\n    tag_28:\n      pop\n      tag_29\n      0x04\n      dup1\n      calldatasize\n      sub\n      dup2\n      add\n      swap1\n      tag_30\n      swap2\n      swap1\n      tag_16\n      jump\t// in\n    tag_30:\n      tag_31\n      jump\t// in\n    tag_29:\n      mload(0x40)\n      tag_32\n      swap6\n      swap5\n      swap4\n      swap3\n      swap2\n      swap1\n      tag_33\n      jump\t// in\n    tag_32:\n      mload(0x40)\n      dup1\n      swap2\n      sub\n      swap1\n      return\n        /* \"contracts/MusicStore.sol\":1300:1558  function allAlbums() external view returns(Album[] memory) {... */\n    tag_7:\n      callvalue\n      dup1\n      iszero\n      tag_34\n      jumpi\n      0x00\n      dup1\n      revert\n    tag_34:\n      pop\n      tag_35\n      tag_36\n      jump\t// in\n    tag_35:\n      mload(0x40)\n      tag_37\n      swap2\n      swap1\n      tag_38\n      jump\t// in\n    tag_37:\n      mload(0x40)\n      dup1\n      swap2\n      sub\n      swap1\n      return\n        /* \"contracts/MusicStore.sol\":438:458  address public owner */\n    tag_10:\n      0x02\n      0x00\n      swap1\n      sload\n      swap1\n      0x0100\n      exp\n      swap1\n      div\n      0xffffffffffffffffffffffffffffffffffffffff\n      and\n      dup2\n      jump\t// out\n        /* \"contracts/MusicStore.sol\":410:431  Order[] public orders */\n    tag_17:\n      0x01\n      dup2\n      dup2\n      sload\n      dup2\n      lt\n      tag_39\n      jumpi\n      0x00\n      dup1\n      revert\n    tag_39:\n      swap1\n      0x00\n      mstore\n      keccak256(0x00, 0x20)\n      swap1\n      0x04\n      mul\n      add\n      0x00\n      swap2\n      pop\n      swap1\n      pop\n      dup1\n      0x00\n      add\n      dup1\n      sload\n      tag_41\n      swap1\n      tag_42\n      jump\t// in\n    tag_41:\n      dup1\n      0x1f\n      add\n      0x20\n      dup1\n      swap2\n      div\n      mul\n      0x20\n      add\n      mload(0x40)\n      swap1\n      dup2\n      add\n      0x40\n      mstore\n      dup1\n      swap3\n      swap2\n      swap1\n      dup2\n      dup2\n      mstore\n      0x20\n      add\n      dup3\n      dup1\n      sload\n      tag_43\n      swap1\n      tag_42\n      jump\t// in\n    tag_43:\n      dup1\n      iszero\n      tag_44\n      jumpi\n      dup1\n      0x1f\n      lt\n      tag_45\n      jumpi\n      0x0100\n      dup1\n      dup4\n      sload\n      div\n      mul\n      dup4\n      mstore\n      swap2\n      0x20\n      add\n      swap2\n      jump(tag_44)\n    tag_45:\n      dup3\n      add\n      swap2\n      swap1\n      0x00\n      mstore\n      keccak256(0x00, 0x20)\n      swap1\n    tag_46:\n      dup2\n      sload\n      dup2\n      mstore\n      swap1\n      0x01\n      add\n      swap1\n      0x20\n      add\n      dup1\n      dup4\n      gt\n      tag_46\n      jumpi\n      dup3\n      swap1\n      sub\n      0x1f\n      and\n      dup3\n      add\n      swap2\n    tag_44:\n      pop\n      pop\n      pop\n      pop\n      pop\n      swap1\n      dup1\n      0x01\n      add\n      0x00\n      swap1\n      sload\n      swap1\n      0x0100\n      exp\n      swap1\n      div\n      0xffffffffffffffffffffffffffffffffffffffff\n      and\n      swap1\n      dup1\n      0x02\n      add\n      sload\n      swap1\n      dup1\n      0x03\n      add\n      0x00\n      swap1\n      sload\n      swap1\n      0x0100\n      exp\n      swap1\n      div\n      0xff\n      and\n      swap1\n      pop\n      dup5\n      jump\t// out\n        /* \"contracts/MusicStore.sol\":644:1031  function addAlbum(... */\n    tag_24:\n        /* \"contracts/MusicStore.sol\":536:546  msg.sender */\n      caller\n        /* \"contracts/MusicStore.sol\":527:546  owner == msg.sender */\n      0xffffffffffffffffffffffffffffffffffffffff\n      and\n        /* \"contracts/MusicStore.sol\":527:532  owner */\n      0x02\n      0x00\n      swap1\n      sload\n      swap1\n      0x0100\n      exp\n      swap1\n      div\n      0xffffffffffffffffffffffffffffffffffffffff\n      and\n        /* \"contracts/MusicStore.sol\":527:546  owner == msg.sender */\n      0xffffffffffffffffffffffffffffffffffffffff\n      and\n      eq\n        /* \"contracts/MusicStore.sol\":519:564  require(owner == msg.sender, \"Not an owner!\") */\n      tag_48\n      jumpi\n      mload(0x40)\n      0x08c379a000000000000000000000000000000000000000000000000000000000\n      dup2\n      mstore\n      0x04\n      add\n      tag_49\n      swap1\n      tag_50\n      jump\t// in\n    tag_49:\n      mload(0x40)\n      dup1\n      swap2\n      sub\n      swap1\n      revert\n    tag_48:\n        /* \"contracts/MusicStore.sol\":802:808  albums */\n      0x00\n        /* \"contracts/MusicStore.sol\":814:994  Album({... */\n      mload(0x40)\n      dup1\n      0xa0\n      add\n      0x40\n      mstore\n      dup1\n        /* \"contracts/MusicStore.sol\":845:857  currentIndex */\n      sload(0x03)\n        /* \"contracts/MusicStore.sol\":814:994  Album({... */\n      dup2\n      mstore\n      0x20\n      add\n        /* \"contracts/MusicStore.sol\":880:883  uid */\n      dup9\n      dup9\n        /* \"contracts/MusicStore.sol\":814:994  Album({... */\n      dup1\n      dup1\n      0x1f\n      add\n      0x20\n      dup1\n      swap2\n      div\n      mul\n      0x20\n      add\n      mload(0x40)\n      swap1\n      dup2\n      add\n      0x40\n      mstore\n      dup1\n      swap4\n      swap3\n      swap2\n      swap1\n      dup2\n      dup2\n      mstore\n      0x20\n      add\n      dup4\n      dup4\n      dup1\n      dup3\n      dup5\n      calldatacopy\n      0x00\n      dup2\n      dup5\n      add\n      mstore\n      not(0x1f)\n      0x1f\n      dup3\n      add\n      and\n      swap1\n      pop\n      dup1\n      dup4\n      add\n      swap3\n      pop\n      pop\n      pop\n      pop\n      pop\n      pop\n      pop\n      dup2\n      mstore\n      0x20\n      add\n        /* \"contracts/MusicStore.sol\":908:913  title */\n      dup7\n      dup7\n        /* \"contracts/MusicStore.sol\":814:994  Album({... */\n      dup1\n      dup1\n      0x1f\n      add\n      0x20\n      dup1\n      swap2\n      div\n      mul\n      0x20\n      add\n      mload(0x40)\n      swap1\n      dup2\n      add\n      0x40\n      mstore\n      dup1\n      swap4\n      swap3\n      swap2\n      swap1\n      dup2\n      dup2\n      mstore\n      0x20\n      add\n      dup4\n      dup4\n      dup1\n      dup3\n      dup5\n      calldatacopy\n      0x00\n      dup2\n      dup5\n      add\n      mstore\n      not(0x1f)\n      0x1f\n      dup3\n      add\n      and\n      swap1\n      pop\n      dup1\n      dup4\n      add\n      swap3\n      pop\n      pop\n      pop\n      pop\n      pop\n      pop\n      pop\n      dup2\n      mstore\n      0x20\n      add\n        /* \"contracts/MusicStore.sol\":938:943  price */\n      dup5\n        /* \"contracts/MusicStore.sol\":814:994  Album({... */\n      dup2\n      mstore\n      0x20\n      add\n        /* \"contracts/MusicStore.sol\":971:979  quantity */\n      dup4\n        /* \"contracts/MusicStore.sol\":814:994  Album({... */\n      dup2\n      mstore\n      pop\n        /* \"contracts/MusicStore.sol\":802:995  albums.push(Album({... */\n      swap1\n      dup1\n      0x01\n      dup2\n      sload\n      add\n      dup1\n      dup3\n      sstore\n      dup1\n      swap2\n      pop\n      pop\n      0x01\n      swap1\n      sub\n      swap1\n      0x00\n      mstore\n      keccak256(0x00, 0x20)\n      swap1\n      0x05\n      mul\n      add\n      0x00\n      swap1\n      swap2\n      swap1\n      swap2\n      swap1\n      swap2\n      pop\n      0x00\n      dup3\n      add\n      mload\n      dup2\n      0x00\n      add\n      sstore\n      0x20\n      dup3\n      add\n      mload\n      dup2\n      0x01\n      add\n      swap1\n      dup1\n      mload\n      swap1\n      0x20\n      add\n      swap1\n      tag_53\n      swap3\n      swap2\n      swap1\n      tag_54\n      jump\t// in\n    tag_53:\n      pop\n      0x40\n      dup3\n      add\n      mload\n      dup2\n      0x02\n      add\n      swap1\n      dup1\n      mload\n      swap1\n      0x20\n      add\n      swap1\n      tag_55\n      swap3\n      swap2\n      swap1\n      tag_54\n      jump\t// in\n    tag_55:\n      pop\n      0x60\n      dup3\n      add\n      mload\n      dup2\n      0x03\n      add\n      sstore\n      0x80\n      dup3\n      add\n      mload\n      dup2\n      0x04\n      add\n      sstore\n      pop\n      pop\n        /* \"contracts/MusicStore.sol\":1010:1022  currentIndex */\n      0x03\n      0x00\n        /* \"contracts/MusicStore.sol\":1010:1024  currentIndex++ */\n      dup2\n      sload\n      dup1\n      swap3\n      swap2\n      swap1\n      tag_56\n      swap1\n      tag_57\n      jump\t// in\n    tag_56:\n      swap2\n      swap1\n      pop\n      sstore\n      pop\n        /* \"contracts/MusicStore.sol\":644:1031  function addAlbum(... */\n      pop\n      pop\n      pop\n      pop\n      pop\n      pop\n      jump\t// out\n        /* \"contracts/MusicStore.sol\":1037:1294  function buy(uint _index) external payable {... */\n    tag_27:\n        /* \"contracts/MusicStore.sol\":1090:1114  Album storage albumToBuy */\n      0x00\n        /* \"contracts/MusicStore.sol\":1117:1123  albums */\n      dup1\n        /* \"contracts/MusicStore.sol\":1124:1130  _index */\n      dup3\n        /* \"contracts/MusicStore.sol\":1117:1131  albums[_index] */\n      dup2\n      sload\n      dup2\n      lt\n      tag_59\n      jumpi\n      tag_60\n      tag_61\n      jump\t// in\n    tag_60:\n    tag_59:\n      swap1\n      0x00\n      mstore\n      keccak256(0x00, 0x20)\n      swap1\n      0x05\n      mul\n      add\n        /* \"contracts/MusicStore.sol\":1090:1131  Album storage albumToBuy = albums[_index] */\n      swap1\n      pop\n        /* \"contracts/MusicStore.sol\":1163:1173  albumToBuy */\n      dup1\n        /* \"contracts/MusicStore.sol\":1163:1179  albumToBuy.price */\n      0x03\n      add\n      sload\n        /* \"contracts/MusicStore.sol\":1150:1159  msg.value */\n      callvalue\n        /* \"contracts/MusicStore.sol\":1150:1179  msg.value == albumToBuy.price */\n      eq\n        /* \"contracts/MusicStore.sol\":1142:1197  require(msg.value == albumToBuy.price, \"invalid price\") */\n      tag_63\n      jumpi\n      mload(0x40)\n      0x08c379a000000000000000000000000000000000000000000000000000000000\n      dup2\n      mstore\n      0x04\n      add\n      tag_64\n      swap1\n      tag_65\n      jump\t// in\n    tag_64:\n      mload(0x40)\n      dup1\n      swap2\n      sub\n      swap1\n      revert\n    tag_63:\n        /* \"contracts/MusicStore.sol\":1237:1238  0 */\n      0x00\n        /* \"contracts/MusicStore.sol\":1215:1225  albumToBuy */\n      dup2\n        /* \"contracts/MusicStore.sol\":1215:1234  albumToBuy.quantity */\n      0x04\n      add\n      sload\n        /* \"contracts/MusicStore.sol\":1215:1238  albumToBuy.quantity > 0 */\n      gt\n        /* \"contracts/MusicStore.sol\":1207:1255  require(albumToBuy.quantity > 0, \"out of stock\") */\n      tag_66\n      jumpi\n      mload(0x40)\n      0x08c379a000000000000000000000000000000000000000000000000000000000\n      dup2\n      mstore\n      0x04\n      add\n      tag_67\n      swap1\n      tag_68\n      jump\t// in\n    tag_67:\n      mload(0x40)\n      dup1\n      swap2\n      sub\n      swap1\n      revert\n    tag_66:\n        /* \"contracts/MusicStore.sol\":1266:1276  albumToBuy */\n      dup1\n        /* \"contracts/MusicStore.sol\":1266:1285  albumToBuy.quantity */\n      0x04\n      add\n      0x00\n        /* \"contracts/MusicStore.sol\":1266:1287  albumToBuy.quantity-- */\n      dup2\n      sload\n      dup1\n      swap3\n      swap2\n      swap1\n      tag_69\n      swap1\n      tag_70\n      jump\t// in\n    tag_69:\n      swap2\n      swap1\n      pop\n      sstore\n      pop\n        /* \"contracts/MusicStore.sol\":1080:1294  {... */\n      pop\n        /* \"contracts/MusicStore.sol\":1037:1294  function buy(uint _index) external payable {... */\n      pop\n      jump\t// out\n        /* \"contracts/MusicStore.sol\":383:404  Album[] public albums */\n    tag_31:\n      0x00\n      dup2\n      dup2\n      sload\n      dup2\n      lt\n      tag_71\n      jumpi\n      0x00\n      dup1\n      revert\n    tag_71:\n      swap1\n      0x00\n      mstore\n      keccak256(0x00, 0x20)\n      swap1\n      0x05\n      mul\n      add\n      0x00\n      swap2\n      pop\n      swap1\n      pop\n      dup1\n      0x00\n      add\n      sload\n      swap1\n      dup1\n      0x01\n      add\n      dup1\n      sload\n      tag_73\n      swap1\n      tag_42\n      jump\t// in\n    tag_73:\n      dup1\n      0x1f\n      add\n      0x20\n      dup1\n      swap2\n      div\n      mul\n      0x20\n      add\n      mload(0x40)\n      swap1\n      dup2\n      add\n      0x40\n      mstore\n      dup1\n      swap3\n      swap2\n      swap1\n      dup2\n      dup2\n      mstore\n      0x20\n      add\n      dup3\n      dup1\n      sload\n      tag_74\n      swap1\n      tag_42\n      jump\t// in\n    tag_74:\n      dup1\n      iszero\n      tag_75\n      jumpi\n      dup1\n      0x1f\n      lt\n      tag_76\n      jumpi\n      0x0100\n      dup1\n      dup4\n      sload\n      div\n      mul\n      dup4\n      mstore\n      swap2\n      0x20\n      add\n      swap2\n      jump(tag_75)\n    tag_76:\n      dup3\n      add\n      swap2\n      swap1\n      0x00\n      mstore\n      keccak256(0x00, 0x20)\n      swap1\n    tag_77:\n      dup2\n      sload\n      dup2\n      mstore\n      swap1\n      0x01\n      add\n      swap1\n      0x20\n      add\n      dup1\n      dup4\n      gt\n      tag_77\n      jumpi\n      dup3\n      swap1\n      sub\n      0x1f\n      and\n      dup3\n      add\n      swap2\n    tag_75:\n      pop\n      pop\n      pop\n      pop\n      pop\n      swap1\n      dup1\n      0x02\n      add\n      dup1\n      sload\n      tag_78\n      swap1\n      tag_42\n      jump\t// in\n    tag_78:\n      dup1\n      0x1f\n      add\n      0x20\n      dup1\n      swap2\n      div\n      mul\n      0x20\n      add\n      mload(0x40)\n      swap1\n      dup2\n      add\n      0x40\n      mstore\n      dup1\n      swap3\n      swap2\n      swap1\n      dup2\n      dup2\n      mstore\n      0x20\n      add\n      dup3\n      dup1\n      sload\n      tag_79\n      swap1\n      tag_42\n      jump\t// in\n    tag_79:\n      dup1\n      iszero\n      tag_80\n      jumpi\n      dup1\n      0x1f\n      lt\n      tag_81\n      jumpi\n      0x0100\n      dup1\n      dup4\n      sload\n      div\n      mul\n      dup4\n      mstore\n      swap2\n      0x20\n      add\n      swap2\n      jump(tag_80)\n    tag_81:\n      dup3\n      add\n      swap2\n      swap1\n      0x00\n      mstore\n      keccak256(0x00, 0x20)\n      swap1\n    tag_82:\n      dup2\n      sload\n      dup2\n      mstore\n      swap1\n      0x01\n      add\n      swap1\n      0x20\n      add\n      dup1\n      dup4\n      gt\n      tag_82\n      jumpi\n      dup3\n      swap1\n      sub\n      0x1f\n      and\n      dup3\n      add\n      swap2\n    tag_80:\n      pop\n      pop\n      pop\n      pop\n      pop\n      swap1\n      dup1\n      0x03\n      add\n      sload\n      swap1\n      dup1\n      0x04\n      add\n      sload\n      swap1\n      pop\n      dup6\n      jump\t// out\n        /* \"contracts/MusicStore.sol\":1300:1558  function allAlbums() external view returns(Album[] memory) {... */\n    tag_36:\n        /* \"contracts/MusicStore.sol\":1343:1357  Album[] memory */\n      0x60\n        /* \"contracts/MusicStore.sol\":1369:1394  Album[] memory albumsList */\n      0x00\n        /* \"contracts/MusicStore.sol\":1409:1415  albums */\n      dup1\n        /* \"contracts/MusicStore.sol\":1409:1422  albums.length */\n      dup1\n      sload\n      swap1\n      pop\n        /* \"contracts/MusicStore.sol\":1397:1423  new Album[](albums.length) */\n      0xffffffffffffffff\n      dup2\n      gt\n      iszero\n      tag_84\n      jumpi\n      tag_85\n      tag_86\n      jump\t// in\n    tag_85:\n    tag_84:\n      mload(0x40)\n      swap1\n      dup1\n      dup3\n      mstore\n      dup1\n      0x20\n      mul\n      0x20\n      add\n      dup3\n      add\n      0x40\n      mstore\n      dup1\n      iszero\n      tag_87\n      jumpi\n      dup2\n      0x20\n      add\n    tag_88:\n      tag_89\n      tag_90\n      jump\t// in\n    tag_89:\n      dup2\n      mstore\n      0x20\n      add\n      swap1\n      0x01\n      swap1\n      sub\n      swap1\n      dup2\n      tag_88\n      jumpi\n      swap1\n      pop\n    tag_87:\n      pop\n        /* \"contracts/MusicStore.sol\":1369:1423  Album[] memory albumsList = new Album[](albums.length) */\n      swap1\n      pop\n        /* \"contracts/MusicStore.sol\":1438:1444  uint i */\n      0x00\n        /* \"contracts/MusicStore.sol\":1434:1524  for(uint i = 0; i < albums.length; i++) {... */\n    tag_91:\n        /* \"contracts/MusicStore.sol\":1454:1460  albums */\n      0x00\n        /* \"contracts/MusicStore.sol\":1454:1467  albums.length */\n      dup1\n      sload\n      swap1\n      pop\n        /* \"contracts/MusicStore.sol\":1450:1451  i */\n      dup2\n        /* \"contracts/MusicStore.sol\":1450:1467  i < albums.length */\n      lt\n        /* \"contracts/MusicStore.sol\":1434:1524  for(uint i = 0; i < albums.length; i++) {... */\n      iszero\n      tag_92\n      jumpi\n        /* \"contracts/MusicStore.sol\":1504:1510  albums */\n      0x00\n        /* \"contracts/MusicStore.sol\":1511:1512  i */\n      dup2\n        /* \"contracts/MusicStore.sol\":1504:1513  albums[i] */\n      dup2\n      sload\n      dup2\n      lt\n      tag_94\n      jumpi\n      tag_95\n      tag_61\n      jump\t// in\n    tag_95:\n    tag_94:\n      swap1\n      0x00\n      mstore\n      keccak256(0x00, 0x20)\n      swap1\n      0x05\n      mul\n      add\n        /* \"contracts/MusicStore.sol\":1488:1513  albumsList[i] = albums[i] */\n      mload(0x40)\n      dup1\n      0xa0\n      add\n      0x40\n      mstore\n      swap1\n      dup2\n      0x00\n      dup3\n      add\n      sload\n      dup2\n      mstore\n      0x20\n      add\n      0x01\n      dup3\n      add\n      dup1\n      sload\n      tag_97\n      swap1\n      tag_42\n      jump\t// in\n    tag_97:\n      dup1\n      0x1f\n      add\n      0x20\n      dup1\n      swap2\n      div\n      mul\n      0x20\n      add\n      mload(0x40)\n      swap1\n      dup2\n      add\n      0x40\n      mstore\n      dup1\n      swap3\n      swap2\n      swap1\n      dup2\n      dup2\n      mstore\n      0x20\n      add\n      dup3\n      dup1\n      sload\n      tag_98\n      swap1\n      tag_42\n      jump\t// in\n    tag_98:\n      dup1\n      iszero\n      tag_99\n      jumpi\n      dup1\n      0x1f\n      lt\n      tag_100\n      jumpi\n      0x0100\n      dup1\n      dup4\n      sload\n      div\n      mul\n      dup4\n      mstore\n      swap2\n      0x20\n      add\n      swap2\n      jump(tag_99)\n    tag_100:\n      dup3\n      add\n      swap2\n      swap1\n      0x00\n      mstore\n      keccak256(0x00, 0x20)\n      swap1\n    tag_101:\n      dup2\n      sload\n      dup2\n      mstore\n      swap1\n      0x01\n      add\n      swap1\n      0x20\n      add\n      dup1\n      dup4\n      gt\n      tag_101\n      jumpi\n      dup3\n      swap1\n      sub\n      0x1f\n      and\n      dup3\n      add\n      swap2\n    tag_99:\n      pop\n      pop\n      pop\n      pop\n      pop\n      dup2\n      mstore\n      0x20\n      add\n      0x02\n      dup3\n      add\n      dup1\n      sload\n      tag_102\n      swap1\n      tag_42\n      jump\t// in\n    tag_102:\n      dup1\n      0x1f\n      add\n      0x20\n      dup1\n      swap2\n      div\n      mul\n      0x20\n      add\n      mload(0x40)\n      swap1\n      dup2\n      add\n      0x40\n      mstore\n      dup1\n      swap3\n      swap2\n      swap1\n      dup2\n      dup2\n      mstore\n      0x20\n      add\n      dup3\n      dup1\n      sload\n      tag_103\n      swap1\n      tag_42\n      jump\t// in\n    tag_103:\n      dup1\n      iszero\n      tag_104\n      jumpi\n      dup1\n      0x1f\n      lt\n      tag_105\n      jumpi\n      0x0100\n      dup1\n      dup4\n      sload\n      div\n      mul\n      dup4\n      mstore\n      swap2\n      0x20\n      add\n      swap2\n      jump(tag_104)\n    tag_105:\n      dup3\n      add\n      swap2\n      swap1\n      0x00\n      mstore\n      keccak256(0x00, 0x20)\n      swap1\n    tag_106:\n      dup2\n      sload\n      dup2\n      mstore\n      swap1\n      0x01\n      add\n      swap1\n      0x20\n      add\n      dup1\n      dup4\n      gt\n      tag_106\n      jumpi\n      dup3\n      swap1\n      sub\n      0x1f\n      and\n      dup3\n      add\n      swap2\n    tag_104:\n      pop\n      pop\n      pop\n      pop\n      pop\n      dup2\n      mstore\n      0x20\n      add\n      0x03\n      dup3\n      add\n      sload\n      dup2\n      mstore\n      0x20\n      add\n      0x04\n      dup3\n      add\n      sload\n      dup2\n      mstore\n      pop\n      pop\n        /* \"contracts/MusicStore.sol\":1488:1498  albumsList */\n      dup3\n        /* \"contracts/MusicStore.sol\":1499:1500  i */\n      dup3\n        /* \"contracts/MusicStore.sol\":1488:1501  albumsList[i] */\n      dup2\n      mload\n      dup2\n      lt\n      tag_107\n      jumpi\n      tag_108\n      tag_61\n      jump\t// in\n    tag_108:\n    tag_107:\n      0x20\n      mul\n      0x20\n      add\n      add\n        /* \"contracts/MusicStore.sol\":1488:1513  albumsList[i] = albums[i] */\n      dup2\n      swap1\n      mstore\n      pop\n        /* \"contracts/MusicStore.sol\":1469:1472  i++ */\n      dup1\n      dup1\n      tag_109\n      swap1\n      tag_57\n      jump\t// in\n    tag_109:\n      swap2\n      pop\n      pop\n        /* \"contracts/MusicStore.sol\":1434:1524  for(uint i = 0; i < albums.length; i++) {... */\n      jump(tag_91)\n    tag_92:\n      pop\n        /* \"contracts/MusicStore.sol\":1541:1551  albumsList */\n      dup1\n        /* \"contracts/MusicStore.sol\":1534:1551  return albumsList */\n      swap2\n      pop\n      pop\n        /* \"contracts/MusicStore.sol\":1300:1558  function allAlbums() external view returns(Album[] memory) {... */\n      swap1\n      jump\t// out\n    tag_54:\n      dup3\n      dup1\n      sload\n      tag_110\n      swap1\n      tag_42\n      jump\t// in\n    tag_110:\n      swap1\n      0x00\n      mstore\n      keccak256(0x00, 0x20)\n      swap1\n      0x1f\n      add\n      0x20\n      swap1\n      div\n      dup2\n      add\n      swap3\n      dup3\n      tag_112\n      jumpi\n      0x00\n      dup6\n      sstore\n      jump(tag_111)\n    tag_112:\n      dup3\n      0x1f\n      lt\n      tag_113\n      jumpi\n      dup1\n      mload\n      not(0xff)\n      and\n      dup4\n      dup1\n      add\n      or\n      dup6\n      sstore\n      jump(tag_111)\n    tag_113:\n      dup3\n      dup1\n      add\n      0x01\n      add\n      dup6\n      sstore\n      dup3\n      iszero\n      tag_111\n      jumpi\n      swap2\n      dup3\n      add\n    tag_114:\n      dup3\n      dup2\n      gt\n      iszero\n      tag_115\n      jumpi\n      dup3\n      mload\n      dup3\n      sstore\n      swap2\n      0x20\n      add\n      swap2\n      swap1\n      0x01\n      add\n      swap1\n      jump(tag_114)\n    tag_115:\n    tag_111:\n      pop\n      swap1\n      pop\n      tag_116\n      swap2\n      swap1\n      tag_117\n      jump\t// in\n    tag_116:\n      pop\n      swap1\n      jump\t// out\n    tag_90:\n      mload(0x40)\n      dup1\n      0xa0\n      add\n      0x40\n      mstore\n      dup1\n      0x00\n      dup2\n      mstore\n      0x20\n      add\n      0x60\n      dup2\n      mstore\n      0x20\n      add\n      0x60\n      dup2\n      mstore\n      0x20\n      add\n      0x00\n      dup2\n      mstore\n      0x20\n      add\n      0x00\n      dup2\n      mstore\n      pop\n      swap1\n      jump\t// out\n    tag_117:\n    tag_118:\n      dup1\n      dup3\n      gt\n      iszero\n      tag_119\n      jumpi\n      0x00\n      dup2\n      0x00\n      swap1\n      sstore\n      pop\n      0x01\n      add\n      jump(tag_118)\n    tag_119:\n      pop\n      swap1\n      jump\t// out\n        /* \"#utility.yul\":21:574   */\n    tag_121:\n        /* \"#utility.yul\":79:87   */\n      0x00\n        /* \"#utility.yul\":89:95   */\n      dup1\n        /* \"#utility.yul\":139:142   */\n      dup4\n        /* \"#utility.yul\":132:136   */\n      0x1f\n        /* \"#utility.yul\":124:130   */\n      dup5\n        /* \"#utility.yul\":120:137   */\n      add\n        /* \"#utility.yul\":116:143   */\n      slt\n        /* \"#utility.yul\":106:228   */\n      tag_123\n      jumpi\n        /* \"#utility.yul\":147:226   */\n      tag_124\n      tag_125\n      jump\t// in\n    tag_124:\n        /* \"#utility.yul\":106:228   */\n    tag_123:\n        /* \"#utility.yul\":260:266   */\n      dup3\n        /* \"#utility.yul\":247:267   */\n      calldataload\n        /* \"#utility.yul\":237:267   */\n      swap1\n      pop\n        /* \"#utility.yul\":290:308   */\n      0xffffffffffffffff\n        /* \"#utility.yul\":282:288   */\n      dup2\n        /* \"#utility.yul\":279:309   */\n      gt\n        /* \"#utility.yul\":276:393   */\n      iszero\n      tag_126\n      jumpi\n        /* \"#utility.yul\":312:391   */\n      tag_127\n      tag_128\n      jump\t// in\n    tag_127:\n        /* \"#utility.yul\":276:393   */\n    tag_126:\n        /* \"#utility.yul\":426:430   */\n      0x20\n        /* \"#utility.yul\":418:424   */\n      dup4\n        /* \"#utility.yul\":414:431   */\n      add\n        /* \"#utility.yul\":402:431   */\n      swap2\n      pop\n        /* \"#utility.yul\":480:483   */\n      dup4\n        /* \"#utility.yul\":472:476   */\n      0x01\n        /* \"#utility.yul\":464:470   */\n      dup3\n        /* \"#utility.yul\":460:477   */\n      mul\n        /* \"#utility.yul\":450:458   */\n      dup4\n        /* \"#utility.yul\":446:478   */\n      add\n        /* \"#utility.yul\":443:484   */\n      gt\n        /* \"#utility.yul\":440:568   */\n      iszero\n      tag_129\n      jumpi\n        /* \"#utility.yul\":487:566   */\n      tag_130\n      tag_131\n      jump\t// in\n    tag_130:\n        /* \"#utility.yul\":440:568   */\n    tag_129:\n        /* \"#utility.yul\":21:574   */\n      swap3\n      pop\n      swap3\n      swap1\n      pop\n      jump\t// out\n        /* \"#utility.yul\":580:719   */\n    tag_132:\n        /* \"#utility.yul\":626:631   */\n      0x00\n        /* \"#utility.yul\":664:670   */\n      dup2\n        /* \"#utility.yul\":651:671   */\n      calldataload\n        /* \"#utility.yul\":642:671   */\n      swap1\n      pop\n        /* \"#utility.yul\":680:713   */\n      tag_134\n        /* \"#utility.yul\":707:712   */\n      dup2\n        /* \"#utility.yul\":680:713   */\n      tag_135\n      jump\t// in\n    tag_134:\n        /* \"#utility.yul\":580:719   */\n      swap3\n      swap2\n      pop\n      pop\n      jump\t// out\n        /* \"#utility.yul\":725:1890   */\n    tag_23:\n        /* \"#utility.yul\":835:841   */\n      0x00\n        /* \"#utility.yul\":843:849   */\n      dup1\n        /* \"#utility.yul\":851:857   */\n      0x00\n        /* \"#utility.yul\":859:865   */\n      dup1\n        /* \"#utility.yul\":867:873   */\n      0x00\n        /* \"#utility.yul\":875:881   */\n      dup1\n        /* \"#utility.yul\":924:927   */\n      0x80\n        /* \"#utility.yul\":912:921   */\n      dup8\n        /* \"#utility.yul\":903:910   */\n      dup10\n        /* \"#utility.yul\":899:922   */\n      sub\n        /* \"#utility.yul\":895:928   */\n      slt\n        /* \"#utility.yul\":892:1012   */\n      iszero\n      tag_137\n      jumpi\n        /* \"#utility.yul\":931:1010   */\n      tag_138\n      tag_139\n      jump\t// in\n    tag_138:\n        /* \"#utility.yul\":892:1012   */\n    tag_137:\n        /* \"#utility.yul\":1079:1080   */\n      0x00\n        /* \"#utility.yul\":1068:1077   */\n      dup8\n        /* \"#utility.yul\":1064:1081   */\n      add\n        /* \"#utility.yul\":1051:1082   */\n      calldataload\n        /* \"#utility.yul\":1109:1127   */\n      0xffffffffffffffff\n        /* \"#utility.yul\":1101:1107   */\n      dup2\n        /* \"#utility.yul\":1098:1128   */\n      gt\n        /* \"#utility.yul\":1095:1212   */\n      iszero\n      tag_140\n      jumpi\n        /* \"#utility.yul\":1131:1210   */\n      tag_141\n      tag_142\n      jump\t// in\n    tag_141:\n        /* \"#utility.yul\":1095:1212   */\n    tag_140:\n        /* \"#utility.yul\":1244:1309   */\n      tag_143\n        /* \"#utility.yul\":1301:1308   */\n      dup10\n        /* \"#utility.yul\":1292:1298   */\n      dup3\n        /* \"#utility.yul\":1281:1290   */\n      dup11\n        /* \"#utility.yul\":1277:1299   */\n      add\n        /* \"#utility.yul\":1244:1309   */\n      tag_121\n      jump\t// in\n    tag_143:\n        /* \"#utility.yul\":1226:1309   */\n      swap7\n      pop\n      swap7\n      pop\n        /* \"#utility.yul\":1022:1319   */\n      pop\n        /* \"#utility.yul\":1386:1388   */\n      0x20\n        /* \"#utility.yul\":1375:1384   */\n      dup8\n        /* \"#utility.yul\":1371:1389   */\n      add\n        /* \"#utility.yul\":1358:1390   */\n      calldataload\n        /* \"#utility.yul\":1417:1435   */\n      0xffffffffffffffff\n        /* \"#utility.yul\":1409:1415   */\n      dup2\n        /* \"#utility.yul\":1406:1436   */\n      gt\n        /* \"#utility.yul\":1403:1520   */\n      iszero\n      tag_144\n      jumpi\n        /* \"#utility.yul\":1439:1518   */\n      tag_145\n      tag_142\n      jump\t// in\n    tag_145:\n        /* \"#utility.yul\":1403:1520   */\n    tag_144:\n        /* \"#utility.yul\":1552:1617   */\n      tag_146\n        /* \"#utility.yul\":1609:1616   */\n      dup10\n        /* \"#utility.yul\":1600:1606   */\n      dup3\n        /* \"#utility.yul\":1589:1598   */\n      dup11\n        /* \"#utility.yul\":1585:1607   */\n      add\n        /* \"#utility.yul\":1552:1617   */\n      tag_121\n      jump\t// in\n    tag_146:\n        /* \"#utility.yul\":1534:1617   */\n      swap5\n      pop\n      swap5\n      pop\n        /* \"#utility.yul\":1329:1627   */\n      pop\n        /* \"#utility.yul\":1666:1668   */\n      0x40\n        /* \"#utility.yul\":1692:1745   */\n      tag_147\n        /* \"#utility.yul\":1737:1744   */\n      dup10\n        /* \"#utility.yul\":1728:1734   */\n      dup3\n        /* \"#utility.yul\":1717:1726   */\n      dup11\n        /* \"#utility.yul\":1713:1735   */\n      add\n        /* \"#utility.yul\":1692:1745   */\n      tag_132\n      jump\t// in\n    tag_147:\n        /* \"#utility.yul\":1682:1745   */\n      swap3\n      pop\n        /* \"#utility.yul\":1637:1755   */\n      pop\n        /* \"#utility.yul\":1794:1796   */\n      0x60\n        /* \"#utility.yul\":1820:1873   */\n      tag_148\n        /* \"#utility.yul\":1865:1872   */\n      dup10\n        /* \"#utility.yul\":1856:1862   */\n      dup3\n        /* \"#utility.yul\":1845:1854   */\n      dup11\n        /* \"#utility.yul\":1841:1863   */\n      add\n        /* \"#utility.yul\":1820:1873   */\n      tag_132\n      jump\t// in\n    tag_148:\n        /* \"#utility.yul\":1810:1873   */\n      swap2\n      pop\n        /* \"#utility.yul\":1765:1883   */\n      pop\n        /* \"#utility.yul\":725:1890   */\n      swap3\n      swap6\n      pop\n      swap3\n      swap6\n      pop\n      swap3\n      swap6\n      jump\t// out\n        /* \"#utility.yul\":1896:2225   */\n    tag_16:\n        /* \"#utility.yul\":1955:1961   */\n      0x00\n        /* \"#utility.yul\":2004:2006   */\n      0x20\n        /* \"#utility.yul\":1992:2001   */\n      dup3\n        /* \"#utility.yul\":1983:1990   */\n      dup5\n        /* \"#utility.yul\":1979:2002   */\n      sub\n        /* \"#utility.yul\":1975:2007   */\n      slt\n        /* \"#utility.yul\":1972:2091   */\n      iszero\n      tag_150\n      jumpi\n        /* \"#utility.yul\":2010:2089   */\n      tag_151\n      tag_139\n      jump\t// in\n    tag_151:\n        /* \"#utility.yul\":1972:2091   */\n    tag_150:\n        /* \"#utility.yul\":2130:2131   */\n      0x00\n        /* \"#utility.yul\":2155:2208   */\n      tag_152\n        /* \"#utility.yul\":2200:2207   */\n      dup5\n        /* \"#utility.yul\":2191:2197   */\n      dup3\n        /* \"#utility.yul\":2180:2189   */\n      dup6\n        /* \"#utility.yul\":2176:2198   */\n      add\n        /* \"#utility.yul\":2155:2208   */\n      tag_132\n      jump\t// in\n    tag_152:\n        /* \"#utility.yul\":2145:2208   */\n      swap2\n      pop\n        /* \"#utility.yul\":2101:2218   */\n      pop\n        /* \"#utility.yul\":1896:2225   */\n      swap3\n      swap2\n      pop\n      pop\n      jump\t// out\n        /* \"#utility.yul\":2231:2471   */\n    tag_153:\n        /* \"#utility.yul\":2342:2352   */\n      0x00\n        /* \"#utility.yul\":2377:2465   */\n      tag_155\n        /* \"#utility.yul\":2461:2464   */\n      dup4\n        /* \"#utility.yul\":2453:2459   */\n      dup4\n        /* \"#utility.yul\":2377:2465   */\n      tag_156\n      jump\t// in\n    tag_155:\n        /* \"#utility.yul\":2363:2465   */\n      swap1\n      pop\n        /* \"#utility.yul\":2231:2471   */\n      swap3\n      swap2\n      pop\n      pop\n      jump\t// out\n        /* \"#utility.yul\":2477:2595   */\n    tag_157:\n        /* \"#utility.yul\":2564:2588   */\n      tag_159\n        /* \"#utility.yul\":2582:2587   */\n      dup2\n        /* \"#utility.yul\":2564:2588   */\n      tag_160\n      jump\t// in\n    tag_159:\n        /* \"#utility.yul\":2559:2562   */\n      dup3\n        /* \"#utility.yul\":2552:2589   */\n      mstore\n        /* \"#utility.yul\":2477:2595   */\n      pop\n      pop\n      jump\t// out\n        /* \"#utility.yul\":2663:3742   */\n    tag_161:\n        /* \"#utility.yul\":2824:2827   */\n      0x00\n        /* \"#utility.yul\":2853:2928   */\n      tag_163\n        /* \"#utility.yul\":2922:2927   */\n      dup3\n        /* \"#utility.yul\":2853:2928   */\n      tag_164\n      jump\t// in\n    tag_163:\n        /* \"#utility.yul\":2944:3051   */\n      tag_165\n        /* \"#utility.yul\":3044:3050   */\n      dup2\n        /* \"#utility.yul\":3039:3042   */\n      dup6\n        /* \"#utility.yul\":2944:3051   */\n      tag_166\n      jump\t// in\n    tag_165:\n        /* \"#utility.yul\":2937:3051   */\n      swap4\n      pop\n        /* \"#utility.yul\":3077:3080   */\n      dup4\n        /* \"#utility.yul\":3122:3126   */\n      0x20\n        /* \"#utility.yul\":3114:3120   */\n      dup3\n        /* \"#utility.yul\":3110:3127   */\n      mul\n        /* \"#utility.yul\":3105:3108   */\n      dup6\n        /* \"#utility.yul\":3101:3128   */\n      add\n        /* \"#utility.yul\":3152:3229   */\n      tag_167\n        /* \"#utility.yul\":3223:3228   */\n      dup6\n        /* \"#utility.yul\":3152:3229   */\n      tag_168\n      jump\t// in\n    tag_167:\n        /* \"#utility.yul\":3252:3259   */\n      dup1\n        /* \"#utility.yul\":3283:3284   */\n      0x00\n        /* \"#utility.yul\":3268:3697   */\n    tag_169:\n        /* \"#utility.yul\":3293:3299   */\n      dup6\n        /* \"#utility.yul\":3290:3291   */\n      dup2\n        /* \"#utility.yul\":3287:3300   */\n      lt\n        /* \"#utility.yul\":3268:3697   */\n      iszero\n      tag_171\n      jumpi\n        /* \"#utility.yul\":3364:3373   */\n      dup5\n        /* \"#utility.yul\":3358:3362   */\n      dup5\n        /* \"#utility.yul\":3354:3374   */\n      sub\n        /* \"#utility.yul\":3349:3352   */\n      dup10\n        /* \"#utility.yul\":3342:3375   */\n      mstore\n        /* \"#utility.yul\":3415:3421   */\n      dup2\n        /* \"#utility.yul\":3409:3422   */\n      mload\n        /* \"#utility.yul\":3443:3549   */\n      tag_172\n        /* \"#utility.yul\":3544:3548   */\n      dup6\n        /* \"#utility.yul\":3529:3542   */\n      dup3\n        /* \"#utility.yul\":3443:3549   */\n      tag_153\n      jump\t// in\n    tag_172:\n        /* \"#utility.yul\":3435:3549   */\n      swap5\n      pop\n        /* \"#utility.yul\":3572:3653   */\n      tag_173\n        /* \"#utility.yul\":3646:3652   */\n      dup4\n        /* \"#utility.yul\":3572:3653   */\n      tag_174\n      jump\t// in\n    tag_173:\n        /* \"#utility.yul\":3562:3653   */\n      swap3\n      pop\n        /* \"#utility.yul\":3682:3686   */\n      0x20\n        /* \"#utility.yul\":3677:3680   */\n      dup11\n        /* \"#utility.yul\":3673:3687   */\n      add\n        /* \"#utility.yul\":3666:3687   */\n      swap10\n      pop\n        /* \"#utility.yul\":3328:3697   */\n      pop\n        /* \"#utility.yul\":3315:3316   */\n      0x01\n        /* \"#utility.yul\":3312:3313   */\n      dup2\n        /* \"#utility.yul\":3308:3317   */\n      add\n        /* \"#utility.yul\":3303:3317   */\n      swap1\n      pop\n        /* \"#utility.yul\":3268:3697   */\n      jump(tag_169)\n    tag_171:\n        /* \"#utility.yul\":3272:3286   */\n      pop\n        /* \"#utility.yul\":3713:3717   */\n      dup3\n        /* \"#utility.yul\":3706:3717   */\n      swap8\n      pop\n        /* \"#utility.yul\":3733:3736   */\n      dup8\n        /* \"#utility.yul\":3726:3736   */\n      swap6\n      pop\n        /* \"#utility.yul\":2829:3742   */\n      pop\n      pop\n      pop\n      pop\n      pop\n        /* \"#utility.yul\":2663:3742   */\n      swap3\n      swap2\n      pop\n      pop\n      jump\t// out\n        /* \"#utility.yul\":3748:3903   */\n    tag_175:\n        /* \"#utility.yul\":3847:3896   */\n      tag_177\n        /* \"#utility.yul\":3890:3895   */\n      dup2\n        /* \"#utility.yul\":3847:3896   */\n      tag_178\n      jump\t// in\n    tag_177:\n        /* \"#utility.yul\":3842:3845   */\n      dup3\n        /* \"#utility.yul\":3835:3897   */\n      mstore\n        /* \"#utility.yul\":3748:3903   */\n      pop\n      pop\n      jump\t// out\n        /* \"#utility.yul\":3909:4253   */\n    tag_179:\n        /* \"#utility.yul\":3987:3990   */\n      0x00\n        /* \"#utility.yul\":4015:4054   */\n      tag_181\n        /* \"#utility.yul\":4048:4053   */\n      dup3\n        /* \"#utility.yul\":4015:4054   */\n      tag_182\n      jump\t// in\n    tag_181:\n        /* \"#utility.yul\":4070:4131   */\n      tag_183\n        /* \"#utility.yul\":4124:4130   */\n      dup2\n        /* \"#utility.yul\":4119:4122   */\n      dup6\n        /* \"#utility.yul\":4070:4131   */\n      tag_184\n      jump\t// in\n    tag_183:\n        /* \"#utility.yul\":4063:4131   */\n      swap4\n      pop\n        /* \"#utility.yul\":4140:4192   */\n      tag_185\n        /* \"#utility.yul\":4185:4191   */\n      dup2\n        /* \"#utility.yul\":4180:4183   */\n      dup6\n        /* \"#utility.yul\":4173:4177   */\n      0x20\n        /* \"#utility.yul\":4166:4171   */\n      dup7\n        /* \"#utility.yul\":4162:4178   */\n      add\n        /* \"#utility.yul\":4140:4192   */\n      tag_186\n      jump\t// in\n    tag_185:\n        /* \"#utility.yul\":4217:4246   */\n      tag_187\n        /* \"#utility.yul\":4239:4245   */\n      dup2\n        /* \"#utility.yul\":4217:4246   */\n      tag_188\n      jump\t// in\n    tag_187:\n        /* \"#utility.yul\":4212:4215   */\n      dup5\n        /* \"#utility.yul\":4208:4247   */\n      add\n        /* \"#utility.yul\":4201:4247   */\n      swap2\n      pop\n        /* \"#utility.yul\":3991:4253   */\n      pop\n        /* \"#utility.yul\":3909:4253   */\n      swap3\n      swap2\n      pop\n      pop\n      jump\t// out\n        /* \"#utility.yul\":4259:4623   */\n    tag_189:\n        /* \"#utility.yul\":4347:4350   */\n      0x00\n        /* \"#utility.yul\":4375:4414   */\n      tag_191\n        /* \"#utility.yul\":4408:4413   */\n      dup3\n        /* \"#utility.yul\":4375:4414   */\n      tag_182\n      jump\t// in\n    tag_191:\n        /* \"#utility.yul\":4430:4501   */\n      tag_192\n        /* \"#utility.yul\":4494:4500   */\n      dup2\n        /* \"#utility.yul\":4489:4492   */\n      dup6\n        /* \"#utility.yul\":4430:4501   */\n      tag_193\n      jump\t// in\n    tag_192:\n        /* \"#utility.yul\":4423:4501   */\n      swap4\n      pop\n        /* \"#utility.yul\":4510:4562   */\n      tag_194\n        /* \"#utility.yul\":4555:4561   */\n      dup2\n        /* \"#utility.yul\":4550:4553   */\n      dup6\n        /* \"#utility.yul\":4543:4547   */\n      0x20\n        /* \"#utility.yul\":4536:4541   */\n      dup7\n        /* \"#utility.yul\":4532:4548   */\n      add\n        /* \"#utility.yul\":4510:4562   */\n      tag_186\n      jump\t// in\n    tag_194:\n        /* \"#utility.yul\":4587:4616   */\n      tag_195\n        /* \"#utility.yul\":4609:4615   */\n      dup2\n        /* \"#utility.yul\":4587:4616   */\n      tag_188\n      jump\t// in\n    tag_195:\n        /* \"#utility.yul\":4582:4585   */\n      dup5\n        /* \"#utility.yul\":4578:4617   */\n      add\n        /* \"#utility.yul\":4571:4617   */\n      swap2\n      pop\n        /* \"#utility.yul\":4351:4623   */\n      pop\n        /* \"#utility.yul\":4259:4623   */\n      swap3\n      swap2\n      pop\n      pop\n      jump\t// out\n        /* \"#utility.yul\":4629:4995   */\n    tag_196:\n        /* \"#utility.yul\":4771:4774   */\n      0x00\n        /* \"#utility.yul\":4792:4859   */\n      tag_198\n        /* \"#utility.yul\":4856:4858   */\n      0x0d\n        /* \"#utility.yul\":4851:4854   */\n      dup4\n        /* \"#utility.yul\":4792:4859   */\n      tag_193\n      jump\t// in\n    tag_198:\n        /* \"#utility.yul\":4785:4859   */\n      swap2\n      pop\n        /* \"#utility.yul\":4868:4961   */\n      tag_199\n        /* \"#utility.yul\":4957:4960   */\n      dup3\n        /* \"#utility.yul\":4868:4961   */\n      tag_200\n      jump\t// in\n    tag_199:\n        /* \"#utility.yul\":4986:4988   */\n      0x20\n        /* \"#utility.yul\":4981:4984   */\n      dup3\n        /* \"#utility.yul\":4977:4989   */\n      add\n        /* \"#utility.yul\":4970:4989   */\n      swap1\n      pop\n        /* \"#utility.yul\":4629:4995   */\n      swap2\n      swap1\n      pop\n      jump\t// out\n        /* \"#utility.yul\":5001:5367   */\n    tag_201:\n        /* \"#utility.yul\":5143:5146   */\n      0x00\n        /* \"#utility.yul\":5164:5231   */\n      tag_203\n        /* \"#utility.yul\":5228:5230   */\n      0x0d\n        /* \"#utility.yul\":5223:5226   */\n      dup4\n        /* \"#utility.yul\":5164:5231   */\n      tag_193\n      jump\t// in\n    tag_203:\n        /* \"#utility.yul\":5157:5231   */\n      swap2\n      pop\n        /* \"#utility.yul\":5240:5333   */\n      tag_204\n        /* \"#utility.yul\":5329:5332   */\n      dup3\n        /* \"#utility.yul\":5240:5333   */\n      tag_205\n      jump\t// in\n    tag_204:\n        /* \"#utility.yul\":5358:5360   */\n      0x20\n        /* \"#utility.yul\":5353:5356   */\n      dup3\n        /* \"#utility.yul\":5349:5361   */\n      add\n        /* \"#utility.yul\":5342:5361   */\n      swap1\n      pop\n        /* \"#utility.yul\":5001:5367   */\n      swap2\n      swap1\n      pop\n      jump\t// out\n        /* \"#utility.yul\":5373:5739   */\n    tag_206:\n        /* \"#utility.yul\":5515:5518   */\n      0x00\n        /* \"#utility.yul\":5536:5603   */\n      tag_208\n        /* \"#utility.yul\":5600:5602   */\n      0x0c\n        /* \"#utility.yul\":5595:5598   */\n      dup4\n        /* \"#utility.yul\":5536:5603   */\n      tag_193\n      jump\t// in\n    tag_208:\n        /* \"#utility.yul\":5529:5603   */\n      swap2\n      pop\n        /* \"#utility.yul\":5612:5705   */\n      tag_209\n        /* \"#utility.yul\":5701:5704   */\n      dup3\n        /* \"#utility.yul\":5612:5705   */\n      tag_210\n      jump\t// in\n    tag_209:\n        /* \"#utility.yul\":5730:5732   */\n      0x20\n        /* \"#utility.yul\":5725:5728   */\n      dup3\n        /* \"#utility.yul\":5721:5733   */\n      add\n        /* \"#utility.yul\":5714:5733   */\n      swap1\n      pop\n        /* \"#utility.yul\":5373:5739   */\n      swap2\n      swap1\n      pop\n      jump\t// out\n        /* \"#utility.yul\":5803:6990   */\n    tag_156:\n        /* \"#utility.yul\":5904:5907   */\n      0x00\n        /* \"#utility.yul\":5940:5944   */\n      0xa0\n        /* \"#utility.yul\":5935:5938   */\n      dup4\n        /* \"#utility.yul\":5931:5945   */\n      add\n        /* \"#utility.yul\":6028:6032   */\n      0x00\n        /* \"#utility.yul\":6021:6026   */\n      dup4\n        /* \"#utility.yul\":6017:6033   */\n      add\n        /* \"#utility.yul\":6011:6034   */\n      mload\n        /* \"#utility.yul\":6047:6110   */\n      tag_212\n        /* \"#utility.yul\":6104:6108   */\n      0x00\n        /* \"#utility.yul\":6099:6102   */\n      dup7\n        /* \"#utility.yul\":6095:6109   */\n      add\n        /* \"#utility.yul\":6081:6093   */\n      dup3\n        /* \"#utility.yul\":6047:6110   */\n      tag_213\n      jump\t// in\n    tag_212:\n        /* \"#utility.yul\":5955:6120   */\n      pop\n        /* \"#utility.yul\":6201:6205   */\n      0x20\n        /* \"#utility.yul\":6194:6199   */\n      dup4\n        /* \"#utility.yul\":6190:6206   */\n      add\n        /* \"#utility.yul\":6184:6207   */\n      mload\n        /* \"#utility.yul\":6254:6257   */\n      dup5\n        /* \"#utility.yul\":6248:6252   */\n      dup3\n        /* \"#utility.yul\":6244:6258   */\n      sub\n        /* \"#utility.yul\":6237:6241   */\n      0x20\n        /* \"#utility.yul\":6232:6235   */\n      dup7\n        /* \"#utility.yul\":6228:6242   */\n      add\n        /* \"#utility.yul\":6221:6259   */\n      mstore\n        /* \"#utility.yul\":6280:6353   */\n      tag_214\n        /* \"#utility.yul\":6348:6352   */\n      dup3\n        /* \"#utility.yul\":6334:6346   */\n      dup3\n        /* \"#utility.yul\":6280:6353   */\n      tag_179\n      jump\t// in\n    tag_214:\n        /* \"#utility.yul\":6272:6353   */\n      swap2\n      pop\n        /* \"#utility.yul\":6130:6364   */\n      pop\n        /* \"#utility.yul\":6447:6451   */\n      0x40\n        /* \"#utility.yul\":6440:6445   */\n      dup4\n        /* \"#utility.yul\":6436:6452   */\n      add\n        /* \"#utility.yul\":6430:6453   */\n      mload\n        /* \"#utility.yul\":6500:6503   */\n      dup5\n        /* \"#utility.yul\":6494:6498   */\n      dup3\n        /* \"#utility.yul\":6490:6504   */\n      sub\n        /* \"#utility.yul\":6483:6487   */\n      0x40\n        /* \"#utility.yul\":6478:6481   */\n      dup7\n        /* \"#utility.yul\":6474:6488   */\n      add\n        /* \"#utility.yul\":6467:6505   */\n      mstore\n        /* \"#utility.yul\":6526:6599   */\n      tag_215\n        /* \"#utility.yul\":6594:6598   */\n      dup3\n        /* \"#utility.yul\":6580:6592   */\n      dup3\n        /* \"#utility.yul\":6526:6599   */\n      tag_179\n      jump\t// in\n    tag_215:\n        /* \"#utility.yul\":6518:6599   */\n      swap2\n      pop\n        /* \"#utility.yul\":6374:6610   */\n      pop\n        /* \"#utility.yul\":6693:6697   */\n      0x60\n        /* \"#utility.yul\":6686:6691   */\n      dup4\n        /* \"#utility.yul\":6682:6698   */\n      add\n        /* \"#utility.yul\":6676:6699   */\n      mload\n        /* \"#utility.yul\":6712:6775   */\n      tag_216\n        /* \"#utility.yul\":6769:6773   */\n      0x60\n        /* \"#utility.yul\":6764:6767   */\n      dup7\n        /* \"#utility.yul\":6760:6774   */\n      add\n        /* \"#utility.yul\":6746:6758   */\n      dup3\n        /* \"#utility.yul\":6712:6775   */\n      tag_213\n      jump\t// in\n    tag_216:\n        /* \"#utility.yul\":6620:6785   */\n      pop\n        /* \"#utility.yul\":6871:6875   */\n      0x80\n        /* \"#utility.yul\":6864:6869   */\n      dup4\n        /* \"#utility.yul\":6860:6876   */\n      add\n        /* \"#utility.yul\":6854:6877   */\n      mload\n        /* \"#utility.yul\":6890:6953   */\n      tag_217\n        /* \"#utility.yul\":6947:6951   */\n      0x80\n        /* \"#utility.yul\":6942:6945   */\n      dup7\n        /* \"#utility.yul\":6938:6952   */\n      add\n        /* \"#utility.yul\":6924:6936   */\n      dup3\n        /* \"#utility.yul\":6890:6953   */\n      tag_213\n      jump\t// in\n    tag_217:\n        /* \"#utility.yul\":6795:6963   */\n      pop\n        /* \"#utility.yul\":6980:6984   */\n      dup1\n        /* \"#utility.yul\":6973:6984   */\n      swap2\n      pop\n        /* \"#utility.yul\":5909:6990   */\n      pop\n        /* \"#utility.yul\":5803:6990   */\n      swap3\n      swap2\n      pop\n      pop\n      jump\t// out\n        /* \"#utility.yul\":6996:7104   */\n    tag_213:\n        /* \"#utility.yul\":7073:7097   */\n      tag_219\n        /* \"#utility.yul\":7091:7096   */\n      dup2\n        /* \"#utility.yul\":7073:7097   */\n      tag_220\n      jump\t// in\n    tag_219:\n        /* \"#utility.yul\":7068:7071   */\n      dup3\n        /* \"#utility.yul\":7061:7098   */\n      mstore\n        /* \"#utility.yul\":6996:7104   */\n      pop\n      pop\n      jump\t// out\n        /* \"#utility.yul\":7110:7228   */\n    tag_221:\n        /* \"#utility.yul\":7197:7221   */\n      tag_223\n        /* \"#utility.yul\":7215:7220   */\n      dup2\n        /* \"#utility.yul\":7197:7221   */\n      tag_220\n      jump\t// in\n    tag_223:\n        /* \"#utility.yul\":7192:7195   */\n      dup3\n        /* \"#utility.yul\":7185:7222   */\n      mstore\n        /* \"#utility.yul\":7110:7228   */\n      pop\n      pop\n      jump\t// out\n        /* \"#utility.yul\":7234:7456   */\n    tag_12:\n        /* \"#utility.yul\":7327:7331   */\n      0x00\n        /* \"#utility.yul\":7365:7367   */\n      0x20\n        /* \"#utility.yul\":7354:7363   */\n      dup3\n        /* \"#utility.yul\":7350:7368   */\n      add\n        /* \"#utility.yul\":7342:7368   */\n      swap1\n      pop\n        /* \"#utility.yul\":7378:7449   */\n      tag_225\n        /* \"#utility.yul\":7446:7447   */\n      0x00\n        /* \"#utility.yul\":7435:7444   */\n      dup4\n        /* \"#utility.yul\":7431:7448   */\n      add\n        /* \"#utility.yul\":7422:7428   */\n      dup5\n        /* \"#utility.yul\":7378:7449   */\n      tag_157\n      jump\t// in\n    tag_225:\n        /* \"#utility.yul\":7234:7456   */\n      swap3\n      swap2\n      pop\n      pop\n      jump\t// out\n        /* \"#utility.yul\":7462:7919   */\n    tag_38:\n        /* \"#utility.yul\":7647:7651   */\n      0x00\n        /* \"#utility.yul\":7685:7687   */\n      0x20\n        /* \"#utility.yul\":7674:7683   */\n      dup3\n        /* \"#utility.yul\":7670:7688   */\n      add\n        /* \"#utility.yul\":7662:7688   */\n      swap1\n      pop\n        /* \"#utility.yul\":7734:7743   */\n      dup2\n        /* \"#utility.yul\":7728:7732   */\n      dup2\n        /* \"#utility.yul\":7724:7744   */\n      sub\n        /* \"#utility.yul\":7720:7721   */\n      0x00\n        /* \"#utility.yul\":7709:7718   */\n      dup4\n        /* \"#utility.yul\":7705:7722   */\n      add\n        /* \"#utility.yul\":7698:7745   */\n      mstore\n        /* \"#utility.yul\":7762:7912   */\n      tag_227\n        /* \"#utility.yul\":7907:7911   */\n      dup2\n        /* \"#utility.yul\":7898:7904   */\n      dup5\n        /* \"#utility.yul\":7762:7912   */\n      tag_161\n      jump\t// in\n    tag_227:\n        /* \"#utility.yul\":7754:7912   */\n      swap1\n      pop\n        /* \"#utility.yul\":7462:7919   */\n      swap3\n      swap2\n      pop\n      pop\n      jump\t// out\n        /* \"#utility.yul\":7925:8593   */\n    tag_19:\n        /* \"#utility.yul\":8134:8138   */\n      0x00\n        /* \"#utility.yul\":8172:8175   */\n      0x80\n        /* \"#utility.yul\":8161:8170   */\n      dup3\n        /* \"#utility.yul\":8157:8176   */\n      add\n        /* \"#utility.yul\":8149:8176   */\n      swap1\n      pop\n        /* \"#utility.yul\":8222:8231   */\n      dup2\n        /* \"#utility.yul\":8216:8220   */\n      dup2\n        /* \"#utility.yul\":8212:8232   */\n      sub\n        /* \"#utility.yul\":8208:8209   */\n      0x00\n        /* \"#utility.yul\":8197:8206   */\n      dup4\n        /* \"#utility.yul\":8193:8210   */\n      add\n        /* \"#utility.yul\":8186:8233   */\n      mstore\n        /* \"#utility.yul\":8250:8328   */\n      tag_229\n        /* \"#utility.yul\":8323:8327   */\n      dup2\n        /* \"#utility.yul\":8314:8320   */\n      dup8\n        /* \"#utility.yul\":8250:8328   */\n      tag_189\n      jump\t// in\n    tag_229:\n        /* \"#utility.yul\":8242:8328   */\n      swap1\n      pop\n        /* \"#utility.yul\":8338:8410   */\n      tag_230\n        /* \"#utility.yul\":8406:8408   */\n      0x20\n        /* \"#utility.yul\":8395:8404   */\n      dup4\n        /* \"#utility.yul\":8391:8409   */\n      add\n        /* \"#utility.yul\":8382:8388   */\n      dup7\n        /* \"#utility.yul\":8338:8410   */\n      tag_157\n      jump\t// in\n    tag_230:\n        /* \"#utility.yul\":8420:8492   */\n      tag_231\n        /* \"#utility.yul\":8488:8490   */\n      0x40\n        /* \"#utility.yul\":8477:8486   */\n      dup4\n        /* \"#utility.yul\":8473:8491   */\n      add\n        /* \"#utility.yul\":8464:8470   */\n      dup6\n        /* \"#utility.yul\":8420:8492   */\n      tag_221\n      jump\t// in\n    tag_231:\n        /* \"#utility.yul\":8502:8586   */\n      tag_232\n        /* \"#utility.yul\":8582:8584   */\n      0x60\n        /* \"#utility.yul\":8571:8580   */\n      dup4\n        /* \"#utility.yul\":8567:8585   */\n      add\n        /* \"#utility.yul\":8558:8564   */\n      dup5\n        /* \"#utility.yul\":8502:8586   */\n      tag_175\n      jump\t// in\n    tag_232:\n        /* \"#utility.yul\":7925:8593   */\n      swap6\n      swap5\n      pop\n      pop\n      pop\n      pop\n      pop\n      jump\t// out\n        /* \"#utility.yul\":8599:9018   */\n    tag_65:\n        /* \"#utility.yul\":8765:8769   */\n      0x00\n        /* \"#utility.yul\":8803:8805   */\n      0x20\n        /* \"#utility.yul\":8792:8801   */\n      dup3\n        /* \"#utility.yul\":8788:8806   */\n      add\n        /* \"#utility.yul\":8780:8806   */\n      swap1\n      pop\n        /* \"#utility.yul\":8852:8861   */\n      dup2\n        /* \"#utility.yul\":8846:8850   */\n      dup2\n        /* \"#utility.yul\":8842:8862   */\n      sub\n        /* \"#utility.yul\":8838:8839   */\n      0x00\n        /* \"#utility.yul\":8827:8836   */\n      dup4\n        /* \"#utility.yul\":8823:8840   */\n      add\n        /* \"#utility.yul\":8816:8863   */\n      mstore\n        /* \"#utility.yul\":8880:9011   */\n      tag_234\n        /* \"#utility.yul\":9006:9010   */\n      dup2\n        /* \"#utility.yul\":8880:9011   */\n      tag_196\n      jump\t// in\n    tag_234:\n        /* \"#utility.yul\":8872:9011   */\n      swap1\n      pop\n        /* \"#utility.yul\":8599:9018   */\n      swap2\n      swap1\n      pop\n      jump\t// out\n        /* \"#utility.yul\":9024:9443   */\n    tag_50:\n        /* \"#utility.yul\":9190:9194   */\n      0x00\n        /* \"#utility.yul\":9228:9230   */\n      0x20\n        /* \"#utility.yul\":9217:9226   */\n      dup3\n        /* \"#utility.yul\":9213:9231   */\n      add\n        /* \"#utility.yul\":9205:9231   */\n      swap1\n      pop\n        /* \"#utility.yul\":9277:9286   */\n      dup2\n        /* \"#utility.yul\":9271:9275   */\n      dup2\n        /* \"#utility.yul\":9267:9287   */\n      sub\n        /* \"#utility.yul\":9263:9264   */\n      0x00\n        /* \"#utility.yul\":9252:9261   */\n      dup4\n        /* \"#utility.yul\":9248:9265   */\n      add\n        /* \"#utility.yul\":9241:9288   */\n      mstore\n        /* \"#utility.yul\":9305:9436   */\n      tag_236\n        /* \"#utility.yul\":9431:9435   */\n      dup2\n        /* \"#utility.yul\":9305:9436   */\n      tag_201\n      jump\t// in\n    tag_236:\n        /* \"#utility.yul\":9297:9436   */\n      swap1\n      pop\n        /* \"#utility.yul\":9024:9443   */\n      swap2\n      swap1\n      pop\n      jump\t// out\n        /* \"#utility.yul\":9449:9868   */\n    tag_68:\n        /* \"#utility.yul\":9615:9619   */\n      0x00\n        /* \"#utility.yul\":9653:9655   */\n      0x20\n        /* \"#utility.yul\":9642:9651   */\n      dup3\n        /* \"#utility.yul\":9638:9656   */\n      add\n        /* \"#utility.yul\":9630:9656   */\n      swap1\n      pop\n        /* \"#utility.yul\":9702:9711   */\n      dup2\n        /* \"#utility.yul\":9696:9700   */\n      dup2\n        /* \"#utility.yul\":9692:9712   */\n      sub\n        /* \"#utility.yul\":9688:9689   */\n      0x00\n        /* \"#utility.yul\":9677:9686   */\n      dup4\n        /* \"#utility.yul\":9673:9690   */\n      add\n        /* \"#utility.yul\":9666:9713   */\n      mstore\n        /* \"#utility.yul\":9730:9861   */\n      tag_238\n        /* \"#utility.yul\":9856:9860   */\n      dup2\n        /* \"#utility.yul\":9730:9861   */\n      tag_206\n      jump\t// in\n    tag_238:\n        /* \"#utility.yul\":9722:9861   */\n      swap1\n      pop\n        /* \"#utility.yul\":9449:9868   */\n      swap2\n      swap1\n      pop\n      jump\t// out\n        /* \"#utility.yul\":9874:10720   */\n    tag_33:\n        /* \"#utility.yul\":10119:10123   */\n      0x00\n        /* \"#utility.yul\":10157:10160   */\n      0xa0\n        /* \"#utility.yul\":10146:10155   */\n      dup3\n        /* \"#utility.yul\":10142:10161   */\n      add\n        /* \"#utility.yul\":10134:10161   */\n      swap1\n      pop\n        /* \"#utility.yul\":10171:10242   */\n      tag_240\n        /* \"#utility.yul\":10239:10240   */\n      0x00\n        /* \"#utility.yul\":10228:10237   */\n      dup4\n        /* \"#utility.yul\":10224:10241   */\n      add\n        /* \"#utility.yul\":10215:10221   */\n      dup9\n        /* \"#utility.yul\":10171:10242   */\n      tag_221\n      jump\t// in\n    tag_240:\n        /* \"#utility.yul\":10289:10298   */\n      dup2\n        /* \"#utility.yul\":10283:10287   */\n      dup2\n        /* \"#utility.yul\":10279:10299   */\n      sub\n        /* \"#utility.yul\":10274:10276   */\n      0x20\n        /* \"#utility.yul\":10263:10272   */\n      dup4\n        /* \"#utility.yul\":10259:10277   */\n      add\n        /* \"#utility.yul\":10252:10300   */\n      mstore\n        /* \"#utility.yul\":10317:10395   */\n      tag_241\n        /* \"#utility.yul\":10390:10394   */\n      dup2\n        /* \"#utility.yul\":10381:10387   */\n      dup8\n        /* \"#utility.yul\":10317:10395   */\n      tag_189\n      jump\t// in\n    tag_241:\n        /* \"#utility.yul\":10309:10395   */\n      swap1\n      pop\n        /* \"#utility.yul\":10442:10451   */\n      dup2\n        /* \"#utility.yul\":10436:10440   */\n      dup2\n        /* \"#utility.yul\":10432:10452   */\n      sub\n        /* \"#utility.yul\":10427:10429   */\n      0x40\n        /* \"#utility.yul\":10416:10425   */\n      dup4\n        /* \"#utility.yul\":10412:10430   */\n      add\n        /* \"#utility.yul\":10405:10453   */\n      mstore\n        /* \"#utility.yul\":10470:10548   */\n      tag_242\n        /* \"#utility.yul\":10543:10547   */\n      dup2\n        /* \"#utility.yul\":10534:10540   */\n      dup7\n        /* \"#utility.yul\":10470:10548   */\n      tag_189\n      jump\t// in\n    tag_242:\n        /* \"#utility.yul\":10462:10548   */\n      swap1\n      pop\n        /* \"#utility.yul\":10558:10630   */\n      tag_243\n        /* \"#utility.yul\":10626:10628   */\n      0x60\n        /* \"#utility.yul\":10615:10624   */\n      dup4\n        /* \"#utility.yul\":10611:10629   */\n      add\n        /* \"#utility.yul\":10602:10608   */\n      dup6\n        /* \"#utility.yul\":10558:10630   */\n      tag_221\n      jump\t// in\n    tag_243:\n        /* \"#utility.yul\":10640:10713   */\n      tag_244\n        /* \"#utility.yul\":10708:10711   */\n      0x80\n        /* \"#utility.yul\":10697:10706   */\n      dup4\n        /* \"#utility.yul\":10693:10712   */\n      add\n        /* \"#utility.yul\":10684:10690   */\n      dup5\n        /* \"#utility.yul\":10640:10713   */\n      tag_221\n      jump\t// in\n    tag_244:\n        /* \"#utility.yul\":9874:10720   */\n      swap7\n      swap6\n      pop\n      pop\n      pop\n      pop\n      pop\n      pop\n      jump\t// out\n        /* \"#utility.yul\":10807:10960   */\n    tag_168:\n        /* \"#utility.yul\":10895:10899   */\n      0x00\n        /* \"#utility.yul\":10918:10921   */\n      dup2\n        /* \"#utility.yul\":10910:10921   */\n      swap1\n      pop\n        /* \"#utility.yul\":10948:10952   */\n      0x20\n        /* \"#utility.yul\":10943:10946   */\n      dup3\n        /* \"#utility.yul\":10939:10953   */\n      add\n        /* \"#utility.yul\":10931:10953   */\n      swap1\n      pop\n        /* \"#utility.yul\":10807:10960   */\n      swap2\n      swap1\n      pop\n      jump\t// out\n        /* \"#utility.yul\":10966:11101   */\n    tag_164:\n        /* \"#utility.yul\":11054:11060   */\n      0x00\n        /* \"#utility.yul\":11088:11093   */\n      dup2\n        /* \"#utility.yul\":11082:11094   */\n      mload\n        /* \"#utility.yul\":11072:11094   */\n      swap1\n      pop\n        /* \"#utility.yul\":10966:11101   */\n      swap2\n      swap1\n      pop\n      jump\t// out\n        /* \"#utility.yul\":11107:11206   */\n    tag_182:\n        /* \"#utility.yul\":11159:11165   */\n      0x00\n        /* \"#utility.yul\":11193:11198   */\n      dup2\n        /* \"#utility.yul\":11187:11199   */\n      mload\n        /* \"#utility.yul\":11177:11199   */\n      swap1\n      pop\n        /* \"#utility.yul\":11107:11206   */\n      swap2\n      swap1\n      pop\n      jump\t// out\n        /* \"#utility.yul\":11212:11346   */\n    tag_174:\n        /* \"#utility.yul\":11303:11307   */\n      0x00\n        /* \"#utility.yul\":11335:11339   */\n      0x20\n        /* \"#utility.yul\":11330:11333   */\n      dup3\n        /* \"#utility.yul\":11326:11340   */\n      add\n        /* \"#utility.yul\":11318:11340   */\n      swap1\n      pop\n        /* \"#utility.yul\":11212:11346   */\n      swap2\n      swap1\n      pop\n      jump\t// out\n        /* \"#utility.yul\":11352:11557   */\n    tag_166:\n        /* \"#utility.yul\":11472:11483   */\n      0x00\n        /* \"#utility.yul\":11506:11512   */\n      dup3\n        /* \"#utility.yul\":11501:11504   */\n      dup3\n        /* \"#utility.yul\":11494:11513   */\n      mstore\n        /* \"#utility.yul\":11546:11550   */\n      0x20\n        /* \"#utility.yul\":11541:11544   */\n      dup3\n        /* \"#utility.yul\":11537:11551   */\n      add\n        /* \"#utility.yul\":11522:11551   */\n      swap1\n      pop\n        /* \"#utility.yul\":11352:11557   */\n      swap3\n      swap2\n      pop\n      pop\n      jump\t// out\n        /* \"#utility.yul\":11563:11722   */\n    tag_184:\n        /* \"#utility.yul\":11637:11648   */\n      0x00\n        /* \"#utility.yul\":11671:11677   */\n      dup3\n        /* \"#utility.yul\":11666:11669   */\n      dup3\n        /* \"#utility.yul\":11659:11678   */\n      mstore\n        /* \"#utility.yul\":11711:11715   */\n      0x20\n        /* \"#utility.yul\":11706:11709   */\n      dup3\n        /* \"#utility.yul\":11702:11716   */\n      add\n        /* \"#utility.yul\":11687:11716   */\n      swap1\n      pop\n        /* \"#utility.yul\":11563:11722   */\n      swap3\n      swap2\n      pop\n      pop\n      jump\t// out\n        /* \"#utility.yul\":11728:11897   */\n    tag_193:\n        /* \"#utility.yul\":11812:11823   */\n      0x00\n        /* \"#utility.yul\":11846:11852   */\n      dup3\n        /* \"#utility.yul\":11841:11844   */\n      dup3\n        /* \"#utility.yul\":11834:11853   */\n      mstore\n        /* \"#utility.yul\":11886:11890   */\n      0x20\n        /* \"#utility.yul\":11881:11884   */\n      dup3\n        /* \"#utility.yul\":11877:11891   */\n      add\n        /* \"#utility.yul\":11862:11891   */\n      swap1\n      pop\n        /* \"#utility.yul\":11728:11897   */\n      swap3\n      swap2\n      pop\n      pop\n      jump\t// out\n        /* \"#utility.yul\":11903:11999   */\n    tag_160:\n        /* \"#utility.yul\":11940:11947   */\n      0x00\n        /* \"#utility.yul\":11969:11993   */\n      tag_255\n        /* \"#utility.yul\":11987:11992   */\n      dup3\n        /* \"#utility.yul\":11969:11993   */\n      tag_256\n      jump\t// in\n    tag_255:\n        /* \"#utility.yul\":11958:11993   */\n      swap1\n      pop\n        /* \"#utility.yul\":11903:11999   */\n      swap2\n      swap1\n      pop\n      jump\t// out\n        /* \"#utility.yul\":12005:12144   */\n    tag_257:\n        /* \"#utility.yul\":12056:12063   */\n      0x00\n        /* \"#utility.yul\":12085:12090   */\n      dup2\n        /* \"#utility.yul\":12074:12090   */\n      swap1\n      pop\n        /* \"#utility.yul\":12091:12138   */\n      tag_259\n        /* \"#utility.yul\":12132:12137   */\n      dup3\n        /* \"#utility.yul\":12091:12138   */\n      tag_260\n      jump\t// in\n    tag_259:\n        /* \"#utility.yul\":12005:12144   */\n      swap2\n      swap1\n      pop\n      jump\t// out\n        /* \"#utility.yul\":12150:12276   */\n    tag_256:\n        /* \"#utility.yul\":12187:12194   */\n      0x00\n        /* \"#utility.yul\":12227:12269   */\n      0xffffffffffffffffffffffffffffffffffffffff\n        /* \"#utility.yul\":12220:12225   */\n      dup3\n        /* \"#utility.yul\":12216:12270   */\n      and\n        /* \"#utility.yul\":12205:12270   */\n      swap1\n      pop\n        /* \"#utility.yul\":12150:12276   */\n      swap2\n      swap1\n      pop\n      jump\t// out\n        /* \"#utility.yul\":12282:12359   */\n    tag_220:\n        /* \"#utility.yul\":12319:12326   */\n      0x00\n        /* \"#utility.yul\":12348:12353   */\n      dup2\n        /* \"#utility.yul\":12337:12353   */\n      swap1\n      pop\n        /* \"#utility.yul\":12282:12359   */\n      swap2\n      swap1\n      pop\n      jump\t// out\n        /* \"#utility.yul\":12365:12504   */\n    tag_178:\n        /* \"#utility.yul\":12427:12436   */\n      0x00\n        /* \"#utility.yul\":12460:12498   */\n      tag_264\n        /* \"#utility.yul\":12492:12497   */\n      dup3\n        /* \"#utility.yul\":12460:12498   */\n      tag_257\n      jump\t// in\n    tag_264:\n        /* \"#utility.yul\":12447:12498   */\n      swap1\n      pop\n        /* \"#utility.yul\":12365:12504   */\n      swap2\n      swap1\n      pop\n      jump\t// out\n        /* \"#utility.yul\":12510:12817   */\n    tag_186:\n        /* \"#utility.yul\":12578:12579   */\n      0x00\n        /* \"#utility.yul\":12588:12701   */\n    tag_266:\n        /* \"#utility.yul\":12602:12608   */\n      dup4\n        /* \"#utility.yul\":12599:12600   */\n      dup2\n        /* \"#utility.yul\":12596:12609   */\n      lt\n        /* \"#utility.yul\":12588:12701   */\n      iszero\n      tag_268\n      jumpi\n        /* \"#utility.yul\":12687:12688   */\n      dup1\n        /* \"#utility.yul\":12682:12685   */\n      dup3\n        /* \"#utility.yul\":12678:12689   */\n      add\n        /* \"#utility.yul\":12672:12690   */\n      mload\n        /* \"#utility.yul\":12668:12669   */\n      dup2\n        /* \"#utility.yul\":12663:12666   */\n      dup5\n        /* \"#utility.yul\":12659:12670   */\n      add\n        /* \"#utility.yul\":12652:12691   */\n      mstore\n        /* \"#utility.yul\":12624:12626   */\n      0x20\n        /* \"#utility.yul\":12621:12622   */\n      dup2\n        /* \"#utility.yul\":12617:12627   */\n      add\n        /* \"#utility.yul\":12612:12627   */\n      swap1\n      pop\n        /* \"#utility.yul\":12588:12701   */\n      jump(tag_266)\n    tag_268:\n        /* \"#utility.yul\":12719:12725   */\n      dup4\n        /* \"#utility.yul\":12716:12717   */\n      dup2\n        /* \"#utility.yul\":12713:12726   */\n      gt\n        /* \"#utility.yul\":12710:12811   */\n      iszero\n      tag_269\n      jumpi\n        /* \"#utility.yul\":12799:12800   */\n      0x00\n        /* \"#utility.yul\":12790:12796   */\n      dup5\n        /* \"#utility.yul\":12785:12788   */\n      dup5\n        /* \"#utility.yul\":12781:12797   */\n      add\n        /* \"#utility.yul\":12774:12801   */\n      mstore\n        /* \"#utility.yul\":12710:12811   */\n    tag_269:\n        /* \"#utility.yul\":12559:12817   */\n      pop\n        /* \"#utility.yul\":12510:12817   */\n      pop\n      pop\n      pop\n      jump\t// out\n        /* \"#utility.yul\":12823:12994   */\n    tag_70:\n        /* \"#utility.yul\":12862:12865   */\n      0x00\n        /* \"#utility.yul\":12885:12909   */\n      tag_271\n        /* \"#utility.yul\":12903:12908   */\n      dup3\n        /* \"#utility.yul\":12885:12909   */\n      tag_220\n      jump\t// in\n    tag_271:\n        /* \"#utility.yul\":12876:12909   */\n      swap2\n      pop\n        /* \"#utility.yul\":12931:12935   */\n      0x00\n        /* \"#utility.yul\":12924:12929   */\n      dup3\n        /* \"#utility.yul\":12921:12936   */\n      eq\n        /* \"#utility.yul\":12918:12959   */\n      iszero\n      tag_272\n      jumpi\n        /* \"#utility.yul\":12939:12957   */\n      tag_273\n      tag_274\n      jump\t// in\n    tag_273:\n        /* \"#utility.yul\":12918:12959   */\n    tag_272:\n        /* \"#utility.yul\":12986:12987   */\n      0x01\n        /* \"#utility.yul\":12979:12984   */\n      dup3\n        /* \"#utility.yul\":12975:12988   */\n      sub\n        /* \"#utility.yul\":12968:12988   */\n      swap1\n      pop\n        /* \"#utility.yul\":12823:12994   */\n      swap2\n      swap1\n      pop\n      jump\t// out\n        /* \"#utility.yul\":13000:13320   */\n    tag_42:\n        /* \"#utility.yul\":13044:13050   */\n      0x00\n        /* \"#utility.yul\":13081:13082   */\n      0x02\n        /* \"#utility.yul\":13075:13079   */\n      dup3\n        /* \"#utility.yul\":13071:13083   */\n      div\n        /* \"#utility.yul\":13061:13083   */\n      swap1\n      pop\n        /* \"#utility.yul\":13128:13129   */\n      0x01\n        /* \"#utility.yul\":13122:13126   */\n      dup3\n        /* \"#utility.yul\":13118:13130   */\n      and\n        /* \"#utility.yul\":13149:13167   */\n      dup1\n        /* \"#utility.yul\":13139:13220   */\n      tag_276\n      jumpi\n        /* \"#utility.yul\":13205:13209   */\n      0x7f\n        /* \"#utility.yul\":13197:13203   */\n      dup3\n        /* \"#utility.yul\":13193:13210   */\n      and\n        /* \"#utility.yul\":13183:13210   */\n      swap2\n      pop\n        /* \"#utility.yul\":13139:13220   */\n    tag_276:\n        /* \"#utility.yul\":13267:13269   */\n      0x20\n        /* \"#utility.yul\":13259:13265   */\n      dup3\n        /* \"#utility.yul\":13256:13270   */\n      lt\n        /* \"#utility.yul\":13236:13254   */\n      dup2\n        /* \"#utility.yul\":13233:13271   */\n      eq\n        /* \"#utility.yul\":13230:13314   */\n      iszero\n      tag_277\n      jumpi\n        /* \"#utility.yul\":13286:13304   */\n      tag_278\n      tag_279\n      jump\t// in\n    tag_278:\n        /* \"#utility.yul\":13230:13314   */\n    tag_277:\n        /* \"#utility.yul\":13051:13320   */\n      pop\n        /* \"#utility.yul\":13000:13320   */\n      swap2\n      swap1\n      pop\n      jump\t// out\n        /* \"#utility.yul\":13326:13559   */\n    tag_57:\n        /* \"#utility.yul\":13365:13368   */\n      0x00\n        /* \"#utility.yul\":13388:13412   */\n      tag_281\n        /* \"#utility.yul\":13406:13411   */\n      dup3\n        /* \"#utility.yul\":13388:13412   */\n      tag_220\n      jump\t// in\n    tag_281:\n        /* \"#utility.yul\":13379:13412   */\n      swap2\n      pop\n        /* \"#utility.yul\":13434:13500   */\n      0xffffffffffffffffffffffffffffffffffffffffffffffffffffffffffffffff\n        /* \"#utility.yul\":13427:13432   */\n      dup3\n        /* \"#utility.yul\":13424:13501   */\n      eq\n        /* \"#utility.yul\":13421:13524   */\n      iszero\n      tag_282\n      jumpi\n        /* \"#utility.yul\":13504:13522   */\n      tag_283\n      tag_274\n      jump\t// in\n    tag_283:\n        /* \"#utility.yul\":13421:13524   */\n    tag_282:\n        /* \"#utility.yul\":13551:13552   */\n      0x01\n        /* \"#utility.yul\":13544:13549   */\n      dup3\n        /* \"#utility.yul\":13540:13553   */\n      add\n        /* \"#utility.yul\":13533:13553   */\n      swap1\n      pop\n        /* \"#utility.yul\":13326:13559   */\n      swap2\n      swap1\n      pop\n      jump\t// out\n        /* \"#utility.yul\":13565:13745   */\n    tag_274:\n        /* \"#utility.yul\":13613:13690   */\n      0x4e487b7100000000000000000000000000000000000000000000000000000000\n        /* \"#utility.yul\":13610:13611   */\n      0x00\n        /* \"#utility.yul\":13603:13691   */\n      mstore\n        /* \"#utility.yul\":13710:13714   */\n      0x11\n        /* \"#utility.yul\":13707:13708   */\n      0x04\n        /* \"#utility.yul\":13700:13715   */\n      mstore\n        /* \"#utility.yul\":13734:13738   */\n      0x24\n        /* \"#utility.yul\":13731:13732   */\n      0x00\n        /* \"#utility.yul\":13724:13739   */\n      revert\n        /* \"#utility.yul\":13751:13931   */\n    tag_285:\n        /* \"#utility.yul\":13799:13876   */\n      0x4e487b7100000000000000000000000000000000000000000000000000000000\n        /* \"#utility.yul\":13796:13797   */\n      0x00\n        /* \"#utility.yul\":13789:13877   */\n      mstore\n        /* \"#utility.yul\":13896:13900   */\n      0x21\n        /* \"#utility.yul\":13893:13894   */\n      0x04\n        /* \"#utility.yul\":13886:13901   */\n      mstore\n        /* \"#utility.yul\":13920:13924   */\n      0x24\n        /* \"#utility.yul\":13917:13918   */\n      0x00\n        /* \"#utility.yul\":13910:13925   */\n      revert\n        /* \"#utility.yul\":13937:14117   */\n    tag_279:\n        /* \"#utility.yul\":13985:14062   */\n      0x4e487b7100000000000000000000000000000000000000000000000000000000\n        /* \"#utility.yul\":13982:13983   */\n      0x00\n        /* \"#utility.yul\":13975:14063   */\n      mstore\n        /* \"#utility.yul\":14082:14086   */\n      0x22\n        /* \"#utility.yul\":14079:14080   */\n      0x04\n        /* \"#utility.yul\":14072:14087   */\n      mstore\n        /* \"#utility.yul\":14106:14110   */\n      0x24\n        /* \"#utility.yul\":14103:14104   */\n      0x00\n        /* \"#utility.yul\":14096:14111   */\n      revert\n        /* \"#utility.yul\":14123:14303   */\n    tag_61:\n        /* \"#utility.yul\":14171:14248   */\n      0x4e487b7100000000000000000000000000000000000000000000000000000000\n        /* \"#utility.yul\":14168:14169   */\n      0x00\n        /* \"#utility.yul\":14161:14249   */\n      mstore\n        /* \"#utility.yul\":14268:14272   */\n      0x32\n        /* \"#utility.yul\":14265:14266   */\n      0x04\n        /* \"#utility.yul\":14258:14273   */\n      mstore\n        /* \"#utility.yul\":14292:14296   */\n      0x24\n        /* \"#utility.yul\":14289:14290   */\n      0x00\n        /* \"#utility.yul\":14282:14297   */\n      revert\n        /* \"#utility.yul\":14309:14489   */\n    tag_86:\n        /* \"#utility.yul\":14357:14434   */\n      0x4e487b7100000000000000000000000000000000000000000000000000000000\n        /* \"#utility.yul\":14354:14355   */\n      0x00\n        /* \"#utility.yul\":14347:14435   */\n      mstore\n        /* \"#utility.yul\":14454:14458   */\n      0x41\n        /* \"#utility.yul\":14451:14452   */\n      0x04\n        /* \"#utility.yul\":14444:14459   */\n      mstore\n        /* \"#utility.yul\":14478:14482   */\n      0x24\n        /* \"#utility.yul\":14475:14476   */\n      0x00\n        /* \"#utility.yul\":14468:14483   */\n      revert\n        /* \"#utility.yul\":14495:14612   */\n    tag_128:\n        /* \"#utility.yul\":14604:14605   */\n      0x00\n        /* \"#utility.yul\":14601:14602   */\n      dup1\n        /* \"#utility.yul\":14594:14606   */\n      revert\n        /* \"#utility.yul\":14618:14735   */\n    tag_125:\n        /* \"#utility.yul\":14727:14728   */\n      0x00\n        /* \"#utility.yul\":14724:14725   */\n      dup1\n        /* \"#utility.yul\":14717:14729   */\n      revert\n        /* \"#utility.yul\":14741:14858   */\n    tag_131:\n        /* \"#utility.yul\":14850:14851   */\n      0x00\n        /* \"#utility.yul\":14847:14848   */\n      dup1\n        /* \"#utility.yul\":14840:14852   */\n      revert\n        /* \"#utility.yul\":14864:14981   */\n    tag_142:\n        /* \"#utility.yul\":14973:14974   */\n      0x00\n        /* \"#utility.yul\":14970:14971   */\n      dup1\n        /* \"#utility.yul\":14963:14975   */\n      revert\n        /* \"#utility.yul\":14987:15104   */\n    tag_139:\n        /* \"#utility.yul\":15096:15097   */\n      0x00\n        /* \"#utility.yul\":15093:15094   */\n      dup1\n        /* \"#utility.yul\":15086:15098   */\n      revert\n        /* \"#utility.yul\":15110:15212   */\n    tag_188:\n        /* \"#utility.yul\":15151:15157   */\n      0x00\n        /* \"#utility.yul\":15202:15204   */\n      0x1f\n        /* \"#utility.yul\":15198:15205   */\n      not\n        /* \"#utility.yul\":15193:15195   */\n      0x1f\n        /* \"#utility.yul\":15186:15191   */\n      dup4\n        /* \"#utility.yul\":15182:15196   */\n      add\n        /* \"#utility.yul\":15178:15206   */\n      and\n        /* \"#utility.yul\":15168:15206   */\n      swap1\n      pop\n        /* \"#utility.yul\":15110:15212   */\n      swap2\n      swap1\n      pop\n      jump\t// out\n        /* \"#utility.yul\":15218:15381   */\n    tag_200:\n        /* \"#utility.yul\":15358:15373   */\n      0x696e76616c696420707269636500000000000000000000000000000000000000\n        /* \"#utility.yul\":15354:15355   */\n      0x00\n        /* \"#utility.yul\":15346:15352   */\n      dup3\n        /* \"#utility.yul\":15342:15356   */\n      add\n        /* \"#utility.yul\":15335:15374   */\n      mstore\n        /* \"#utility.yul\":15218:15381   */\n      pop\n      jump\t// out\n        /* \"#utility.yul\":15387:15550   */\n    tag_205:\n        /* \"#utility.yul\":15527:15542   */\n      0x4e6f7420616e206f776e65722100000000000000000000000000000000000000\n        /* \"#utility.yul\":15523:15524   */\n      0x00\n        /* \"#utility.yul\":15515:15521   */\n      dup3\n        /* \"#utility.yul\":15511:15525   */\n      add\n        /* \"#utility.yul\":15504:15543   */\n      mstore\n        /* \"#utility.yul\":15387:15550   */\n      pop\n      jump\t// out\n        /* \"#utility.yul\":15556:15718   */\n    tag_210:\n        /* \"#utility.yul\":15696:15710   */\n      0x6f7574206f662073746f636b0000000000000000000000000000000000000000\n        /* \"#utility.yul\":15692:15693   */\n      0x00\n        /* \"#utility.yul\":15684:15690   */\n      dup3\n        /* \"#utility.yul\":15680:15694   */\n      add\n        /* \"#utility.yul\":15673:15711   */\n      mstore\n        /* \"#utility.yul\":15556:15718   */\n      pop\n      jump\t// out\n        /* \"#utility.yul\":15724:15843   */\n    tag_260:\n        /* \"#utility.yul\":15811:15812   */\n      0x02\n        /* \"#utility.yul\":15804:15809   */\n      dup2\n        /* \"#utility.yul\":15801:15813   */\n      lt\n        /* \"#utility.yul\":15791:15837   */\n      tag_300\n      jumpi\n        /* \"#utility.yul\":15817:15835   */\n      tag_301\n      tag_285\n      jump\t// in\n    tag_301:\n        /* \"#utility.yul\":15791:15837   */\n    tag_300:\n        /* \"#utility.yul\":15724:15843   */\n      pop\n      jump\t// out\n        /* \"#utility.yul\":15849:15971   */\n    tag_135:\n        /* \"#utility.yul\":15922:15946   */\n      tag_303\n        /* \"#utility.yul\":15940:15945   */\n      dup2\n        /* \"#utility.yul\":15922:15946   */\n      tag_220\n      jump\t// in\n    tag_303:\n        /* \"#utility.yul\":15915:15920   */\n      dup2\n        /* \"#utility.yul\":15912:15947   */\n      eq\n        /* \"#utility.yul\":15902:15965   */\n      tag_304\n      jumpi\n        /* \"#utility.yul\":15961:15962   */\n      0x00\n        /* \"#utility.yul\":15958:15959   */\n      dup1\n        /* \"#utility.yul\":15951:15963   */\n      revert\n        /* \"#utility.yul\":15902:15965   */\n    tag_304:\n        /* \"#utility.yul\":15849:15971   */\n      pop\n      jump\t// out\n\n    auxdata: 0xa2646970667358221220238aa6dc423339ca97813ed952aa12c2c7621966c6df2e786aadd51c4aa20df264736f6c63430008070033\n}\n",
				"bytecode": {
					"linkReferences": {},
					"object": "608060405234801561001057600080fd5b503373ffffffffffffffffffffffffffffffffffffffff16600260009054906101000a905050506111bb806100466000396000f3fe6080604052600436106100555760003560e01c80638da5cb5b1461005a578063a85c38ef14610085578063c557f979146100c5578063d96a094a146100ee578063ea5df0591461010a578063ec34297a1461014b575b600080fd5b34801561006657600080fd5b5061006f610176565b60405161007c9190610ce1565b60405180910390f35b34801561009157600080fd5b506100ac60048036038101906100a79190610a97565b61019c565b6040516100bc9493929190610d1e565b60405180910390f35b3480156100d157600080fd5b506100ec60048036038101906100e791906109f0565b610291565b005b61010860048036038101906101039190610a97565b610477565b005b34801561011657600080fd5b50610131600480360381019061012c9190610a97565b610547565b604051610142959493929190610dca565b60405180910390f35b34801561015757600080fd5b5061016061069d565b60405161016d9190610cfc565b60405180910390f35b600260009054906101000a900473ffffffffffffffffffffffffffffffffffffffff1681565b600181815481106101ac57600080fd5b90600052602060002090600402016000915090508060000180546101cf90610f4f565b80601f01602080910402602001604051908101604052809291908181526020018280546101fb90610f4f565b80156102485780601f1061021d57610100808354040283529160200191610248565b820191906000526020600020905b81548152906001019060200180831161022b57829003601f168201915b5050505050908060010160009054906101000a900473ffffffffffffffffffffffffffffffffffffffff16908060020154908060030160009054906101000a900460ff16905084565b3373ffffffffffffffffffffffffffffffffffffffff16600260009054906101000a900473ffffffffffffffffffffffffffffffffffffffff1673ffffffffffffffffffffffffffffffffffffffff1614610321576040517f08c379a000000000000000000000000000000000000000000000000000000000815260040161031890610d8a565b60405180910390fd5b60006040518060a00160405280600354815260200188888080601f016020809104026020016040519081016040528093929190818152602001838380828437600081840152601f19601f82011690508083019250505050505050815260200186868080601f016020809104026020016040519081016040528093929190818152602001838380828437600081840152601f19601f8201169050808301925050505050505081526020018481526020018381525090806001815401808255809150506001900390600052602060002090600502016000909190919091506000820151816000015560208201518160010190805190602001906104239291906108b3565b5060408201518160020190805190602001906104409291906108b3565b50606082015181600301556080820151816004015550506003600081548092919061046a90610f81565b9190505550505050505050565b600080828154811061048c5761048b611057565b5b90600052602060002090600502019050806003015434146104e2576040517f08c379a00000000000000000000000000000000000000000000000000000000081526004016104d990610d6a565b60405180910390fd5b6000816004015411610529576040517f08c379a000000000000000000000000000000000000000000000000000000000815260040161052090610daa565b60405180910390fd5b80600401600081548092919061053e90610f25565b91905055505050565b6000818154811061055757600080fd5b906000526020600020906005020160009150905080600001549080600101805461058090610f4f565b80601f01602080910402602001604051908101604052809291908181526020018280546105ac90610f4f565b80156105f95780601f106105ce576101008083540402835291602001916105f9565b820191906000526020600020905b8154815290600101906020018083116105dc57829003601f168201915b50505050509080600201805461060e90610f4f565b80601f016020809104026020016040519081016040528092919081815260200182805461063a90610f4f565b80156106875780601f1061065c57610100808354040283529160200191610687565b820191906000526020600020905b81548152906001019060200180831161066a57829003601f168201915b5050505050908060030154908060040154905085565b60606000808054905067ffffffffffffffff8111156106bf576106be611086565b5b6040519080825280602002602001820160405280156106f857816020015b6106e5610939565b8152602001906001900390816106dd5790505b50905060005b6000805490508110156108ab576000818154811061071f5761071e611057565b5b90600052602060002090600502016040518060a00160405290816000820154815260200160018201805461075290610f4f565b80601f016020809104026020016040519081016040528092919081815260200182805461077e90610f4f565b80156107cb5780601f106107a0576101008083540402835291602001916107cb565b820191906000526020600020905b8154815290600101906020018083116107ae57829003601f168201915b505050505081526020016002820180546107e490610f4f565b80601f016020809104026020016040519081016040528092919081815260200182805461081090610f4f565b801561085d5780601f106108325761010080835404028352916020019161085d565b820191906000526020600020905b81548152906001019060200180831161084057829003601f168201915b505050505081526020016003820154815260200160048201548152505082828151811061088d5761088c611057565b5b602002602001018190525080806108a390610f81565b9150506106fe565b508091505090565b8280546108bf90610f4f565b90600052602060002090601f0160209004810192826108e15760008555610928565b82601f106108fa57805160ff1916838001178555610928565b82800160010185558215610928579182015b8281111561092757825182559160200191906001019061090c565b5b5090506109359190610968565b5090565b6040518060a0016040528060008152602001606081526020016060815260200160008152602001600081525090565b5b80821115610981576000816000905550600101610969565b5090565b60008083601f84011261099b5761099a6110ba565b5b8235905067ffffffffffffffff8111156109b8576109b76110b5565b5b6020830191508360018202830111156109d4576109d36110bf565b5b9250929050565b6000813590506109ea8161116e565b92915050565b60008060008060008060808789031215610a0d57610a0c6110c9565b5b600087013567ffffffffffffffff811115610a2b57610a2a6110c4565b5b610a3789828a01610985565b9650965050602087013567ffffffffffffffff811115610a5a57610a596110c4565b5b610a6689828a01610985565b94509450506040610a7989828a016109db565b9250506060610a8a89828a016109db565b9150509295509295509295565b600060208284031215610aad57610aac6110c9565b5b6000610abb848285016109db565b91505092915050565b6000610ad08383610c46565b905092915050565b610ae181610e91565b82525050565b6000610af282610e3b565b610afc8185610e5e565b935083602082028501610b0e85610e2b565b8060005b85811015610b4a5784840389528151610b2b8582610ac4565b9450610b3683610e51565b925060208a01995050600181019050610b12565b50829750879550505050505092915050565b610b6581610ee0565b82525050565b6000610b7682610e46565b610b808185610e6f565b9350610b90818560208601610ef2565b610b99816110ce565b840191505092915050565b6000610baf82610e46565b610bb98185610e80565b9350610bc9818560208601610ef2565b610bd2816110ce565b840191505092915050565b6000610bea600d83610e80565b9150610bf5826110df565b602082019050919050565b6000610c0d600d83610e80565b9150610c1882611108565b602082019050919050565b6000610c30600c83610e80565b9150610c3b82611131565b602082019050919050565b600060a083016000830151610c5e6000860182610cc3565b5060208301518482036020860152610c768282610b6b565b91505060408301518482036040860152610c908282610b6b565b9150506060830151610ca56060860182610cc3565b506080830151610cb86080860182610cc3565b508091505092915050565b610ccc81610ed6565b82525050565b610cdb81610ed6565b82525050565b6000602082019050610cf66000830184610ad8565b92915050565b60006020820190508181036000830152610d168184610ae7565b905092915050565b60006080820190508181036000830152610d388187610ba4565b9050610d476020830186610ad8565b610d546040830185610cd2565b610d616060830184610b5c565b95945050505050565b60006020820190508181036000830152610d8381610bdd565b9050919050565b60006020820190508181036000830152610da381610c00565b9050919050565b60006020820190508181036000830152610dc381610c23565b9050919050565b600060a082019050610ddf6000830188610cd2565b8181036020830152610df18187610ba4565b90508181036040830152610e058186610ba4565b9050610e146060830185610cd2565b610e216080830184610cd2565b9695505050505050565b6000819050602082019050919050565b600081519050919050565b600081519050919050565b6000602082019050919050565b600082825260208201905092915050565b600082825260208201905092915050565b600082825260208201905092915050565b6000610e9c82610eb6565b9050919050565b6000819050610eb18261115a565b919050565b600073ffffffffffffffffffffffffffffffffffffffff82169050919050565b6000819050919050565b6000610eeb82610ea3565b9050919050565b60005b83811015610f10578082015181840152602081019050610ef5565b83811115610f1f576000848401525b50505050565b6000610f3082610ed6565b91506000821415610f4457610f43610fca565b5b600182039050919050565b60006002820490506001821680610f6757607f821691505b60208210811415610f7b57610f7a611028565b5b50919050565b6000610f8c82610ed6565b91507fffffffffffffffffffffffffffffffffffffffffffffffffffffffffffffffff821415610fbf57610fbe610fca565b5b600182019050919050565b7f4e487b7100000000000000000000000000000000000000000000000000000000600052601160045260246000fd5b7f4e487b7100000000000000000000000000000000000000000000000000000000600052602160045260246000fd5b7f4e487b7100000000000000000000000000000000000000000000000000000000600052602260045260246000fd5b7f4e487b7100000000000000000000000000000000000000000000000000000000600052603260045260246000fd5b7f4e487b7100000000000000000000000000000000000000000000000000000000600052604160045260246000fd5b600080fd5b600080fd5b600080fd5b600080fd5b600080fd5b6000601f19601f8301169050919050565b7f696e76616c696420707269636500000000000000000000000000000000000000600082015250565b7f4e6f7420616e206f776e65722100000000000000000000000000000000000000600082015250565b7f6f7574206f662073746f636b0000000000000000000000000000000000000000600082015250565b6002811061116b5761116a610ff9565b5b50565b61117781610ed6565b811461118257600080fd5b5056fea2646970667358221220238aa6dc423339ca97813ed952aa12c2c7621966c6df2e786aadd51c4aa20df264736f6c63430008070033",
					"opcodes": "PUSH1 0x80 PUSH1 0x40 MSTORE CALLVALUE DUP1 ISZERO PUSH2 0x10 JUMPI PUSH1 0x0 DUP1 REVERT JUMPDEST POP CALLER PUSH20 0xFFFFFFFFFFFFFFFFFFFFFFFFFFFFFFFFFFFFFFFF AND PUSH1 0x2 PUSH1 0x0 SWAP1 SLOAD SWAP1 PUSH2 0x100 EXP SWAP1 POP POP POP PUSH2 0x11BB DUP1 PUSH2 0x46 PUSH1 0x0 CODECOPY PUSH1 0x0 RETURN INVALID PUSH1 0x80 PUSH1 0x40 MSTORE PUSH1 0x4 CALLDATASIZE LT PUSH2 0x55 JUMPI PUSH1 0x0 CALLDATALOAD PUSH1 0xE0 SHR DUP1 PUSH4 0x8DA5CB5B EQ PUSH2 0x5A JUMPI DUP1 PUSH4 0xA85C38EF EQ PUSH2 0x85 JUMPI DUP1 PUSH4 0xC557F979 EQ PUSH2 0xC5 JUMPI DUP1 PUSH4 0xD96A094A EQ PUSH2 0xEE JUMPI DUP1 PUSH4 0xEA5DF059 EQ PUSH2 0x10A JUMPI DUP1 PUSH4 0xEC34297A EQ PUSH2 0x14B JUMPI JUMPDEST PUSH1 0x0 DUP1 REVERT JUMPDEST CALLVALUE DUP1 ISZERO PUSH2 0x66 JUMPI PUSH1 0x0 DUP1 REVERT JUMPDEST POP PUSH2 0x6F PUSH2 0x176 JUMP JUMPDEST PUSH1 0x40 MLOAD PUSH2 0x7C SWAP2 SWAP1 PUSH2 0xCE1 JUMP JUMPDEST PUSH1 0x40 MLOAD DUP1 SWAP2 SUB SWAP1 RETURN JUMPDEST CALLVALUE DUP1 ISZERO PUSH2 0x91 JUMPI PUSH1 0x0 DUP1 REVERT JUMPDEST POP PUSH2 0xAC PUSH1 0x4 DUP1 CALLDATASIZE SUB DUP2 ADD SWAP1 PUSH2 0xA7 SWAP2 SWAP1 PUSH2 0xA97 JUMP JUMPDEST PUSH2 0x19C JUMP JUMPDEST PUSH1 0x40 MLOAD PUSH2 0xBC SWAP5 SWAP4 SWAP3 SWAP2 SWAP1 PUSH2 0xD1E JUMP JUMPDEST PUSH1 0x40 MLOAD DUP1 SWAP2 SUB SWAP1 RETURN JUMPDEST CALLVALUE DUP1 ISZERO PUSH2 0xD1 JUMPI PUSH1 0x0 DUP1 REVERT JUMPDEST POP PUSH2 0xEC PUSH1 0x4 DUP1 CALLDATASIZE SUB DUP2 ADD SWAP1 PUSH2 0xE7 SWAP2 SWAP1 PUSH2 0x9F0 JUMP JUMPDEST PUSH2 0x291 JUMP JUMPDEST STOP JUMPDEST PUSH2 0x108 PUSH1 0x4 DUP1 CALLDATASIZE SUB DUP2 ADD SWAP1 PUSH2 0x103 SWAP2 SWAP1 PUSH2 0xA97 JUMP JUMPDEST PUSH2 0x477 JUMP JUMPDEST STOP JUMPDEST CALLVALUE DUP1 ISZERO PUSH2 0x116 JUMPI PUSH1 0x0 DUP1 REVERT JUMPDEST POP PUSH2 0x131 PUSH1 0x4 DUP1 CALLDATASIZE SUB DUP2 ADD SWAP1 PUSH2 0x12C SWAP2 SWAP1 PUSH2 0xA97 JUMP JUMPDEST PUSH2 0x547 JUMP JUMPDEST PUSH1 0x40 MLOAD PUSH2 0x142 SWAP6 SWAP5 SWAP4 SWAP3 SWAP2 SWAP1 PUSH2 0xDCA JUMP JUMPDEST PUSH1 0x40 MLOAD DUP1 SWAP2 SUB SWAP1 RETURN JUMPDEST CALLVALUE DUP1 ISZERO PUSH2 0x157 JUMPI PUSH1 0x0 DUP1 REVERT JUMPDEST POP PUSH2 0x160 PUSH2 0x69D JUMP JUMPDEST PUSH1 0x40 MLOAD PUSH2 0x16D SWAP2 SWAP1 PUSH2 0xCFC JUMP JUMPDEST PUSH1 0x40 MLOAD DUP1 SWAP2 SUB SWAP1 RETURN JUMPDEST PUSH1 0x2 PUSH1 0x0 SWAP1 SLOAD SWAP1 PUSH2 0x100 EXP SWAP1 DIV PUSH20 0xFFFFFFFFFFFFFFFFFFFFFFFFFFFFFFFFFFFFFFFF AND DUP2 JUMP JUMPDEST PUSH1 0x1 DUP2 DUP2 SLOAD DUP2 LT PUSH2 0x1AC JUMPI PUSH1 0x0 DUP1 REVERT JUMPDEST SWAP1 PUSH1 0x0 MSTORE PUSH1 0x20 PUSH1 0x0 KECCAK256 SWAP1 PUSH1 0x4 MUL ADD PUSH1 0x0 SWAP2 POP SWAP1 POP DUP1 PUSH1 0x0 ADD DUP1 SLOAD PUSH2 0x1CF SWAP1 PUSH2 0xF4F JUMP JUMPDEST DUP1 PUSH1 0x1F ADD PUSH1 0x20 DUP1 SWAP2 DIV MUL PUSH1 0x20 ADD PUSH1 0x40 MLOAD SWAP1 DUP2 ADD PUSH1 0x40 MSTORE DUP1 SWAP3 SWAP2 SWAP1 DUP2 DUP2 MSTORE PUSH1 0x20 ADD DUP3 DUP1 SLOAD PUSH2 0x1FB SWAP1 PUSH2 0xF4F JUMP JUMPDEST DUP1 ISZERO PUSH2 0x248 JUMPI DUP1 PUSH1 0x1F LT PUSH2 0x21D JUMPI PUSH2 0x100 DUP1 DUP4 SLOAD DIV MUL DUP4 MSTORE SWAP2 PUSH1 0x20 ADD SWAP2 PUSH2 0x248 JUMP JUMPDEST DUP3 ADD SWAP2 SWAP1 PUSH1 0x0 MSTORE PUSH1 0x20 PUSH1 0x0 KECCAK256 SWAP1 JUMPDEST DUP2 SLOAD DUP2 MSTORE SWAP1 PUSH1 0x1 ADD SWAP1 PUSH1 0x20 ADD DUP1 DUP4 GT PUSH2 0x22B JUMPI DUP3 SWAP1 SUB PUSH1 0x1F AND DUP3 ADD SWAP2 JUMPDEST POP POP POP POP POP SWAP1 DUP1 PUSH1 0x1 ADD PUSH1 0x0 SWAP1 SLOAD SWAP1 PUSH2 0x100 EXP SWAP1 DIV PUSH20 0xFFFFFFFFFFFFFFFFFFFFFFFFFFFFFFFFFFFFFFFF AND SWAP1 DUP1 PUSH1 0x2 ADD SLOAD SWAP1 DUP1 PUSH1 0x3 ADD PUSH1 0x0 SWAP1 SLOAD SWAP1 PUSH2 0x100 EXP SWAP1 DIV PUSH1 0xFF AND SWAP1 POP DUP5 JUMP JUMPDEST CALLER PUSH20 0xFFFFFFFFFFFFFFFFFFFFFFFFFFFFFFFFFFFFFFFF AND PUSH1 0x2 PUSH1 0x0 SWAP1 SLOAD SWAP1 PUSH2 0x100 EXP SWAP1 DIV PUSH20 0xFFFFFFFFFFFFFFFFFFFFFFFFFFFFFFFFFFFFFFFF AND PUSH20 0xFFFFFFFFFFFFFFFFFFFFFFFFFFFFFFFFFFFFFFFF AND EQ PUSH2 0x321 JUMPI PUSH1 0x40 MLOAD PUSH32 0x8C379A000000000000000000000000000000000000000000000000000000000 DUP2 MSTORE PUSH1 0x4 ADD PUSH2 0x318 SWAP1 PUSH2 0xD8A JUMP JUMPDEST PUSH1 0x40 MLOAD DUP1 SWAP2 SUB SWAP1 REVERT JUMPDEST PUSH1 0x0 PUSH1 0x40 MLOAD DUP1 PUSH1 0xA0 ADD PUSH1 0x40 MSTORE DUP1 PUSH1 0x3 SLOAD DUP2 MSTORE PUSH1 0x20 ADD DUP9 DUP9 DUP1 DUP1 PUSH1 0x1F ADD PUSH1 0x20 DUP1 SWAP2 DIV MUL PUSH1 0x20 ADD PUSH1 0x40 MLOAD SWAP1 DUP2 ADD PUSH1 0x40 MSTORE DUP1 SWAP4 SWAP3 SWAP2 SWAP1 DUP2 DUP2 MSTORE PUSH1 0x20 ADD DUP4 DUP4 DUP1 DUP3 DUP5 CALLDATACOPY PUSH1 0x0 DUP2 DUP5 ADD MSTORE PUSH1 0x1F NOT PUSH1 0x1F DUP3 ADD AND SWAP1 POP DUP1 DUP4 ADD SWAP3 POP POP POP POP POP POP POP DUP2 MSTORE PUSH1 0x20 ADD DUP7 DUP7 DUP1 DUP1 PUSH1 0x1F ADD PUSH1 0x20 DUP1 SWAP2 DIV MUL PUSH1 0x20 ADD PUSH1 0x40 MLOAD SWAP1 DUP2 ADD PUSH1 0x40 MSTORE DUP1 SWAP4 SWAP3 SWAP2 SWAP1 DUP2 DUP2 MSTORE PUSH1 0x20 ADD DUP4 DUP4 DUP1 DUP3 DUP5 CALLDATACOPY PUSH1 0x0 DUP2 DUP5 ADD MSTORE PUSH1 0x1F NOT PUSH1 0x1F DUP3 ADD AND SWAP1 POP DUP1 DUP4 ADD SWAP3 POP POP POP POP POP POP POP DUP2 MSTORE PUSH1 0x20 ADD DUP5 DUP2 MSTORE PUSH1 0x20 ADD DUP4 DUP2 MSTORE POP SWAP1 DUP1 PUSH1 0x1 DUP2 SLOAD ADD DUP1 DUP3 SSTORE DUP1 SWAP2 POP POP PUSH1 0x1 SWAP1 SUB SWAP1 PUSH1 0x0 MSTORE PUSH1 0x20 PUSH1 0x0 KECCAK256 SWAP1 PUSH1 0x5 MUL ADD PUSH1 0x0 SWAP1 SWAP2 SWAP1 SWAP2 SWAP1 SWAP2 POP PUSH1 0x0 DUP3 ADD MLOAD DUP2 PUSH1 0x0 ADD SSTORE PUSH1 0x20 DUP3 ADD MLOAD DUP2 PUSH1 0x1 ADD SWAP1 DUP1 MLOAD SWAP1 PUSH1 0x20 ADD SWAP1 PUSH2 0x423 SWAP3 SWAP2 SWAP1 PUSH2 0x8B3 JUMP JUMPDEST POP PUSH1 0x40 DUP3 ADD MLOAD DUP2 PUSH1 0x2 ADD SWAP1 DUP1 MLOAD SWAP1 PUSH1 0x20 ADD SWAP1 PUSH2 0x440 SWAP3 SWAP2 SWAP1 PUSH2 0x8B3 JUMP JUMPDEST POP PUSH1 0x60 DUP3 ADD MLOAD DUP2 PUSH1 0x3 ADD SSTORE PUSH1 0x80 DUP3 ADD MLOAD DUP2 PUSH1 0x4 ADD SSTORE POP POP PUSH1 0x3 PUSH1 0x0 DUP2 SLOAD DUP1 SWAP3 SWAP2 SWAP1 PUSH2 0x46A SWAP1 PUSH2 0xF81 JUMP JUMPDEST SWAP2 SWAP1 POP SSTORE POP POP POP POP POP POP POP JUMP JUMPDEST PUSH1 0x0 DUP1 DUP3 DUP2 SLOAD DUP2 LT PUSH2 0x48C JUMPI PUSH2 0x48B PUSH2 0x1057 JUMP JUMPDEST JUMPDEST SWAP1 PUSH1 0x0 MSTORE PUSH1 0x20 PUSH1 0x0 KECCAK256 SWAP1 PUSH1 0x5 MUL ADD SWAP1 POP DUP1 PUSH1 0x3 ADD SLOAD CALLVALUE EQ PUSH2 0x4E2 JUMPI PUSH1 0x40 MLOAD PUSH32 0x8C379A000000000000000000000000000000000000000000000000000000000 DUP2 MSTORE PUSH1 0x4 ADD PUSH2 0x4D9 SWAP1 PUSH2 0xD6A JUMP JUMPDEST PUSH1 0x40 MLOAD DUP1 SWAP2 SUB SWAP1 REVERT JUMPDEST PUSH1 0x0 DUP2 PUSH1 0x4 ADD SLOAD GT PUSH2 0x529 JUMPI PUSH1 0x40 MLOAD PUSH32 0x8C379A000000000000000000000000000000000000000000000000000000000 DUP2 MSTORE PUSH1 0x4 ADD PUSH2 0x520 SWAP1 PUSH2 0xDAA JUMP JUMPDEST PUSH1 0x40 MLOAD DUP1 SWAP2 SUB SWAP1 REVERT JUMPDEST DUP1 PUSH1 0x4 ADD PUSH1 0x0 DUP2 SLOAD DUP1 SWAP3 SWAP2 SWAP1 PUSH2 0x53E SWAP1 PUSH2 0xF25 JUMP JUMPDEST SWAP2 SWAP1 POP SSTORE POP POP POP JUMP JUMPDEST PUSH1 0x0 DUP2 DUP2 SLOAD DUP2 LT PUSH2 0x557 JUMPI PUSH1 0x0 DUP1 REVERT JUMPDEST SWAP1 PUSH1 0x0 MSTORE PUSH1 0x20 PUSH1 0x0 KECCAK256 SWAP1 PUSH1 0x5 MUL ADD PUSH1 0x0 SWAP2 POP SWAP1 POP DUP1 PUSH1 0x0 ADD SLOAD SWAP1 DUP1 PUSH1 0x1 ADD DUP1 SLOAD PUSH2 0x580 SWAP1 PUSH2 0xF4F JUMP JUMPDEST DUP1 PUSH1 0x1F ADD PUSH1 0x20 DUP1 SWAP2 DIV MUL PUSH1 0x20 ADD PUSH1 0x40 MLOAD SWAP1 DUP2 ADD PUSH1 0x40 MSTORE DUP1 SWAP3 SWAP2 SWAP1 DUP2 DUP2 MSTORE PUSH1 0x20 ADD DUP3 DUP1 SLOAD PUSH2 0x5AC SWAP1 PUSH2 0xF4F JUMP JUMPDEST DUP1 ISZERO PUSH2 0x5F9 JUMPI DUP1 PUSH1 0x1F LT PUSH2 0x5CE JUMPI PUSH2 0x100 DUP1 DUP4 SLOAD DIV MUL DUP4 MSTORE SWAP2 PUSH1 0x20 ADD SWAP2 PUSH2 0x5F9 JUMP JUMPDEST DUP3 ADD SWAP2 SWAP1 PUSH1 0x0 MSTORE PUSH1 0x20 PUSH1 0x0 KECCAK256 SWAP1 JUMPDEST DUP2 SLOAD DUP2 MSTORE SWAP1 PUSH1 0x1 ADD SWAP1 PUSH1 0x20 ADD DUP1 DUP4 GT PUSH2 0x5DC JUMPI DUP3 SWAP1 SUB PUSH1 0x1F AND DUP3 ADD SWAP2 JUMPDEST POP POP POP POP POP SWAP1 DUP1 PUSH1 0x2 ADD DUP1 SLOAD PUSH2 0x60E SWAP1 PUSH2 0xF4F JUMP JUMPDEST DUP1 PUSH1 0x1F ADD PUSH1 0x20 DUP1 SWAP2 DIV MUL PUSH1 0x20 ADD PUSH1 0x40 MLOAD SWAP1 DUP2 ADD PUSH1 0x40 MSTORE DUP1 SWAP3 SWAP2 SWAP1 DUP2 DUP2 MSTORE PUSH1 0x20 ADD DUP3 DUP1 SLOAD PUSH2 0x63A SWAP1 PUSH2 0xF4F JUMP JUMPDEST DUP1 ISZERO PUSH2 0x687 JUMPI DUP1 PUSH1 0x1F LT PUSH2 0x65C JUMPI PUSH2 0x100 DUP1 DUP4 SLOAD DIV MUL DUP4 MSTORE SWAP2 PUSH1 0x20 ADD SWAP2 PUSH2 0x687 JUMP JUMPDEST DUP3 ADD SWAP2 SWAP1 PUSH1 0x0 MSTORE PUSH1 0x20 PUSH1 0x0 KECCAK256 SWAP1 JUMPDEST DUP2 SLOAD DUP2 MSTORE SWAP1 PUSH1 0x1 ADD SWAP1 PUSH1 0x20 ADD DUP1 DUP4 GT PUSH2 0x66A JUMPI DUP3 SWAP1 SUB PUSH1 0x1F AND DUP3 ADD SWAP2 JUMPDEST POP POP POP POP POP SWAP1 DUP1 PUSH1 0x3 ADD SLOAD SWAP1 DUP1 PUSH1 0x4 ADD SLOAD SWAP1 POP DUP6 JUMP JUMPDEST PUSH1 0x60 PUSH1 0x0 DUP1 DUP1 SLOAD SWAP1 POP PUSH8 0xFFFFFFFFFFFFFFFF DUP2 GT ISZERO PUSH2 0x6BF JUMPI PUSH2 0x6BE PUSH2 0x1086 JUMP JUMPDEST JUMPDEST PUSH1 0x40 MLOAD SWAP1 DUP1 DUP3 MSTORE DUP1 PUSH1 0x20 MUL PUSH1 0x20 ADD DUP3 ADD PUSH1 0x40 MSTORE DUP1 ISZERO PUSH2 0x6F8 JUMPI DUP2 PUSH1 0x20 ADD JUMPDEST PUSH2 0x6E5 PUSH2 0x939 JUMP JUMPDEST DUP2 MSTORE PUSH1 0x20 ADD SWAP1 PUSH1 0x1 SWAP1 SUB SWAP1 DUP2 PUSH2 0x6DD JUMPI SWAP1 POP JUMPDEST POP SWAP1 POP PUSH1 0x0 JUMPDEST PUSH1 0x0 DUP1 SLOAD SWAP1 POP DUP2 LT ISZERO PUSH2 0x8AB JUMPI PUSH1 0x0 DUP2 DUP2 SLOAD DUP2 LT PUSH2 0x71F JUMPI PUSH2 0x71E PUSH2 0x1057 JUMP JUMPDEST JUMPDEST SWAP1 PUSH1 0x0 MSTORE PUSH1 0x20 PUSH1 0x0 KECCAK256 SWAP1 PUSH1 0x5 MUL ADD PUSH1 0x40 MLOAD DUP1 PUSH1 0xA0 ADD PUSH1 0x40 MSTORE SWAP1 DUP2 PUSH1 0x0 DUP3 ADD SLOAD DUP2 MSTORE PUSH1 0x20 ADD PUSH1 0x1 DUP3 ADD DUP1 SLOAD PUSH2 0x752 SWAP1 PUSH2 0xF4F JUMP JUMPDEST DUP1 PUSH1 0x1F ADD PUSH1 0x20 DUP1 SWAP2 DIV MUL PUSH1 0x20 ADD PUSH1 0x40 MLOAD SWAP1 DUP2 ADD PUSH1 0x40 MSTORE DUP1 SWAP3 SWAP2 SWAP1 DUP2 DUP2 MSTORE PUSH1 0x20 ADD DUP3 DUP1 SLOAD PUSH2 0x77E SWAP1 PUSH2 0xF4F JUMP JUMPDEST DUP1 ISZERO PUSH2 0x7CB JUMPI DUP1 PUSH1 0x1F LT PUSH2 0x7A0 JUMPI PUSH2 0x100 DUP1 DUP4 SLOAD DIV MUL DUP4 MSTORE SWAP2 PUSH1 0x20 ADD SWAP2 PUSH2 0x7CB JUMP JUMPDEST DUP3 ADD SWAP2 SWAP1 PUSH1 0x0 MSTORE PUSH1 0x20 PUSH1 0x0 KECCAK256 SWAP1 JUMPDEST DUP2 SLOAD DUP2 MSTORE SWAP1 PUSH1 0x1 ADD SWAP1 PUSH1 0x20 ADD DUP1 DUP4 GT PUSH2 0x7AE JUMPI DUP3 SWAP1 SUB PUSH1 0x1F AND DUP3 ADD SWAP2 JUMPDEST POP POP POP POP POP DUP2 MSTORE PUSH1 0x20 ADD PUSH1 0x2 DUP3 ADD DUP1 SLOAD PUSH2 0x7E4 SWAP1 PUSH2 0xF4F JUMP JUMPDEST DUP1 PUSH1 0x1F ADD PUSH1 0x20 DUP1 SWAP2 DIV MUL PUSH1 0x20 ADD PUSH1 0x40 MLOAD SWAP1 DUP2 ADD PUSH1 0x40 MSTORE DUP1 SWAP3 SWAP2 SWAP1 DUP2 DUP2 MSTORE PUSH1 0x20 ADD DUP3 DUP1 SLOAD PUSH2 0x810 SWAP1 PUSH2 0xF4F JUMP JUMPDEST DUP1 ISZERO PUSH2 0x85D JUMPI DUP1 PUSH1 0x1F LT PUSH2 0x832 JUMPI PUSH2 0x100 DUP1 DUP4 SLOAD DIV MUL DUP4 MSTORE SWAP2 PUSH1 0x20 ADD SWAP2 PUSH2 0x85D JUMP JUMPDEST DUP3 ADD SWAP2 SWAP1 PUSH1 0x0 MSTORE PUSH1 0x20 PUSH1 0x0 KECCAK256 SWAP1 JUMPDEST DUP2 SLOAD DUP2 MSTORE SWAP1 PUSH1 0x1 ADD SWAP1 PUSH1 0x20 ADD DUP1 DUP4 GT PUSH2 0x840 JUMPI DUP3 SWAP1 SUB PUSH1 0x1F AND DUP3 ADD SWAP2 JUMPDEST POP POP POP POP POP DUP2 MSTORE PUSH1 0x20 ADD PUSH1 0x3 DUP3 ADD SLOAD DUP2 MSTORE PUSH1 0x20 ADD PUSH1 0x4 DUP3 ADD SLOAD DUP2 MSTORE POP POP DUP3 DUP3 DUP2 MLOAD DUP2 LT PUSH2 0x88D JUMPI PUSH2 0x88C PUSH2 0x1057 JUMP JUMPDEST JUMPDEST PUSH1 0x20 MUL PUSH1 0x20 ADD ADD DUP2 SWAP1 MSTORE POP DUP1 DUP1 PUSH2 0x8A3 SWAP1 PUSH2 0xF81 JUMP JUMPDEST SWAP2 POP POP PUSH2 0x6FE JUMP JUMPDEST POP DUP1 SWAP2 POP POP SWAP1 JUMP JUMPDEST DUP3 DUP1 SLOAD PUSH2 0x8BF SWAP1 PUSH2 0xF4F JUMP JUMPDEST SWAP1 PUSH1 0x0 MSTORE PUSH1 0x20 PUSH1 0x0 KECCAK256 SWAP1 PUSH1 0x1F ADD PUSH1 0x20 SWAP1 DIV DUP2 ADD SWAP3 DUP3 PUSH2 0x8E1 JUMPI PUSH1 0x0 DUP6 SSTORE PUSH2 0x928 JUMP JUMPDEST DUP3 PUSH1 0x1F LT PUSH2 0x8FA JUMPI DUP1 MLOAD PUSH1 0xFF NOT AND DUP4 DUP1 ADD OR DUP6 SSTORE PUSH2 0x928 JUMP JUMPDEST DUP3 DUP1 ADD PUSH1 0x1 ADD DUP6 SSTORE DUP3 ISZERO PUSH2 0x928 JUMPI SWAP2 DUP3 ADD JUMPDEST DUP3 DUP2 GT ISZERO PUSH2 0x927 JUMPI DUP3 MLOAD DUP3 SSTORE SWAP2 PUSH1 0x20 ADD SWAP2 SWAP1 PUSH1 0x1 ADD SWAP1 PUSH2 0x90C JUMP JUMPDEST JUMPDEST POP SWAP1 POP PUSH2 0x935 SWAP2 SWAP1 PUSH2 0x968 JUMP JUMPDEST POP SWAP1 JUMP JUMPDEST PUSH1 0x40 MLOAD DUP1 PUSH1 0xA0 ADD PUSH1 0x40 MSTORE DUP1 PUSH1 0x0 DUP2 MSTORE PUSH1 0x20 ADD PUSH1 0x60 DUP2 MSTORE PUSH1 0x20 ADD PUSH1 0x60 DUP2 MSTORE PUSH1 0x20 ADD PUSH1 0x0 DUP2 MSTORE PUSH1 0x20 ADD PUSH1 0x0 DUP2 MSTORE POP SWAP1 JUMP JUMPDEST JUMPDEST DUP1 DUP3 GT ISZERO PUSH2 0x981 JUMPI PUSH1 0x0 DUP2 PUSH1 0x0 SWAP1 SSTORE POP PUSH1 0x1 ADD PUSH2 0x969 JUMP JUMPDEST POP SWAP1 JUMP JUMPDEST PUSH1 0x0 DUP1 DUP4 PUSH1 0x1F DUP5 ADD SLT PUSH2 0x99B JUMPI PUSH2 0x99A PUSH2 0x10BA JUMP JUMPDEST JUMPDEST DUP3 CALLDATALOAD SWAP1 POP PUSH8 0xFFFFFFFFFFFFFFFF DUP2 GT ISZERO PUSH2 0x9B8 JUMPI PUSH2 0x9B7 PUSH2 0x10B5 JUMP JUMPDEST JUMPDEST PUSH1 0x20 DUP4 ADD SWAP2 POP DUP4 PUSH1 0x1 DUP3 MUL DUP4 ADD GT ISZERO PUSH2 0x9D4 JUMPI PUSH2 0x9D3 PUSH2 0x10BF JUMP JUMPDEST JUMPDEST SWAP3 POP SWAP3 SWAP1 POP JUMP JUMPDEST PUSH1 0x0 DUP2 CALLDATALOAD SWAP1 POP PUSH2 0x9EA DUP2 PUSH2 0x116E JUMP JUMPDEST SWAP3 SWAP2 POP POP JUMP JUMPDEST PUSH1 0x0 DUP1 PUSH1 0x0 DUP1 PUSH1 0x0 DUP1 PUSH1 0x80 DUP8 DUP10 SUB SLT ISZERO PUSH2 0xA0D JUMPI PUSH2 0xA0C PUSH2 0x10C9 JUMP JUMPDEST JUMPDEST PUSH1 0x0 DUP8 ADD CALLDATALOAD PUSH8 0xFFFFFFFFFFFFFFFF DUP2 GT ISZERO PUSH2 0xA2B JUMPI PUSH2 0xA2A PUSH2 0x10C4 JUMP JUMPDEST JUMPDEST PUSH2 0xA37 DUP10 DUP3 DUP11 ADD PUSH2 0x985 JUMP JUMPDEST SWAP7 POP SWAP7 POP POP PUSH1 0x20 DUP8 ADD CALLDATALOAD PUSH8 0xFFFFFFFFFFFFFFFF DUP2 GT ISZERO PUSH2 0xA5A JUMPI PUSH2 0xA59 PUSH2 0x10C4 JUMP JUMPDEST JUMPDEST PUSH2 0xA66 DUP10 DUP3 DUP11 ADD PUSH2 0x985 JUMP JUMPDEST SWAP5 POP SWAP5 POP POP PUSH1 0x40 PUSH2 0xA79 DUP10 DUP3 DUP11 ADD PUSH2 0x9DB JUMP JUMPDEST SWAP3 POP POP PUSH1 0x60 PUSH2 0xA8A DUP10 DUP3 DUP11 ADD PUSH2 0x9DB JUMP JUMPDEST SWAP2 POP POP SWAP3 SWAP6 POP SWAP3 SWAP6 POP SWAP3 SWAP6 JUMP JUMPDEST PUSH1 0x0 PUSH1 0x20 DUP3 DUP5 SUB SLT ISZERO PUSH2 0xAAD JUMPI PUSH2 0xAAC PUSH2 0x10C9 JUMP JUMPDEST JUMPDEST PUSH1 0x0 PUSH2 0xABB DUP5 DUP3 DUP6 ADD PUSH2 0x9DB JUMP JUMPDEST SWAP2 POP POP SWAP3 SWAP2 POP POP JUMP JUMPDEST PUSH1 0x0 PUSH2 0xAD0 DUP4 DUP4 PUSH2 0xC46 JUMP JUMPDEST SWAP1 POP SWAP3 SWAP2 POP POP JUMP JUMPDEST PUSH2 0xAE1 DUP2 PUSH2 0xE91 JUMP JUMPDEST DUP3 MSTORE POP POP JUMP JUMPDEST PUSH1 0x0 PUSH2 0xAF2 DUP3 PUSH2 0xE3B JUMP JUMPDEST PUSH2 0xAFC DUP2 DUP6 PUSH2 0xE5E JUMP JUMPDEST SWAP4 POP DUP4 PUSH1 0x20 DUP3 MUL DUP6 ADD PUSH2 0xB0E DUP6 PUSH2 0xE2B JUMP JUMPDEST DUP1 PUSH1 0x0 JUMPDEST DUP6 DUP2 LT ISZERO PUSH2 0xB4A JUMPI DUP5 DUP5 SUB DUP10 MSTORE DUP2 MLOAD PUSH2 0xB2B DUP6 DUP3 PUSH2 0xAC4 JUMP JUMPDEST SWAP5 POP PUSH2 0xB36 DUP4 PUSH2 0xE51 JUMP JUMPDEST SWAP3 POP PUSH1 0x20 DUP11 ADD SWAP10 POP POP PUSH1 0x1 DUP2 ADD SWAP1 POP PUSH2 0xB12 JUMP JUMPDEST POP DUP3 SWAP8 POP DUP8 SWAP6 POP POP POP POP POP POP SWAP3 SWAP2 POP POP JUMP JUMPDEST PUSH2 0xB65 DUP2 PUSH2 0xEE0 JUMP JUMPDEST DUP3 MSTORE POP POP JUMP JUMPDEST PUSH1 0x0 PUSH2 0xB76 DUP3 PUSH2 0xE46 JUMP JUMPDEST PUSH2 0xB80 DUP2 DUP6 PUSH2 0xE6F JUMP JUMPDEST SWAP4 POP PUSH2 0xB90 DUP2 DUP6 PUSH1 0x20 DUP7 ADD PUSH2 0xEF2 JUMP JUMPDEST PUSH2 0xB99 DUP2 PUSH2 0x10CE JUMP JUMPDEST DUP5 ADD SWAP2 POP POP SWAP3 SWAP2 POP POP JUMP JUMPDEST PUSH1 0x0 PUSH2 0xBAF DUP3 PUSH2 0xE46 JUMP JUMPDEST PUSH2 0xBB9 DUP2 DUP6 PUSH2 0xE80 JUMP JUMPDEST SWAP4 POP PUSH2 0xBC9 DUP2 DUP6 PUSH1 0x20 DUP7 ADD PUSH2 0xEF2 JUMP JUMPDEST PUSH2 0xBD2 DUP2 PUSH2 0x10CE JUMP JUMPDEST DUP5 ADD SWAP2 POP POP SWAP3 SWAP2 POP POP JUMP JUMPDEST PUSH1 0x0 PUSH2 0xBEA PUSH1 0xD DUP4 PUSH2 0xE80 JUMP JUMPDEST SWAP2 POP PUSH2 0xBF5 DUP3 PUSH2 0x10DF JUMP JUMPDEST PUSH1 0x20 DUP3 ADD SWAP1 POP SWAP2 SWAP1 POP JUMP JUMPDEST PUSH1 0x0 PUSH2 0xC0D PUSH1 0xD DUP4 PUSH2 0xE80 JUMP JUMPDEST SWAP2 POP PUSH2 0xC18 DUP3 PUSH2 0x1108 JUMP JUMPDEST PUSH1 0x20 DUP3 ADD SWAP1 POP SWAP2 SWAP1 POP JUMP JUMPDEST PUSH1 0x0 PUSH2 0xC30 PUSH1 0xC DUP4 PUSH2 0xE80 JUMP JUMPDEST SWAP2 POP PUSH2 0xC3B DUP3 PUSH2 0x1131 JUMP JUMPDEST PUSH1 0x20 DUP3 ADD SWAP1 POP SWAP2 SWAP1 POP JUMP JUMPDEST PUSH1 0x0 PUSH1 0xA0 DUP4 ADD PUSH1 0x0 DUP4 ADD MLOAD PUSH2 0xC5E PUSH1 0x0 DUP7 ADD DUP3 PUSH2 0xCC3 JUMP JUMPDEST POP PUSH1 0x20 DUP4 ADD MLOAD DUP5 DUP3 SUB PUSH1 0x20 DUP7 ADD MSTORE PUSH2 0xC76 DUP3 DUP3 PUSH2 0xB6B JUMP JUMPDEST SWAP2 POP POP PUSH1 0x40 DUP4 ADD MLOAD DUP5 DUP3 SUB PUSH1 0x40 DUP7 ADD MSTORE PUSH2 0xC90 DUP3 DUP3 PUSH2 0xB6B JUMP JUMPDEST SWAP2 POP POP PUSH1 0x60 DUP4 ADD MLOAD PUSH2 0xCA5 PUSH1 0x60 DUP7 ADD DUP3 PUSH2 0xCC3 JUMP JUMPDEST POP PUSH1 0x80 DUP4 ADD MLOAD PUSH2 0xCB8 PUSH1 0x80 DUP7 ADD DUP3 PUSH2 0xCC3 JUMP JUMPDEST POP DUP1 SWAP2 POP POP SWAP3 SWAP2 POP POP JUMP JUMPDEST PUSH2 0xCCC DUP2 PUSH2 0xED6 JUMP JUMPDEST DUP3 MSTORE POP POP JUMP JUMPDEST PUSH2 0xCDB DUP2 PUSH2 0xED6 JUMP JUMPDEST DUP3 MSTORE POP POP JUMP JUMPDEST PUSH1 0x0 PUSH1 0x20 DUP3 ADD SWAP1 POP PUSH2 0xCF6 PUSH1 0x0 DUP4 ADD DUP5 PUSH2 0xAD8 JUMP JUMPDEST SWAP3 SWAP2 POP POP JUMP JUMPDEST PUSH1 0x0 PUSH1 0x20 DUP3 ADD SWAP1 POP DUP2 DUP2 SUB PUSH1 0x0 DUP4 ADD MSTORE PUSH2 0xD16 DUP2 DUP5 PUSH2 0xAE7 JUMP JUMPDEST SWAP1 POP SWAP3 SWAP2 POP POP JUMP JUMPDEST PUSH1 0x0 PUSH1 0x80 DUP3 ADD SWAP1 POP DUP2 DUP2 SUB PUSH1 0x0 DUP4 ADD MSTORE PUSH2 0xD38 DUP2 DUP8 PUSH2 0xBA4 JUMP JUMPDEST SWAP1 POP PUSH2 0xD47 PUSH1 0x20 DUP4 ADD DUP7 PUSH2 0xAD8 JUMP JUMPDEST PUSH2 0xD54 PUSH1 0x40 DUP4 ADD DUP6 PUSH2 0xCD2 JUMP JUMPDEST PUSH2 0xD61 PUSH1 0x60 DUP4 ADD DUP5 PUSH2 0xB5C JUMP JUMPDEST SWAP6 SWAP5 POP POP POP POP POP JUMP JUMPDEST PUSH1 0x0 PUSH1 0x20 DUP3 ADD SWAP1 POP DUP2 DUP2 SUB PUSH1 0x0 DUP4 ADD MSTORE PUSH2 0xD83 DUP2 PUSH2 0xBDD JUMP JUMPDEST SWAP1 POP SWAP2 SWAP1 POP JUMP JUMPDEST PUSH1 0x0 PUSH1 0x20 DUP3 ADD SWAP1 POP DUP2 DUP2 SUB PUSH1 0x0 DUP4 ADD MSTORE PUSH2 0xDA3 DUP2 PUSH2 0xC00 JUMP JUMPDEST SWAP1 POP SWAP2 SWAP1 POP JUMP JUMPDEST PUSH1 0x0 PUSH1 0x20 DUP3 ADD SWAP1 POP DUP2 DUP2 SUB PUSH1 0x0 DUP4 ADD MSTORE PUSH2 0xDC3 DUP2 PUSH2 0xC23 JUMP JUMPDEST SWAP1 POP SWAP2 SWAP1 POP JUMP JUMPDEST PUSH1 0x0 PUSH1 0xA0 DUP3 ADD SWAP1 POP PUSH2 0xDDF PUSH1 0x0 DUP4 ADD DUP9 PUSH2 0xCD2 JUMP JUMPDEST DUP2 DUP2 SUB PUSH1 0x20 DUP4 ADD MSTORE PUSH2 0xDF1 DUP2 DUP8 PUSH2 0xBA4 JUMP JUMPDEST SWAP1 POP DUP2 DUP2 SUB PUSH1 0x40 DUP4 ADD MSTORE PUSH2 0xE05 DUP2 DUP7 PUSH2 0xBA4 JUMP JUMPDEST SWAP1 POP PUSH2 0xE14 PUSH1 0x60 DUP4 ADD DUP6 PUSH2 0xCD2 JUMP JUMPDEST PUSH2 0xE21 PUSH1 0x80 DUP4 ADD DUP5 PUSH2 0xCD2 JUMP JUMPDEST SWAP7 SWAP6 POP POP POP POP POP POP JUMP JUMPDEST PUSH1 0x0 DUP2 SWAP1 POP PUSH1 0x20 DUP3 ADD SWAP1 POP SWAP2 SWAP1 POP JUMP JUMPDEST PUSH1 0x0 DUP2 MLOAD SWAP1 POP SWAP2 SWAP1 POP JUMP JUMPDEST PUSH1 0x0 DUP2 MLOAD SWAP1 POP SWAP2 SWAP1 POP JUMP JUMPDEST PUSH1 0x0 PUSH1 0x20 DUP3 ADD SWAP1 POP SWAP2 SWAP1 POP JUMP JUMPDEST PUSH1 0x0 DUP3 DUP3 MSTORE PUSH1 0x20 DUP3 ADD SWAP1 POP SWAP3 SWAP2 POP POP JUMP JUMPDEST PUSH1 0x0 DUP3 DUP3 MSTORE PUSH1 0x20 DUP3 ADD SWAP1 POP SWAP3 SWAP2 POP POP JUMP JUMPDEST PUSH1 0x0 DUP3 DUP3 MSTORE PUSH1 0x20 DUP3 ADD SWAP1 POP SWAP3 SWAP2 POP POP JUMP JUMPDEST PUSH1 0x0 PUSH2 0xE9C DUP3 PUSH2 0xEB6 JUMP JUMPDEST SWAP1 POP SWAP2 SWAP1 POP JUMP JUMPDEST PUSH1 0x0 DUP2 SWAP1 POP PUSH2 0xEB1 DUP3 PUSH2 0x115A JUMP JUMPDEST SWAP2 SWAP1 POP JUMP JUMPDEST PUSH1 0x0 PUSH20 0xFFFFFFFFFFFFFFFFFFFFFFFFFFFFFFFFFFFFFFFF DUP3 AND SWAP1 POP SWAP2 SWAP1 POP JUMP JUMPDEST PUSH1 0x0 DUP2 SWAP1 POP SWAP2 SWAP1 POP JUMP JUMPDEST PUSH1 0x0 PUSH2 0xEEB DUP3 PUSH2 0xEA3 JUMP JUMPDEST SWAP1 POP SWAP2 SWAP1 POP JUMP JUMPDEST PUSH1 0x0 JUMPDEST DUP4 DUP2 LT ISZERO PUSH2 0xF10 JUMPI DUP1 DUP3 ADD MLOAD DUP2 DUP5 ADD MSTORE PUSH1 0x20 DUP2 ADD SWAP1 POP PUSH2 0xEF5 JUMP JUMPDEST DUP4 DUP2 GT ISZERO PUSH2 0xF1F JUMPI PUSH1 0x0 DUP5 DUP5 ADD MSTORE JUMPDEST POP POP POP POP JUMP JUMPDEST PUSH1 0x0 PUSH2 0xF30 DUP3 PUSH2 0xED6 JUMP JUMPDEST SWAP2 POP PUSH1 0x0 DUP3 EQ ISZERO PUSH2 0xF44 JUMPI PUSH2 0xF43 PUSH2 0xFCA JUMP JUMPDEST JUMPDEST PUSH1 0x1 DUP3 SUB SWAP1 POP SWAP2 SWAP1 POP JUMP JUMPDEST PUSH1 0x0 PUSH1 0x2 DUP3 DIV SWAP1 POP PUSH1 0x1 DUP3 AND DUP1 PUSH2 0xF67 JUMPI PUSH1 0x7F DUP3 AND SWAP2 POP JUMPDEST PUSH1 0x20 DUP3 LT DUP2 EQ ISZERO PUSH2 0xF7B JUMPI PUSH2 0xF7A PUSH2 0x1028 JUMP JUMPDEST JUMPDEST POP SWAP2 SWAP1 POP JUMP JUMPDEST PUSH1 0x0 PUSH2 0xF8C DUP3 PUSH2 0xED6 JUMP JUMPDEST SWAP2 POP PUSH32 0xFFFFFFFFFFFFFFFFFFFFFFFFFFFFFFFFFFFFFFFFFFFFFFFFFFFFFFFFFFFFFFFF DUP3 EQ ISZERO PUSH2 0xFBF JUMPI PUSH2 0xFBE PUSH2 0xFCA JUMP JUMPDEST JUMPDEST PUSH1 0x1 DUP3 ADD SWAP1 POP SWAP2 SWAP1 POP JUMP JUMPDEST PUSH32 0x4E487B7100000000000000000000000000000000000000000000000000000000 PUSH1 0x0 MSTORE PUSH1 0x11 PUSH1 0x4 MSTORE PUSH1 0x24 PUSH1 0x0 REVERT JUMPDEST PUSH32 0x4E487B7100000000000000000000000000000000000000000000000000000000 PUSH1 0x0 MSTORE PUSH1 0x21 PUSH1 0x4 MSTORE PUSH1 0x24 PUSH1 0x0 REVERT JUMPDEST PUSH32 0x4E487B7100000000000000000000000000000000000000000000000000000000 PUSH1 0x0 MSTORE PUSH1 0x22 PUSH1 0x4 MSTORE PUSH1 0x24 PUSH1 0x0 REVERT JUMPDEST PUSH32 0x4E487B7100000000000000000000000000000000000000000000000000000000 PUSH1 0x0 MSTORE PUSH1 0x32 PUSH1 0x4 MSTORE PUSH1 0x24 PUSH1 0x0 REVERT JUMPDEST PUSH32 0x4E487B7100000000000000000000000000000000000000000000000000000000 PUSH1 0x0 MSTORE PUSH1 0x41 PUSH1 0x4 MSTORE PUSH1 0x24 PUSH1 0x0 REVERT JUMPDEST PUSH1 0x0 DUP1 REVERT JUMPDEST PUSH1 0x0 DUP1 REVERT JUMPDEST PUSH1 0x0 DUP1 REVERT JUMPDEST PUSH1 0x0 DUP1 REVERT JUMPDEST PUSH1 0x0 DUP1 REVERT JUMPDEST PUSH1 0x0 PUSH1 0x1F NOT PUSH1 0x1F DUP4 ADD AND SWAP1 POP SWAP2 SWAP1 POP JUMP JUMPDEST PUSH32 0x696E76616C696420707269636500000000000000000000000000000000000000 PUSH1 0x0 DUP3 ADD MSTORE POP JUMP JUMPDEST PUSH32 0x4E6F7420616E206F776E65722100000000000000000000000000000000000000 PUSH1 0x0 DUP3 ADD MSTORE POP JUMP JUMPDEST PUSH32 0x6F7574206F662073746F636B0000000000000000000000000000000000000000 PUSH1 0x0 DUP3 ADD MSTORE POP JUMP JUMPDEST PUSH1 0x2 DUP2 LT PUSH2 0x116B JUMPI PUSH2 0x116A PUSH2 0xFF9 JUMP JUMPDEST JUMPDEST POP JUMP JUMPDEST PUSH2 0x1177 DUP2 PUSH2 0xED6 JUMP JUMPDEST DUP2 EQ PUSH2 0x1182 JUMPI PUSH1 0x0 DUP1 REVERT JUMPDEST POP JUMP INVALID LOG2 PUSH5 0x6970667358 0x22 SLT KECCAK256 0x23 DUP11 0xA6 0xDC TIMESTAMP CALLER CODECOPY 0xCA SWAP8 DUP2 RETURNDATACOPY 0xD9 MSTORE 0xAA SLT 0xC2 0xC7 PUSH3 0x1966C6 0xDF 0x2E PUSH25 0x6AADD51C4AA20DF264736F6C63430008070033000000000000 "
				},
				"gasEstimates": {
					"creation": {
						"codeDepositCost": "907800",
						"executionCost": "3084",
						"totalCost": "910884"
					},
					"external": {
						"addAlbum(string,string,uint256,uint256)": "infinite",
						"albums(uint256)": "infinite",
						"allAlbums()": "infinite",
						"buy(uint256)": "infinite",
						"orders(uint256)": "infinite",
						"owner()": "2492"
					}
				},
				"methodIdentifiers": {
					"addAlbum(string,string,uint256,uint256)": "c557f979",
					"albums(uint256)": "ea5df059",
					"allAlbums()": "ec34297a",
					"buy(uint256)": "d96a094a",
					"orders(uint256)": "a85c38ef",
					"owner()": "8da5cb5b"
				}
			},
			"storageLayout": {
				"storage": [
					{
						"astId": 29,
						"contract": "contracts/MusicStore.sol:MusicStore",
						"label": "albums",
						"offset": 0,
						"slot": "0",
						"type": "t_array(t_struct(Album)12_storage)dyn_storage"
					},
					{
						"astId": 33,
						"contract": "contracts/MusicStore.sol:MusicStore",
						"label": "orders",
						"offset": 0,
						"slot": "1",
						"type": "t_array(t_struct(Order)22_storage)dyn_storage"
					},
					{
						"astId": 35,
						"contract": "contracts/MusicStore.sol:MusicStore",
						"label": "owner",
						"offset": 0,
						"slot": "2",
						"type": "t_address"
					},
					{
						"astId": 37,
						"contract": "contracts/MusicStore.sol:MusicStore",
						"label": "currentIndex",
						"offset": 0,
						"slot": "3",
						"type": "t_uint256"
					}
				],
				"types": {
					"t_address": {
						"encoding": "inplace",
						"label": "address",
						"numberOfBytes": "20"
					},
					"t_array(t_struct(Album)12_storage)dyn_storage": {
						"base": "t_struct(Album)12_storage",
						"encoding": "dynamic_array",
						"label": "struct MusicStore.Album[]",
						"numberOfBytes": "32"
					},
					"t_array(t_struct(Order)22_storage)dyn_storage": {
						"base": "t_struct(Order)22_storage",
						"encoding": "dynamic_array",
						"label": "struct MusicStore.Order[]",
						"numberOfBytes": "32"
					},
					"t_enum(OrderStatus)25": {
						"encoding": "inplace",
						"label": "enum MusicStore.OrderStatus",
						"numberOfBytes": "1"
					},
					"t_string_storage": {
						"encoding": "bytes",
						"label": "string",
						"numberOfBytes": "32"
					},
					"t_struct(Album)12_storage": {
						"encoding": "inplace",
						"label": "struct MusicStore.Album",
						"members": [
							{
								"astId": 3,
								"contract": "contracts/MusicStore.sol:MusicStore",
								"label": "index",
								"offset": 0,
								"slot": "0",
								"type": "t_uint256"
							},
							{
								"astId": 5,
								"contract": "contracts/MusicStore.sol:MusicStore",
								"label": "uid",
								"offset": 0,
								"slot": "1",
								"type": "t_string_storage"
							},
							{
								"astId": 7,
								"contract": "contracts/MusicStore.sol:MusicStore",
								"label": "title",
								"offset": 0,
								"slot": "2",
								"type": "t_string_storage"
							},
							{
								"astId": 9,
								"contract": "contracts/MusicStore.sol:MusicStore",
								"label": "price",
								"offset": 0,
								"slot": "3",
								"type": "t_uint256"
							},
							{
								"astId": 11,
								"contract": "contracts/MusicStore.sol:MusicStore",
								"label": "quantity",
								"offset": 0,
								"slot": "4",
								"type": "t_uint256"
							}
						],
						"numberOfBytes": "160"
					},
					"t_struct(Order)22_storage": {
						"encoding": "inplace",
						"label": "struct MusicStore.Order",
						"members": [
							{
								"astId": 14,
								"contract": "contracts/MusicStore.sol:MusicStore",
								"label": "albumUid",
								"offset": 0,
								"slot": "0",
								"type": "t_string_storage"
							},
							{
								"astId": 16,
								"contract": "contracts/MusicStore.sol:MusicStore",
								"label": "customer",
								"offset": 0,
								"slot": "1",
								"type": "t_address"
							},
							{
								"astId": 18,
								"contract": "contracts/MusicStore.sol:MusicStore",
								"label": "orderAt",
								"offset": 0,
								"slot": "2",
								"type": "t_uint256"
							},
							{
								"astId": 21,
								"contract": "contracts/MusicStore.sol:MusicStore",
								"label": "status",
								"offset": 0,
								"slot": "3",
								"type": "t_enum(OrderStatus)25"
							}
						],
						"numberOfBytes": "128"
					},
					"t_uint256": {
						"encoding": "inplace",
						"label": "uint256",
						"numberOfBytes": "32"
					}
				}
			},
			"userdoc": {
				"kind": "user",
				"methods": {},
				"version": 1
			}
		}
	}
}