{
	"contracts/MusicStore.sol": {
		"MusicStore": {
			"abi": [
				{
					"inputs": [],
					"stateMutability": "nonpayable",
					"type": "constructor"
				},
				{
					"inputs": [
						{
							"internalType": "uint256",
							"name": "",
							"type": "uint256"
						}
					],
					"name": "albums",
					"outputs": [
						{
							"internalType": "string",
							"name": "uid",
							"type": "string"
						},
						{
							"internalType": "string",
							"name": "title",
							"type": "string"
						},
						{
							"internalType": "uint256",
							"name": "price",
							"type": "uint256"
						},
						{
							"internalType": "uint256",
							"name": "quantity",
							"type": "uint256"
						}
					],
					"stateMutability": "view",
					"type": "function"
				},
				{
					"inputs": [
						{
							"internalType": "uint256",
							"name": "",
							"type": "uint256"
						}
					],
					"name": "orders",
					"outputs": [
						{
							"internalType": "string",
							"name": "albumUid",
							"type": "string"
						},
						{
							"internalType": "address",
							"name": "customer",
							"type": "address"
						},
						{
							"internalType": "uint256",
							"name": "orderAt",
							"type": "uint256"
						},
						{
							"internalType": "enum MusicStore.OrderStatus",
							"name": "status",
							"type": "uint8"
						}
					],
					"stateMutability": "view",
					"type": "function"
				},
				{
					"inputs": [],
					"name": "owner",
					"outputs": [
						{
							"internalType": "address",
							"name": "",
							"type": "address"
						}
					],
					"stateMutability": "view",
					"type": "function"
				}
			],
			"devdoc": {
				"kind": "dev",
				"methods": {},
				"version": 1
			},
			"evm": {
				"assembly": "    /* \"contracts/MusicStore.sol\":57:597  contract MusicStore {... */\n  mstore(0x40, 0x80)\n    /* \"contracts/MusicStore.sol\":545:595  constructor() {... */\n  callvalue\n  dup1\n  iszero\n  tag_1\n  jumpi\n  0x00\n  dup1\n  revert\ntag_1:\n  pop\n    /* \"contracts/MusicStore.sol\":578:588  msg.sender */\n  caller\n    /* \"contracts/MusicStore.sol\":569:588  owner == msg.sender */\n  0xffffffffffffffffffffffffffffffffffffffff\n  and\n    /* \"contracts/MusicStore.sol\":569:574  owner */\n  0x02\n  0x00\n  swap1\n  sload\n  swap1\n  0x0100\n  exp\n  swap1\n  pop\n  pop\n    /* \"contracts/MusicStore.sol\":569:588  owner == msg.sender */\n  pop\n    /* \"contracts/MusicStore.sol\":57:597  contract MusicStore {... */\n  dataSize(sub_0)\n  dup1\n  dataOffset(sub_0)\n  0x00\n  codecopy\n  0x00\n  return\nstop\n\nsub_0: assembly {\n        /* \"contracts/MusicStore.sol\":57:597  contract MusicStore {... */\n      mstore(0x40, 0x80)\n      callvalue\n      dup1\n      iszero\n      tag_1\n      jumpi\n      0x00\n      dup1\n      revert\n    tag_1:\n      pop\n      jumpi(tag_2, lt(calldatasize, 0x04))\n      shr(0xe0, calldataload(0x00))\n      dup1\n      0x8da5cb5b\n      eq\n      tag_3\n      jumpi\n      dup1\n      0xa85c38ef\n      eq\n      tag_4\n      jumpi\n      dup1\n      0xea5df059\n      eq\n      tag_5\n      jumpi\n    tag_2:\n      0x00\n      dup1\n      revert\n        /* \"contracts/MusicStore.sol\":418:438  address public owner */\n    tag_3:\n      tag_6\n      tag_7\n      jump\t// in\n    tag_6:\n      mload(0x40)\n      tag_8\n      swap2\n      swap1\n      tag_9\n      jump\t// in\n    tag_8:\n      mload(0x40)\n      dup1\n      swap2\n      sub\n      swap1\n      return\n        /* \"contracts/MusicStore.sol\":390:411  Order[] public orders */\n    tag_4:\n      tag_10\n      0x04\n      dup1\n      calldatasize\n      sub\n      dup2\n      add\n      swap1\n      tag_11\n      swap2\n      swap1\n      tag_12\n      jump\t// in\n    tag_11:\n      tag_13\n      jump\t// in\n    tag_10:\n      mload(0x40)\n      tag_14\n      swap5\n      swap4\n      swap3\n      swap2\n      swap1\n      tag_15\n      jump\t// in\n    tag_14:\n      mload(0x40)\n      dup1\n      swap2\n      sub\n      swap1\n      return\n        /* \"contracts/MusicStore.sol\":363:384  Album[] public albums */\n    tag_5:\n      tag_16\n      0x04\n      dup1\n      calldatasize\n      sub\n      dup2\n      add\n      swap1\n      tag_17\n      swap2\n      swap1\n      tag_12\n      jump\t// in\n    tag_17:\n      tag_18\n      jump\t// in\n    tag_16:\n      mload(0x40)\n      tag_19\n      swap5\n      swap4\n      swap3\n      swap2\n      swap1\n      tag_20\n      jump\t// in\n    tag_19:\n      mload(0x40)\n      dup1\n      swap2\n      sub\n      swap1\n      return\n        /* \"contracts/MusicStore.sol\":418:438  address public owner */\n    tag_7:\n      0x02\n      0x00\n      swap1\n      sload\n      swap1\n      0x0100\n      exp\n      swap1\n      div\n      0xffffffffffffffffffffffffffffffffffffffff\n      and\n      dup2\n      jump\t// out\n        /* \"contracts/MusicStore.sol\":390:411  Order[] public orders */\n    tag_13:\n      0x01\n      dup2\n      dup2\n      sload\n      dup2\n      lt\n      tag_21\n      jumpi\n      0x00\n      dup1\n      revert\n    tag_21:\n      swap1\n      0x00\n      mstore\n      keccak256(0x00, 0x20)\n      swap1\n      0x04\n      mul\n      add\n      0x00\n      swap2\n      pop\n      swap1\n      pop\n      dup1\n      0x00\n      add\n      dup1\n      sload\n      tag_23\n      swap1\n      tag_24\n      jump\t// in\n    tag_23:\n      dup1\n      0x1f\n      add\n      0x20\n      dup1\n      swap2\n      div\n      mul\n      0x20\n      add\n      mload(0x40)\n      swap1\n      dup2\n      add\n      0x40\n      mstore\n      dup1\n      swap3\n      swap2\n      swap1\n      dup2\n      dup2\n      mstore\n      0x20\n      add\n      dup3\n      dup1\n      sload\n      tag_25\n      swap1\n      tag_24\n      jump\t// in\n    tag_25:\n      dup1\n      iszero\n      tag_26\n      jumpi\n      dup1\n      0x1f\n      lt\n      tag_27\n      jumpi\n      0x0100\n      dup1\n      dup4\n      sload\n      div\n      mul\n      dup4\n      mstore\n      swap2\n      0x20\n      add\n      swap2\n      jump(tag_26)\n    tag_27:\n      dup3\n      add\n      swap2\n      swap1\n      0x00\n      mstore\n      keccak256(0x00, 0x20)\n      swap1\n    tag_28:\n      dup2\n      sload\n      dup2\n      mstore\n      swap1\n      0x01\n      add\n      swap1\n      0x20\n      add\n      dup1\n      dup4\n      gt\n      tag_28\n      jumpi\n      dup3\n      swap1\n      sub\n      0x1f\n      and\n      dup3\n      add\n      swap2\n    tag_26:\n      pop\n      pop\n      pop\n      pop\n      pop\n      swap1\n      dup1\n      0x01\n      add\n      0x00\n      swap1\n      sload\n      swap1\n      0x0100\n      exp\n      swap1\n      div\n      0xffffffffffffffffffffffffffffffffffffffff\n      and\n      swap1\n      dup1\n      0x02\n      add\n      sload\n      swap1\n      dup1\n      0x03\n      add\n      0x00\n      swap1\n      sload\n      swap1\n      0x0100\n      exp\n      swap1\n      div\n      0xff\n      and\n      swap1\n      pop\n      dup5\n      jump\t// out\n        /* \"contracts/MusicStore.sol\":363:384  Album[] public albums */\n    tag_18:\n      0x00\n      dup2\n      dup2\n      sload\n      dup2\n      lt\n      tag_29\n      jumpi\n      0x00\n      dup1\n      revert\n    tag_29:\n      swap1\n      0x00\n      mstore\n      keccak256(0x00, 0x20)\n      swap1\n      0x04\n      mul\n      add\n      0x00\n      swap2\n      pop\n      swap1\n      pop\n      dup1\n      0x00\n      add\n      dup1\n      sload\n      tag_31\n      swap1\n      tag_24\n      jump\t// in\n    tag_31:\n      dup1\n      0x1f\n      add\n      0x20\n      dup1\n      swap2\n      div\n      mul\n      0x20\n      add\n      mload(0x40)\n      swap1\n      dup2\n      add\n      0x40\n      mstore\n      dup1\n      swap3\n      swap2\n      swap1\n      dup2\n      dup2\n      mstore\n      0x20\n      add\n      dup3\n      dup1\n      sload\n      tag_32\n      swap1\n      tag_24\n      jump\t// in\n    tag_32:\n      dup1\n      iszero\n      tag_33\n      jumpi\n      dup1\n      0x1f\n      lt\n      tag_34\n      jumpi\n      0x0100\n      dup1\n      dup4\n      sload\n      div\n      mul\n      dup4\n      mstore\n      swap2\n      0x20\n      add\n      swap2\n      jump(tag_33)\n    tag_34:\n      dup3\n      add\n      swap2\n      swap1\n      0x00\n      mstore\n      keccak256(0x00, 0x20)\n      swap1\n    tag_35:\n      dup2\n      sload\n      dup2\n      mstore\n      swap1\n      0x01\n      add\n      swap1\n      0x20\n      add\n      dup1\n      dup4\n      gt\n      tag_35\n      jumpi\n      dup3\n      swap1\n      sub\n      0x1f\n      and\n      dup3\n      add\n      swap2\n    tag_33:\n      pop\n      pop\n      pop\n      pop\n      pop\n      swap1\n      dup1\n      0x01\n      add\n      dup1\n      sload\n      tag_36\n      swap1\n      tag_24\n      jump\t// in\n    tag_36:\n      dup1\n      0x1f\n      add\n      0x20\n      dup1\n      swap2\n      div\n      mul\n      0x20\n      add\n      mload(0x40)\n      swap1\n      dup2\n      add\n      0x40\n      mstore\n      dup1\n      swap3\n      swap2\n      swap1\n      dup2\n      dup2\n      mstore\n      0x20\n      add\n      dup3\n      dup1\n      sload\n      tag_37\n      swap1\n      tag_24\n      jump\t// in\n    tag_37:\n      dup1\n      iszero\n      tag_38\n      jumpi\n      dup1\n      0x1f\n      lt\n      tag_39\n      jumpi\n      0x0100\n      dup1\n      dup4\n      sload\n      div\n      mul\n      dup4\n      mstore\n      swap2\n      0x20\n      add\n      swap2\n      jump(tag_38)\n    tag_39:\n      dup3\n      add\n      swap2\n      swap1\n      0x00\n      mstore\n      keccak256(0x00, 0x20)\n      swap1\n    tag_40:\n      dup2\n      sload\n      dup2\n      mstore\n      swap1\n      0x01\n      add\n      swap1\n      0x20\n      add\n      dup1\n      dup4\n      gt\n      tag_40\n      jumpi\n      dup3\n      swap1\n      sub\n      0x1f\n      and\n      dup3\n      add\n      swap2\n    tag_38:\n      pop\n      pop\n      pop\n      pop\n      pop\n      swap1\n      dup1\n      0x02\n      add\n      sload\n      swap1\n      dup1\n      0x03\n      add\n      sload\n      swap1\n      pop\n      dup5\n      jump\t// out\n        /* \"#utility.yul\":7:146   */\n    tag_42:\n        /* \"#utility.yul\":53:58   */\n      0x00\n        /* \"#utility.yul\":91:97   */\n      dup2\n        /* \"#utility.yul\":78:98   */\n      calldataload\n        /* \"#utility.yul\":69:98   */\n      swap1\n      pop\n        /* \"#utility.yul\":107:140   */\n      tag_44\n        /* \"#utility.yul\":134:139   */\n      dup2\n        /* \"#utility.yul\":107:140   */\n      tag_45\n      jump\t// in\n    tag_44:\n        /* \"#utility.yul\":7:146   */\n      swap3\n      swap2\n      pop\n      pop\n      jump\t// out\n        /* \"#utility.yul\":152:481   */\n    tag_12:\n        /* \"#utility.yul\":211:217   */\n      0x00\n        /* \"#utility.yul\":260:262   */\n      0x20\n        /* \"#utility.yul\":248:257   */\n      dup3\n        /* \"#utility.yul\":239:246   */\n      dup5\n        /* \"#utility.yul\":235:258   */\n      sub\n        /* \"#utility.yul\":231:263   */\n      slt\n        /* \"#utility.yul\":228:347   */\n      iszero\n      tag_47\n      jumpi\n        /* \"#utility.yul\":266:345   */\n      tag_48\n      tag_49\n      jump\t// in\n    tag_48:\n        /* \"#utility.yul\":228:347   */\n    tag_47:\n        /* \"#utility.yul\":386:387   */\n      0x00\n        /* \"#utility.yul\":411:464   */\n      tag_50\n        /* \"#utility.yul\":456:463   */\n      dup5\n        /* \"#utility.yul\":447:453   */\n      dup3\n        /* \"#utility.yul\":436:445   */\n      dup6\n        /* \"#utility.yul\":432:454   */\n      add\n        /* \"#utility.yul\":411:464   */\n      tag_42\n      jump\t// in\n    tag_50:\n        /* \"#utility.yul\":401:464   */\n      swap2\n      pop\n        /* \"#utility.yul\":357:474   */\n      pop\n        /* \"#utility.yul\":152:481   */\n      swap3\n      swap2\n      pop\n      pop\n      jump\t// out\n        /* \"#utility.yul\":487:605   */\n    tag_51:\n        /* \"#utility.yul\":574:598   */\n      tag_53\n        /* \"#utility.yul\":592:597   */\n      dup2\n        /* \"#utility.yul\":574:598   */\n      tag_54\n      jump\t// in\n    tag_53:\n        /* \"#utility.yul\":569:572   */\n      dup3\n        /* \"#utility.yul\":562:599   */\n      mstore\n        /* \"#utility.yul\":487:605   */\n      pop\n      pop\n      jump\t// out\n        /* \"#utility.yul\":611:766   */\n    tag_55:\n        /* \"#utility.yul\":710:759   */\n      tag_57\n        /* \"#utility.yul\":753:758   */\n      dup2\n        /* \"#utility.yul\":710:759   */\n      tag_58\n      jump\t// in\n    tag_57:\n        /* \"#utility.yul\":705:708   */\n      dup3\n        /* \"#utility.yul\":698:760   */\n      mstore\n        /* \"#utility.yul\":611:766   */\n      pop\n      pop\n      jump\t// out\n        /* \"#utility.yul\":772:1136   */\n    tag_59:\n        /* \"#utility.yul\":860:863   */\n      0x00\n        /* \"#utility.yul\":888:927   */\n      tag_61\n        /* \"#utility.yul\":921:926   */\n      dup3\n        /* \"#utility.yul\":888:927   */\n      tag_62\n      jump\t// in\n    tag_61:\n        /* \"#utility.yul\":943:1014   */\n      tag_63\n        /* \"#utility.yul\":1007:1013   */\n      dup2\n        /* \"#utility.yul\":1002:1005   */\n      dup6\n        /* \"#utility.yul\":943:1014   */\n      tag_64\n      jump\t// in\n    tag_63:\n        /* \"#utility.yul\":936:1014   */\n      swap4\n      pop\n        /* \"#utility.yul\":1023:1075   */\n      tag_65\n        /* \"#utility.yul\":1068:1074   */\n      dup2\n        /* \"#utility.yul\":1063:1066   */\n      dup6\n        /* \"#utility.yul\":1056:1060   */\n      0x20\n        /* \"#utility.yul\":1049:1054   */\n      dup7\n        /* \"#utility.yul\":1045:1061   */\n      add\n        /* \"#utility.yul\":1023:1075   */\n      tag_66\n      jump\t// in\n    tag_65:\n        /* \"#utility.yul\":1100:1129   */\n      tag_67\n        /* \"#utility.yul\":1122:1128   */\n      dup2\n        /* \"#utility.yul\":1100:1129   */\n      tag_68\n      jump\t// in\n    tag_67:\n        /* \"#utility.yul\":1095:1098   */\n      dup5\n        /* \"#utility.yul\":1091:1130   */\n      add\n        /* \"#utility.yul\":1084:1130   */\n      swap2\n      pop\n        /* \"#utility.yul\":864:1136   */\n      pop\n        /* \"#utility.yul\":772:1136   */\n      swap3\n      swap2\n      pop\n      pop\n      jump\t// out\n        /* \"#utility.yul\":1142:1260   */\n    tag_69:\n        /* \"#utility.yul\":1229:1253   */\n      tag_71\n        /* \"#utility.yul\":1247:1252   */\n      dup2\n        /* \"#utility.yul\":1229:1253   */\n      tag_72\n      jump\t// in\n    tag_71:\n        /* \"#utility.yul\":1224:1227   */\n      dup3\n        /* \"#utility.yul\":1217:1254   */\n      mstore\n        /* \"#utility.yul\":1142:1260   */\n      pop\n      pop\n      jump\t// out\n        /* \"#utility.yul\":1266:1488   */\n    tag_9:\n        /* \"#utility.yul\":1359:1363   */\n      0x00\n        /* \"#utility.yul\":1397:1399   */\n      0x20\n        /* \"#utility.yul\":1386:1395   */\n      dup3\n        /* \"#utility.yul\":1382:1400   */\n      add\n        /* \"#utility.yul\":1374:1400   */\n      swap1\n      pop\n        /* \"#utility.yul\":1410:1481   */\n      tag_74\n        /* \"#utility.yul\":1478:1479   */\n      0x00\n        /* \"#utility.yul\":1467:1476   */\n      dup4\n        /* \"#utility.yul\":1463:1480   */\n      add\n        /* \"#utility.yul\":1454:1460   */\n      dup5\n        /* \"#utility.yul\":1410:1481   */\n      tag_51\n      jump\t// in\n    tag_74:\n        /* \"#utility.yul\":1266:1488   */\n      swap3\n      swap2\n      pop\n      pop\n      jump\t// out\n        /* \"#utility.yul\":1494:2162   */\n    tag_15:\n        /* \"#utility.yul\":1703:1707   */\n      0x00\n        /* \"#utility.yul\":1741:1744   */\n      0x80\n        /* \"#utility.yul\":1730:1739   */\n      dup3\n        /* \"#utility.yul\":1726:1745   */\n      add\n        /* \"#utility.yul\":1718:1745   */\n      swap1\n      pop\n        /* \"#utility.yul\":1791:1800   */\n      dup2\n        /* \"#utility.yul\":1785:1789   */\n      dup2\n        /* \"#utility.yul\":1781:1801   */\n      sub\n        /* \"#utility.yul\":1777:1778   */\n      0x00\n        /* \"#utility.yul\":1766:1775   */\n      dup4\n        /* \"#utility.yul\":1762:1779   */\n      add\n        /* \"#utility.yul\":1755:1802   */\n      mstore\n        /* \"#utility.yul\":1819:1897   */\n      tag_76\n        /* \"#utility.yul\":1892:1896   */\n      dup2\n        /* \"#utility.yul\":1883:1889   */\n      dup8\n        /* \"#utility.yul\":1819:1897   */\n      tag_59\n      jump\t// in\n    tag_76:\n        /* \"#utility.yul\":1811:1897   */\n      swap1\n      pop\n        /* \"#utility.yul\":1907:1979   */\n      tag_77\n        /* \"#utility.yul\":1975:1977   */\n      0x20\n        /* \"#utility.yul\":1964:1973   */\n      dup4\n        /* \"#utility.yul\":1960:1978   */\n      add\n        /* \"#utility.yul\":1951:1957   */\n      dup7\n        /* \"#utility.yul\":1907:1979   */\n      tag_51\n      jump\t// in\n    tag_77:\n        /* \"#utility.yul\":1989:2061   */\n      tag_78\n        /* \"#utility.yul\":2057:2059   */\n      0x40\n        /* \"#utility.yul\":2046:2055   */\n      dup4\n        /* \"#utility.yul\":2042:2060   */\n      add\n        /* \"#utility.yul\":2033:2039   */\n      dup6\n        /* \"#utility.yul\":1989:2061   */\n      tag_69\n      jump\t// in\n    tag_78:\n        /* \"#utility.yul\":2071:2155   */\n      tag_79\n        /* \"#utility.yul\":2151:2153   */\n      0x60\n        /* \"#utility.yul\":2140:2149   */\n      dup4\n        /* \"#utility.yul\":2136:2154   */\n      add\n        /* \"#utility.yul\":2127:2133   */\n      dup5\n        /* \"#utility.yul\":2071:2155   */\n      tag_55\n      jump\t// in\n    tag_79:\n        /* \"#utility.yul\":1494:2162   */\n      swap6\n      swap5\n      pop\n      pop\n      pop\n      pop\n      pop\n      jump\t// out\n        /* \"#utility.yul\":2168:2903   */\n    tag_20:\n        /* \"#utility.yul\":2385:2389   */\n      0x00\n        /* \"#utility.yul\":2423:2426   */\n      0x80\n        /* \"#utility.yul\":2412:2421   */\n      dup3\n        /* \"#utility.yul\":2408:2427   */\n      add\n        /* \"#utility.yul\":2400:2427   */\n      swap1\n      pop\n        /* \"#utility.yul\":2473:2482   */\n      dup2\n        /* \"#utility.yul\":2467:2471   */\n      dup2\n        /* \"#utility.yul\":2463:2483   */\n      sub\n        /* \"#utility.yul\":2459:2460   */\n      0x00\n        /* \"#utility.yul\":2448:2457   */\n      dup4\n        /* \"#utility.yul\":2444:2461   */\n      add\n        /* \"#utility.yul\":2437:2484   */\n      mstore\n        /* \"#utility.yul\":2501:2579   */\n      tag_81\n        /* \"#utility.yul\":2574:2578   */\n      dup2\n        /* \"#utility.yul\":2565:2571   */\n      dup8\n        /* \"#utility.yul\":2501:2579   */\n      tag_59\n      jump\t// in\n    tag_81:\n        /* \"#utility.yul\":2493:2579   */\n      swap1\n      pop\n        /* \"#utility.yul\":2626:2635   */\n      dup2\n        /* \"#utility.yul\":2620:2624   */\n      dup2\n        /* \"#utility.yul\":2616:2636   */\n      sub\n        /* \"#utility.yul\":2611:2613   */\n      0x20\n        /* \"#utility.yul\":2600:2609   */\n      dup4\n        /* \"#utility.yul\":2596:2614   */\n      add\n        /* \"#utility.yul\":2589:2637   */\n      mstore\n        /* \"#utility.yul\":2654:2732   */\n      tag_82\n        /* \"#utility.yul\":2727:2731   */\n      dup2\n        /* \"#utility.yul\":2718:2724   */\n      dup7\n        /* \"#utility.yul\":2654:2732   */\n      tag_59\n      jump\t// in\n    tag_82:\n        /* \"#utility.yul\":2646:2732   */\n      swap1\n      pop\n        /* \"#utility.yul\":2742:2814   */\n      tag_83\n        /* \"#utility.yul\":2810:2812   */\n      0x40\n        /* \"#utility.yul\":2799:2808   */\n      dup4\n        /* \"#utility.yul\":2795:2813   */\n      add\n        /* \"#utility.yul\":2786:2792   */\n      dup6\n        /* \"#utility.yul\":2742:2814   */\n      tag_69\n      jump\t// in\n    tag_83:\n        /* \"#utility.yul\":2824:2896   */\n      tag_84\n        /* \"#utility.yul\":2892:2894   */\n      0x60\n        /* \"#utility.yul\":2881:2890   */\n      dup4\n        /* \"#utility.yul\":2877:2895   */\n      add\n        /* \"#utility.yul\":2868:2874   */\n      dup5\n        /* \"#utility.yul\":2824:2896   */\n      tag_69\n      jump\t// in\n    tag_84:\n        /* \"#utility.yul\":2168:2903   */\n      swap6\n      swap5\n      pop\n      pop\n      pop\n      pop\n      pop\n      jump\t// out\n        /* \"#utility.yul\":2990:3089   */\n    tag_62:\n        /* \"#utility.yul\":3042:3048   */\n      0x00\n        /* \"#utility.yul\":3076:3081   */\n      dup2\n        /* \"#utility.yul\":3070:3082   */\n      mload\n        /* \"#utility.yul\":3060:3082   */\n      swap1\n      pop\n        /* \"#utility.yul\":2990:3089   */\n      swap2\n      swap1\n      pop\n      jump\t// out\n        /* \"#utility.yul\":3095:3264   */\n    tag_64:\n        /* \"#utility.yul\":3179:3190   */\n      0x00\n        /* \"#utility.yul\":3213:3219   */\n      dup3\n        /* \"#utility.yul\":3208:3211   */\n      dup3\n        /* \"#utility.yul\":3201:3220   */\n      mstore\n        /* \"#utility.yul\":3253:3257   */\n      0x20\n        /* \"#utility.yul\":3248:3251   */\n      dup3\n        /* \"#utility.yul\":3244:3258   */\n      add\n        /* \"#utility.yul\":3229:3258   */\n      swap1\n      pop\n        /* \"#utility.yul\":3095:3264   */\n      swap3\n      swap2\n      pop\n      pop\n      jump\t// out\n        /* \"#utility.yul\":3270:3366   */\n    tag_54:\n        /* \"#utility.yul\":3307:3314   */\n      0x00\n        /* \"#utility.yul\":3336:3360   */\n      tag_90\n        /* \"#utility.yul\":3354:3359   */\n      dup3\n        /* \"#utility.yul\":3336:3360   */\n      tag_91\n      jump\t// in\n    tag_90:\n        /* \"#utility.yul\":3325:3360   */\n      swap1\n      pop\n        /* \"#utility.yul\":3270:3366   */\n      swap2\n      swap1\n      pop\n      jump\t// out\n        /* \"#utility.yul\":3372:3511   */\n    tag_92:\n        /* \"#utility.yul\":3423:3430   */\n      0x00\n        /* \"#utility.yul\":3452:3457   */\n      dup2\n        /* \"#utility.yul\":3441:3457   */\n      swap1\n      pop\n        /* \"#utility.yul\":3458:3505   */\n      tag_94\n        /* \"#utility.yul\":3499:3504   */\n      dup3\n        /* \"#utility.yul\":3458:3505   */\n      tag_95\n      jump\t// in\n    tag_94:\n        /* \"#utility.yul\":3372:3511   */\n      swap2\n      swap1\n      pop\n      jump\t// out\n        /* \"#utility.yul\":3517:3643   */\n    tag_91:\n        /* \"#utility.yul\":3554:3561   */\n      0x00\n        /* \"#utility.yul\":3594:3636   */\n      0xffffffffffffffffffffffffffffffffffffffff\n        /* \"#utility.yul\":3587:3592   */\n      dup3\n        /* \"#utility.yul\":3583:3637   */\n      and\n        /* \"#utility.yul\":3572:3637   */\n      swap1\n      pop\n        /* \"#utility.yul\":3517:3643   */\n      swap2\n      swap1\n      pop\n      jump\t// out\n        /* \"#utility.yul\":3649:3726   */\n    tag_72:\n        /* \"#utility.yul\":3686:3693   */\n      0x00\n        /* \"#utility.yul\":3715:3720   */\n      dup2\n        /* \"#utility.yul\":3704:3720   */\n      swap1\n      pop\n        /* \"#utility.yul\":3649:3726   */\n      swap2\n      swap1\n      pop\n      jump\t// out\n        /* \"#utility.yul\":3732:3871   */\n    tag_58:\n        /* \"#utility.yul\":3794:3803   */\n      0x00\n        /* \"#utility.yul\":3827:3865   */\n      tag_99\n        /* \"#utility.yul\":3859:3864   */\n      dup3\n        /* \"#utility.yul\":3827:3865   */\n      tag_92\n      jump\t// in\n    tag_99:\n        /* \"#utility.yul\":3814:3865   */\n      swap1\n      pop\n        /* \"#utility.yul\":3732:3871   */\n      swap2\n      swap1\n      pop\n      jump\t// out\n        /* \"#utility.yul\":3877:4184   */\n    tag_66:\n        /* \"#utility.yul\":3945:3946   */\n      0x00\n        /* \"#utility.yul\":3955:4068   */\n    tag_101:\n        /* \"#utility.yul\":3969:3975   */\n      dup4\n        /* \"#utility.yul\":3966:3967   */\n      dup2\n        /* \"#utility.yul\":3963:3976   */\n      lt\n        /* \"#utility.yul\":3955:4068   */\n      iszero\n      tag_103\n      jumpi\n        /* \"#utility.yul\":4054:4055   */\n      dup1\n        /* \"#utility.yul\":4049:4052   */\n      dup3\n        /* \"#utility.yul\":4045:4056   */\n      add\n        /* \"#utility.yul\":4039:4057   */\n      mload\n        /* \"#utility.yul\":4035:4036   */\n      dup2\n        /* \"#utility.yul\":4030:4033   */\n      dup5\n        /* \"#utility.yul\":4026:4037   */\n      add\n        /* \"#utility.yul\":4019:4058   */\n      mstore\n        /* \"#utility.yul\":3991:3993   */\n      0x20\n        /* \"#utility.yul\":3988:3989   */\n      dup2\n        /* \"#utility.yul\":3984:3994   */\n      add\n        /* \"#utility.yul\":3979:3994   */\n      swap1\n      pop\n        /* \"#utility.yul\":3955:4068   */\n      jump(tag_101)\n    tag_103:\n        /* \"#utility.yul\":4086:4092   */\n      dup4\n        /* \"#utility.yul\":4083:4084   */\n      dup2\n        /* \"#utility.yul\":4080:4093   */\n      gt\n        /* \"#utility.yul\":4077:4178   */\n      iszero\n      tag_104\n      jumpi\n        /* \"#utility.yul\":4166:4167   */\n      0x00\n        /* \"#utility.yul\":4157:4163   */\n      dup5\n        /* \"#utility.yul\":4152:4155   */\n      dup5\n        /* \"#utility.yul\":4148:4164   */\n      add\n        /* \"#utility.yul\":4141:4168   */\n      mstore\n        /* \"#utility.yul\":4077:4178   */\n    tag_104:\n        /* \"#utility.yul\":3926:4184   */\n      pop\n        /* \"#utility.yul\":3877:4184   */\n      pop\n      pop\n      pop\n      jump\t// out\n        /* \"#utility.yul\":4190:4510   */\n    tag_24:\n        /* \"#utility.yul\":4234:4240   */\n      0x00\n        /* \"#utility.yul\":4271:4272   */\n      0x02\n        /* \"#utility.yul\":4265:4269   */\n      dup3\n        /* \"#utility.yul\":4261:4273   */\n      div\n        /* \"#utility.yul\":4251:4273   */\n      swap1\n      pop\n        /* \"#utility.yul\":4318:4319   */\n      0x01\n        /* \"#utility.yul\":4312:4316   */\n      dup3\n        /* \"#utility.yul\":4308:4320   */\n      and\n        /* \"#utility.yul\":4339:4357   */\n      dup1\n        /* \"#utility.yul\":4329:4410   */\n      tag_106\n      jumpi\n        /* \"#utility.yul\":4395:4399   */\n      0x7f\n        /* \"#utility.yul\":4387:4393   */\n      dup3\n        /* \"#utility.yul\":4383:4400   */\n      and\n        /* \"#utility.yul\":4373:4400   */\n      swap2\n      pop\n        /* \"#utility.yul\":4329:4410   */\n    tag_106:\n        /* \"#utility.yul\":4457:4459   */\n      0x20\n        /* \"#utility.yul\":4449:4455   */\n      dup3\n        /* \"#utility.yul\":4446:4460   */\n      lt\n        /* \"#utility.yul\":4426:4444   */\n      dup2\n        /* \"#utility.yul\":4423:4461   */\n      eq\n        /* \"#utility.yul\":4420:4504   */\n      iszero\n      tag_107\n      jumpi\n        /* \"#utility.yul\":4476:4494   */\n      tag_108\n      tag_109\n      jump\t// in\n    tag_108:\n        /* \"#utility.yul\":4420:4504   */\n    tag_107:\n        /* \"#utility.yul\":4241:4510   */\n      pop\n        /* \"#utility.yul\":4190:4510   */\n      swap2\n      swap1\n      pop\n      jump\t// out\n        /* \"#utility.yul\":4516:4696   */\n    tag_110:\n        /* \"#utility.yul\":4564:4641   */\n      0x4e487b7100000000000000000000000000000000000000000000000000000000\n        /* \"#utility.yul\":4561:4562   */\n      0x00\n        /* \"#utility.yul\":4554:4642   */\n      mstore\n        /* \"#utility.yul\":4661:4665   */\n      0x21\n        /* \"#utility.yul\":4658:4659   */\n      0x04\n        /* \"#utility.yul\":4651:4666   */\n      mstore\n        /* \"#utility.yul\":4685:4689   */\n      0x24\n        /* \"#utility.yul\":4682:4683   */\n      0x00\n        /* \"#utility.yul\":4675:4690   */\n      revert\n        /* \"#utility.yul\":4702:4882   */\n    tag_109:\n        /* \"#utility.yul\":4750:4827   */\n      0x4e487b7100000000000000000000000000000000000000000000000000000000\n        /* \"#utility.yul\":4747:4748   */\n      0x00\n        /* \"#utility.yul\":4740:4828   */\n      mstore\n        /* \"#utility.yul\":4847:4851   */\n      0x22\n        /* \"#utility.yul\":4844:4845   */\n      0x04\n        /* \"#utility.yul\":4837:4852   */\n      mstore\n        /* \"#utility.yul\":4871:4875   */\n      0x24\n        /* \"#utility.yul\":4868:4869   */\n      0x00\n        /* \"#utility.yul\":4861:4876   */\n      revert\n        /* \"#utility.yul\":5011:5128   */\n    tag_49:\n        /* \"#utility.yul\":5120:5121   */\n      0x00\n        /* \"#utility.yul\":5117:5118   */\n      dup1\n        /* \"#utility.yul\":5110:5122   */\n      revert\n        /* \"#utility.yul\":5134:5236   */\n    tag_68:\n        /* \"#utility.yul\":5175:5181   */\n      0x00\n        /* \"#utility.yul\":5226:5228   */\n      0x1f\n        /* \"#utility.yul\":5222:5229   */\n      not\n        /* \"#utility.yul\":5217:5219   */\n      0x1f\n        /* \"#utility.yul\":5210:5215   */\n      dup4\n        /* \"#utility.yul\":5206:5220   */\n      add\n        /* \"#utility.yul\":5202:5230   */\n      and\n        /* \"#utility.yul\":5192:5230   */\n      swap1\n      pop\n        /* \"#utility.yul\":5134:5236   */\n      swap2\n      swap1\n      pop\n      jump\t// out\n        /* \"#utility.yul\":5242:5361   */\n    tag_95:\n        /* \"#utility.yul\":5329:5330   */\n      0x02\n        /* \"#utility.yul\":5322:5327   */\n      dup2\n        /* \"#utility.yul\":5319:5331   */\n      lt\n        /* \"#utility.yul\":5309:5355   */\n      tag_118\n      jumpi\n        /* \"#utility.yul\":5335:5353   */\n      tag_119\n      tag_110\n      jump\t// in\n    tag_119:\n        /* \"#utility.yul\":5309:5355   */\n    tag_118:\n        /* \"#utility.yul\":5242:5361   */\n      pop\n      jump\t// out\n        /* \"#utility.yul\":5367:5489   */\n    tag_45:\n        /* \"#utility.yul\":5440:5464   */\n      tag_121\n        /* \"#utility.yul\":5458:5463   */\n      dup2\n        /* \"#utility.yul\":5440:5464   */\n      tag_72\n      jump\t// in\n    tag_121:\n        /* \"#utility.yul\":5433:5438   */\n      dup2\n        /* \"#utility.yul\":5430:5465   */\n      eq\n        /* \"#utility.yul\":5420:5483   */\n      tag_122\n      jumpi\n        /* \"#utility.yul\":5479:5480   */\n      0x00\n        /* \"#utility.yul\":5476:5477   */\n      dup1\n        /* \"#utility.yul\":5469:5481   */\n      revert\n        /* \"#utility.yul\":5420:5483   */\n    tag_122:\n        /* \"#utility.yul\":5367:5489   */\n      pop\n      jump\t// out\n\n    auxdata: 0xa264697066735822122022b5d11f2441d9edf19a682d199376a4daf892229bca21f9d1cdb3771c42a30e64736f6c63430008070033\n}\n",
				"bytecode": {
					"linkReferences": {},
					"object": "608060405234801561001057600080fd5b503373ffffffffffffffffffffffffffffffffffffffff16600260009054906101000a9050505061064e806100466000396000f3fe608060405234801561001057600080fd5b50600436106100415760003560e01c80638da5cb5b14610046578063a85c38ef14610064578063ea5df05914610097575b600080fd5b61004e6100ca565b60405161005b91906103dd565b60405180910390f35b61007e6004803603810190610079919061034a565b6100f0565b60405161008e94939291906103f8565b60405180910390f35b6100b160048036038101906100ac919061034a565b6101e5565b6040516100c19493929190610444565b60405180910390f35b600260009054906101000a900473ffffffffffffffffffffffffffffffffffffffff1681565b6001818154811061010057600080fd5b906000526020600020906004020160009150905080600001805461012390610547565b80601f016020809104026020016040519081016040528092919081815260200182805461014f90610547565b801561019c5780601f106101715761010080835404028352916020019161019c565b820191906000526020600020905b81548152906001019060200180831161017f57829003601f168201915b5050505050908060010160009054906101000a900473ffffffffffffffffffffffffffffffffffffffff16908060020154908060030160009054906101000a900460ff16905084565b600081815481106101f557600080fd5b906000526020600020906004020160009150905080600001805461021890610547565b80601f016020809104026020016040519081016040528092919081815260200182805461024490610547565b80156102915780601f1061026657610100808354040283529160200191610291565b820191906000526020600020905b81548152906001019060200180831161027457829003601f168201915b5050505050908060010180546102a690610547565b80601f01602080910402602001604051908101604052809291908181526020018280546102d290610547565b801561031f5780601f106102f45761010080835404028352916020019161031f565b820191906000526020600020905b81548152906001019060200180831161030257829003601f168201915b5050505050908060020154908060030154905084565b60008135905061034481610601565b92915050565b6000602082840312156103605761035f6105d7565b5b600061036e84828501610335565b91505092915050565b610380816104b3565b82525050565b61038f81610502565b82525050565b60006103a082610497565b6103aa81856104a2565b93506103ba818560208601610514565b6103c3816105dc565b840191505092915050565b6103d7816104f8565b82525050565b60006020820190506103f26000830184610377565b92915050565b600060808201905081810360008301526104128187610395565b90506104216020830186610377565b61042e60408301856103ce565b61043b6060830184610386565b95945050505050565b6000608082019050818103600083015261045e8187610395565b905081810360208301526104728186610395565b905061048160408301856103ce565b61048e60608301846103ce565b95945050505050565b600081519050919050565b600082825260208201905092915050565b60006104be826104d8565b9050919050565b60008190506104d3826105ed565b919050565b600073ffffffffffffffffffffffffffffffffffffffff82169050919050565b6000819050919050565b600061050d826104c5565b9050919050565b60005b83811015610532578082015181840152602081019050610517565b83811115610541576000848401525b50505050565b6000600282049050600182168061055f57607f821691505b60208210811415610573576105726105a8565b5b50919050565b7f4e487b7100000000000000000000000000000000000000000000000000000000600052602160045260246000fd5b7f4e487b7100000000000000000000000000000000000000000000000000000000600052602260045260246000fd5b600080fd5b6000601f19601f8301169050919050565b600281106105fe576105fd610579565b5b50565b61060a816104f8565b811461061557600080fd5b5056fea264697066735822122022b5d11f2441d9edf19a682d199376a4daf892229bca21f9d1cdb3771c42a30e64736f6c63430008070033",
					"opcodes": "PUSH1 0x80 PUSH1 0x40 MSTORE CALLVALUE DUP1 ISZERO PUSH2 0x10 JUMPI PUSH1 0x0 DUP1 REVERT JUMPDEST POP CALLER PUSH20 0xFFFFFFFFFFFFFFFFFFFFFFFFFFFFFFFFFFFFFFFF AND PUSH1 0x2 PUSH1 0x0 SWAP1 SLOAD SWAP1 PUSH2 0x100 EXP SWAP1 POP POP POP PUSH2 0x64E DUP1 PUSH2 0x46 PUSH1 0x0 CODECOPY PUSH1 0x0 RETURN INVALID PUSH1 0x80 PUSH1 0x40 MSTORE CALLVALUE DUP1 ISZERO PUSH2 0x10 JUMPI PUSH1 0x0 DUP1 REVERT JUMPDEST POP PUSH1 0x4 CALLDATASIZE LT PUSH2 0x41 JUMPI PUSH1 0x0 CALLDATALOAD PUSH1 0xE0 SHR DUP1 PUSH4 0x8DA5CB5B EQ PUSH2 0x46 JUMPI DUP1 PUSH4 0xA85C38EF EQ PUSH2 0x64 JUMPI DUP1 PUSH4 0xEA5DF059 EQ PUSH2 0x97 JUMPI JUMPDEST PUSH1 0x0 DUP1 REVERT JUMPDEST PUSH2 0x4E PUSH2 0xCA JUMP JUMPDEST PUSH1 0x40 MLOAD PUSH2 0x5B SWAP2 SWAP1 PUSH2 0x3DD JUMP JUMPDEST PUSH1 0x40 MLOAD DUP1 SWAP2 SUB SWAP1 RETURN JUMPDEST PUSH2 0x7E PUSH1 0x4 DUP1 CALLDATASIZE SUB DUP2 ADD SWAP1 PUSH2 0x79 SWAP2 SWAP1 PUSH2 0x34A JUMP JUMPDEST PUSH2 0xF0 JUMP JUMPDEST PUSH1 0x40 MLOAD PUSH2 0x8E SWAP5 SWAP4 SWAP3 SWAP2 SWAP1 PUSH2 0x3F8 JUMP JUMPDEST PUSH1 0x40 MLOAD DUP1 SWAP2 SUB SWAP1 RETURN JUMPDEST PUSH2 0xB1 PUSH1 0x4 DUP1 CALLDATASIZE SUB DUP2 ADD SWAP1 PUSH2 0xAC SWAP2 SWAP1 PUSH2 0x34A JUMP JUMPDEST PUSH2 0x1E5 JUMP JUMPDEST PUSH1 0x40 MLOAD PUSH2 0xC1 SWAP5 SWAP4 SWAP3 SWAP2 SWAP1 PUSH2 0x444 JUMP JUMPDEST PUSH1 0x40 MLOAD DUP1 SWAP2 SUB SWAP1 RETURN JUMPDEST PUSH1 0x2 PUSH1 0x0 SWAP1 SLOAD SWAP1 PUSH2 0x100 EXP SWAP1 DIV PUSH20 0xFFFFFFFFFFFFFFFFFFFFFFFFFFFFFFFFFFFFFFFF AND DUP2 JUMP JUMPDEST PUSH1 0x1 DUP2 DUP2 SLOAD DUP2 LT PUSH2 0x100 JUMPI PUSH1 0x0 DUP1 REVERT JUMPDEST SWAP1 PUSH1 0x0 MSTORE PUSH1 0x20 PUSH1 0x0 KECCAK256 SWAP1 PUSH1 0x4 MUL ADD PUSH1 0x0 SWAP2 POP SWAP1 POP DUP1 PUSH1 0x0 ADD DUP1 SLOAD PUSH2 0x123 SWAP1 PUSH2 0x547 JUMP JUMPDEST DUP1 PUSH1 0x1F ADD PUSH1 0x20 DUP1 SWAP2 DIV MUL PUSH1 0x20 ADD PUSH1 0x40 MLOAD SWAP1 DUP2 ADD PUSH1 0x40 MSTORE DUP1 SWAP3 SWAP2 SWAP1 DUP2 DUP2 MSTORE PUSH1 0x20 ADD DUP3 DUP1 SLOAD PUSH2 0x14F SWAP1 PUSH2 0x547 JUMP JUMPDEST DUP1 ISZERO PUSH2 0x19C JUMPI DUP1 PUSH1 0x1F LT PUSH2 0x171 JUMPI PUSH2 0x100 DUP1 DUP4 SLOAD DIV MUL DUP4 MSTORE SWAP2 PUSH1 0x20 ADD SWAP2 PUSH2 0x19C JUMP JUMPDEST DUP3 ADD SWAP2 SWAP1 PUSH1 0x0 MSTORE PUSH1 0x20 PUSH1 0x0 KECCAK256 SWAP1 JUMPDEST DUP2 SLOAD DUP2 MSTORE SWAP1 PUSH1 0x1 ADD SWAP1 PUSH1 0x20 ADD DUP1 DUP4 GT PUSH2 0x17F JUMPI DUP3 SWAP1 SUB PUSH1 0x1F AND DUP3 ADD SWAP2 JUMPDEST POP POP POP POP POP SWAP1 DUP1 PUSH1 0x1 ADD PUSH1 0x0 SWAP1 SLOAD SWAP1 PUSH2 0x100 EXP SWAP1 DIV PUSH20 0xFFFFFFFFFFFFFFFFFFFFFFFFFFFFFFFFFFFFFFFF AND SWAP1 DUP1 PUSH1 0x2 ADD SLOAD SWAP1 DUP1 PUSH1 0x3 ADD PUSH1 0x0 SWAP1 SLOAD SWAP1 PUSH2 0x100 EXP SWAP1 DIV PUSH1 0xFF AND SWAP1 POP DUP5 JUMP JUMPDEST PUSH1 0x0 DUP2 DUP2 SLOAD DUP2 LT PUSH2 0x1F5 JUMPI PUSH1 0x0 DUP1 REVERT JUMPDEST SWAP1 PUSH1 0x0 MSTORE PUSH1 0x20 PUSH1 0x0 KECCAK256 SWAP1 PUSH1 0x4 MUL ADD PUSH1 0x0 SWAP2 POP SWAP1 POP DUP1 PUSH1 0x0 ADD DUP1 SLOAD PUSH2 0x218 SWAP1 PUSH2 0x547 JUMP JUMPDEST DUP1 PUSH1 0x1F ADD PUSH1 0x20 DUP1 SWAP2 DIV MUL PUSH1 0x20 ADD PUSH1 0x40 MLOAD SWAP1 DUP2 ADD PUSH1 0x40 MSTORE DUP1 SWAP3 SWAP2 SWAP1 DUP2 DUP2 MSTORE PUSH1 0x20 ADD DUP3 DUP1 SLOAD PUSH2 0x244 SWAP1 PUSH2 0x547 JUMP JUMPDEST DUP1 ISZERO PUSH2 0x291 JUMPI DUP1 PUSH1 0x1F LT PUSH2 0x266 JUMPI PUSH2 0x100 DUP1 DUP4 SLOAD DIV MUL DUP4 MSTORE SWAP2 PUSH1 0x20 ADD SWAP2 PUSH2 0x291 JUMP JUMPDEST DUP3 ADD SWAP2 SWAP1 PUSH1 0x0 MSTORE PUSH1 0x20 PUSH1 0x0 KECCAK256 SWAP1 JUMPDEST DUP2 SLOAD DUP2 MSTORE SWAP1 PUSH1 0x1 ADD SWAP1 PUSH1 0x20 ADD DUP1 DUP4 GT PUSH2 0x274 JUMPI DUP3 SWAP1 SUB PUSH1 0x1F AND DUP3 ADD SWAP2 JUMPDEST POP POP POP POP POP SWAP1 DUP1 PUSH1 0x1 ADD DUP1 SLOAD PUSH2 0x2A6 SWAP1 PUSH2 0x547 JUMP JUMPDEST DUP1 PUSH1 0x1F ADD PUSH1 0x20 DUP1 SWAP2 DIV MUL PUSH1 0x20 ADD PUSH1 0x40 MLOAD SWAP1 DUP2 ADD PUSH1 0x40 MSTORE DUP1 SWAP3 SWAP2 SWAP1 DUP2 DUP2 MSTORE PUSH1 0x20 ADD DUP3 DUP1 SLOAD PUSH2 0x2D2 SWAP1 PUSH2 0x547 JUMP JUMPDEST DUP1 ISZERO PUSH2 0x31F JUMPI DUP1 PUSH1 0x1F LT PUSH2 0x2F4 JUMPI PUSH2 0x100 DUP1 DUP4 SLOAD DIV MUL DUP4 MSTORE SWAP2 PUSH1 0x20 ADD SWAP2 PUSH2 0x31F JUMP JUMPDEST DUP3 ADD SWAP2 SWAP1 PUSH1 0x0 MSTORE PUSH1 0x20 PUSH1 0x0 KECCAK256 SWAP1 JUMPDEST DUP2 SLOAD DUP2 MSTORE SWAP1 PUSH1 0x1 ADD SWAP1 PUSH1 0x20 ADD DUP1 DUP4 GT PUSH2 0x302 JUMPI DUP3 SWAP1 SUB PUSH1 0x1F AND DUP3 ADD SWAP2 JUMPDEST POP POP POP POP POP SWAP1 DUP1 PUSH1 0x2 ADD SLOAD SWAP1 DUP1 PUSH1 0x3 ADD SLOAD SWAP1 POP DUP5 JUMP JUMPDEST PUSH1 0x0 DUP2 CALLDATALOAD SWAP1 POP PUSH2 0x344 DUP2 PUSH2 0x601 JUMP JUMPDEST SWAP3 SWAP2 POP POP JUMP JUMPDEST PUSH1 0x0 PUSH1 0x20 DUP3 DUP5 SUB SLT ISZERO PUSH2 0x360 JUMPI PUSH2 0x35F PUSH2 0x5D7 JUMP JUMPDEST JUMPDEST PUSH1 0x0 PUSH2 0x36E DUP5 DUP3 DUP6 ADD PUSH2 0x335 JUMP JUMPDEST SWAP2 POP POP SWAP3 SWAP2 POP POP JUMP JUMPDEST PUSH2 0x380 DUP2 PUSH2 0x4B3 JUMP JUMPDEST DUP3 MSTORE POP POP JUMP JUMPDEST PUSH2 0x38F DUP2 PUSH2 0x502 JUMP JUMPDEST DUP3 MSTORE POP POP JUMP JUMPDEST PUSH1 0x0 PUSH2 0x3A0 DUP3 PUSH2 0x497 JUMP JUMPDEST PUSH2 0x3AA DUP2 DUP6 PUSH2 0x4A2 JUMP JUMPDEST SWAP4 POP PUSH2 0x3BA DUP2 DUP6 PUSH1 0x20 DUP7 ADD PUSH2 0x514 JUMP JUMPDEST PUSH2 0x3C3 DUP2 PUSH2 0x5DC JUMP JUMPDEST DUP5 ADD SWAP2 POP POP SWAP3 SWAP2 POP POP JUMP JUMPDEST PUSH2 0x3D7 DUP2 PUSH2 0x4F8 JUMP JUMPDEST DUP3 MSTORE POP POP JUMP JUMPDEST PUSH1 0x0 PUSH1 0x20 DUP3 ADD SWAP1 POP PUSH2 0x3F2 PUSH1 0x0 DUP4 ADD DUP5 PUSH2 0x377 JUMP JUMPDEST SWAP3 SWAP2 POP POP JUMP JUMPDEST PUSH1 0x0 PUSH1 0x80 DUP3 ADD SWAP1 POP DUP2 DUP2 SUB PUSH1 0x0 DUP4 ADD MSTORE PUSH2 0x412 DUP2 DUP8 PUSH2 0x395 JUMP JUMPDEST SWAP1 POP PUSH2 0x421 PUSH1 0x20 DUP4 ADD DUP7 PUSH2 0x377 JUMP JUMPDEST PUSH2 0x42E PUSH1 0x40 DUP4 ADD DUP6 PUSH2 0x3CE JUMP JUMPDEST PUSH2 0x43B PUSH1 0x60 DUP4 ADD DUP5 PUSH2 0x386 JUMP JUMPDEST SWAP6 SWAP5 POP POP POP POP POP JUMP JUMPDEST PUSH1 0x0 PUSH1 0x80 DUP3 ADD SWAP1 POP DUP2 DUP2 SUB PUSH1 0x0 DUP4 ADD MSTORE PUSH2 0x45E DUP2 DUP8 PUSH2 0x395 JUMP JUMPDEST SWAP1 POP DUP2 DUP2 SUB PUSH1 0x20 DUP4 ADD MSTORE PUSH2 0x472 DUP2 DUP7 PUSH2 0x395 JUMP JUMPDEST SWAP1 POP PUSH2 0x481 PUSH1 0x40 DUP4 ADD DUP6 PUSH2 0x3CE JUMP JUMPDEST PUSH2 0x48E PUSH1 0x60 DUP4 ADD DUP5 PUSH2 0x3CE JUMP JUMPDEST SWAP6 SWAP5 POP POP POP POP POP JUMP JUMPDEST PUSH1 0x0 DUP2 MLOAD SWAP1 POP SWAP2 SWAP1 POP JUMP JUMPDEST PUSH1 0x0 DUP3 DUP3 MSTORE PUSH1 0x20 DUP3 ADD SWAP1 POP SWAP3 SWAP2 POP POP JUMP JUMPDEST PUSH1 0x0 PUSH2 0x4BE DUP3 PUSH2 0x4D8 JUMP JUMPDEST SWAP1 POP SWAP2 SWAP1 POP JUMP JUMPDEST PUSH1 0x0 DUP2 SWAP1 POP PUSH2 0x4D3 DUP3 PUSH2 0x5ED JUMP JUMPDEST SWAP2 SWAP1 POP JUMP JUMPDEST PUSH1 0x0 PUSH20 0xFFFFFFFFFFFFFFFFFFFFFFFFFFFFFFFFFFFFFFFF DUP3 AND SWAP1 POP SWAP2 SWAP1 POP JUMP JUMPDEST PUSH1 0x0 DUP2 SWAP1 POP SWAP2 SWAP1 POP JUMP JUMPDEST PUSH1 0x0 PUSH2 0x50D DUP3 PUSH2 0x4C5 JUMP JUMPDEST SWAP1 POP SWAP2 SWAP1 POP JUMP JUMPDEST PUSH1 0x0 JUMPDEST DUP4 DUP2 LT ISZERO PUSH2 0x532 JUMPI DUP1 DUP3 ADD MLOAD DUP2 DUP5 ADD MSTORE PUSH1 0x20 DUP2 ADD SWAP1 POP PUSH2 0x517 JUMP JUMPDEST DUP4 DUP2 GT ISZERO PUSH2 0x541 JUMPI PUSH1 0x0 DUP5 DUP5 ADD MSTORE JUMPDEST POP POP POP POP JUMP JUMPDEST PUSH1 0x0 PUSH1 0x2 DUP3 DIV SWAP1 POP PUSH1 0x1 DUP3 AND DUP1 PUSH2 0x55F JUMPI PUSH1 0x7F DUP3 AND SWAP2 POP JUMPDEST PUSH1 0x20 DUP3 LT DUP2 EQ ISZERO PUSH2 0x573 JUMPI PUSH2 0x572 PUSH2 0x5A8 JUMP JUMPDEST JUMPDEST POP SWAP2 SWAP1 POP JUMP JUMPDEST PUSH32 0x4E487B7100000000000000000000000000000000000000000000000000000000 PUSH1 0x0 MSTORE PUSH1 0x21 PUSH1 0x4 MSTORE PUSH1 0x24 PUSH1 0x0 REVERT JUMPDEST PUSH32 0x4E487B7100000000000000000000000000000000000000000000000000000000 PUSH1 0x0 MSTORE PUSH1 0x22 PUSH1 0x4 MSTORE PUSH1 0x24 PUSH1 0x0 REVERT JUMPDEST PUSH1 0x0 DUP1 REVERT JUMPDEST PUSH1 0x0 PUSH1 0x1F NOT PUSH1 0x1F DUP4 ADD AND SWAP1 POP SWAP2 SWAP1 POP JUMP JUMPDEST PUSH1 0x2 DUP2 LT PUSH2 0x5FE JUMPI PUSH2 0x5FD PUSH2 0x579 JUMP JUMPDEST JUMPDEST POP JUMP JUMPDEST PUSH2 0x60A DUP2 PUSH2 0x4F8 JUMP JUMPDEST DUP2 EQ PUSH2 0x615 JUMPI PUSH1 0x0 DUP1 REVERT JUMPDEST POP JUMP INVALID LOG2 PUSH5 0x6970667358 0x22 SLT KECCAK256 0x22 0xB5 0xD1 0x1F 0x24 COINBASE 0xD9 0xED CALL SWAP11 PUSH9 0x2D199376A4DAF89222 SWAP12 0xCA 0x21 0xF9 0xD1 0xCD 0xB3 PUSH24 0x1C42A30E64736F6C63430008070033000000000000000000 "
				},
				"gasEstimates": {
					"creation": {
						"codeDepositCost": "322800",
						"executionCost": "2504",
						"totalCost": "325304"
					},
					"external": {
						"albums(uint256)": "infinite",
						"orders(uint256)": "infinite",
						"owner()": "2492"
					}
				},
				"methodIdentifiers": {
					"albums(uint256)": "ea5df059",
					"orders(uint256)": "a85c38ef",
					"owner()": "8da5cb5b"
				}
			},
			"storageLayout": {
				"storage": [
					{
						"astId": 27,
						"contract": "contracts/MusicStore.sol:MusicStore",
						"label": "albums",
						"offset": 0,
						"slot": "0",
						"type": "t_array(t_struct(Album)10_storage)dyn_storage"
					},
					{
						"astId": 31,
						"contract": "contracts/MusicStore.sol:MusicStore",
						"label": "orders",
						"offset": 0,
						"slot": "1",
						"type": "t_array(t_struct(Order)20_storage)dyn_storage"
					},
					{
						"astId": 33,
						"contract": "contracts/MusicStore.sol:MusicStore",
						"label": "owner",
						"offset": 0,
						"slot": "2",
						"type": "t_address"
					}
				],
				"types": {
					"t_address": {
						"encoding": "inplace",
						"label": "address",
						"numberOfBytes": "20"
					},
					"t_array(t_struct(Album)10_storage)dyn_storage": {
						"base": "t_struct(Album)10_storage",
						"encoding": "dynamic_array",
						"label": "struct MusicStore.Album[]",
						"numberOfBytes": "32"
					},
					"t_array(t_struct(Order)20_storage)dyn_storage": {
						"base": "t_struct(Order)20_storage",
						"encoding": "dynamic_array",
						"label": "struct MusicStore.Order[]",
						"numberOfBytes": "32"
					},
					"t_enum(OrderStatus)23": {
						"encoding": "inplace",
						"label": "enum MusicStore.OrderStatus",
						"numberOfBytes": "1"
					},
					"t_string_storage": {
						"encoding": "bytes",
						"label": "string",
						"numberOfBytes": "32"
					},
					"t_struct(Album)10_storage": {
						"encoding": "inplace",
						"label": "struct MusicStore.Album",
						"members": [
							{
								"astId": 3,
								"contract": "contracts/MusicStore.sol:MusicStore",
								"label": "uid",
								"offset": 0,
								"slot": "0",
								"type": "t_string_storage"
							},
							{
								"astId": 5,
								"contract": "contracts/MusicStore.sol:MusicStore",
								"label": "title",
								"offset": 0,
								"slot": "1",
								"type": "t_string_storage"
							},
							{
								"astId": 7,
								"contract": "contracts/MusicStore.sol:MusicStore",
								"label": "price",
								"offset": 0,
								"slot": "2",
								"type": "t_uint256"
							},
							{
								"astId": 9,
								"contract": "contracts/MusicStore.sol:MusicStore",
								"label": "quantity",
								"offset": 0,
								"slot": "3",
								"type": "t_uint256"
							}
						],
						"numberOfBytes": "128"
					},
					"t_struct(Order)20_storage": {
						"encoding": "inplace",
						"label": "struct MusicStore.Order",
						"members": [
							{
								"astId": 12,
								"contract": "contracts/MusicStore.sol:MusicStore",
								"label": "albumUid",
								"offset": 0,
								"slot": "0",
								"type": "t_string_storage"
							},
							{
								"astId": 14,
								"contract": "contracts/MusicStore.sol:MusicStore",
								"label": "customer",
								"offset": 0,
								"slot": "1",
								"type": "t_address"
							},
							{
								"astId": 16,
								"contract": "contracts/MusicStore.sol:MusicStore",
								"label": "orderAt",
								"offset": 0,
								"slot": "2",
								"type": "t_uint256"
							},
							{
								"astId": 19,
								"contract": "contracts/MusicStore.sol:MusicStore",
								"label": "status",
								"offset": 0,
								"slot": "3",
								"type": "t_enum(OrderStatus)23"
							}
						],
						"numberOfBytes": "128"
					},
					"t_uint256": {
						"encoding": "inplace",
						"label": "uint256",
						"numberOfBytes": "32"
					}
				}
			},
			"userdoc": {
				"kind": "user",
				"methods": {},
				"version": 1
			}
		}
	}
}