{
	"contracts/MusicStore.sol": {
		"MusicStore": {
			"abi": [
				{
					"inputs": [],
					"stateMutability": "nonpayable",
					"type": "constructor"
				},
				{
					"anonymous": false,
					"inputs": [
						{
							"indexed": true,
							"internalType": "string",
							"name": "uid",
							"type": "string"
						},
						{
							"indexed": true,
							"internalType": "address",
							"name": "customer",
							"type": "address"
						},
						{
							"indexed": true,
							"internalType": "uint256",
							"name": "timestamp",
							"type": "uint256"
						}
					],
					"name": "AlbumBought",
					"type": "event"
				},
				{
					"inputs": [
						{
							"internalType": "string",
							"name": "uid",
							"type": "string"
						},
						{
							"internalType": "string",
							"name": "title",
							"type": "string"
						},
						{
							"internalType": "uint256",
							"name": "price",
							"type": "uint256"
						},
						{
							"internalType": "uint256",
							"name": "quantity",
							"type": "uint256"
						}
					],
					"name": "addAlbum",
					"outputs": [],
					"stateMutability": "nonpayable",
					"type": "function"
				},
				{
					"inputs": [
						{
							"internalType": "uint256",
							"name": "",
							"type": "uint256"
						}
					],
					"name": "albums",
					"outputs": [
						{
							"internalType": "uint256",
							"name": "index",
							"type": "uint256"
						},
						{
							"internalType": "string",
							"name": "uid",
							"type": "string"
						},
						{
							"internalType": "string",
							"name": "title",
							"type": "string"
						},
						{
							"internalType": "uint256",
							"name": "price",
							"type": "uint256"
						},
						{
							"internalType": "uint256",
							"name": "quantity",
							"type": "uint256"
						}
					],
					"stateMutability": "view",
					"type": "function"
				},
				{
					"inputs": [],
					"name": "allAlbums",
					"outputs": [
						{
							"components": [
								{
									"internalType": "uint256",
									"name": "index",
									"type": "uint256"
								},
								{
									"internalType": "string",
									"name": "uid",
									"type": "string"
								},
								{
									"internalType": "string",
									"name": "title",
									"type": "string"
								},
								{
									"internalType": "uint256",
									"name": "price",
									"type": "uint256"
								},
								{
									"internalType": "uint256",
									"name": "quantity",
									"type": "uint256"
								}
							],
							"internalType": "struct MusicStore.Album[]",
							"name": "",
							"type": "tuple[]"
						}
					],
					"stateMutability": "view",
					"type": "function"
				},
				{
					"inputs": [
						{
							"internalType": "uint256",
							"name": "_index",
							"type": "uint256"
						}
					],
					"name": "buy",
					"outputs": [],
					"stateMutability": "payable",
					"type": "function"
				},
				{
					"inputs": [
						{
							"internalType": "uint256",
							"name": "",
							"type": "uint256"
						}
					],
					"name": "orders",
					"outputs": [
						{
							"internalType": "string",
							"name": "albumUid",
							"type": "string"
						},
						{
							"internalType": "address",
							"name": "customer",
							"type": "address"
						},
						{
							"internalType": "uint256",
							"name": "orderAt",
							"type": "uint256"
						},
						{
							"internalType": "enum MusicStore.OrderStatus",
							"name": "status",
							"type": "uint8"
						}
					],
					"stateMutability": "view",
					"type": "function"
				},
				{
					"inputs": [],
					"name": "owner",
					"outputs": [
						{
							"internalType": "address",
							"name": "",
							"type": "address"
						}
					],
					"stateMutability": "view",
					"type": "function"
				}
			],
			"devdoc": {
				"kind": "dev",
				"methods": {},
				"version": 1
			},
			"evm": {
				"assembly": "    /* \"contracts/MusicStore.sol\":57:1899  contract MusicStore {... */\n  mstore(0x40, 0x80)\n    /* \"contracts/MusicStore.sol\":682:732  constructor() {... */\n  callvalue\n  dup1\n  iszero\n  tag_1\n  jumpi\n  0x00\n  dup1\n  revert\ntag_1:\n  pop\n    /* \"contracts/MusicStore.sol\":715:725  msg.sender */\n  caller\n    /* \"contracts/MusicStore.sol\":706:725  owner == msg.sender */\n  0xffffffffffffffffffffffffffffffffffffffff\n  and\n    /* \"contracts/MusicStore.sol\":706:711  owner */\n  0x02\n  0x00\n  swap1\n  sload\n  swap1\n  0x0100\n  exp\n  swap1\n  pop\n  pop\n    /* \"contracts/MusicStore.sol\":706:725  owner == msg.sender */\n  pop\n    /* \"contracts/MusicStore.sol\":57:1899  contract MusicStore {... */\n  dataSize(sub_0)\n  dup1\n  dataOffset(sub_0)\n  0x00\n  codecopy\n  0x00\n  return\nstop\n\nsub_0: assembly {\n        /* \"contracts/MusicStore.sol\":57:1899  contract MusicStore {... */\n      mstore(0x40, 0x80)\n      jumpi(tag_1, lt(calldatasize, 0x04))\n      shr(0xe0, calldataload(0x00))\n      dup1\n      0x8da5cb5b\n      eq\n      tag_2\n      jumpi\n      dup1\n      0xa85c38ef\n      eq\n      tag_3\n      jumpi\n      dup1\n      0xc557f979\n      eq\n      tag_4\n      jumpi\n      dup1\n      0xd96a094a\n      eq\n      tag_5\n      jumpi\n      dup1\n      0xea5df059\n      eq\n      tag_6\n      jumpi\n      dup1\n      0xec34297a\n      eq\n      tag_7\n      jumpi\n    tag_1:\n      0x00\n      dup1\n      revert\n        /* \"contracts/MusicStore.sol\":438:458  address public owner */\n    tag_2:\n      callvalue\n      dup1\n      iszero\n      tag_8\n      jumpi\n      0x00\n      dup1\n      revert\n    tag_8:\n      pop\n      tag_9\n      tag_10\n      jump\t// in\n    tag_9:\n      mload(0x40)\n      tag_11\n      swap2\n      swap1\n      tag_12\n      jump\t// in\n    tag_11:\n      mload(0x40)\n      dup1\n      swap2\n      sub\n      swap1\n      return\n        /* \"contracts/MusicStore.sol\":410:431  Order[] public orders */\n    tag_3:\n      callvalue\n      dup1\n      iszero\n      tag_13\n      jumpi\n      0x00\n      dup1\n      revert\n    tag_13:\n      pop\n      tag_14\n      0x04\n      dup1\n      calldatasize\n      sub\n      dup2\n      add\n      swap1\n      tag_15\n      swap2\n      swap1\n      tag_16\n      jump\t// in\n    tag_15:\n      tag_17\n      jump\t// in\n    tag_14:\n      mload(0x40)\n      tag_18\n      swap5\n      swap4\n      swap3\n      swap2\n      swap1\n      tag_19\n      jump\t// in\n    tag_18:\n      mload(0x40)\n      dup1\n      swap2\n      sub\n      swap1\n      return\n        /* \"contracts/MusicStore.sol\":738:1125  function addAlbum(... */\n    tag_4:\n      callvalue\n      dup1\n      iszero\n      tag_20\n      jumpi\n      0x00\n      dup1\n      revert\n    tag_20:\n      pop\n      tag_21\n      0x04\n      dup1\n      calldatasize\n      sub\n      dup2\n      add\n      swap1\n      tag_22\n      swap2\n      swap1\n      tag_23\n      jump\t// in\n    tag_22:\n      tag_24\n      jump\t// in\n    tag_21:\n      stop\n        /* \"contracts/MusicStore.sol\":1131:1633  function buy(uint _index) external payable {... */\n    tag_5:\n      tag_25\n      0x04\n      dup1\n      calldatasize\n      sub\n      dup2\n      add\n      swap1\n      tag_26\n      swap2\n      swap1\n      tag_16\n      jump\t// in\n    tag_26:\n      tag_27\n      jump\t// in\n    tag_25:\n      stop\n        /* \"contracts/MusicStore.sol\":383:404  Album[] public albums */\n    tag_6:\n      callvalue\n      dup1\n      iszero\n      tag_28\n      jumpi\n      0x00\n      dup1\n      revert\n    tag_28:\n      pop\n      tag_29\n      0x04\n      dup1\n      calldatasize\n      sub\n      dup2\n      add\n      swap1\n      tag_30\n      swap2\n      swap1\n      tag_16\n      jump\t// in\n    tag_30:\n      tag_31\n      jump\t// in\n    tag_29:\n      mload(0x40)\n      tag_32\n      swap6\n      swap5\n      swap4\n      swap3\n      swap2\n      swap1\n      tag_33\n      jump\t// in\n    tag_32:\n      mload(0x40)\n      dup1\n      swap2\n      sub\n      swap1\n      return\n        /* \"contracts/MusicStore.sol\":1639:1897  function allAlbums() external view returns(Album[] memory) {... */\n    tag_7:\n      callvalue\n      dup1\n      iszero\n      tag_34\n      jumpi\n      0x00\n      dup1\n      revert\n    tag_34:\n      pop\n      tag_35\n      tag_36\n      jump\t// in\n    tag_35:\n      mload(0x40)\n      tag_37\n      swap2\n      swap1\n      tag_38\n      jump\t// in\n    tag_37:\n      mload(0x40)\n      dup1\n      swap2\n      sub\n      swap1\n      return\n        /* \"contracts/MusicStore.sol\":438:458  address public owner */\n    tag_10:\n      0x02\n      0x00\n      swap1\n      sload\n      swap1\n      0x0100\n      exp\n      swap1\n      div\n      0xffffffffffffffffffffffffffffffffffffffff\n      and\n      dup2\n      jump\t// out\n        /* \"contracts/MusicStore.sol\":410:431  Order[] public orders */\n    tag_17:\n      0x01\n      dup2\n      dup2\n      sload\n      dup2\n      lt\n      tag_39\n      jumpi\n      0x00\n      dup1\n      revert\n    tag_39:\n      swap1\n      0x00\n      mstore\n      keccak256(0x00, 0x20)\n      swap1\n      0x04\n      mul\n      add\n      0x00\n      swap2\n      pop\n      swap1\n      pop\n      dup1\n      0x00\n      add\n      dup1\n      sload\n      tag_41\n      swap1\n      tag_42\n      jump\t// in\n    tag_41:\n      dup1\n      0x1f\n      add\n      0x20\n      dup1\n      swap2\n      div\n      mul\n      0x20\n      add\n      mload(0x40)\n      swap1\n      dup2\n      add\n      0x40\n      mstore\n      dup1\n      swap3\n      swap2\n      swap1\n      dup2\n      dup2\n      mstore\n      0x20\n      add\n      dup3\n      dup1\n      sload\n      tag_43\n      swap1\n      tag_42\n      jump\t// in\n    tag_43:\n      dup1\n      iszero\n      tag_44\n      jumpi\n      dup1\n      0x1f\n      lt\n      tag_45\n      jumpi\n      0x0100\n      dup1\n      dup4\n      sload\n      div\n      mul\n      dup4\n      mstore\n      swap2\n      0x20\n      add\n      swap2\n      jump(tag_44)\n    tag_45:\n      dup3\n      add\n      swap2\n      swap1\n      0x00\n      mstore\n      keccak256(0x00, 0x20)\n      swap1\n    tag_46:\n      dup2\n      sload\n      dup2\n      mstore\n      swap1\n      0x01\n      add\n      swap1\n      0x20\n      add\n      dup1\n      dup4\n      gt\n      tag_46\n      jumpi\n      dup3\n      swap1\n      sub\n      0x1f\n      and\n      dup3\n      add\n      swap2\n    tag_44:\n      pop\n      pop\n      pop\n      pop\n      pop\n      swap1\n      dup1\n      0x01\n      add\n      0x00\n      swap1\n      sload\n      swap1\n      0x0100\n      exp\n      swap1\n      div\n      0xffffffffffffffffffffffffffffffffffffffff\n      and\n      swap1\n      dup1\n      0x02\n      add\n      sload\n      swap1\n      dup1\n      0x03\n      add\n      0x00\n      swap1\n      sload\n      swap1\n      0x0100\n      exp\n      swap1\n      div\n      0xff\n      and\n      swap1\n      pop\n      dup5\n      jump\t// out\n        /* \"contracts/MusicStore.sol\":738:1125  function addAlbum(... */\n    tag_24:\n        /* \"contracts/MusicStore.sol\":630:640  msg.sender */\n      caller\n        /* \"contracts/MusicStore.sol\":621:640  owner == msg.sender */\n      0xffffffffffffffffffffffffffffffffffffffff\n      and\n        /* \"contracts/MusicStore.sol\":621:626  owner */\n      0x02\n      0x00\n      swap1\n      sload\n      swap1\n      0x0100\n      exp\n      swap1\n      div\n      0xffffffffffffffffffffffffffffffffffffffff\n      and\n        /* \"contracts/MusicStore.sol\":621:640  owner == msg.sender */\n      0xffffffffffffffffffffffffffffffffffffffff\n      and\n      eq\n        /* \"contracts/MusicStore.sol\":613:658  require(owner == msg.sender, \"Not an owner!\") */\n      tag_48\n      jumpi\n      mload(0x40)\n      0x08c379a000000000000000000000000000000000000000000000000000000000\n      dup2\n      mstore\n      0x04\n      add\n      tag_49\n      swap1\n      tag_50\n      jump\t// in\n    tag_49:\n      mload(0x40)\n      dup1\n      swap2\n      sub\n      swap1\n      revert\n    tag_48:\n        /* \"contracts/MusicStore.sol\":896:902  albums */\n      0x00\n        /* \"contracts/MusicStore.sol\":908:1088  Album({... */\n      mload(0x40)\n      dup1\n      0xa0\n      add\n      0x40\n      mstore\n      dup1\n        /* \"contracts/MusicStore.sol\":939:951  currentIndex */\n      sload(0x03)\n        /* \"contracts/MusicStore.sol\":908:1088  Album({... */\n      dup2\n      mstore\n      0x20\n      add\n        /* \"contracts/MusicStore.sol\":974:977  uid */\n      dup9\n      dup9\n        /* \"contracts/MusicStore.sol\":908:1088  Album({... */\n      dup1\n      dup1\n      0x1f\n      add\n      0x20\n      dup1\n      swap2\n      div\n      mul\n      0x20\n      add\n      mload(0x40)\n      swap1\n      dup2\n      add\n      0x40\n      mstore\n      dup1\n      swap4\n      swap3\n      swap2\n      swap1\n      dup2\n      dup2\n      mstore\n      0x20\n      add\n      dup4\n      dup4\n      dup1\n      dup3\n      dup5\n      calldatacopy\n      0x00\n      dup2\n      dup5\n      add\n      mstore\n      not(0x1f)\n      0x1f\n      dup3\n      add\n      and\n      swap1\n      pop\n      dup1\n      dup4\n      add\n      swap3\n      pop\n      pop\n      pop\n      pop\n      pop\n      pop\n      pop\n      dup2\n      mstore\n      0x20\n      add\n        /* \"contracts/MusicStore.sol\":1002:1007  title */\n      dup7\n      dup7\n        /* \"contracts/MusicStore.sol\":908:1088  Album({... */\n      dup1\n      dup1\n      0x1f\n      add\n      0x20\n      dup1\n      swap2\n      div\n      mul\n      0x20\n      add\n      mload(0x40)\n      swap1\n      dup2\n      add\n      0x40\n      mstore\n      dup1\n      swap4\n      swap3\n      swap2\n      swap1\n      dup2\n      dup2\n      mstore\n      0x20\n      add\n      dup4\n      dup4\n      dup1\n      dup3\n      dup5\n      calldatacopy\n      0x00\n      dup2\n      dup5\n      add\n      mstore\n      not(0x1f)\n      0x1f\n      dup3\n      add\n      and\n      swap1\n      pop\n      dup1\n      dup4\n      add\n      swap3\n      pop\n      pop\n      pop\n      pop\n      pop\n      pop\n      pop\n      dup2\n      mstore\n      0x20\n      add\n        /* \"contracts/MusicStore.sol\":1032:1037  price */\n      dup5\n        /* \"contracts/MusicStore.sol\":908:1088  Album({... */\n      dup2\n      mstore\n      0x20\n      add\n        /* \"contracts/MusicStore.sol\":1065:1073  quantity */\n      dup4\n        /* \"contracts/MusicStore.sol\":908:1088  Album({... */\n      dup2\n      mstore\n      pop\n        /* \"contracts/MusicStore.sol\":896:1089  albums.push(Album({... */\n      swap1\n      dup1\n      0x01\n      dup2\n      sload\n      add\n      dup1\n      dup3\n      sstore\n      dup1\n      swap2\n      pop\n      pop\n      0x01\n      swap1\n      sub\n      swap1\n      0x00\n      mstore\n      keccak256(0x00, 0x20)\n      swap1\n      0x05\n      mul\n      add\n      0x00\n      swap1\n      swap2\n      swap1\n      swap2\n      swap1\n      swap2\n      pop\n      0x00\n      dup3\n      add\n      mload\n      dup2\n      0x00\n      add\n      sstore\n      0x20\n      dup3\n      add\n      mload\n      dup2\n      0x01\n      add\n      swap1\n      dup1\n      mload\n      swap1\n      0x20\n      add\n      swap1\n      tag_53\n      swap3\n      swap2\n      swap1\n      tag_54\n      jump\t// in\n    tag_53:\n      pop\n      0x40\n      dup3\n      add\n      mload\n      dup2\n      0x02\n      add\n      swap1\n      dup1\n      mload\n      swap1\n      0x20\n      add\n      swap1\n      tag_55\n      swap3\n      swap2\n      swap1\n      tag_54\n      jump\t// in\n    tag_55:\n      pop\n      0x60\n      dup3\n      add\n      mload\n      dup2\n      0x03\n      add\n      sstore\n      0x80\n      dup3\n      add\n      mload\n      dup2\n      0x04\n      add\n      sstore\n      pop\n      pop\n        /* \"contracts/MusicStore.sol\":1104:1116  currentIndex */\n      0x03\n      0x00\n        /* \"contracts/MusicStore.sol\":1104:1118  currentIndex++ */\n      dup2\n      sload\n      dup1\n      swap3\n      swap2\n      swap1\n      tag_56\n      swap1\n      tag_57\n      jump\t// in\n    tag_56:\n      swap2\n      swap1\n      pop\n      sstore\n      pop\n        /* \"contracts/MusicStore.sol\":738:1125  function addAlbum(... */\n      pop\n      pop\n      pop\n      pop\n      pop\n      pop\n      jump\t// out\n        /* \"contracts/MusicStore.sol\":1131:1633  function buy(uint _index) external payable {... */\n    tag_27:\n        /* \"contracts/MusicStore.sol\":1184:1208  Album storage albumToBuy */\n      0x00\n        /* \"contracts/MusicStore.sol\":1211:1217  albums */\n      dup1\n        /* \"contracts/MusicStore.sol\":1218:1224  _index */\n      dup3\n        /* \"contracts/MusicStore.sol\":1211:1225  albums[_index] */\n      dup2\n      sload\n      dup2\n      lt\n      tag_59\n      jumpi\n      tag_60\n      tag_61\n      jump\t// in\n    tag_60:\n    tag_59:\n      swap1\n      0x00\n      mstore\n      keccak256(0x00, 0x20)\n      swap1\n      0x05\n      mul\n      add\n        /* \"contracts/MusicStore.sol\":1184:1225  Album storage albumToBuy = albums[_index] */\n      swap1\n      pop\n        /* \"contracts/MusicStore.sol\":1257:1267  albumToBuy */\n      dup1\n        /* \"contracts/MusicStore.sol\":1257:1273  albumToBuy.price */\n      0x03\n      add\n      sload\n        /* \"contracts/MusicStore.sol\":1244:1253  msg.value */\n      callvalue\n        /* \"contracts/MusicStore.sol\":1244:1273  msg.value == albumToBuy.price */\n      eq\n        /* \"contracts/MusicStore.sol\":1236:1291  require(msg.value == albumToBuy.price, \"invalid price\") */\n      tag_63\n      jumpi\n      mload(0x40)\n      0x08c379a000000000000000000000000000000000000000000000000000000000\n      dup2\n      mstore\n      0x04\n      add\n      tag_64\n      swap1\n      tag_65\n      jump\t// in\n    tag_64:\n      mload(0x40)\n      dup1\n      swap2\n      sub\n      swap1\n      revert\n    tag_63:\n        /* \"contracts/MusicStore.sol\":1331:1332  0 */\n      0x00\n        /* \"contracts/MusicStore.sol\":1309:1319  albumToBuy */\n      dup2\n        /* \"contracts/MusicStore.sol\":1309:1328  albumToBuy.quantity */\n      0x04\n      add\n      sload\n        /* \"contracts/MusicStore.sol\":1309:1332  albumToBuy.quantity > 0 */\n      gt\n        /* \"contracts/MusicStore.sol\":1301:1349  require(albumToBuy.quantity > 0, \"out of stock\") */\n      tag_66\n      jumpi\n      mload(0x40)\n      0x08c379a000000000000000000000000000000000000000000000000000000000\n      dup2\n      mstore\n      0x04\n      add\n      tag_67\n      swap1\n      tag_68\n      jump\t// in\n    tag_67:\n      mload(0x40)\n      dup1\n      swap2\n      sub\n      swap1\n      revert\n    tag_66:\n        /* \"contracts/MusicStore.sol\":1360:1370  albumToBuy */\n      dup1\n        /* \"contracts/MusicStore.sol\":1360:1379  albumToBuy.quantity */\n      0x04\n      add\n      0x00\n        /* \"contracts/MusicStore.sol\":1360:1381  albumToBuy.quantity-- */\n      dup2\n      sload\n      dup1\n      swap3\n      swap2\n      swap1\n      tag_69\n      swap1\n      tag_70\n      jump\t// in\n    tag_69:\n      swap2\n      swap1\n      pop\n      sstore\n      pop\n        /* \"contracts/MusicStore.sol\":1392:1398  orders */\n      0x01\n        /* \"contracts/MusicStore.sol\":1404:1553  Order({... */\n      mload(0x40)\n      dup1\n      0x80\n      add\n      0x40\n      mstore\n      dup1\n        /* \"contracts/MusicStore.sol\":1430:1440  albumToBuy */\n      dup4\n        /* \"contracts/MusicStore.sol\":1430:1444  albumToBuy.uid */\n      0x01\n      add\n        /* \"contracts/MusicStore.sol\":1404:1553  Order({... */\n      dup1\n      sload\n      tag_71\n      swap1\n      tag_42\n      jump\t// in\n    tag_71:\n      dup1\n      0x1f\n      add\n      0x20\n      dup1\n      swap2\n      div\n      mul\n      0x20\n      add\n      mload(0x40)\n      swap1\n      dup2\n      add\n      0x40\n      mstore\n      dup1\n      swap3\n      swap2\n      swap1\n      dup2\n      dup2\n      mstore\n      0x20\n      add\n      dup3\n      dup1\n      sload\n      tag_72\n      swap1\n      tag_42\n      jump\t// in\n    tag_72:\n      dup1\n      iszero\n      tag_73\n      jumpi\n      dup1\n      0x1f\n      lt\n      tag_74\n      jumpi\n      0x0100\n      dup1\n      dup4\n      sload\n      div\n      mul\n      dup4\n      mstore\n      swap2\n      0x20\n      add\n      swap2\n      jump(tag_73)\n    tag_74:\n      dup3\n      add\n      swap2\n      swap1\n      0x00\n      mstore\n      keccak256(0x00, 0x20)\n      swap1\n    tag_75:\n      dup2\n      sload\n      dup2\n      mstore\n      swap1\n      0x01\n      add\n      swap1\n      0x20\n      add\n      dup1\n      dup4\n      gt\n      tag_75\n      jumpi\n      dup3\n      swap1\n      sub\n      0x1f\n      and\n      dup3\n      add\n      swap2\n    tag_73:\n      pop\n      pop\n      pop\n      pop\n      pop\n      dup2\n      mstore\n      0x20\n      add\n        /* \"contracts/MusicStore.sol\":1464:1474  msg.sender */\n      caller\n        /* \"contracts/MusicStore.sol\":1404:1553  Order({... */\n      0xffffffffffffffffffffffffffffffffffffffff\n      and\n      dup2\n      mstore\n      0x20\n      add\n        /* \"contracts/MusicStore.sol\":1493:1508  block.timestamp */\n      timestamp\n        /* \"contracts/MusicStore.sol\":1404:1553  Order({... */\n      dup2\n      mstore\n      0x20\n      add\n        /* \"contracts/MusicStore.sol\":1526:1542  OrderStatus.Paid */\n      0x00\n        /* \"contracts/MusicStore.sol\":1404:1553  Order({... */\n      0x01\n      dup2\n      gt\n      iszero\n      tag_76\n      jumpi\n      tag_77\n      tag_78\n      jump\t// in\n    tag_77:\n    tag_76:\n      dup2\n      mstore\n      pop\n        /* \"contracts/MusicStore.sol\":1392:1554  orders.push(Order({... */\n      swap1\n      dup1\n      0x01\n      dup2\n      sload\n      add\n      dup1\n      dup3\n      sstore\n      dup1\n      swap2\n      pop\n      pop\n      0x01\n      swap1\n      sub\n      swap1\n      0x00\n      mstore\n      keccak256(0x00, 0x20)\n      swap1\n      0x04\n      mul\n      add\n      0x00\n      swap1\n      swap2\n      swap1\n      swap2\n      swap1\n      swap2\n      pop\n      0x00\n      dup3\n      add\n      mload\n      dup2\n      0x00\n      add\n      swap1\n      dup1\n      mload\n      swap1\n      0x20\n      add\n      swap1\n      tag_80\n      swap3\n      swap2\n      swap1\n      tag_54\n      jump\t// in\n    tag_80:\n      pop\n      0x20\n      dup3\n      add\n      mload\n      dup2\n      0x01\n      add\n      exp(0x0100, 0x00)\n      dup2\n      sload\n      dup2\n      0xffffffffffffffffffffffffffffffffffffffff\n      mul\n      not\n      and\n      swap1\n      dup4\n      0xffffffffffffffffffffffffffffffffffffffff\n      and\n      mul\n      or\n      swap1\n      sstore\n      pop\n      0x40\n      dup3\n      add\n      mload\n      dup2\n      0x02\n      add\n      sstore\n      0x60\n      dup3\n      add\n      mload\n      dup2\n      0x03\n      add\n      exp(0x0100, 0x00)\n      dup2\n      sload\n      dup2\n      0xff\n      mul\n      not\n      and\n      swap1\n      dup4\n      0x01\n      dup2\n      gt\n      iszero\n      tag_81\n      jumpi\n      tag_82\n      tag_78\n      jump\t// in\n    tag_82:\n    tag_81:\n      mul\n      or\n      swap1\n      sstore\n      pop\n      pop\n      pop\n        /* \"contracts/MusicStore.sol\":1610:1625  block.timestamp */\n      timestamp\n        /* \"contracts/MusicStore.sol\":1598:1608  msg.sender */\n      caller\n        /* \"contracts/MusicStore.sol\":1570:1626  AlbumBought(albumToBuy.uid, msg.sender, block.timestamp) */\n      0xffffffffffffffffffffffffffffffffffffffff\n      and\n        /* \"contracts/MusicStore.sol\":1582:1592  albumToBuy */\n      dup3\n        /* \"contracts/MusicStore.sol\":1582:1596  albumToBuy.uid */\n      0x01\n      add\n        /* \"contracts/MusicStore.sol\":1570:1626  AlbumBought(albumToBuy.uid, msg.sender, block.timestamp) */\n      mload(0x40)\n      tag_83\n      swap2\n      swap1\n      tag_84\n      jump\t// in\n    tag_83:\n      mload(0x40)\n      dup1\n      swap2\n      sub\n      swap1\n      keccak256\n      0xe42b480ee660a78470e1b85e3dd92f3d137f19f9e17ff60a9151f87c1a3e2c9e\n      mload(0x40)\n      mload(0x40)\n      dup1\n      swap2\n      sub\n      swap1\n      log4\n        /* \"contracts/MusicStore.sol\":1174:1633  {... */\n      pop\n        /* \"contracts/MusicStore.sol\":1131:1633  function buy(uint _index) external payable {... */\n      pop\n      jump\t// out\n        /* \"contracts/MusicStore.sol\":383:404  Album[] public albums */\n    tag_31:\n      0x00\n      dup2\n      dup2\n      sload\n      dup2\n      lt\n      tag_85\n      jumpi\n      0x00\n      dup1\n      revert\n    tag_85:\n      swap1\n      0x00\n      mstore\n      keccak256(0x00, 0x20)\n      swap1\n      0x05\n      mul\n      add\n      0x00\n      swap2\n      pop\n      swap1\n      pop\n      dup1\n      0x00\n      add\n      sload\n      swap1\n      dup1\n      0x01\n      add\n      dup1\n      sload\n      tag_87\n      swap1\n      tag_42\n      jump\t// in\n    tag_87:\n      dup1\n      0x1f\n      add\n      0x20\n      dup1\n      swap2\n      div\n      mul\n      0x20\n      add\n      mload(0x40)\n      swap1\n      dup2\n      add\n      0x40\n      mstore\n      dup1\n      swap3\n      swap2\n      swap1\n      dup2\n      dup2\n      mstore\n      0x20\n      add\n      dup3\n      dup1\n      sload\n      tag_88\n      swap1\n      tag_42\n      jump\t// in\n    tag_88:\n      dup1\n      iszero\n      tag_89\n      jumpi\n      dup1\n      0x1f\n      lt\n      tag_90\n      jumpi\n      0x0100\n      dup1\n      dup4\n      sload\n      div\n      mul\n      dup4\n      mstore\n      swap2\n      0x20\n      add\n      swap2\n      jump(tag_89)\n    tag_90:\n      dup3\n      add\n      swap2\n      swap1\n      0x00\n      mstore\n      keccak256(0x00, 0x20)\n      swap1\n    tag_91:\n      dup2\n      sload\n      dup2\n      mstore\n      swap1\n      0x01\n      add\n      swap1\n      0x20\n      add\n      dup1\n      dup4\n      gt\n      tag_91\n      jumpi\n      dup3\n      swap1\n      sub\n      0x1f\n      and\n      dup3\n      add\n      swap2\n    tag_89:\n      pop\n      pop\n      pop\n      pop\n      pop\n      swap1\n      dup1\n      0x02\n      add\n      dup1\n      sload\n      tag_92\n      swap1\n      tag_42\n      jump\t// in\n    tag_92:\n      dup1\n      0x1f\n      add\n      0x20\n      dup1\n      swap2\n      div\n      mul\n      0x20\n      add\n      mload(0x40)\n      swap1\n      dup2\n      add\n      0x40\n      mstore\n      dup1\n      swap3\n      swap2\n      swap1\n      dup2\n      dup2\n      mstore\n      0x20\n      add\n      dup3\n      dup1\n      sload\n      tag_93\n      swap1\n      tag_42\n      jump\t// in\n    tag_93:\n      dup1\n      iszero\n      tag_94\n      jumpi\n      dup1\n      0x1f\n      lt\n      tag_95\n      jumpi\n      0x0100\n      dup1\n      dup4\n      sload\n      div\n      mul\n      dup4\n      mstore\n      swap2\n      0x20\n      add\n      swap2\n      jump(tag_94)\n    tag_95:\n      dup3\n      add\n      swap2\n      swap1\n      0x00\n      mstore\n      keccak256(0x00, 0x20)\n      swap1\n    tag_96:\n      dup2\n      sload\n      dup2\n      mstore\n      swap1\n      0x01\n      add\n      swap1\n      0x20\n      add\n      dup1\n      dup4\n      gt\n      tag_96\n      jumpi\n      dup3\n      swap1\n      sub\n      0x1f\n      and\n      dup3\n      add\n      swap2\n    tag_94:\n      pop\n      pop\n      pop\n      pop\n      pop\n      swap1\n      dup1\n      0x03\n      add\n      sload\n      swap1\n      dup1\n      0x04\n      add\n      sload\n      swap1\n      pop\n      dup6\n      jump\t// out\n        /* \"contracts/MusicStore.sol\":1639:1897  function allAlbums() external view returns(Album[] memory) {... */\n    tag_36:\n        /* \"contracts/MusicStore.sol\":1682:1696  Album[] memory */\n      0x60\n        /* \"contracts/MusicStore.sol\":1708:1733  Album[] memory albumsList */\n      0x00\n        /* \"contracts/MusicStore.sol\":1748:1754  albums */\n      dup1\n        /* \"contracts/MusicStore.sol\":1748:1761  albums.length */\n      dup1\n      sload\n      swap1\n      pop\n        /* \"contracts/MusicStore.sol\":1736:1762  new Album[](albums.length) */\n      0xffffffffffffffff\n      dup2\n      gt\n      iszero\n      tag_98\n      jumpi\n      tag_99\n      tag_100\n      jump\t// in\n    tag_99:\n    tag_98:\n      mload(0x40)\n      swap1\n      dup1\n      dup3\n      mstore\n      dup1\n      0x20\n      mul\n      0x20\n      add\n      dup3\n      add\n      0x40\n      mstore\n      dup1\n      iszero\n      tag_101\n      jumpi\n      dup2\n      0x20\n      add\n    tag_102:\n      tag_103\n      tag_104\n      jump\t// in\n    tag_103:\n      dup2\n      mstore\n      0x20\n      add\n      swap1\n      0x01\n      swap1\n      sub\n      swap1\n      dup2\n      tag_102\n      jumpi\n      swap1\n      pop\n    tag_101:\n      pop\n        /* \"contracts/MusicStore.sol\":1708:1762  Album[] memory albumsList = new Album[](albums.length) */\n      swap1\n      pop\n        /* \"contracts/MusicStore.sol\":1777:1783  uint i */\n      0x00\n        /* \"contracts/MusicStore.sol\":1773:1863  for(uint i = 0; i < albums.length; i++) {... */\n    tag_105:\n        /* \"contracts/MusicStore.sol\":1793:1799  albums */\n      0x00\n        /* \"contracts/MusicStore.sol\":1793:1806  albums.length */\n      dup1\n      sload\n      swap1\n      pop\n        /* \"contracts/MusicStore.sol\":1789:1790  i */\n      dup2\n        /* \"contracts/MusicStore.sol\":1789:1806  i < albums.length */\n      lt\n        /* \"contracts/MusicStore.sol\":1773:1863  for(uint i = 0; i < albums.length; i++) {... */\n      iszero\n      tag_106\n      jumpi\n        /* \"contracts/MusicStore.sol\":1843:1849  albums */\n      0x00\n        /* \"contracts/MusicStore.sol\":1850:1851  i */\n      dup2\n        /* \"contracts/MusicStore.sol\":1843:1852  albums[i] */\n      dup2\n      sload\n      dup2\n      lt\n      tag_108\n      jumpi\n      tag_109\n      tag_61\n      jump\t// in\n    tag_109:\n    tag_108:\n      swap1\n      0x00\n      mstore\n      keccak256(0x00, 0x20)\n      swap1\n      0x05\n      mul\n      add\n        /* \"contracts/MusicStore.sol\":1827:1852  albumsList[i] = albums[i] */\n      mload(0x40)\n      dup1\n      0xa0\n      add\n      0x40\n      mstore\n      swap1\n      dup2\n      0x00\n      dup3\n      add\n      sload\n      dup2\n      mstore\n      0x20\n      add\n      0x01\n      dup3\n      add\n      dup1\n      sload\n      tag_111\n      swap1\n      tag_42\n      jump\t// in\n    tag_111:\n      dup1\n      0x1f\n      add\n      0x20\n      dup1\n      swap2\n      div\n      mul\n      0x20\n      add\n      mload(0x40)\n      swap1\n      dup2\n      add\n      0x40\n      mstore\n      dup1\n      swap3\n      swap2\n      swap1\n      dup2\n      dup2\n      mstore\n      0x20\n      add\n      dup3\n      dup1\n      sload\n      tag_112\n      swap1\n      tag_42\n      jump\t// in\n    tag_112:\n      dup1\n      iszero\n      tag_113\n      jumpi\n      dup1\n      0x1f\n      lt\n      tag_114\n      jumpi\n      0x0100\n      dup1\n      dup4\n      sload\n      div\n      mul\n      dup4\n      mstore\n      swap2\n      0x20\n      add\n      swap2\n      jump(tag_113)\n    tag_114:\n      dup3\n      add\n      swap2\n      swap1\n      0x00\n      mstore\n      keccak256(0x00, 0x20)\n      swap1\n    tag_115:\n      dup2\n      sload\n      dup2\n      mstore\n      swap1\n      0x01\n      add\n      swap1\n      0x20\n      add\n      dup1\n      dup4\n      gt\n      tag_115\n      jumpi\n      dup3\n      swap1\n      sub\n      0x1f\n      and\n      dup3\n      add\n      swap2\n    tag_113:\n      pop\n      pop\n      pop\n      pop\n      pop\n      dup2\n      mstore\n      0x20\n      add\n      0x02\n      dup3\n      add\n      dup1\n      sload\n      tag_116\n      swap1\n      tag_42\n      jump\t// in\n    tag_116:\n      dup1\n      0x1f\n      add\n      0x20\n      dup1\n      swap2\n      div\n      mul\n      0x20\n      add\n      mload(0x40)\n      swap1\n      dup2\n      add\n      0x40\n      mstore\n      dup1\n      swap3\n      swap2\n      swap1\n      dup2\n      dup2\n      mstore\n      0x20\n      add\n      dup3\n      dup1\n      sload\n      tag_117\n      swap1\n      tag_42\n      jump\t// in\n    tag_117:\n      dup1\n      iszero\n      tag_118\n      jumpi\n      dup1\n      0x1f\n      lt\n      tag_119\n      jumpi\n      0x0100\n      dup1\n      dup4\n      sload\n      div\n      mul\n      dup4\n      mstore\n      swap2\n      0x20\n      add\n      swap2\n      jump(tag_118)\n    tag_119:\n      dup3\n      add\n      swap2\n      swap1\n      0x00\n      mstore\n      keccak256(0x00, 0x20)\n      swap1\n    tag_120:\n      dup2\n      sload\n      dup2\n      mstore\n      swap1\n      0x01\n      add\n      swap1\n      0x20\n      add\n      dup1\n      dup4\n      gt\n      tag_120\n      jumpi\n      dup3\n      swap1\n      sub\n      0x1f\n      and\n      dup3\n      add\n      swap2\n    tag_118:\n      pop\n      pop\n      pop\n      pop\n      pop\n      dup2\n      mstore\n      0x20\n      add\n      0x03\n      dup3\n      add\n      sload\n      dup2\n      mstore\n      0x20\n      add\n      0x04\n      dup3\n      add\n      sload\n      dup2\n      mstore\n      pop\n      pop\n        /* \"contracts/MusicStore.sol\":1827:1837  albumsList */\n      dup3\n        /* \"contracts/MusicStore.sol\":1838:1839  i */\n      dup3\n        /* \"contracts/MusicStore.sol\":1827:1840  albumsList[i] */\n      dup2\n      mload\n      dup2\n      lt\n      tag_121\n      jumpi\n      tag_122\n      tag_61\n      jump\t// in\n    tag_122:\n    tag_121:\n      0x20\n      mul\n      0x20\n      add\n      add\n        /* \"contracts/MusicStore.sol\":1827:1852  albumsList[i] = albums[i] */\n      dup2\n      swap1\n      mstore\n      pop\n        /* \"contracts/MusicStore.sol\":1808:1811  i++ */\n      dup1\n      dup1\n      tag_123\n      swap1\n      tag_57\n      jump\t// in\n    tag_123:\n      swap2\n      pop\n      pop\n        /* \"contracts/MusicStore.sol\":1773:1863  for(uint i = 0; i < albums.length; i++) {... */\n      jump(tag_105)\n    tag_106:\n      pop\n        /* \"contracts/MusicStore.sol\":1880:1890  albumsList */\n      dup1\n        /* \"contracts/MusicStore.sol\":1873:1890  return albumsList */\n      swap2\n      pop\n      pop\n        /* \"contracts/MusicStore.sol\":1639:1897  function allAlbums() external view returns(Album[] memory) {... */\n      swap1\n      jump\t// out\n    tag_54:\n      dup3\n      dup1\n      sload\n      tag_124\n      swap1\n      tag_42\n      jump\t// in\n    tag_124:\n      swap1\n      0x00\n      mstore\n      keccak256(0x00, 0x20)\n      swap1\n      0x1f\n      add\n      0x20\n      swap1\n      div\n      dup2\n      add\n      swap3\n      dup3\n      tag_126\n      jumpi\n      0x00\n      dup6\n      sstore\n      jump(tag_125)\n    tag_126:\n      dup3\n      0x1f\n      lt\n      tag_127\n      jumpi\n      dup1\n      mload\n      not(0xff)\n      and\n      dup4\n      dup1\n      add\n      or\n      dup6\n      sstore\n      jump(tag_125)\n    tag_127:\n      dup3\n      dup1\n      add\n      0x01\n      add\n      dup6\n      sstore\n      dup3\n      iszero\n      tag_125\n      jumpi\n      swap2\n      dup3\n      add\n    tag_128:\n      dup3\n      dup2\n      gt\n      iszero\n      tag_129\n      jumpi\n      dup3\n      mload\n      dup3\n      sstore\n      swap2\n      0x20\n      add\n      swap2\n      swap1\n      0x01\n      add\n      swap1\n      jump(tag_128)\n    tag_129:\n    tag_125:\n      pop\n      swap1\n      pop\n      tag_130\n      swap2\n      swap1\n      tag_131\n      jump\t// in\n    tag_130:\n      pop\n      swap1\n      jump\t// out\n    tag_104:\n      mload(0x40)\n      dup1\n      0xa0\n      add\n      0x40\n      mstore\n      dup1\n      0x00\n      dup2\n      mstore\n      0x20\n      add\n      0x60\n      dup2\n      mstore\n      0x20\n      add\n      0x60\n      dup2\n      mstore\n      0x20\n      add\n      0x00\n      dup2\n      mstore\n      0x20\n      add\n      0x00\n      dup2\n      mstore\n      pop\n      swap1\n      jump\t// out\n    tag_131:\n    tag_132:\n      dup1\n      dup3\n      gt\n      iszero\n      tag_133\n      jumpi\n      0x00\n      dup2\n      0x00\n      swap1\n      sstore\n      pop\n      0x01\n      add\n      jump(tag_132)\n    tag_133:\n      pop\n      swap1\n      jump\t// out\n        /* \"#utility.yul\":21:574   */\n    tag_135:\n        /* \"#utility.yul\":79:87   */\n      0x00\n        /* \"#utility.yul\":89:95   */\n      dup1\n        /* \"#utility.yul\":139:142   */\n      dup4\n        /* \"#utility.yul\":132:136   */\n      0x1f\n        /* \"#utility.yul\":124:130   */\n      dup5\n        /* \"#utility.yul\":120:137   */\n      add\n        /* \"#utility.yul\":116:143   */\n      slt\n        /* \"#utility.yul\":106:228   */\n      tag_137\n      jumpi\n        /* \"#utility.yul\":147:226   */\n      tag_138\n      tag_139\n      jump\t// in\n    tag_138:\n        /* \"#utility.yul\":106:228   */\n    tag_137:\n        /* \"#utility.yul\":260:266   */\n      dup3\n        /* \"#utility.yul\":247:267   */\n      calldataload\n        /* \"#utility.yul\":237:267   */\n      swap1\n      pop\n        /* \"#utility.yul\":290:308   */\n      0xffffffffffffffff\n        /* \"#utility.yul\":282:288   */\n      dup2\n        /* \"#utility.yul\":279:309   */\n      gt\n        /* \"#utility.yul\":276:393   */\n      iszero\n      tag_140\n      jumpi\n        /* \"#utility.yul\":312:391   */\n      tag_141\n      tag_142\n      jump\t// in\n    tag_141:\n        /* \"#utility.yul\":276:393   */\n    tag_140:\n        /* \"#utility.yul\":426:430   */\n      0x20\n        /* \"#utility.yul\":418:424   */\n      dup4\n        /* \"#utility.yul\":414:431   */\n      add\n        /* \"#utility.yul\":402:431   */\n      swap2\n      pop\n        /* \"#utility.yul\":480:483   */\n      dup4\n        /* \"#utility.yul\":472:476   */\n      0x01\n        /* \"#utility.yul\":464:470   */\n      dup3\n        /* \"#utility.yul\":460:477   */\n      mul\n        /* \"#utility.yul\":450:458   */\n      dup4\n        /* \"#utility.yul\":446:478   */\n      add\n        /* \"#utility.yul\":443:484   */\n      gt\n        /* \"#utility.yul\":440:568   */\n      iszero\n      tag_143\n      jumpi\n        /* \"#utility.yul\":487:566   */\n      tag_144\n      tag_145\n      jump\t// in\n    tag_144:\n        /* \"#utility.yul\":440:568   */\n    tag_143:\n        /* \"#utility.yul\":21:574   */\n      swap3\n      pop\n      swap3\n      swap1\n      pop\n      jump\t// out\n        /* \"#utility.yul\":580:719   */\n    tag_146:\n        /* \"#utility.yul\":626:631   */\n      0x00\n        /* \"#utility.yul\":664:670   */\n      dup2\n        /* \"#utility.yul\":651:671   */\n      calldataload\n        /* \"#utility.yul\":642:671   */\n      swap1\n      pop\n        /* \"#utility.yul\":680:713   */\n      tag_148\n        /* \"#utility.yul\":707:712   */\n      dup2\n        /* \"#utility.yul\":680:713   */\n      tag_149\n      jump\t// in\n    tag_148:\n        /* \"#utility.yul\":580:719   */\n      swap3\n      swap2\n      pop\n      pop\n      jump\t// out\n        /* \"#utility.yul\":725:1890   */\n    tag_23:\n        /* \"#utility.yul\":835:841   */\n      0x00\n        /* \"#utility.yul\":843:849   */\n      dup1\n        /* \"#utility.yul\":851:857   */\n      0x00\n        /* \"#utility.yul\":859:865   */\n      dup1\n        /* \"#utility.yul\":867:873   */\n      0x00\n        /* \"#utility.yul\":875:881   */\n      dup1\n        /* \"#utility.yul\":924:927   */\n      0x80\n        /* \"#utility.yul\":912:921   */\n      dup8\n        /* \"#utility.yul\":903:910   */\n      dup10\n        /* \"#utility.yul\":899:922   */\n      sub\n        /* \"#utility.yul\":895:928   */\n      slt\n        /* \"#utility.yul\":892:1012   */\n      iszero\n      tag_151\n      jumpi\n        /* \"#utility.yul\":931:1010   */\n      tag_152\n      tag_153\n      jump\t// in\n    tag_152:\n        /* \"#utility.yul\":892:1012   */\n    tag_151:\n        /* \"#utility.yul\":1079:1080   */\n      0x00\n        /* \"#utility.yul\":1068:1077   */\n      dup8\n        /* \"#utility.yul\":1064:1081   */\n      add\n        /* \"#utility.yul\":1051:1082   */\n      calldataload\n        /* \"#utility.yul\":1109:1127   */\n      0xffffffffffffffff\n        /* \"#utility.yul\":1101:1107   */\n      dup2\n        /* \"#utility.yul\":1098:1128   */\n      gt\n        /* \"#utility.yul\":1095:1212   */\n      iszero\n      tag_154\n      jumpi\n        /* \"#utility.yul\":1131:1210   */\n      tag_155\n      tag_156\n      jump\t// in\n    tag_155:\n        /* \"#utility.yul\":1095:1212   */\n    tag_154:\n        /* \"#utility.yul\":1244:1309   */\n      tag_157\n        /* \"#utility.yul\":1301:1308   */\n      dup10\n        /* \"#utility.yul\":1292:1298   */\n      dup3\n        /* \"#utility.yul\":1281:1290   */\n      dup11\n        /* \"#utility.yul\":1277:1299   */\n      add\n        /* \"#utility.yul\":1244:1309   */\n      tag_135\n      jump\t// in\n    tag_157:\n        /* \"#utility.yul\":1226:1309   */\n      swap7\n      pop\n      swap7\n      pop\n        /* \"#utility.yul\":1022:1319   */\n      pop\n        /* \"#utility.yul\":1386:1388   */\n      0x20\n        /* \"#utility.yul\":1375:1384   */\n      dup8\n        /* \"#utility.yul\":1371:1389   */\n      add\n        /* \"#utility.yul\":1358:1390   */\n      calldataload\n        /* \"#utility.yul\":1417:1435   */\n      0xffffffffffffffff\n        /* \"#utility.yul\":1409:1415   */\n      dup2\n        /* \"#utility.yul\":1406:1436   */\n      gt\n        /* \"#utility.yul\":1403:1520   */\n      iszero\n      tag_158\n      jumpi\n        /* \"#utility.yul\":1439:1518   */\n      tag_159\n      tag_156\n      jump\t// in\n    tag_159:\n        /* \"#utility.yul\":1403:1520   */\n    tag_158:\n        /* \"#utility.yul\":1552:1617   */\n      tag_160\n        /* \"#utility.yul\":1609:1616   */\n      dup10\n        /* \"#utility.yul\":1600:1606   */\n      dup3\n        /* \"#utility.yul\":1589:1598   */\n      dup11\n        /* \"#utility.yul\":1585:1607   */\n      add\n        /* \"#utility.yul\":1552:1617   */\n      tag_135\n      jump\t// in\n    tag_160:\n        /* \"#utility.yul\":1534:1617   */\n      swap5\n      pop\n      swap5\n      pop\n        /* \"#utility.yul\":1329:1627   */\n      pop\n        /* \"#utility.yul\":1666:1668   */\n      0x40\n        /* \"#utility.yul\":1692:1745   */\n      tag_161\n        /* \"#utility.yul\":1737:1744   */\n      dup10\n        /* \"#utility.yul\":1728:1734   */\n      dup3\n        /* \"#utility.yul\":1717:1726   */\n      dup11\n        /* \"#utility.yul\":1713:1735   */\n      add\n        /* \"#utility.yul\":1692:1745   */\n      tag_146\n      jump\t// in\n    tag_161:\n        /* \"#utility.yul\":1682:1745   */\n      swap3\n      pop\n        /* \"#utility.yul\":1637:1755   */\n      pop\n        /* \"#utility.yul\":1794:1796   */\n      0x60\n        /* \"#utility.yul\":1820:1873   */\n      tag_162\n        /* \"#utility.yul\":1865:1872   */\n      dup10\n        /* \"#utility.yul\":1856:1862   */\n      dup3\n        /* \"#utility.yul\":1845:1854   */\n      dup11\n        /* \"#utility.yul\":1841:1863   */\n      add\n        /* \"#utility.yul\":1820:1873   */\n      tag_146\n      jump\t// in\n    tag_162:\n        /* \"#utility.yul\":1810:1873   */\n      swap2\n      pop\n        /* \"#utility.yul\":1765:1883   */\n      pop\n        /* \"#utility.yul\":725:1890   */\n      swap3\n      swap6\n      pop\n      swap3\n      swap6\n      pop\n      swap3\n      swap6\n      jump\t// out\n        /* \"#utility.yul\":1896:2225   */\n    tag_16:\n        /* \"#utility.yul\":1955:1961   */\n      0x00\n        /* \"#utility.yul\":2004:2006   */\n      0x20\n        /* \"#utility.yul\":1992:2001   */\n      dup3\n        /* \"#utility.yul\":1983:1990   */\n      dup5\n        /* \"#utility.yul\":1979:2002   */\n      sub\n        /* \"#utility.yul\":1975:2007   */\n      slt\n        /* \"#utility.yul\":1972:2091   */\n      iszero\n      tag_164\n      jumpi\n        /* \"#utility.yul\":2010:2089   */\n      tag_165\n      tag_153\n      jump\t// in\n    tag_165:\n        /* \"#utility.yul\":1972:2091   */\n    tag_164:\n        /* \"#utility.yul\":2130:2131   */\n      0x00\n        /* \"#utility.yul\":2155:2208   */\n      tag_166\n        /* \"#utility.yul\":2200:2207   */\n      dup5\n        /* \"#utility.yul\":2191:2197   */\n      dup3\n        /* \"#utility.yul\":2180:2189   */\n      dup6\n        /* \"#utility.yul\":2176:2198   */\n      add\n        /* \"#utility.yul\":2155:2208   */\n      tag_146\n      jump\t// in\n    tag_166:\n        /* \"#utility.yul\":2145:2208   */\n      swap2\n      pop\n        /* \"#utility.yul\":2101:2218   */\n      pop\n        /* \"#utility.yul\":1896:2225   */\n      swap3\n      swap2\n      pop\n      pop\n      jump\t// out\n        /* \"#utility.yul\":2231:2471   */\n    tag_167:\n        /* \"#utility.yul\":2342:2352   */\n      0x00\n        /* \"#utility.yul\":2377:2465   */\n      tag_169\n        /* \"#utility.yul\":2461:2464   */\n      dup4\n        /* \"#utility.yul\":2453:2459   */\n      dup4\n        /* \"#utility.yul\":2377:2465   */\n      tag_170\n      jump\t// in\n    tag_169:\n        /* \"#utility.yul\":2363:2465   */\n      swap1\n      pop\n        /* \"#utility.yul\":2231:2471   */\n      swap3\n      swap2\n      pop\n      pop\n      jump\t// out\n        /* \"#utility.yul\":2477:2595   */\n    tag_171:\n        /* \"#utility.yul\":2564:2588   */\n      tag_173\n        /* \"#utility.yul\":2582:2587   */\n      dup2\n        /* \"#utility.yul\":2564:2588   */\n      tag_174\n      jump\t// in\n    tag_173:\n        /* \"#utility.yul\":2559:2562   */\n      dup3\n        /* \"#utility.yul\":2552:2589   */\n      mstore\n        /* \"#utility.yul\":2477:2595   */\n      pop\n      pop\n      jump\t// out\n        /* \"#utility.yul\":2663:3742   */\n    tag_175:\n        /* \"#utility.yul\":2824:2827   */\n      0x00\n        /* \"#utility.yul\":2853:2928   */\n      tag_177\n        /* \"#utility.yul\":2922:2927   */\n      dup3\n        /* \"#utility.yul\":2853:2928   */\n      tag_178\n      jump\t// in\n    tag_177:\n        /* \"#utility.yul\":2944:3051   */\n      tag_179\n        /* \"#utility.yul\":3044:3050   */\n      dup2\n        /* \"#utility.yul\":3039:3042   */\n      dup6\n        /* \"#utility.yul\":2944:3051   */\n      tag_180\n      jump\t// in\n    tag_179:\n        /* \"#utility.yul\":2937:3051   */\n      swap4\n      pop\n        /* \"#utility.yul\":3077:3080   */\n      dup4\n        /* \"#utility.yul\":3122:3126   */\n      0x20\n        /* \"#utility.yul\":3114:3120   */\n      dup3\n        /* \"#utility.yul\":3110:3127   */\n      mul\n        /* \"#utility.yul\":3105:3108   */\n      dup6\n        /* \"#utility.yul\":3101:3128   */\n      add\n        /* \"#utility.yul\":3152:3229   */\n      tag_181\n        /* \"#utility.yul\":3223:3228   */\n      dup6\n        /* \"#utility.yul\":3152:3229   */\n      tag_182\n      jump\t// in\n    tag_181:\n        /* \"#utility.yul\":3252:3259   */\n      dup1\n        /* \"#utility.yul\":3283:3284   */\n      0x00\n        /* \"#utility.yul\":3268:3697   */\n    tag_183:\n        /* \"#utility.yul\":3293:3299   */\n      dup6\n        /* \"#utility.yul\":3290:3291   */\n      dup2\n        /* \"#utility.yul\":3287:3300   */\n      lt\n        /* \"#utility.yul\":3268:3697   */\n      iszero\n      tag_185\n      jumpi\n        /* \"#utility.yul\":3364:3373   */\n      dup5\n        /* \"#utility.yul\":3358:3362   */\n      dup5\n        /* \"#utility.yul\":3354:3374   */\n      sub\n        /* \"#utility.yul\":3349:3352   */\n      dup10\n        /* \"#utility.yul\":3342:3375   */\n      mstore\n        /* \"#utility.yul\":3415:3421   */\n      dup2\n        /* \"#utility.yul\":3409:3422   */\n      mload\n        /* \"#utility.yul\":3443:3549   */\n      tag_186\n        /* \"#utility.yul\":3544:3548   */\n      dup6\n        /* \"#utility.yul\":3529:3542   */\n      dup3\n        /* \"#utility.yul\":3443:3549   */\n      tag_167\n      jump\t// in\n    tag_186:\n        /* \"#utility.yul\":3435:3549   */\n      swap5\n      pop\n        /* \"#utility.yul\":3572:3653   */\n      tag_187\n        /* \"#utility.yul\":3646:3652   */\n      dup4\n        /* \"#utility.yul\":3572:3653   */\n      tag_188\n      jump\t// in\n    tag_187:\n        /* \"#utility.yul\":3562:3653   */\n      swap3\n      pop\n        /* \"#utility.yul\":3682:3686   */\n      0x20\n        /* \"#utility.yul\":3677:3680   */\n      dup11\n        /* \"#utility.yul\":3673:3687   */\n      add\n        /* \"#utility.yul\":3666:3687   */\n      swap10\n      pop\n        /* \"#utility.yul\":3328:3697   */\n      pop\n        /* \"#utility.yul\":3315:3316   */\n      0x01\n        /* \"#utility.yul\":3312:3313   */\n      dup2\n        /* \"#utility.yul\":3308:3317   */\n      add\n        /* \"#utility.yul\":3303:3317   */\n      swap1\n      pop\n        /* \"#utility.yul\":3268:3697   */\n      jump(tag_183)\n    tag_185:\n        /* \"#utility.yul\":3272:3286   */\n      pop\n        /* \"#utility.yul\":3713:3717   */\n      dup3\n        /* \"#utility.yul\":3706:3717   */\n      swap8\n      pop\n        /* \"#utility.yul\":3733:3736   */\n      dup8\n        /* \"#utility.yul\":3726:3736   */\n      swap6\n      pop\n        /* \"#utility.yul\":2829:3742   */\n      pop\n      pop\n      pop\n      pop\n      pop\n        /* \"#utility.yul\":2663:3742   */\n      swap3\n      swap2\n      pop\n      pop\n      jump\t// out\n        /* \"#utility.yul\":3748:3903   */\n    tag_189:\n        /* \"#utility.yul\":3847:3896   */\n      tag_191\n        /* \"#utility.yul\":3890:3895   */\n      dup2\n        /* \"#utility.yul\":3847:3896   */\n      tag_192\n      jump\t// in\n    tag_191:\n        /* \"#utility.yul\":3842:3845   */\n      dup3\n        /* \"#utility.yul\":3835:3897   */\n      mstore\n        /* \"#utility.yul\":3748:3903   */\n      pop\n      pop\n      jump\t// out\n        /* \"#utility.yul\":3909:4253   */\n    tag_193:\n        /* \"#utility.yul\":3987:3990   */\n      0x00\n        /* \"#utility.yul\":4015:4054   */\n      tag_195\n        /* \"#utility.yul\":4048:4053   */\n      dup3\n        /* \"#utility.yul\":4015:4054   */\n      tag_196\n      jump\t// in\n    tag_195:\n        /* \"#utility.yul\":4070:4131   */\n      tag_197\n        /* \"#utility.yul\":4124:4130   */\n      dup2\n        /* \"#utility.yul\":4119:4122   */\n      dup6\n        /* \"#utility.yul\":4070:4131   */\n      tag_198\n      jump\t// in\n    tag_197:\n        /* \"#utility.yul\":4063:4131   */\n      swap4\n      pop\n        /* \"#utility.yul\":4140:4192   */\n      tag_199\n        /* \"#utility.yul\":4185:4191   */\n      dup2\n        /* \"#utility.yul\":4180:4183   */\n      dup6\n        /* \"#utility.yul\":4173:4177   */\n      0x20\n        /* \"#utility.yul\":4166:4171   */\n      dup7\n        /* \"#utility.yul\":4162:4178   */\n      add\n        /* \"#utility.yul\":4140:4192   */\n      tag_200\n      jump\t// in\n    tag_199:\n        /* \"#utility.yul\":4217:4246   */\n      tag_201\n        /* \"#utility.yul\":4239:4245   */\n      dup2\n        /* \"#utility.yul\":4217:4246   */\n      tag_202\n      jump\t// in\n    tag_201:\n        /* \"#utility.yul\":4212:4215   */\n      dup5\n        /* \"#utility.yul\":4208:4247   */\n      add\n        /* \"#utility.yul\":4201:4247   */\n      swap2\n      pop\n        /* \"#utility.yul\":3991:4253   */\n      pop\n        /* \"#utility.yul\":3909:4253   */\n      swap3\n      swap2\n      pop\n      pop\n      jump\t// out\n        /* \"#utility.yul\":4259:4623   */\n    tag_203:\n        /* \"#utility.yul\":4347:4350   */\n      0x00\n        /* \"#utility.yul\":4375:4414   */\n      tag_205\n        /* \"#utility.yul\":4408:4413   */\n      dup3\n        /* \"#utility.yul\":4375:4414   */\n      tag_196\n      jump\t// in\n    tag_205:\n        /* \"#utility.yul\":4430:4501   */\n      tag_206\n        /* \"#utility.yul\":4494:4500   */\n      dup2\n        /* \"#utility.yul\":4489:4492   */\n      dup6\n        /* \"#utility.yul\":4430:4501   */\n      tag_207\n      jump\t// in\n    tag_206:\n        /* \"#utility.yul\":4423:4501   */\n      swap4\n      pop\n        /* \"#utility.yul\":4510:4562   */\n      tag_208\n        /* \"#utility.yul\":4555:4561   */\n      dup2\n        /* \"#utility.yul\":4550:4553   */\n      dup6\n        /* \"#utility.yul\":4543:4547   */\n      0x20\n        /* \"#utility.yul\":4536:4541   */\n      dup7\n        /* \"#utility.yul\":4532:4548   */\n      add\n        /* \"#utility.yul\":4510:4562   */\n      tag_200\n      jump\t// in\n    tag_208:\n        /* \"#utility.yul\":4587:4616   */\n      tag_209\n        /* \"#utility.yul\":4609:4615   */\n      dup2\n        /* \"#utility.yul\":4587:4616   */\n      tag_202\n      jump\t// in\n    tag_209:\n        /* \"#utility.yul\":4582:4585   */\n      dup5\n        /* \"#utility.yul\":4578:4617   */\n      add\n        /* \"#utility.yul\":4571:4617   */\n      swap2\n      pop\n        /* \"#utility.yul\":4351:4623   */\n      pop\n        /* \"#utility.yul\":4259:4623   */\n      swap3\n      swap2\n      pop\n      pop\n      jump\t// out\n        /* \"#utility.yul\":4653:5498   */\n    tag_210:\n        /* \"#utility.yul\":4756:4759   */\n      0x00\n        /* \"#utility.yul\":4793:4798   */\n      dup2\n        /* \"#utility.yul\":4787:4799   */\n      sload\n        /* \"#utility.yul\":4822:4858   */\n      tag_212\n        /* \"#utility.yul\":4848:4857   */\n      dup2\n        /* \"#utility.yul\":4822:4858   */\n      tag_42\n      jump\t// in\n    tag_212:\n        /* \"#utility.yul\":4874:4963   */\n      tag_213\n        /* \"#utility.yul\":4956:4962   */\n      dup2\n        /* \"#utility.yul\":4951:4954   */\n      dup7\n        /* \"#utility.yul\":4874:4963   */\n      tag_214\n      jump\t// in\n    tag_213:\n        /* \"#utility.yul\":4867:4963   */\n      swap5\n      pop\n        /* \"#utility.yul\":4994:4995   */\n      0x01\n        /* \"#utility.yul\":4983:4992   */\n      dup3\n        /* \"#utility.yul\":4979:4996   */\n      and\n        /* \"#utility.yul\":5010:5011   */\n      0x00\n        /* \"#utility.yul\":5005:5142   */\n      dup2\n      eq\n      tag_216\n      jumpi\n        /* \"#utility.yul\":5156:5157   */\n      0x01\n        /* \"#utility.yul\":5151:5492   */\n      dup2\n      eq\n      tag_217\n      jumpi\n        /* \"#utility.yul\":4972:5492   */\n      jump(tag_215)\n        /* \"#utility.yul\":5005:5142   */\n    tag_216:\n        /* \"#utility.yul\":5089:5093   */\n      0xff\n        /* \"#utility.yul\":5085:5094   */\n      not\n        /* \"#utility.yul\":5074:5083   */\n      dup4\n        /* \"#utility.yul\":5070:5095   */\n      and\n        /* \"#utility.yul\":5065:5068   */\n      dup7\n        /* \"#utility.yul\":5058:5096   */\n      mstore\n        /* \"#utility.yul\":5125:5131   */\n      dup2\n        /* \"#utility.yul\":5120:5123   */\n      dup7\n        /* \"#utility.yul\":5116:5132   */\n      add\n        /* \"#utility.yul\":5109:5132   */\n      swap4\n      pop\n        /* \"#utility.yul\":5005:5142   */\n      jump(tag_215)\n        /* \"#utility.yul\":5151:5492   */\n    tag_217:\n        /* \"#utility.yul\":5218:5256   */\n      tag_218\n        /* \"#utility.yul\":5250:5255   */\n      dup6\n        /* \"#utility.yul\":5218:5256   */\n      tag_219\n      jump\t// in\n    tag_218:\n        /* \"#utility.yul\":5278:5279   */\n      0x00\n        /* \"#utility.yul\":5292:5446   */\n    tag_220:\n        /* \"#utility.yul\":5306:5312   */\n      dup4\n        /* \"#utility.yul\":5303:5304   */\n      dup2\n        /* \"#utility.yul\":5300:5313   */\n      lt\n        /* \"#utility.yul\":5292:5446   */\n      iszero\n      tag_222\n      jumpi\n        /* \"#utility.yul\":5380:5387   */\n      dup2\n        /* \"#utility.yul\":5374:5388   */\n      sload\n        /* \"#utility.yul\":5370:5371   */\n      dup2\n        /* \"#utility.yul\":5365:5368   */\n      dup10\n        /* \"#utility.yul\":5361:5372   */\n      add\n        /* \"#utility.yul\":5354:5389   */\n      mstore\n        /* \"#utility.yul\":5430:5431   */\n      0x01\n        /* \"#utility.yul\":5421:5428   */\n      dup3\n        /* \"#utility.yul\":5417:5432   */\n      add\n        /* \"#utility.yul\":5406:5432   */\n      swap2\n      pop\n        /* \"#utility.yul\":5328:5332   */\n      0x20\n        /* \"#utility.yul\":5325:5326   */\n      dup2\n        /* \"#utility.yul\":5321:5333   */\n      add\n        /* \"#utility.yul\":5316:5333   */\n      swap1\n      pop\n        /* \"#utility.yul\":5292:5446   */\n      jump(tag_220)\n    tag_222:\n        /* \"#utility.yul\":5475:5481   */\n      dup4\n        /* \"#utility.yul\":5470:5473   */\n      dup9\n        /* \"#utility.yul\":5466:5482   */\n      add\n        /* \"#utility.yul\":5459:5482   */\n      swap6\n      pop\n        /* \"#utility.yul\":5158:5492   */\n      pop\n      pop\n        /* \"#utility.yul\":4972:5492   */\n    tag_215:\n      pop\n        /* \"#utility.yul\":4760:5498   */\n      pop\n      pop\n        /* \"#utility.yul\":4653:5498   */\n      swap3\n      swap2\n      pop\n      pop\n      jump\t// out\n        /* \"#utility.yul\":5504:5870   */\n    tag_223:\n        /* \"#utility.yul\":5646:5649   */\n      0x00\n        /* \"#utility.yul\":5667:5734   */\n      tag_225\n        /* \"#utility.yul\":5731:5733   */\n      0x0d\n        /* \"#utility.yul\":5726:5729   */\n      dup4\n        /* \"#utility.yul\":5667:5734   */\n      tag_207\n      jump\t// in\n    tag_225:\n        /* \"#utility.yul\":5660:5734   */\n      swap2\n      pop\n        /* \"#utility.yul\":5743:5836   */\n      tag_226\n        /* \"#utility.yul\":5832:5835   */\n      dup3\n        /* \"#utility.yul\":5743:5836   */\n      tag_227\n      jump\t// in\n    tag_226:\n        /* \"#utility.yul\":5861:5863   */\n      0x20\n        /* \"#utility.yul\":5856:5859   */\n      dup3\n        /* \"#utility.yul\":5852:5864   */\n      add\n        /* \"#utility.yul\":5845:5864   */\n      swap1\n      pop\n        /* \"#utility.yul\":5504:5870   */\n      swap2\n      swap1\n      pop\n      jump\t// out\n        /* \"#utility.yul\":5876:6242   */\n    tag_228:\n        /* \"#utility.yul\":6018:6021   */\n      0x00\n        /* \"#utility.yul\":6039:6106   */\n      tag_230\n        /* \"#utility.yul\":6103:6105   */\n      0x0d\n        /* \"#utility.yul\":6098:6101   */\n      dup4\n        /* \"#utility.yul\":6039:6106   */\n      tag_207\n      jump\t// in\n    tag_230:\n        /* \"#utility.yul\":6032:6106   */\n      swap2\n      pop\n        /* \"#utility.yul\":6115:6208   */\n      tag_231\n        /* \"#utility.yul\":6204:6207   */\n      dup3\n        /* \"#utility.yul\":6115:6208   */\n      tag_232\n      jump\t// in\n    tag_231:\n        /* \"#utility.yul\":6233:6235   */\n      0x20\n        /* \"#utility.yul\":6228:6231   */\n      dup3\n        /* \"#utility.yul\":6224:6236   */\n      add\n        /* \"#utility.yul\":6217:6236   */\n      swap1\n      pop\n        /* \"#utility.yul\":5876:6242   */\n      swap2\n      swap1\n      pop\n      jump\t// out\n        /* \"#utility.yul\":6248:6614   */\n    tag_233:\n        /* \"#utility.yul\":6390:6393   */\n      0x00\n        /* \"#utility.yul\":6411:6478   */\n      tag_235\n        /* \"#utility.yul\":6475:6477   */\n      0x0c\n        /* \"#utility.yul\":6470:6473   */\n      dup4\n        /* \"#utility.yul\":6411:6478   */\n      tag_207\n      jump\t// in\n    tag_235:\n        /* \"#utility.yul\":6404:6478   */\n      swap2\n      pop\n        /* \"#utility.yul\":6487:6580   */\n      tag_236\n        /* \"#utility.yul\":6576:6579   */\n      dup3\n        /* \"#utility.yul\":6487:6580   */\n      tag_237\n      jump\t// in\n    tag_236:\n        /* \"#utility.yul\":6605:6607   */\n      0x20\n        /* \"#utility.yul\":6600:6603   */\n      dup3\n        /* \"#utility.yul\":6596:6608   */\n      add\n        /* \"#utility.yul\":6589:6608   */\n      swap1\n      pop\n        /* \"#utility.yul\":6248:6614   */\n      swap2\n      swap1\n      pop\n      jump\t// out\n        /* \"#utility.yul\":6678:7865   */\n    tag_170:\n        /* \"#utility.yul\":6779:6782   */\n      0x00\n        /* \"#utility.yul\":6815:6819   */\n      0xa0\n        /* \"#utility.yul\":6810:6813   */\n      dup4\n        /* \"#utility.yul\":6806:6820   */\n      add\n        /* \"#utility.yul\":6903:6907   */\n      0x00\n        /* \"#utility.yul\":6896:6901   */\n      dup4\n        /* \"#utility.yul\":6892:6908   */\n      add\n        /* \"#utility.yul\":6886:6909   */\n      mload\n        /* \"#utility.yul\":6922:6985   */\n      tag_239\n        /* \"#utility.yul\":6979:6983   */\n      0x00\n        /* \"#utility.yul\":6974:6977   */\n      dup7\n        /* \"#utility.yul\":6970:6984   */\n      add\n        /* \"#utility.yul\":6956:6968   */\n      dup3\n        /* \"#utility.yul\":6922:6985   */\n      tag_240\n      jump\t// in\n    tag_239:\n        /* \"#utility.yul\":6830:6995   */\n      pop\n        /* \"#utility.yul\":7076:7080   */\n      0x20\n        /* \"#utility.yul\":7069:7074   */\n      dup4\n        /* \"#utility.yul\":7065:7081   */\n      add\n        /* \"#utility.yul\":7059:7082   */\n      mload\n        /* \"#utility.yul\":7129:7132   */\n      dup5\n        /* \"#utility.yul\":7123:7127   */\n      dup3\n        /* \"#utility.yul\":7119:7133   */\n      sub\n        /* \"#utility.yul\":7112:7116   */\n      0x20\n        /* \"#utility.yul\":7107:7110   */\n      dup7\n        /* \"#utility.yul\":7103:7117   */\n      add\n        /* \"#utility.yul\":7096:7134   */\n      mstore\n        /* \"#utility.yul\":7155:7228   */\n      tag_241\n        /* \"#utility.yul\":7223:7227   */\n      dup3\n        /* \"#utility.yul\":7209:7221   */\n      dup3\n        /* \"#utility.yul\":7155:7228   */\n      tag_193\n      jump\t// in\n    tag_241:\n        /* \"#utility.yul\":7147:7228   */\n      swap2\n      pop\n        /* \"#utility.yul\":7005:7239   */\n      pop\n        /* \"#utility.yul\":7322:7326   */\n      0x40\n        /* \"#utility.yul\":7315:7320   */\n      dup4\n        /* \"#utility.yul\":7311:7327   */\n      add\n        /* \"#utility.yul\":7305:7328   */\n      mload\n        /* \"#utility.yul\":7375:7378   */\n      dup5\n        /* \"#utility.yul\":7369:7373   */\n      dup3\n        /* \"#utility.yul\":7365:7379   */\n      sub\n        /* \"#utility.yul\":7358:7362   */\n      0x40\n        /* \"#utility.yul\":7353:7356   */\n      dup7\n        /* \"#utility.yul\":7349:7363   */\n      add\n        /* \"#utility.yul\":7342:7380   */\n      mstore\n        /* \"#utility.yul\":7401:7474   */\n      tag_242\n        /* \"#utility.yul\":7469:7473   */\n      dup3\n        /* \"#utility.yul\":7455:7467   */\n      dup3\n        /* \"#utility.yul\":7401:7474   */\n      tag_193\n      jump\t// in\n    tag_242:\n        /* \"#utility.yul\":7393:7474   */\n      swap2\n      pop\n        /* \"#utility.yul\":7249:7485   */\n      pop\n        /* \"#utility.yul\":7568:7572   */\n      0x60\n        /* \"#utility.yul\":7561:7566   */\n      dup4\n        /* \"#utility.yul\":7557:7573   */\n      add\n        /* \"#utility.yul\":7551:7574   */\n      mload\n        /* \"#utility.yul\":7587:7650   */\n      tag_243\n        /* \"#utility.yul\":7644:7648   */\n      0x60\n        /* \"#utility.yul\":7639:7642   */\n      dup7\n        /* \"#utility.yul\":7635:7649   */\n      add\n        /* \"#utility.yul\":7621:7633   */\n      dup3\n        /* \"#utility.yul\":7587:7650   */\n      tag_240\n      jump\t// in\n    tag_243:\n        /* \"#utility.yul\":7495:7660   */\n      pop\n        /* \"#utility.yul\":7746:7750   */\n      0x80\n        /* \"#utility.yul\":7739:7744   */\n      dup4\n        /* \"#utility.yul\":7735:7751   */\n      add\n        /* \"#utility.yul\":7729:7752   */\n      mload\n        /* \"#utility.yul\":7765:7828   */\n      tag_244\n        /* \"#utility.yul\":7822:7826   */\n      0x80\n        /* \"#utility.yul\":7817:7820   */\n      dup7\n        /* \"#utility.yul\":7813:7827   */\n      add\n        /* \"#utility.yul\":7799:7811   */\n      dup3\n        /* \"#utility.yul\":7765:7828   */\n      tag_240\n      jump\t// in\n    tag_244:\n        /* \"#utility.yul\":7670:7838   */\n      pop\n        /* \"#utility.yul\":7855:7859   */\n      dup1\n        /* \"#utility.yul\":7848:7859   */\n      swap2\n      pop\n        /* \"#utility.yul\":6784:7865   */\n      pop\n        /* \"#utility.yul\":6678:7865   */\n      swap3\n      swap2\n      pop\n      pop\n      jump\t// out\n        /* \"#utility.yul\":7871:7979   */\n    tag_240:\n        /* \"#utility.yul\":7948:7972   */\n      tag_246\n        /* \"#utility.yul\":7966:7971   */\n      dup2\n        /* \"#utility.yul\":7948:7972   */\n      tag_247\n      jump\t// in\n    tag_246:\n        /* \"#utility.yul\":7943:7946   */\n      dup3\n        /* \"#utility.yul\":7936:7973   */\n      mstore\n        /* \"#utility.yul\":7871:7979   */\n      pop\n      pop\n      jump\t// out\n        /* \"#utility.yul\":7985:8103   */\n    tag_248:\n        /* \"#utility.yul\":8072:8096   */\n      tag_250\n        /* \"#utility.yul\":8090:8095   */\n      dup2\n        /* \"#utility.yul\":8072:8096   */\n      tag_247\n      jump\t// in\n    tag_250:\n        /* \"#utility.yul\":8067:8070   */\n      dup3\n        /* \"#utility.yul\":8060:8097   */\n      mstore\n        /* \"#utility.yul\":7985:8103   */\n      pop\n      pop\n      jump\t// out\n        /* \"#utility.yul\":8109:8378   */\n    tag_84:\n        /* \"#utility.yul\":8238:8241   */\n      0x00\n        /* \"#utility.yul\":8260:8352   */\n      tag_252\n        /* \"#utility.yul\":8348:8351   */\n      dup3\n        /* \"#utility.yul\":8339:8345   */\n      dup5\n        /* \"#utility.yul\":8260:8352   */\n      tag_210\n      jump\t// in\n    tag_252:\n        /* \"#utility.yul\":8253:8352   */\n      swap2\n      pop\n        /* \"#utility.yul\":8369:8372   */\n      dup2\n        /* \"#utility.yul\":8362:8372   */\n      swap1\n      pop\n        /* \"#utility.yul\":8109:8378   */\n      swap3\n      swap2\n      pop\n      pop\n      jump\t// out\n        /* \"#utility.yul\":8384:8606   */\n    tag_12:\n        /* \"#utility.yul\":8477:8481   */\n      0x00\n        /* \"#utility.yul\":8515:8517   */\n      0x20\n        /* \"#utility.yul\":8504:8513   */\n      dup3\n        /* \"#utility.yul\":8500:8518   */\n      add\n        /* \"#utility.yul\":8492:8518   */\n      swap1\n      pop\n        /* \"#utility.yul\":8528:8599   */\n      tag_254\n        /* \"#utility.yul\":8596:8597   */\n      0x00\n        /* \"#utility.yul\":8585:8594   */\n      dup4\n        /* \"#utility.yul\":8581:8598   */\n      add\n        /* \"#utility.yul\":8572:8578   */\n      dup5\n        /* \"#utility.yul\":8528:8599   */\n      tag_171\n      jump\t// in\n    tag_254:\n        /* \"#utility.yul\":8384:8606   */\n      swap3\n      swap2\n      pop\n      pop\n      jump\t// out\n        /* \"#utility.yul\":8612:9069   */\n    tag_38:\n        /* \"#utility.yul\":8797:8801   */\n      0x00\n        /* \"#utility.yul\":8835:8837   */\n      0x20\n        /* \"#utility.yul\":8824:8833   */\n      dup3\n        /* \"#utility.yul\":8820:8838   */\n      add\n        /* \"#utility.yul\":8812:8838   */\n      swap1\n      pop\n        /* \"#utility.yul\":8884:8893   */\n      dup2\n        /* \"#utility.yul\":8878:8882   */\n      dup2\n        /* \"#utility.yul\":8874:8894   */\n      sub\n        /* \"#utility.yul\":8870:8871   */\n      0x00\n        /* \"#utility.yul\":8859:8868   */\n      dup4\n        /* \"#utility.yul\":8855:8872   */\n      add\n        /* \"#utility.yul\":8848:8895   */\n      mstore\n        /* \"#utility.yul\":8912:9062   */\n      tag_256\n        /* \"#utility.yul\":9057:9061   */\n      dup2\n        /* \"#utility.yul\":9048:9054   */\n      dup5\n        /* \"#utility.yul\":8912:9062   */\n      tag_175\n      jump\t// in\n    tag_256:\n        /* \"#utility.yul\":8904:9062   */\n      swap1\n      pop\n        /* \"#utility.yul\":8612:9069   */\n      swap3\n      swap2\n      pop\n      pop\n      jump\t// out\n        /* \"#utility.yul\":9075:9743   */\n    tag_19:\n        /* \"#utility.yul\":9284:9288   */\n      0x00\n        /* \"#utility.yul\":9322:9325   */\n      0x80\n        /* \"#utility.yul\":9311:9320   */\n      dup3\n        /* \"#utility.yul\":9307:9326   */\n      add\n        /* \"#utility.yul\":9299:9326   */\n      swap1\n      pop\n        /* \"#utility.yul\":9372:9381   */\n      dup2\n        /* \"#utility.yul\":9366:9370   */\n      dup2\n        /* \"#utility.yul\":9362:9382   */\n      sub\n        /* \"#utility.yul\":9358:9359   */\n      0x00\n        /* \"#utility.yul\":9347:9356   */\n      dup4\n        /* \"#utility.yul\":9343:9360   */\n      add\n        /* \"#utility.yul\":9336:9383   */\n      mstore\n        /* \"#utility.yul\":9400:9478   */\n      tag_258\n        /* \"#utility.yul\":9473:9477   */\n      dup2\n        /* \"#utility.yul\":9464:9470   */\n      dup8\n        /* \"#utility.yul\":9400:9478   */\n      tag_203\n      jump\t// in\n    tag_258:\n        /* \"#utility.yul\":9392:9478   */\n      swap1\n      pop\n        /* \"#utility.yul\":9488:9560   */\n      tag_259\n        /* \"#utility.yul\":9556:9558   */\n      0x20\n        /* \"#utility.yul\":9545:9554   */\n      dup4\n        /* \"#utility.yul\":9541:9559   */\n      add\n        /* \"#utility.yul\":9532:9538   */\n      dup7\n        /* \"#utility.yul\":9488:9560   */\n      tag_171\n      jump\t// in\n    tag_259:\n        /* \"#utility.yul\":9570:9642   */\n      tag_260\n        /* \"#utility.yul\":9638:9640   */\n      0x40\n        /* \"#utility.yul\":9627:9636   */\n      dup4\n        /* \"#utility.yul\":9623:9641   */\n      add\n        /* \"#utility.yul\":9614:9620   */\n      dup6\n        /* \"#utility.yul\":9570:9642   */\n      tag_248\n      jump\t// in\n    tag_260:\n        /* \"#utility.yul\":9652:9736   */\n      tag_261\n        /* \"#utility.yul\":9732:9734   */\n      0x60\n        /* \"#utility.yul\":9721:9730   */\n      dup4\n        /* \"#utility.yul\":9717:9735   */\n      add\n        /* \"#utility.yul\":9708:9714   */\n      dup5\n        /* \"#utility.yul\":9652:9736   */\n      tag_189\n      jump\t// in\n    tag_261:\n        /* \"#utility.yul\":9075:9743   */\n      swap6\n      swap5\n      pop\n      pop\n      pop\n      pop\n      pop\n      jump\t// out\n        /* \"#utility.yul\":9749:10168   */\n    tag_65:\n        /* \"#utility.yul\":9915:9919   */\n      0x00\n        /* \"#utility.yul\":9953:9955   */\n      0x20\n        /* \"#utility.yul\":9942:9951   */\n      dup3\n        /* \"#utility.yul\":9938:9956   */\n      add\n        /* \"#utility.yul\":9930:9956   */\n      swap1\n      pop\n        /* \"#utility.yul\":10002:10011   */\n      dup2\n        /* \"#utility.yul\":9996:10000   */\n      dup2\n        /* \"#utility.yul\":9992:10012   */\n      sub\n        /* \"#utility.yul\":9988:9989   */\n      0x00\n        /* \"#utility.yul\":9977:9986   */\n      dup4\n        /* \"#utility.yul\":9973:9990   */\n      add\n        /* \"#utility.yul\":9966:10013   */\n      mstore\n        /* \"#utility.yul\":10030:10161   */\n      tag_263\n        /* \"#utility.yul\":10156:10160   */\n      dup2\n        /* \"#utility.yul\":10030:10161   */\n      tag_223\n      jump\t// in\n    tag_263:\n        /* \"#utility.yul\":10022:10161   */\n      swap1\n      pop\n        /* \"#utility.yul\":9749:10168   */\n      swap2\n      swap1\n      pop\n      jump\t// out\n        /* \"#utility.yul\":10174:10593   */\n    tag_50:\n        /* \"#utility.yul\":10340:10344   */\n      0x00\n        /* \"#utility.yul\":10378:10380   */\n      0x20\n        /* \"#utility.yul\":10367:10376   */\n      dup3\n        /* \"#utility.yul\":10363:10381   */\n      add\n        /* \"#utility.yul\":10355:10381   */\n      swap1\n      pop\n        /* \"#utility.yul\":10427:10436   */\n      dup2\n        /* \"#utility.yul\":10421:10425   */\n      dup2\n        /* \"#utility.yul\":10417:10437   */\n      sub\n        /* \"#utility.yul\":10413:10414   */\n      0x00\n        /* \"#utility.yul\":10402:10411   */\n      dup4\n        /* \"#utility.yul\":10398:10415   */\n      add\n        /* \"#utility.yul\":10391:10438   */\n      mstore\n        /* \"#utility.yul\":10455:10586   */\n      tag_265\n        /* \"#utility.yul\":10581:10585   */\n      dup2\n        /* \"#utility.yul\":10455:10586   */\n      tag_228\n      jump\t// in\n    tag_265:\n        /* \"#utility.yul\":10447:10586   */\n      swap1\n      pop\n        /* \"#utility.yul\":10174:10593   */\n      swap2\n      swap1\n      pop\n      jump\t// out\n        /* \"#utility.yul\":10599:11018   */\n    tag_68:\n        /* \"#utility.yul\":10765:10769   */\n      0x00\n        /* \"#utility.yul\":10803:10805   */\n      0x20\n        /* \"#utility.yul\":10792:10801   */\n      dup3\n        /* \"#utility.yul\":10788:10806   */\n      add\n        /* \"#utility.yul\":10780:10806   */\n      swap1\n      pop\n        /* \"#utility.yul\":10852:10861   */\n      dup2\n        /* \"#utility.yul\":10846:10850   */\n      dup2\n        /* \"#utility.yul\":10842:10862   */\n      sub\n        /* \"#utility.yul\":10838:10839   */\n      0x00\n        /* \"#utility.yul\":10827:10836   */\n      dup4\n        /* \"#utility.yul\":10823:10840   */\n      add\n        /* \"#utility.yul\":10816:10863   */\n      mstore\n        /* \"#utility.yul\":10880:11011   */\n      tag_267\n        /* \"#utility.yul\":11006:11010   */\n      dup2\n        /* \"#utility.yul\":10880:11011   */\n      tag_233\n      jump\t// in\n    tag_267:\n        /* \"#utility.yul\":10872:11011   */\n      swap1\n      pop\n        /* \"#utility.yul\":10599:11018   */\n      swap2\n      swap1\n      pop\n      jump\t// out\n        /* \"#utility.yul\":11024:11870   */\n    tag_33:\n        /* \"#utility.yul\":11269:11273   */\n      0x00\n        /* \"#utility.yul\":11307:11310   */\n      0xa0\n        /* \"#utility.yul\":11296:11305   */\n      dup3\n        /* \"#utility.yul\":11292:11311   */\n      add\n        /* \"#utility.yul\":11284:11311   */\n      swap1\n      pop\n        /* \"#utility.yul\":11321:11392   */\n      tag_269\n        /* \"#utility.yul\":11389:11390   */\n      0x00\n        /* \"#utility.yul\":11378:11387   */\n      dup4\n        /* \"#utility.yul\":11374:11391   */\n      add\n        /* \"#utility.yul\":11365:11371   */\n      dup9\n        /* \"#utility.yul\":11321:11392   */\n      tag_248\n      jump\t// in\n    tag_269:\n        /* \"#utility.yul\":11439:11448   */\n      dup2\n        /* \"#utility.yul\":11433:11437   */\n      dup2\n        /* \"#utility.yul\":11429:11449   */\n      sub\n        /* \"#utility.yul\":11424:11426   */\n      0x20\n        /* \"#utility.yul\":11413:11422   */\n      dup4\n        /* \"#utility.yul\":11409:11427   */\n      add\n        /* \"#utility.yul\":11402:11450   */\n      mstore\n        /* \"#utility.yul\":11467:11545   */\n      tag_270\n        /* \"#utility.yul\":11540:11544   */\n      dup2\n        /* \"#utility.yul\":11531:11537   */\n      dup8\n        /* \"#utility.yul\":11467:11545   */\n      tag_203\n      jump\t// in\n    tag_270:\n        /* \"#utility.yul\":11459:11545   */\n      swap1\n      pop\n        /* \"#utility.yul\":11592:11601   */\n      dup2\n        /* \"#utility.yul\":11586:11590   */\n      dup2\n        /* \"#utility.yul\":11582:11602   */\n      sub\n        /* \"#utility.yul\":11577:11579   */\n      0x40\n        /* \"#utility.yul\":11566:11575   */\n      dup4\n        /* \"#utility.yul\":11562:11580   */\n      add\n        /* \"#utility.yul\":11555:11603   */\n      mstore\n        /* \"#utility.yul\":11620:11698   */\n      tag_271\n        /* \"#utility.yul\":11693:11697   */\n      dup2\n        /* \"#utility.yul\":11684:11690   */\n      dup7\n        /* \"#utility.yul\":11620:11698   */\n      tag_203\n      jump\t// in\n    tag_271:\n        /* \"#utility.yul\":11612:11698   */\n      swap1\n      pop\n        /* \"#utility.yul\":11708:11780   */\n      tag_272\n        /* \"#utility.yul\":11776:11778   */\n      0x60\n        /* \"#utility.yul\":11765:11774   */\n      dup4\n        /* \"#utility.yul\":11761:11779   */\n      add\n        /* \"#utility.yul\":11752:11758   */\n      dup6\n        /* \"#utility.yul\":11708:11780   */\n      tag_248\n      jump\t// in\n    tag_272:\n        /* \"#utility.yul\":11790:11863   */\n      tag_273\n        /* \"#utility.yul\":11858:11861   */\n      0x80\n        /* \"#utility.yul\":11847:11856   */\n      dup4\n        /* \"#utility.yul\":11843:11862   */\n      add\n        /* \"#utility.yul\":11834:11840   */\n      dup5\n        /* \"#utility.yul\":11790:11863   */\n      tag_248\n      jump\t// in\n    tag_273:\n        /* \"#utility.yul\":11024:11870   */\n      swap7\n      swap6\n      pop\n      pop\n      pop\n      pop\n      pop\n      pop\n      jump\t// out\n        /* \"#utility.yul\":11957:12110   */\n    tag_182:\n        /* \"#utility.yul\":12045:12049   */\n      0x00\n        /* \"#utility.yul\":12068:12071   */\n      dup2\n        /* \"#utility.yul\":12060:12071   */\n      swap1\n      pop\n        /* \"#utility.yul\":12098:12102   */\n      0x20\n        /* \"#utility.yul\":12093:12096   */\n      dup3\n        /* \"#utility.yul\":12089:12103   */\n      add\n        /* \"#utility.yul\":12081:12103   */\n      swap1\n      pop\n        /* \"#utility.yul\":11957:12110   */\n      swap2\n      swap1\n      pop\n      jump\t// out\n        /* \"#utility.yul\":12116:12257   */\n    tag_219:\n        /* \"#utility.yul\":12165:12169   */\n      0x00\n        /* \"#utility.yul\":12188:12191   */\n      dup2\n        /* \"#utility.yul\":12180:12191   */\n      swap1\n      pop\n        /* \"#utility.yul\":12211:12214   */\n      dup2\n        /* \"#utility.yul\":12208:12209   */\n      0x00\n        /* \"#utility.yul\":12201:12215   */\n      mstore\n        /* \"#utility.yul\":12245:12249   */\n      0x20\n        /* \"#utility.yul\":12242:12243   */\n      0x00\n        /* \"#utility.yul\":12232:12250   */\n      keccak256\n        /* \"#utility.yul\":12224:12250   */\n      swap1\n      pop\n        /* \"#utility.yul\":12116:12257   */\n      swap2\n      swap1\n      pop\n      jump\t// out\n        /* \"#utility.yul\":12263:12398   */\n    tag_178:\n        /* \"#utility.yul\":12351:12357   */\n      0x00\n        /* \"#utility.yul\":12385:12390   */\n      dup2\n        /* \"#utility.yul\":12379:12391   */\n      mload\n        /* \"#utility.yul\":12369:12391   */\n      swap1\n      pop\n        /* \"#utility.yul\":12263:12398   */\n      swap2\n      swap1\n      pop\n      jump\t// out\n        /* \"#utility.yul\":12404:12503   */\n    tag_196:\n        /* \"#utility.yul\":12456:12462   */\n      0x00\n        /* \"#utility.yul\":12490:12495   */\n      dup2\n        /* \"#utility.yul\":12484:12496   */\n      mload\n        /* \"#utility.yul\":12474:12496   */\n      swap1\n      pop\n        /* \"#utility.yul\":12404:12503   */\n      swap2\n      swap1\n      pop\n      jump\t// out\n        /* \"#utility.yul\":12509:12643   */\n    tag_188:\n        /* \"#utility.yul\":12600:12604   */\n      0x00\n        /* \"#utility.yul\":12632:12636   */\n      0x20\n        /* \"#utility.yul\":12627:12630   */\n      dup3\n        /* \"#utility.yul\":12623:12637   */\n      add\n        /* \"#utility.yul\":12615:12637   */\n      swap1\n      pop\n        /* \"#utility.yul\":12509:12643   */\n      swap2\n      swap1\n      pop\n      jump\t// out\n        /* \"#utility.yul\":12649:12854   */\n    tag_180:\n        /* \"#utility.yul\":12769:12780   */\n      0x00\n        /* \"#utility.yul\":12803:12809   */\n      dup3\n        /* \"#utility.yul\":12798:12801   */\n      dup3\n        /* \"#utility.yul\":12791:12810   */\n      mstore\n        /* \"#utility.yul\":12843:12847   */\n      0x20\n        /* \"#utility.yul\":12838:12841   */\n      dup3\n        /* \"#utility.yul\":12834:12848   */\n      add\n        /* \"#utility.yul\":12819:12848   */\n      swap1\n      pop\n        /* \"#utility.yul\":12649:12854   */\n      swap3\n      swap2\n      pop\n      pop\n      jump\t// out\n        /* \"#utility.yul\":12860:13019   */\n    tag_198:\n        /* \"#utility.yul\":12934:12945   */\n      0x00\n        /* \"#utility.yul\":12968:12974   */\n      dup3\n        /* \"#utility.yul\":12963:12966   */\n      dup3\n        /* \"#utility.yul\":12956:12975   */\n      mstore\n        /* \"#utility.yul\":13008:13012   */\n      0x20\n        /* \"#utility.yul\":13003:13006   */\n      dup3\n        /* \"#utility.yul\":12999:13013   */\n      add\n        /* \"#utility.yul\":12984:13013   */\n      swap1\n      pop\n        /* \"#utility.yul\":12860:13019   */\n      swap3\n      swap2\n      pop\n      pop\n      jump\t// out\n        /* \"#utility.yul\":13025:13194   */\n    tag_207:\n        /* \"#utility.yul\":13109:13120   */\n      0x00\n        /* \"#utility.yul\":13143:13149   */\n      dup3\n        /* \"#utility.yul\":13138:13141   */\n      dup3\n        /* \"#utility.yul\":13131:13150   */\n      mstore\n        /* \"#utility.yul\":13183:13187   */\n      0x20\n        /* \"#utility.yul\":13178:13181   */\n      dup3\n        /* \"#utility.yul\":13174:13188   */\n      add\n        /* \"#utility.yul\":13159:13188   */\n      swap1\n      pop\n        /* \"#utility.yul\":13025:13194   */\n      swap3\n      swap2\n      pop\n      pop\n      jump\t// out\n        /* \"#utility.yul\":13200:13348   */\n    tag_214:\n        /* \"#utility.yul\":13302:13313   */\n      0x00\n        /* \"#utility.yul\":13339:13342   */\n      dup2\n        /* \"#utility.yul\":13324:13342   */\n      swap1\n      pop\n        /* \"#utility.yul\":13200:13348   */\n      swap3\n      swap2\n      pop\n      pop\n      jump\t// out\n        /* \"#utility.yul\":13354:13450   */\n    tag_174:\n        /* \"#utility.yul\":13391:13398   */\n      0x00\n        /* \"#utility.yul\":13420:13444   */\n      tag_286\n        /* \"#utility.yul\":13438:13443   */\n      dup3\n        /* \"#utility.yul\":13420:13444   */\n      tag_287\n      jump\t// in\n    tag_286:\n        /* \"#utility.yul\":13409:13444   */\n      swap1\n      pop\n        /* \"#utility.yul\":13354:13450   */\n      swap2\n      swap1\n      pop\n      jump\t// out\n        /* \"#utility.yul\":13456:13595   */\n    tag_288:\n        /* \"#utility.yul\":13507:13514   */\n      0x00\n        /* \"#utility.yul\":13536:13541   */\n      dup2\n        /* \"#utility.yul\":13525:13541   */\n      swap1\n      pop\n        /* \"#utility.yul\":13542:13589   */\n      tag_290\n        /* \"#utility.yul\":13583:13588   */\n      dup3\n        /* \"#utility.yul\":13542:13589   */\n      tag_291\n      jump\t// in\n    tag_290:\n        /* \"#utility.yul\":13456:13595   */\n      swap2\n      swap1\n      pop\n      jump\t// out\n        /* \"#utility.yul\":13601:13727   */\n    tag_287:\n        /* \"#utility.yul\":13638:13645   */\n      0x00\n        /* \"#utility.yul\":13678:13720   */\n      0xffffffffffffffffffffffffffffffffffffffff\n        /* \"#utility.yul\":13671:13676   */\n      dup3\n        /* \"#utility.yul\":13667:13721   */\n      and\n        /* \"#utility.yul\":13656:13721   */\n      swap1\n      pop\n        /* \"#utility.yul\":13601:13727   */\n      swap2\n      swap1\n      pop\n      jump\t// out\n        /* \"#utility.yul\":13733:13810   */\n    tag_247:\n        /* \"#utility.yul\":13770:13777   */\n      0x00\n        /* \"#utility.yul\":13799:13804   */\n      dup2\n        /* \"#utility.yul\":13788:13804   */\n      swap1\n      pop\n        /* \"#utility.yul\":13733:13810   */\n      swap2\n      swap1\n      pop\n      jump\t// out\n        /* \"#utility.yul\":13816:13955   */\n    tag_192:\n        /* \"#utility.yul\":13878:13887   */\n      0x00\n        /* \"#utility.yul\":13911:13949   */\n      tag_295\n        /* \"#utility.yul\":13943:13948   */\n      dup3\n        /* \"#utility.yul\":13911:13949   */\n      tag_288\n      jump\t// in\n    tag_295:\n        /* \"#utility.yul\":13898:13949   */\n      swap1\n      pop\n        /* \"#utility.yul\":13816:13955   */\n      swap2\n      swap1\n      pop\n      jump\t// out\n        /* \"#utility.yul\":13961:14268   */\n    tag_200:\n        /* \"#utility.yul\":14029:14030   */\n      0x00\n        /* \"#utility.yul\":14039:14152   */\n    tag_297:\n        /* \"#utility.yul\":14053:14059   */\n      dup4\n        /* \"#utility.yul\":14050:14051   */\n      dup2\n        /* \"#utility.yul\":14047:14060   */\n      lt\n        /* \"#utility.yul\":14039:14152   */\n      iszero\n      tag_299\n      jumpi\n        /* \"#utility.yul\":14138:14139   */\n      dup1\n        /* \"#utility.yul\":14133:14136   */\n      dup3\n        /* \"#utility.yul\":14129:14140   */\n      add\n        /* \"#utility.yul\":14123:14141   */\n      mload\n        /* \"#utility.yul\":14119:14120   */\n      dup2\n        /* \"#utility.yul\":14114:14117   */\n      dup5\n        /* \"#utility.yul\":14110:14121   */\n      add\n        /* \"#utility.yul\":14103:14142   */\n      mstore\n        /* \"#utility.yul\":14075:14077   */\n      0x20\n        /* \"#utility.yul\":14072:14073   */\n      dup2\n        /* \"#utility.yul\":14068:14078   */\n      add\n        /* \"#utility.yul\":14063:14078   */\n      swap1\n      pop\n        /* \"#utility.yul\":14039:14152   */\n      jump(tag_297)\n    tag_299:\n        /* \"#utility.yul\":14170:14176   */\n      dup4\n        /* \"#utility.yul\":14167:14168   */\n      dup2\n        /* \"#utility.yul\":14164:14177   */\n      gt\n        /* \"#utility.yul\":14161:14262   */\n      iszero\n      tag_300\n      jumpi\n        /* \"#utility.yul\":14250:14251   */\n      0x00\n        /* \"#utility.yul\":14241:14247   */\n      dup5\n        /* \"#utility.yul\":14236:14239   */\n      dup5\n        /* \"#utility.yul\":14232:14248   */\n      add\n        /* \"#utility.yul\":14225:14252   */\n      mstore\n        /* \"#utility.yul\":14161:14262   */\n    tag_300:\n        /* \"#utility.yul\":14010:14268   */\n      pop\n        /* \"#utility.yul\":13961:14268   */\n      pop\n      pop\n      pop\n      jump\t// out\n        /* \"#utility.yul\":14274:14445   */\n    tag_70:\n        /* \"#utility.yul\":14313:14316   */\n      0x00\n        /* \"#utility.yul\":14336:14360   */\n      tag_302\n        /* \"#utility.yul\":14354:14359   */\n      dup3\n        /* \"#utility.yul\":14336:14360   */\n      tag_247\n      jump\t// in\n    tag_302:\n        /* \"#utility.yul\":14327:14360   */\n      swap2\n      pop\n        /* \"#utility.yul\":14382:14386   */\n      0x00\n        /* \"#utility.yul\":14375:14380   */\n      dup3\n        /* \"#utility.yul\":14372:14387   */\n      eq\n        /* \"#utility.yul\":14369:14410   */\n      iszero\n      tag_303\n      jumpi\n        /* \"#utility.yul\":14390:14408   */\n      tag_304\n      tag_305\n      jump\t// in\n    tag_304:\n        /* \"#utility.yul\":14369:14410   */\n    tag_303:\n        /* \"#utility.yul\":14437:14438   */\n      0x01\n        /* \"#utility.yul\":14430:14435   */\n      dup3\n        /* \"#utility.yul\":14426:14439   */\n      sub\n        /* \"#utility.yul\":14419:14439   */\n      swap1\n      pop\n        /* \"#utility.yul\":14274:14445   */\n      swap2\n      swap1\n      pop\n      jump\t// out\n        /* \"#utility.yul\":14451:14771   */\n    tag_42:\n        /* \"#utility.yul\":14495:14501   */\n      0x00\n        /* \"#utility.yul\":14532:14533   */\n      0x02\n        /* \"#utility.yul\":14526:14530   */\n      dup3\n        /* \"#utility.yul\":14522:14534   */\n      div\n        /* \"#utility.yul\":14512:14534   */\n      swap1\n      pop\n        /* \"#utility.yul\":14579:14580   */\n      0x01\n        /* \"#utility.yul\":14573:14577   */\n      dup3\n        /* \"#utility.yul\":14569:14581   */\n      and\n        /* \"#utility.yul\":14600:14618   */\n      dup1\n        /* \"#utility.yul\":14590:14671   */\n      tag_307\n      jumpi\n        /* \"#utility.yul\":14656:14660   */\n      0x7f\n        /* \"#utility.yul\":14648:14654   */\n      dup3\n        /* \"#utility.yul\":14644:14661   */\n      and\n        /* \"#utility.yul\":14634:14661   */\n      swap2\n      pop\n        /* \"#utility.yul\":14590:14671   */\n    tag_307:\n        /* \"#utility.yul\":14718:14720   */\n      0x20\n        /* \"#utility.yul\":14710:14716   */\n      dup3\n        /* \"#utility.yul\":14707:14721   */\n      lt\n        /* \"#utility.yul\":14687:14705   */\n      dup2\n        /* \"#utility.yul\":14684:14722   */\n      eq\n        /* \"#utility.yul\":14681:14765   */\n      iszero\n      tag_308\n      jumpi\n        /* \"#utility.yul\":14737:14755   */\n      tag_309\n      tag_310\n      jump\t// in\n    tag_309:\n        /* \"#utility.yul\":14681:14765   */\n    tag_308:\n        /* \"#utility.yul\":14502:14771   */\n      pop\n        /* \"#utility.yul\":14451:14771   */\n      swap2\n      swap1\n      pop\n      jump\t// out\n        /* \"#utility.yul\":14777:15010   */\n    tag_57:\n        /* \"#utility.yul\":14816:14819   */\n      0x00\n        /* \"#utility.yul\":14839:14863   */\n      tag_312\n        /* \"#utility.yul\":14857:14862   */\n      dup3\n        /* \"#utility.yul\":14839:14863   */\n      tag_247\n      jump\t// in\n    tag_312:\n        /* \"#utility.yul\":14830:14863   */\n      swap2\n      pop\n        /* \"#utility.yul\":14885:14951   */\n      0xffffffffffffffffffffffffffffffffffffffffffffffffffffffffffffffff\n        /* \"#utility.yul\":14878:14883   */\n      dup3\n        /* \"#utility.yul\":14875:14952   */\n      eq\n        /* \"#utility.yul\":14872:14975   */\n      iszero\n      tag_313\n      jumpi\n        /* \"#utility.yul\":14955:14973   */\n      tag_314\n      tag_305\n      jump\t// in\n    tag_314:\n        /* \"#utility.yul\":14872:14975   */\n    tag_313:\n        /* \"#utility.yul\":15002:15003   */\n      0x01\n        /* \"#utility.yul\":14995:15000   */\n      dup3\n        /* \"#utility.yul\":14991:15004   */\n      add\n        /* \"#utility.yul\":14984:15004   */\n      swap1\n      pop\n        /* \"#utility.yul\":14777:15010   */\n      swap2\n      swap1\n      pop\n      jump\t// out\n        /* \"#utility.yul\":15016:15196   */\n    tag_305:\n        /* \"#utility.yul\":15064:15141   */\n      0x4e487b7100000000000000000000000000000000000000000000000000000000\n        /* \"#utility.yul\":15061:15062   */\n      0x00\n        /* \"#utility.yul\":15054:15142   */\n      mstore\n        /* \"#utility.yul\":15161:15165   */\n      0x11\n        /* \"#utility.yul\":15158:15159   */\n      0x04\n        /* \"#utility.yul\":15151:15166   */\n      mstore\n        /* \"#utility.yul\":15185:15189   */\n      0x24\n        /* \"#utility.yul\":15182:15183   */\n      0x00\n        /* \"#utility.yul\":15175:15190   */\n      revert\n        /* \"#utility.yul\":15202:15382   */\n    tag_78:\n        /* \"#utility.yul\":15250:15327   */\n      0x4e487b7100000000000000000000000000000000000000000000000000000000\n        /* \"#utility.yul\":15247:15248   */\n      0x00\n        /* \"#utility.yul\":15240:15328   */\n      mstore\n        /* \"#utility.yul\":15347:15351   */\n      0x21\n        /* \"#utility.yul\":15344:15345   */\n      0x04\n        /* \"#utility.yul\":15337:15352   */\n      mstore\n        /* \"#utility.yul\":15371:15375   */\n      0x24\n        /* \"#utility.yul\":15368:15369   */\n      0x00\n        /* \"#utility.yul\":15361:15376   */\n      revert\n        /* \"#utility.yul\":15388:15568   */\n    tag_310:\n        /* \"#utility.yul\":15436:15513   */\n      0x4e487b7100000000000000000000000000000000000000000000000000000000\n        /* \"#utility.yul\":15433:15434   */\n      0x00\n        /* \"#utility.yul\":15426:15514   */\n      mstore\n        /* \"#utility.yul\":15533:15537   */\n      0x22\n        /* \"#utility.yul\":15530:15531   */\n      0x04\n        /* \"#utility.yul\":15523:15538   */\n      mstore\n        /* \"#utility.yul\":15557:15561   */\n      0x24\n        /* \"#utility.yul\":15554:15555   */\n      0x00\n        /* \"#utility.yul\":15547:15562   */\n      revert\n        /* \"#utility.yul\":15574:15754   */\n    tag_61:\n        /* \"#utility.yul\":15622:15699   */\n      0x4e487b7100000000000000000000000000000000000000000000000000000000\n        /* \"#utility.yul\":15619:15620   */\n      0x00\n        /* \"#utility.yul\":15612:15700   */\n      mstore\n        /* \"#utility.yul\":15719:15723   */\n      0x32\n        /* \"#utility.yul\":15716:15717   */\n      0x04\n        /* \"#utility.yul\":15709:15724   */\n      mstore\n        /* \"#utility.yul\":15743:15747   */\n      0x24\n        /* \"#utility.yul\":15740:15741   */\n      0x00\n        /* \"#utility.yul\":15733:15748   */\n      revert\n        /* \"#utility.yul\":15760:15940   */\n    tag_100:\n        /* \"#utility.yul\":15808:15885   */\n      0x4e487b7100000000000000000000000000000000000000000000000000000000\n        /* \"#utility.yul\":15805:15806   */\n      0x00\n        /* \"#utility.yul\":15798:15886   */\n      mstore\n        /* \"#utility.yul\":15905:15909   */\n      0x41\n        /* \"#utility.yul\":15902:15903   */\n      0x04\n        /* \"#utility.yul\":15895:15910   */\n      mstore\n        /* \"#utility.yul\":15929:15933   */\n      0x24\n        /* \"#utility.yul\":15926:15927   */\n      0x00\n        /* \"#utility.yul\":15919:15934   */\n      revert\n        /* \"#utility.yul\":15946:16063   */\n    tag_142:\n        /* \"#utility.yul\":16055:16056   */\n      0x00\n        /* \"#utility.yul\":16052:16053   */\n      dup1\n        /* \"#utility.yul\":16045:16057   */\n      revert\n        /* \"#utility.yul\":16069:16186   */\n    tag_139:\n        /* \"#utility.yul\":16178:16179   */\n      0x00\n        /* \"#utility.yul\":16175:16176   */\n      dup1\n        /* \"#utility.yul\":16168:16180   */\n      revert\n        /* \"#utility.yul\":16192:16309   */\n    tag_145:\n        /* \"#utility.yul\":16301:16302   */\n      0x00\n        /* \"#utility.yul\":16298:16299   */\n      dup1\n        /* \"#utility.yul\":16291:16303   */\n      revert\n        /* \"#utility.yul\":16315:16432   */\n    tag_156:\n        /* \"#utility.yul\":16424:16425   */\n      0x00\n        /* \"#utility.yul\":16421:16422   */\n      dup1\n        /* \"#utility.yul\":16414:16426   */\n      revert\n        /* \"#utility.yul\":16438:16555   */\n    tag_153:\n        /* \"#utility.yul\":16547:16548   */\n      0x00\n        /* \"#utility.yul\":16544:16545   */\n      dup1\n        /* \"#utility.yul\":16537:16549   */\n      revert\n        /* \"#utility.yul\":16561:16663   */\n    tag_202:\n        /* \"#utility.yul\":16602:16608   */\n      0x00\n        /* \"#utility.yul\":16653:16655   */\n      0x1f\n        /* \"#utility.yul\":16649:16656   */\n      not\n        /* \"#utility.yul\":16644:16646   */\n      0x1f\n        /* \"#utility.yul\":16637:16642   */\n      dup4\n        /* \"#utility.yul\":16633:16647   */\n      add\n        /* \"#utility.yul\":16629:16657   */\n      and\n        /* \"#utility.yul\":16619:16657   */\n      swap1\n      pop\n        /* \"#utility.yul\":16561:16663   */\n      swap2\n      swap1\n      pop\n      jump\t// out\n        /* \"#utility.yul\":16669:16832   */\n    tag_227:\n        /* \"#utility.yul\":16809:16824   */\n      0x696e76616c696420707269636500000000000000000000000000000000000000\n        /* \"#utility.yul\":16805:16806   */\n      0x00\n        /* \"#utility.yul\":16797:16803   */\n      dup3\n        /* \"#utility.yul\":16793:16807   */\n      add\n        /* \"#utility.yul\":16786:16825   */\n      mstore\n        /* \"#utility.yul\":16669:16832   */\n      pop\n      jump\t// out\n        /* \"#utility.yul\":16838:17001   */\n    tag_232:\n        /* \"#utility.yul\":16978:16993   */\n      0x4e6f7420616e206f776e65722100000000000000000000000000000000000000\n        /* \"#utility.yul\":16974:16975   */\n      0x00\n        /* \"#utility.yul\":16966:16972   */\n      dup3\n        /* \"#utility.yul\":16962:16976   */\n      add\n        /* \"#utility.yul\":16955:16994   */\n      mstore\n        /* \"#utility.yul\":16838:17001   */\n      pop\n      jump\t// out\n        /* \"#utility.yul\":17007:17169   */\n    tag_237:\n        /* \"#utility.yul\":17147:17161   */\n      0x6f7574206f662073746f636b0000000000000000000000000000000000000000\n        /* \"#utility.yul\":17143:17144   */\n      0x00\n        /* \"#utility.yul\":17135:17141   */\n      dup3\n        /* \"#utility.yul\":17131:17145   */\n      add\n        /* \"#utility.yul\":17124:17162   */\n      mstore\n        /* \"#utility.yul\":17007:17169   */\n      pop\n      jump\t// out\n        /* \"#utility.yul\":17175:17294   */\n    tag_291:\n        /* \"#utility.yul\":17262:17263   */\n      0x02\n        /* \"#utility.yul\":17255:17260   */\n      dup2\n        /* \"#utility.yul\":17252:17264   */\n      lt\n        /* \"#utility.yul\":17242:17288   */\n      tag_330\n      jumpi\n        /* \"#utility.yul\":17268:17286   */\n      tag_331\n      tag_78\n      jump\t// in\n    tag_331:\n        /* \"#utility.yul\":17242:17288   */\n    tag_330:\n        /* \"#utility.yul\":17175:17294   */\n      pop\n      jump\t// out\n        /* \"#utility.yul\":17300:17422   */\n    tag_149:\n        /* \"#utility.yul\":17373:17397   */\n      tag_333\n        /* \"#utility.yul\":17391:17396   */\n      dup2\n        /* \"#utility.yul\":17373:17397   */\n      tag_247\n      jump\t// in\n    tag_333:\n        /* \"#utility.yul\":17366:17371   */\n      dup2\n        /* \"#utility.yul\":17363:17398   */\n      eq\n        /* \"#utility.yul\":17353:17416   */\n      tag_334\n      jumpi\n        /* \"#utility.yul\":17412:17413   */\n      0x00\n        /* \"#utility.yul\":17409:17410   */\n      dup1\n        /* \"#utility.yul\":17402:17414   */\n      revert\n        /* \"#utility.yul\":17353:17416   */\n    tag_334:\n        /* \"#utility.yul\":17300:17422   */\n      pop\n      jump\t// out\n\n    auxdata: 0xa2646970667358221220b0ff7190c87b7e0fb0739d5da66f75ef17007058b67e7bdfd29dc9e0418c495764736f6c63430008070033\n}\n",
				"bytecode": {
					"linkReferences": {},
					"object": "608060405234801561001057600080fd5b503373ffffffffffffffffffffffffffffffffffffffff16600260009054906101000a9050505061146f806100466000396000f3fe6080604052600436106100555760003560e01c80638da5cb5b1461005a578063a85c38ef14610085578063c557f979146100c5578063d96a094a146100ee578063ea5df0591461010a578063ec34297a1461014b575b600080fd5b34801561006657600080fd5b5061006f610176565b60405161007c9190610f75565b60405180910390f35b34801561009157600080fd5b506100ac60048036038101906100a79190610c95565b61019c565b6040516100bc9493929190610fb2565b60405180910390f35b3480156100d157600080fd5b506100ec60048036038101906100e79190610bee565b610291565b005b61010860048036038101906101039190610c95565b610477565b005b34801561011657600080fd5b50610131600480360381019061012c9190610c95565b610745565b60405161014295949392919061105e565b60405180910390f35b34801561015757600080fd5b5061016061089b565b60405161016d9190610f90565b60405180910390f35b600260009054906101000a900473ffffffffffffffffffffffffffffffffffffffff1681565b600181815481106101ac57600080fd5b90600052602060002090600402016000915090508060000180546101cf90611203565b80601f01602080910402602001604051908101604052809291908181526020018280546101fb90611203565b80156102485780601f1061021d57610100808354040283529160200191610248565b820191906000526020600020905b81548152906001019060200180831161022b57829003601f168201915b5050505050908060010160009054906101000a900473ffffffffffffffffffffffffffffffffffffffff16908060020154908060030160009054906101000a900460ff16905084565b3373ffffffffffffffffffffffffffffffffffffffff16600260009054906101000a900473ffffffffffffffffffffffffffffffffffffffff1673ffffffffffffffffffffffffffffffffffffffff1614610321576040517f08c379a00000000000000000000000000000000000000000000000000000000081526004016103189061101e565b60405180910390fd5b60006040518060a00160405280600354815260200188888080601f016020809104026020016040519081016040528093929190818152602001838380828437600081840152601f19601f82011690508083019250505050505050815260200186868080601f016020809104026020016040519081016040528093929190818152602001838380828437600081840152601f19601f820116905080830192505050505050508152602001848152602001838152509080600181540180825580915050600190039060005260206000209060050201600090919091909150600082015181600001556020820151816001019080519060200190610423929190610ab1565b506040820151816002019080519060200190610440929190610ab1565b50606082015181600301556080820151816004015550506003600081548092919061046a90611235565b9190505550505050505050565b600080828154811061048c5761048b61130b565b5b90600052602060002090600502019050806003015434146104e2576040517f08c379a00000000000000000000000000000000000000000000000000000000081526004016104d990610ffe565b60405180910390fd5b6000816004015411610529576040517f08c379a00000000000000000000000000000000000000000000000000000000081526004016105209061103e565b60405180910390fd5b80600401600081548092919061053e906111d9565b91905055506001604051806080016040528083600101805461055f90611203565b80601f016020809104026020016040519081016040528092919081815260200182805461058b90611203565b80156105d85780601f106105ad576101008083540402835291602001916105d8565b820191906000526020600020905b8154815290600101906020018083116105bb57829003601f168201915b505050505081526020013373ffffffffffffffffffffffffffffffffffffffff16815260200142815260200160006001811115610618576106176112ad565b5b81525090806001815401808255809150506001900390600052602060002090600402016000909190919091506000820151816000019080519060200190610660929190610ab1565b5060208201518160010160006101000a81548173ffffffffffffffffffffffffffffffffffffffff021916908373ffffffffffffffffffffffffffffffffffffffff1602179055506040820151816002015560608201518160030160006101000a81548160ff021916908360018111156106dd576106dc6112ad565b5b02179055505050423373ffffffffffffffffffffffffffffffffffffffff168260010160405161070d9190610f5e565b60405180910390207fe42b480ee660a78470e1b85e3dd92f3d137f19f9e17ff60a9151f87c1a3e2c9e60405160405180910390a45050565b6000818154811061075557600080fd5b906000526020600020906005020160009150905080600001549080600101805461077e90611203565b80601f01602080910402602001604051908101604052809291908181526020018280546107aa90611203565b80156107f75780601f106107cc576101008083540402835291602001916107f7565b820191906000526020600020905b8154815290600101906020018083116107da57829003601f168201915b50505050509080600201805461080c90611203565b80601f016020809104026020016040519081016040528092919081815260200182805461083890611203565b80156108855780601f1061085a57610100808354040283529160200191610885565b820191906000526020600020905b81548152906001019060200180831161086857829003601f168201915b5050505050908060030154908060040154905085565b60606000808054905067ffffffffffffffff8111156108bd576108bc61133a565b5b6040519080825280602002602001820160405280156108f657816020015b6108e3610b37565b8152602001906001900390816108db5790505b50905060005b600080549050811015610aa9576000818154811061091d5761091c61130b565b5b90600052602060002090600502016040518060a00160405290816000820154815260200160018201805461095090611203565b80601f016020809104026020016040519081016040528092919081815260200182805461097c90611203565b80156109c95780601f1061099e576101008083540402835291602001916109c9565b820191906000526020600020905b8154815290600101906020018083116109ac57829003601f168201915b505050505081526020016002820180546109e290611203565b80601f0160208091040260200160405190810160405280929190818152602001828054610a0e90611203565b8015610a5b5780601f10610a3057610100808354040283529160200191610a5b565b820191906000526020600020905b815481529060010190602001808311610a3e57829003601f168201915b5050505050815260200160038201548152602001600482015481525050828281518110610a8b57610a8a61130b565b5b60200260200101819052508080610aa190611235565b9150506108fc565b508091505090565b828054610abd90611203565b90600052602060002090601f016020900481019282610adf5760008555610b26565b82601f10610af857805160ff1916838001178555610b26565b82800160010185558215610b26579182015b82811115610b25578251825591602001919060010190610b0a565b5b509050610b339190610b66565b5090565b6040518060a0016040528060008152602001606081526020016060815260200160008152602001600081525090565b5b80821115610b7f576000816000905550600101610b67565b5090565b60008083601f840112610b9957610b9861136e565b5b8235905067ffffffffffffffff811115610bb657610bb5611369565b5b602083019150836001820283011115610bd257610bd1611373565b5b9250929050565b600081359050610be881611422565b92915050565b60008060008060008060808789031215610c0b57610c0a61137d565b5b600087013567ffffffffffffffff811115610c2957610c28611378565b5b610c3589828a01610b83565b9650965050602087013567ffffffffffffffff811115610c5857610c57611378565b5b610c6489828a01610b83565b94509450506040610c7789828a01610bd9565b9250506060610c8889828a01610bd9565b9150509295509295509295565b600060208284031215610cab57610caa61137d565b5b6000610cb984828501610bd9565b91505092915050565b6000610cce8383610ec3565b905092915050565b610cdf81611145565b82525050565b6000610cf0826110e4565b610cfa8185611107565b935083602082028501610d0c856110bf565b8060005b85811015610d485784840389528151610d298582610cc2565b9450610d34836110fa565b925060208a01995050600181019050610d10565b50829750879550505050505092915050565b610d6381611194565b82525050565b6000610d74826110ef565b610d7e8185611118565b9350610d8e8185602086016111a6565b610d9781611382565b840191505092915050565b6000610dad826110ef565b610db78185611129565b9350610dc78185602086016111a6565b610dd081611382565b840191505092915050565b60008154610de881611203565b610df2818661113a565b94506001821660008114610e0d5760018114610e1e57610e51565b60ff19831686528186019350610e51565b610e27856110cf565b60005b83811015610e4957815481890152600182019150602081019050610e2a565b838801955050505b50505092915050565b6000610e67600d83611129565b9150610e7282611393565b602082019050919050565b6000610e8a600d83611129565b9150610e95826113bc565b602082019050919050565b6000610ead600c83611129565b9150610eb8826113e5565b602082019050919050565b600060a083016000830151610edb6000860182610f40565b5060208301518482036020860152610ef38282610d69565b91505060408301518482036040860152610f0d8282610d69565b9150506060830151610f226060860182610f40565b506080830151610f356080860182610f40565b508091505092915050565b610f498161118a565b82525050565b610f588161118a565b82525050565b6000610f6a8284610ddb565b915081905092915050565b6000602082019050610f8a6000830184610cd6565b92915050565b60006020820190508181036000830152610faa8184610ce5565b905092915050565b60006080820190508181036000830152610fcc8187610da2565b9050610fdb6020830186610cd6565b610fe86040830185610f4f565b610ff56060830184610d5a565b95945050505050565b6000602082019050818103600083015261101781610e5a565b9050919050565b6000602082019050818103600083015261103781610e7d565b9050919050565b6000602082019050818103600083015261105781610ea0565b9050919050565b600060a0820190506110736000830188610f4f565b81810360208301526110858187610da2565b905081810360408301526110998186610da2565b90506110a86060830185610f4f565b6110b56080830184610f4f565b9695505050505050565b6000819050602082019050919050565b60008190508160005260206000209050919050565b600081519050919050565b600081519050919050565b6000602082019050919050565b600082825260208201905092915050565b600082825260208201905092915050565b600082825260208201905092915050565b600081905092915050565b60006111508261116a565b9050919050565b60008190506111658261140e565b919050565b600073ffffffffffffffffffffffffffffffffffffffff82169050919050565b6000819050919050565b600061119f82611157565b9050919050565b60005b838110156111c45780820151818401526020810190506111a9565b838111156111d3576000848401525b50505050565b60006111e48261118a565b915060008214156111f8576111f761127e565b5b600182039050919050565b6000600282049050600182168061121b57607f821691505b6020821081141561122f5761122e6112dc565b5b50919050565b60006112408261118a565b91507fffffffffffffffffffffffffffffffffffffffffffffffffffffffffffffffff8214156112735761127261127e565b5b600182019050919050565b7f4e487b7100000000000000000000000000000000000000000000000000000000600052601160045260246000fd5b7f4e487b7100000000000000000000000000000000000000000000000000000000600052602160045260246000fd5b7f4e487b7100000000000000000000000000000000000000000000000000000000600052602260045260246000fd5b7f4e487b7100000000000000000000000000000000000000000000000000000000600052603260045260246000fd5b7f4e487b7100000000000000000000000000000000000000000000000000000000600052604160045260246000fd5b600080fd5b600080fd5b600080fd5b600080fd5b600080fd5b6000601f19601f8301169050919050565b7f696e76616c696420707269636500000000000000000000000000000000000000600082015250565b7f4e6f7420616e206f776e65722100000000000000000000000000000000000000600082015250565b7f6f7574206f662073746f636b0000000000000000000000000000000000000000600082015250565b6002811061141f5761141e6112ad565b5b50565b61142b8161118a565b811461143657600080fd5b5056fea2646970667358221220b0ff7190c87b7e0fb0739d5da66f75ef17007058b67e7bdfd29dc9e0418c495764736f6c63430008070033",
					"opcodes": "PUSH1 0x80 PUSH1 0x40 MSTORE CALLVALUE DUP1 ISZERO PUSH2 0x10 JUMPI PUSH1 0x0 DUP1 REVERT JUMPDEST POP CALLER PUSH20 0xFFFFFFFFFFFFFFFFFFFFFFFFFFFFFFFFFFFFFFFF AND PUSH1 0x2 PUSH1 0x0 SWAP1 SLOAD SWAP1 PUSH2 0x100 EXP SWAP1 POP POP POP PUSH2 0x146F DUP1 PUSH2 0x46 PUSH1 0x0 CODECOPY PUSH1 0x0 RETURN INVALID PUSH1 0x80 PUSH1 0x40 MSTORE PUSH1 0x4 CALLDATASIZE LT PUSH2 0x55 JUMPI PUSH1 0x0 CALLDATALOAD PUSH1 0xE0 SHR DUP1 PUSH4 0x8DA5CB5B EQ PUSH2 0x5A JUMPI DUP1 PUSH4 0xA85C38EF EQ PUSH2 0x85 JUMPI DUP1 PUSH4 0xC557F979 EQ PUSH2 0xC5 JUMPI DUP1 PUSH4 0xD96A094A EQ PUSH2 0xEE JUMPI DUP1 PUSH4 0xEA5DF059 EQ PUSH2 0x10A JUMPI DUP1 PUSH4 0xEC34297A EQ PUSH2 0x14B JUMPI JUMPDEST PUSH1 0x0 DUP1 REVERT JUMPDEST CALLVALUE DUP1 ISZERO PUSH2 0x66 JUMPI PUSH1 0x0 DUP1 REVERT JUMPDEST POP PUSH2 0x6F PUSH2 0x176 JUMP JUMPDEST PUSH1 0x40 MLOAD PUSH2 0x7C SWAP2 SWAP1 PUSH2 0xF75 JUMP JUMPDEST PUSH1 0x40 MLOAD DUP1 SWAP2 SUB SWAP1 RETURN JUMPDEST CALLVALUE DUP1 ISZERO PUSH2 0x91 JUMPI PUSH1 0x0 DUP1 REVERT JUMPDEST POP PUSH2 0xAC PUSH1 0x4 DUP1 CALLDATASIZE SUB DUP2 ADD SWAP1 PUSH2 0xA7 SWAP2 SWAP1 PUSH2 0xC95 JUMP JUMPDEST PUSH2 0x19C JUMP JUMPDEST PUSH1 0x40 MLOAD PUSH2 0xBC SWAP5 SWAP4 SWAP3 SWAP2 SWAP1 PUSH2 0xFB2 JUMP JUMPDEST PUSH1 0x40 MLOAD DUP1 SWAP2 SUB SWAP1 RETURN JUMPDEST CALLVALUE DUP1 ISZERO PUSH2 0xD1 JUMPI PUSH1 0x0 DUP1 REVERT JUMPDEST POP PUSH2 0xEC PUSH1 0x4 DUP1 CALLDATASIZE SUB DUP2 ADD SWAP1 PUSH2 0xE7 SWAP2 SWAP1 PUSH2 0xBEE JUMP JUMPDEST PUSH2 0x291 JUMP JUMPDEST STOP JUMPDEST PUSH2 0x108 PUSH1 0x4 DUP1 CALLDATASIZE SUB DUP2 ADD SWAP1 PUSH2 0x103 SWAP2 SWAP1 PUSH2 0xC95 JUMP JUMPDEST PUSH2 0x477 JUMP JUMPDEST STOP JUMPDEST CALLVALUE DUP1 ISZERO PUSH2 0x116 JUMPI PUSH1 0x0 DUP1 REVERT JUMPDEST POP PUSH2 0x131 PUSH1 0x4 DUP1 CALLDATASIZE SUB DUP2 ADD SWAP1 PUSH2 0x12C SWAP2 SWAP1 PUSH2 0xC95 JUMP JUMPDEST PUSH2 0x745 JUMP JUMPDEST PUSH1 0x40 MLOAD PUSH2 0x142 SWAP6 SWAP5 SWAP4 SWAP3 SWAP2 SWAP1 PUSH2 0x105E JUMP JUMPDEST PUSH1 0x40 MLOAD DUP1 SWAP2 SUB SWAP1 RETURN JUMPDEST CALLVALUE DUP1 ISZERO PUSH2 0x157 JUMPI PUSH1 0x0 DUP1 REVERT JUMPDEST POP PUSH2 0x160 PUSH2 0x89B JUMP JUMPDEST PUSH1 0x40 MLOAD PUSH2 0x16D SWAP2 SWAP1 PUSH2 0xF90 JUMP JUMPDEST PUSH1 0x40 MLOAD DUP1 SWAP2 SUB SWAP1 RETURN JUMPDEST PUSH1 0x2 PUSH1 0x0 SWAP1 SLOAD SWAP1 PUSH2 0x100 EXP SWAP1 DIV PUSH20 0xFFFFFFFFFFFFFFFFFFFFFFFFFFFFFFFFFFFFFFFF AND DUP2 JUMP JUMPDEST PUSH1 0x1 DUP2 DUP2 SLOAD DUP2 LT PUSH2 0x1AC JUMPI PUSH1 0x0 DUP1 REVERT JUMPDEST SWAP1 PUSH1 0x0 MSTORE PUSH1 0x20 PUSH1 0x0 KECCAK256 SWAP1 PUSH1 0x4 MUL ADD PUSH1 0x0 SWAP2 POP SWAP1 POP DUP1 PUSH1 0x0 ADD DUP1 SLOAD PUSH2 0x1CF SWAP1 PUSH2 0x1203 JUMP JUMPDEST DUP1 PUSH1 0x1F ADD PUSH1 0x20 DUP1 SWAP2 DIV MUL PUSH1 0x20 ADD PUSH1 0x40 MLOAD SWAP1 DUP2 ADD PUSH1 0x40 MSTORE DUP1 SWAP3 SWAP2 SWAP1 DUP2 DUP2 MSTORE PUSH1 0x20 ADD DUP3 DUP1 SLOAD PUSH2 0x1FB SWAP1 PUSH2 0x1203 JUMP JUMPDEST DUP1 ISZERO PUSH2 0x248 JUMPI DUP1 PUSH1 0x1F LT PUSH2 0x21D JUMPI PUSH2 0x100 DUP1 DUP4 SLOAD DIV MUL DUP4 MSTORE SWAP2 PUSH1 0x20 ADD SWAP2 PUSH2 0x248 JUMP JUMPDEST DUP3 ADD SWAP2 SWAP1 PUSH1 0x0 MSTORE PUSH1 0x20 PUSH1 0x0 KECCAK256 SWAP1 JUMPDEST DUP2 SLOAD DUP2 MSTORE SWAP1 PUSH1 0x1 ADD SWAP1 PUSH1 0x20 ADD DUP1 DUP4 GT PUSH2 0x22B JUMPI DUP3 SWAP1 SUB PUSH1 0x1F AND DUP3 ADD SWAP2 JUMPDEST POP POP POP POP POP SWAP1 DUP1 PUSH1 0x1 ADD PUSH1 0x0 SWAP1 SLOAD SWAP1 PUSH2 0x100 EXP SWAP1 DIV PUSH20 0xFFFFFFFFFFFFFFFFFFFFFFFFFFFFFFFFFFFFFFFF AND SWAP1 DUP1 PUSH1 0x2 ADD SLOAD SWAP1 DUP1 PUSH1 0x3 ADD PUSH1 0x0 SWAP1 SLOAD SWAP1 PUSH2 0x100 EXP SWAP1 DIV PUSH1 0xFF AND SWAP1 POP DUP5 JUMP JUMPDEST CALLER PUSH20 0xFFFFFFFFFFFFFFFFFFFFFFFFFFFFFFFFFFFFFFFF AND PUSH1 0x2 PUSH1 0x0 SWAP1 SLOAD SWAP1 PUSH2 0x100 EXP SWAP1 DIV PUSH20 0xFFFFFFFFFFFFFFFFFFFFFFFFFFFFFFFFFFFFFFFF AND PUSH20 0xFFFFFFFFFFFFFFFFFFFFFFFFFFFFFFFFFFFFFFFF AND EQ PUSH2 0x321 JUMPI PUSH1 0x40 MLOAD PUSH32 0x8C379A000000000000000000000000000000000000000000000000000000000 DUP2 MSTORE PUSH1 0x4 ADD PUSH2 0x318 SWAP1 PUSH2 0x101E JUMP JUMPDEST PUSH1 0x40 MLOAD DUP1 SWAP2 SUB SWAP1 REVERT JUMPDEST PUSH1 0x0 PUSH1 0x40 MLOAD DUP1 PUSH1 0xA0 ADD PUSH1 0x40 MSTORE DUP1 PUSH1 0x3 SLOAD DUP2 MSTORE PUSH1 0x20 ADD DUP9 DUP9 DUP1 DUP1 PUSH1 0x1F ADD PUSH1 0x20 DUP1 SWAP2 DIV MUL PUSH1 0x20 ADD PUSH1 0x40 MLOAD SWAP1 DUP2 ADD PUSH1 0x40 MSTORE DUP1 SWAP4 SWAP3 SWAP2 SWAP1 DUP2 DUP2 MSTORE PUSH1 0x20 ADD DUP4 DUP4 DUP1 DUP3 DUP5 CALLDATACOPY PUSH1 0x0 DUP2 DUP5 ADD MSTORE PUSH1 0x1F NOT PUSH1 0x1F DUP3 ADD AND SWAP1 POP DUP1 DUP4 ADD SWAP3 POP POP POP POP POP POP POP DUP2 MSTORE PUSH1 0x20 ADD DUP7 DUP7 DUP1 DUP1 PUSH1 0x1F ADD PUSH1 0x20 DUP1 SWAP2 DIV MUL PUSH1 0x20 ADD PUSH1 0x40 MLOAD SWAP1 DUP2 ADD PUSH1 0x40 MSTORE DUP1 SWAP4 SWAP3 SWAP2 SWAP1 DUP2 DUP2 MSTORE PUSH1 0x20 ADD DUP4 DUP4 DUP1 DUP3 DUP5 CALLDATACOPY PUSH1 0x0 DUP2 DUP5 ADD MSTORE PUSH1 0x1F NOT PUSH1 0x1F DUP3 ADD AND SWAP1 POP DUP1 DUP4 ADD SWAP3 POP POP POP POP POP POP POP DUP2 MSTORE PUSH1 0x20 ADD DUP5 DUP2 MSTORE PUSH1 0x20 ADD DUP4 DUP2 MSTORE POP SWAP1 DUP1 PUSH1 0x1 DUP2 SLOAD ADD DUP1 DUP3 SSTORE DUP1 SWAP2 POP POP PUSH1 0x1 SWAP1 SUB SWAP1 PUSH1 0x0 MSTORE PUSH1 0x20 PUSH1 0x0 KECCAK256 SWAP1 PUSH1 0x5 MUL ADD PUSH1 0x0 SWAP1 SWAP2 SWAP1 SWAP2 SWAP1 SWAP2 POP PUSH1 0x0 DUP3 ADD MLOAD DUP2 PUSH1 0x0 ADD SSTORE PUSH1 0x20 DUP3 ADD MLOAD DUP2 PUSH1 0x1 ADD SWAP1 DUP1 MLOAD SWAP1 PUSH1 0x20 ADD SWAP1 PUSH2 0x423 SWAP3 SWAP2 SWAP1 PUSH2 0xAB1 JUMP JUMPDEST POP PUSH1 0x40 DUP3 ADD MLOAD DUP2 PUSH1 0x2 ADD SWAP1 DUP1 MLOAD SWAP1 PUSH1 0x20 ADD SWAP1 PUSH2 0x440 SWAP3 SWAP2 SWAP1 PUSH2 0xAB1 JUMP JUMPDEST POP PUSH1 0x60 DUP3 ADD MLOAD DUP2 PUSH1 0x3 ADD SSTORE PUSH1 0x80 DUP3 ADD MLOAD DUP2 PUSH1 0x4 ADD SSTORE POP POP PUSH1 0x3 PUSH1 0x0 DUP2 SLOAD DUP1 SWAP3 SWAP2 SWAP1 PUSH2 0x46A SWAP1 PUSH2 0x1235 JUMP JUMPDEST SWAP2 SWAP1 POP SSTORE POP POP POP POP POP POP POP JUMP JUMPDEST PUSH1 0x0 DUP1 DUP3 DUP2 SLOAD DUP2 LT PUSH2 0x48C JUMPI PUSH2 0x48B PUSH2 0x130B JUMP JUMPDEST JUMPDEST SWAP1 PUSH1 0x0 MSTORE PUSH1 0x20 PUSH1 0x0 KECCAK256 SWAP1 PUSH1 0x5 MUL ADD SWAP1 POP DUP1 PUSH1 0x3 ADD SLOAD CALLVALUE EQ PUSH2 0x4E2 JUMPI PUSH1 0x40 MLOAD PUSH32 0x8C379A000000000000000000000000000000000000000000000000000000000 DUP2 MSTORE PUSH1 0x4 ADD PUSH2 0x4D9 SWAP1 PUSH2 0xFFE JUMP JUMPDEST PUSH1 0x40 MLOAD DUP1 SWAP2 SUB SWAP1 REVERT JUMPDEST PUSH1 0x0 DUP2 PUSH1 0x4 ADD SLOAD GT PUSH2 0x529 JUMPI PUSH1 0x40 MLOAD PUSH32 0x8C379A000000000000000000000000000000000000000000000000000000000 DUP2 MSTORE PUSH1 0x4 ADD PUSH2 0x520 SWAP1 PUSH2 0x103E JUMP JUMPDEST PUSH1 0x40 MLOAD DUP1 SWAP2 SUB SWAP1 REVERT JUMPDEST DUP1 PUSH1 0x4 ADD PUSH1 0x0 DUP2 SLOAD DUP1 SWAP3 SWAP2 SWAP1 PUSH2 0x53E SWAP1 PUSH2 0x11D9 JUMP JUMPDEST SWAP2 SWAP1 POP SSTORE POP PUSH1 0x1 PUSH1 0x40 MLOAD DUP1 PUSH1 0x80 ADD PUSH1 0x40 MSTORE DUP1 DUP4 PUSH1 0x1 ADD DUP1 SLOAD PUSH2 0x55F SWAP1 PUSH2 0x1203 JUMP JUMPDEST DUP1 PUSH1 0x1F ADD PUSH1 0x20 DUP1 SWAP2 DIV MUL PUSH1 0x20 ADD PUSH1 0x40 MLOAD SWAP1 DUP2 ADD PUSH1 0x40 MSTORE DUP1 SWAP3 SWAP2 SWAP1 DUP2 DUP2 MSTORE PUSH1 0x20 ADD DUP3 DUP1 SLOAD PUSH2 0x58B SWAP1 PUSH2 0x1203 JUMP JUMPDEST DUP1 ISZERO PUSH2 0x5D8 JUMPI DUP1 PUSH1 0x1F LT PUSH2 0x5AD JUMPI PUSH2 0x100 DUP1 DUP4 SLOAD DIV MUL DUP4 MSTORE SWAP2 PUSH1 0x20 ADD SWAP2 PUSH2 0x5D8 JUMP JUMPDEST DUP3 ADD SWAP2 SWAP1 PUSH1 0x0 MSTORE PUSH1 0x20 PUSH1 0x0 KECCAK256 SWAP1 JUMPDEST DUP2 SLOAD DUP2 MSTORE SWAP1 PUSH1 0x1 ADD SWAP1 PUSH1 0x20 ADD DUP1 DUP4 GT PUSH2 0x5BB JUMPI DUP3 SWAP1 SUB PUSH1 0x1F AND DUP3 ADD SWAP2 JUMPDEST POP POP POP POP POP DUP2 MSTORE PUSH1 0x20 ADD CALLER PUSH20 0xFFFFFFFFFFFFFFFFFFFFFFFFFFFFFFFFFFFFFFFF AND DUP2 MSTORE PUSH1 0x20 ADD TIMESTAMP DUP2 MSTORE PUSH1 0x20 ADD PUSH1 0x0 PUSH1 0x1 DUP2 GT ISZERO PUSH2 0x618 JUMPI PUSH2 0x617 PUSH2 0x12AD JUMP JUMPDEST JUMPDEST DUP2 MSTORE POP SWAP1 DUP1 PUSH1 0x1 DUP2 SLOAD ADD DUP1 DUP3 SSTORE DUP1 SWAP2 POP POP PUSH1 0x1 SWAP1 SUB SWAP1 PUSH1 0x0 MSTORE PUSH1 0x20 PUSH1 0x0 KECCAK256 SWAP1 PUSH1 0x4 MUL ADD PUSH1 0x0 SWAP1 SWAP2 SWAP1 SWAP2 SWAP1 SWAP2 POP PUSH1 0x0 DUP3 ADD MLOAD DUP2 PUSH1 0x0 ADD SWAP1 DUP1 MLOAD SWAP1 PUSH1 0x20 ADD SWAP1 PUSH2 0x660 SWAP3 SWAP2 SWAP1 PUSH2 0xAB1 JUMP JUMPDEST POP PUSH1 0x20 DUP3 ADD MLOAD DUP2 PUSH1 0x1 ADD PUSH1 0x0 PUSH2 0x100 EXP DUP2 SLOAD DUP2 PUSH20 0xFFFFFFFFFFFFFFFFFFFFFFFFFFFFFFFFFFFFFFFF MUL NOT AND SWAP1 DUP4 PUSH20 0xFFFFFFFFFFFFFFFFFFFFFFFFFFFFFFFFFFFFFFFF AND MUL OR SWAP1 SSTORE POP PUSH1 0x40 DUP3 ADD MLOAD DUP2 PUSH1 0x2 ADD SSTORE PUSH1 0x60 DUP3 ADD MLOAD DUP2 PUSH1 0x3 ADD PUSH1 0x0 PUSH2 0x100 EXP DUP2 SLOAD DUP2 PUSH1 0xFF MUL NOT AND SWAP1 DUP4 PUSH1 0x1 DUP2 GT ISZERO PUSH2 0x6DD JUMPI PUSH2 0x6DC PUSH2 0x12AD JUMP JUMPDEST JUMPDEST MUL OR SWAP1 SSTORE POP POP POP TIMESTAMP CALLER PUSH20 0xFFFFFFFFFFFFFFFFFFFFFFFFFFFFFFFFFFFFFFFF AND DUP3 PUSH1 0x1 ADD PUSH1 0x40 MLOAD PUSH2 0x70D SWAP2 SWAP1 PUSH2 0xF5E JUMP JUMPDEST PUSH1 0x40 MLOAD DUP1 SWAP2 SUB SWAP1 KECCAK256 PUSH32 0xE42B480EE660A78470E1B85E3DD92F3D137F19F9E17FF60A9151F87C1A3E2C9E PUSH1 0x40 MLOAD PUSH1 0x40 MLOAD DUP1 SWAP2 SUB SWAP1 LOG4 POP POP JUMP JUMPDEST PUSH1 0x0 DUP2 DUP2 SLOAD DUP2 LT PUSH2 0x755 JUMPI PUSH1 0x0 DUP1 REVERT JUMPDEST SWAP1 PUSH1 0x0 MSTORE PUSH1 0x20 PUSH1 0x0 KECCAK256 SWAP1 PUSH1 0x5 MUL ADD PUSH1 0x0 SWAP2 POP SWAP1 POP DUP1 PUSH1 0x0 ADD SLOAD SWAP1 DUP1 PUSH1 0x1 ADD DUP1 SLOAD PUSH2 0x77E SWAP1 PUSH2 0x1203 JUMP JUMPDEST DUP1 PUSH1 0x1F ADD PUSH1 0x20 DUP1 SWAP2 DIV MUL PUSH1 0x20 ADD PUSH1 0x40 MLOAD SWAP1 DUP2 ADD PUSH1 0x40 MSTORE DUP1 SWAP3 SWAP2 SWAP1 DUP2 DUP2 MSTORE PUSH1 0x20 ADD DUP3 DUP1 SLOAD PUSH2 0x7AA SWAP1 PUSH2 0x1203 JUMP JUMPDEST DUP1 ISZERO PUSH2 0x7F7 JUMPI DUP1 PUSH1 0x1F LT PUSH2 0x7CC JUMPI PUSH2 0x100 DUP1 DUP4 SLOAD DIV MUL DUP4 MSTORE SWAP2 PUSH1 0x20 ADD SWAP2 PUSH2 0x7F7 JUMP JUMPDEST DUP3 ADD SWAP2 SWAP1 PUSH1 0x0 MSTORE PUSH1 0x20 PUSH1 0x0 KECCAK256 SWAP1 JUMPDEST DUP2 SLOAD DUP2 MSTORE SWAP1 PUSH1 0x1 ADD SWAP1 PUSH1 0x20 ADD DUP1 DUP4 GT PUSH2 0x7DA JUMPI DUP3 SWAP1 SUB PUSH1 0x1F AND DUP3 ADD SWAP2 JUMPDEST POP POP POP POP POP SWAP1 DUP1 PUSH1 0x2 ADD DUP1 SLOAD PUSH2 0x80C SWAP1 PUSH2 0x1203 JUMP JUMPDEST DUP1 PUSH1 0x1F ADD PUSH1 0x20 DUP1 SWAP2 DIV MUL PUSH1 0x20 ADD PUSH1 0x40 MLOAD SWAP1 DUP2 ADD PUSH1 0x40 MSTORE DUP1 SWAP3 SWAP2 SWAP1 DUP2 DUP2 MSTORE PUSH1 0x20 ADD DUP3 DUP1 SLOAD PUSH2 0x838 SWAP1 PUSH2 0x1203 JUMP JUMPDEST DUP1 ISZERO PUSH2 0x885 JUMPI DUP1 PUSH1 0x1F LT PUSH2 0x85A JUMPI PUSH2 0x100 DUP1 DUP4 SLOAD DIV MUL DUP4 MSTORE SWAP2 PUSH1 0x20 ADD SWAP2 PUSH2 0x885 JUMP JUMPDEST DUP3 ADD SWAP2 SWAP1 PUSH1 0x0 MSTORE PUSH1 0x20 PUSH1 0x0 KECCAK256 SWAP1 JUMPDEST DUP2 SLOAD DUP2 MSTORE SWAP1 PUSH1 0x1 ADD SWAP1 PUSH1 0x20 ADD DUP1 DUP4 GT PUSH2 0x868 JUMPI DUP3 SWAP1 SUB PUSH1 0x1F AND DUP3 ADD SWAP2 JUMPDEST POP POP POP POP POP SWAP1 DUP1 PUSH1 0x3 ADD SLOAD SWAP1 DUP1 PUSH1 0x4 ADD SLOAD SWAP1 POP DUP6 JUMP JUMPDEST PUSH1 0x60 PUSH1 0x0 DUP1 DUP1 SLOAD SWAP1 POP PUSH8 0xFFFFFFFFFFFFFFFF DUP2 GT ISZERO PUSH2 0x8BD JUMPI PUSH2 0x8BC PUSH2 0x133A JUMP JUMPDEST JUMPDEST PUSH1 0x40 MLOAD SWAP1 DUP1 DUP3 MSTORE DUP1 PUSH1 0x20 MUL PUSH1 0x20 ADD DUP3 ADD PUSH1 0x40 MSTORE DUP1 ISZERO PUSH2 0x8F6 JUMPI DUP2 PUSH1 0x20 ADD JUMPDEST PUSH2 0x8E3 PUSH2 0xB37 JUMP JUMPDEST DUP2 MSTORE PUSH1 0x20 ADD SWAP1 PUSH1 0x1 SWAP1 SUB SWAP1 DUP2 PUSH2 0x8DB JUMPI SWAP1 POP JUMPDEST POP SWAP1 POP PUSH1 0x0 JUMPDEST PUSH1 0x0 DUP1 SLOAD SWAP1 POP DUP2 LT ISZERO PUSH2 0xAA9 JUMPI PUSH1 0x0 DUP2 DUP2 SLOAD DUP2 LT PUSH2 0x91D JUMPI PUSH2 0x91C PUSH2 0x130B JUMP JUMPDEST JUMPDEST SWAP1 PUSH1 0x0 MSTORE PUSH1 0x20 PUSH1 0x0 KECCAK256 SWAP1 PUSH1 0x5 MUL ADD PUSH1 0x40 MLOAD DUP1 PUSH1 0xA0 ADD PUSH1 0x40 MSTORE SWAP1 DUP2 PUSH1 0x0 DUP3 ADD SLOAD DUP2 MSTORE PUSH1 0x20 ADD PUSH1 0x1 DUP3 ADD DUP1 SLOAD PUSH2 0x950 SWAP1 PUSH2 0x1203 JUMP JUMPDEST DUP1 PUSH1 0x1F ADD PUSH1 0x20 DUP1 SWAP2 DIV MUL PUSH1 0x20 ADD PUSH1 0x40 MLOAD SWAP1 DUP2 ADD PUSH1 0x40 MSTORE DUP1 SWAP3 SWAP2 SWAP1 DUP2 DUP2 MSTORE PUSH1 0x20 ADD DUP3 DUP1 SLOAD PUSH2 0x97C SWAP1 PUSH2 0x1203 JUMP JUMPDEST DUP1 ISZERO PUSH2 0x9C9 JUMPI DUP1 PUSH1 0x1F LT PUSH2 0x99E JUMPI PUSH2 0x100 DUP1 DUP4 SLOAD DIV MUL DUP4 MSTORE SWAP2 PUSH1 0x20 ADD SWAP2 PUSH2 0x9C9 JUMP JUMPDEST DUP3 ADD SWAP2 SWAP1 PUSH1 0x0 MSTORE PUSH1 0x20 PUSH1 0x0 KECCAK256 SWAP1 JUMPDEST DUP2 SLOAD DUP2 MSTORE SWAP1 PUSH1 0x1 ADD SWAP1 PUSH1 0x20 ADD DUP1 DUP4 GT PUSH2 0x9AC JUMPI DUP3 SWAP1 SUB PUSH1 0x1F AND DUP3 ADD SWAP2 JUMPDEST POP POP POP POP POP DUP2 MSTORE PUSH1 0x20 ADD PUSH1 0x2 DUP3 ADD DUP1 SLOAD PUSH2 0x9E2 SWAP1 PUSH2 0x1203 JUMP JUMPDEST DUP1 PUSH1 0x1F ADD PUSH1 0x20 DUP1 SWAP2 DIV MUL PUSH1 0x20 ADD PUSH1 0x40 MLOAD SWAP1 DUP2 ADD PUSH1 0x40 MSTORE DUP1 SWAP3 SWAP2 SWAP1 DUP2 DUP2 MSTORE PUSH1 0x20 ADD DUP3 DUP1 SLOAD PUSH2 0xA0E SWAP1 PUSH2 0x1203 JUMP JUMPDEST DUP1 ISZERO PUSH2 0xA5B JUMPI DUP1 PUSH1 0x1F LT PUSH2 0xA30 JUMPI PUSH2 0x100 DUP1 DUP4 SLOAD DIV MUL DUP4 MSTORE SWAP2 PUSH1 0x20 ADD SWAP2 PUSH2 0xA5B JUMP JUMPDEST DUP3 ADD SWAP2 SWAP1 PUSH1 0x0 MSTORE PUSH1 0x20 PUSH1 0x0 KECCAK256 SWAP1 JUMPDEST DUP2 SLOAD DUP2 MSTORE SWAP1 PUSH1 0x1 ADD SWAP1 PUSH1 0x20 ADD DUP1 DUP4 GT PUSH2 0xA3E JUMPI DUP3 SWAP1 SUB PUSH1 0x1F AND DUP3 ADD SWAP2 JUMPDEST POP POP POP POP POP DUP2 MSTORE PUSH1 0x20 ADD PUSH1 0x3 DUP3 ADD SLOAD DUP2 MSTORE PUSH1 0x20 ADD PUSH1 0x4 DUP3 ADD SLOAD DUP2 MSTORE POP POP DUP3 DUP3 DUP2 MLOAD DUP2 LT PUSH2 0xA8B JUMPI PUSH2 0xA8A PUSH2 0x130B JUMP JUMPDEST JUMPDEST PUSH1 0x20 MUL PUSH1 0x20 ADD ADD DUP2 SWAP1 MSTORE POP DUP1 DUP1 PUSH2 0xAA1 SWAP1 PUSH2 0x1235 JUMP JUMPDEST SWAP2 POP POP PUSH2 0x8FC JUMP JUMPDEST POP DUP1 SWAP2 POP POP SWAP1 JUMP JUMPDEST DUP3 DUP1 SLOAD PUSH2 0xABD SWAP1 PUSH2 0x1203 JUMP JUMPDEST SWAP1 PUSH1 0x0 MSTORE PUSH1 0x20 PUSH1 0x0 KECCAK256 SWAP1 PUSH1 0x1F ADD PUSH1 0x20 SWAP1 DIV DUP2 ADD SWAP3 DUP3 PUSH2 0xADF JUMPI PUSH1 0x0 DUP6 SSTORE PUSH2 0xB26 JUMP JUMPDEST DUP3 PUSH1 0x1F LT PUSH2 0xAF8 JUMPI DUP1 MLOAD PUSH1 0xFF NOT AND DUP4 DUP1 ADD OR DUP6 SSTORE PUSH2 0xB26 JUMP JUMPDEST DUP3 DUP1 ADD PUSH1 0x1 ADD DUP6 SSTORE DUP3 ISZERO PUSH2 0xB26 JUMPI SWAP2 DUP3 ADD JUMPDEST DUP3 DUP2 GT ISZERO PUSH2 0xB25 JUMPI DUP3 MLOAD DUP3 SSTORE SWAP2 PUSH1 0x20 ADD SWAP2 SWAP1 PUSH1 0x1 ADD SWAP1 PUSH2 0xB0A JUMP JUMPDEST JUMPDEST POP SWAP1 POP PUSH2 0xB33 SWAP2 SWAP1 PUSH2 0xB66 JUMP JUMPDEST POP SWAP1 JUMP JUMPDEST PUSH1 0x40 MLOAD DUP1 PUSH1 0xA0 ADD PUSH1 0x40 MSTORE DUP1 PUSH1 0x0 DUP2 MSTORE PUSH1 0x20 ADD PUSH1 0x60 DUP2 MSTORE PUSH1 0x20 ADD PUSH1 0x60 DUP2 MSTORE PUSH1 0x20 ADD PUSH1 0x0 DUP2 MSTORE PUSH1 0x20 ADD PUSH1 0x0 DUP2 MSTORE POP SWAP1 JUMP JUMPDEST JUMPDEST DUP1 DUP3 GT ISZERO PUSH2 0xB7F JUMPI PUSH1 0x0 DUP2 PUSH1 0x0 SWAP1 SSTORE POP PUSH1 0x1 ADD PUSH2 0xB67 JUMP JUMPDEST POP SWAP1 JUMP JUMPDEST PUSH1 0x0 DUP1 DUP4 PUSH1 0x1F DUP5 ADD SLT PUSH2 0xB99 JUMPI PUSH2 0xB98 PUSH2 0x136E JUMP JUMPDEST JUMPDEST DUP3 CALLDATALOAD SWAP1 POP PUSH8 0xFFFFFFFFFFFFFFFF DUP2 GT ISZERO PUSH2 0xBB6 JUMPI PUSH2 0xBB5 PUSH2 0x1369 JUMP JUMPDEST JUMPDEST PUSH1 0x20 DUP4 ADD SWAP2 POP DUP4 PUSH1 0x1 DUP3 MUL DUP4 ADD GT ISZERO PUSH2 0xBD2 JUMPI PUSH2 0xBD1 PUSH2 0x1373 JUMP JUMPDEST JUMPDEST SWAP3 POP SWAP3 SWAP1 POP JUMP JUMPDEST PUSH1 0x0 DUP2 CALLDATALOAD SWAP1 POP PUSH2 0xBE8 DUP2 PUSH2 0x1422 JUMP JUMPDEST SWAP3 SWAP2 POP POP JUMP JUMPDEST PUSH1 0x0 DUP1 PUSH1 0x0 DUP1 PUSH1 0x0 DUP1 PUSH1 0x80 DUP8 DUP10 SUB SLT ISZERO PUSH2 0xC0B JUMPI PUSH2 0xC0A PUSH2 0x137D JUMP JUMPDEST JUMPDEST PUSH1 0x0 DUP8 ADD CALLDATALOAD PUSH8 0xFFFFFFFFFFFFFFFF DUP2 GT ISZERO PUSH2 0xC29 JUMPI PUSH2 0xC28 PUSH2 0x1378 JUMP JUMPDEST JUMPDEST PUSH2 0xC35 DUP10 DUP3 DUP11 ADD PUSH2 0xB83 JUMP JUMPDEST SWAP7 POP SWAP7 POP POP PUSH1 0x20 DUP8 ADD CALLDATALOAD PUSH8 0xFFFFFFFFFFFFFFFF DUP2 GT ISZERO PUSH2 0xC58 JUMPI PUSH2 0xC57 PUSH2 0x1378 JUMP JUMPDEST JUMPDEST PUSH2 0xC64 DUP10 DUP3 DUP11 ADD PUSH2 0xB83 JUMP JUMPDEST SWAP5 POP SWAP5 POP POP PUSH1 0x40 PUSH2 0xC77 DUP10 DUP3 DUP11 ADD PUSH2 0xBD9 JUMP JUMPDEST SWAP3 POP POP PUSH1 0x60 PUSH2 0xC88 DUP10 DUP3 DUP11 ADD PUSH2 0xBD9 JUMP JUMPDEST SWAP2 POP POP SWAP3 SWAP6 POP SWAP3 SWAP6 POP SWAP3 SWAP6 JUMP JUMPDEST PUSH1 0x0 PUSH1 0x20 DUP3 DUP5 SUB SLT ISZERO PUSH2 0xCAB JUMPI PUSH2 0xCAA PUSH2 0x137D JUMP JUMPDEST JUMPDEST PUSH1 0x0 PUSH2 0xCB9 DUP5 DUP3 DUP6 ADD PUSH2 0xBD9 JUMP JUMPDEST SWAP2 POP POP SWAP3 SWAP2 POP POP JUMP JUMPDEST PUSH1 0x0 PUSH2 0xCCE DUP4 DUP4 PUSH2 0xEC3 JUMP JUMPDEST SWAP1 POP SWAP3 SWAP2 POP POP JUMP JUMPDEST PUSH2 0xCDF DUP2 PUSH2 0x1145 JUMP JUMPDEST DUP3 MSTORE POP POP JUMP JUMPDEST PUSH1 0x0 PUSH2 0xCF0 DUP3 PUSH2 0x10E4 JUMP JUMPDEST PUSH2 0xCFA DUP2 DUP6 PUSH2 0x1107 JUMP JUMPDEST SWAP4 POP DUP4 PUSH1 0x20 DUP3 MUL DUP6 ADD PUSH2 0xD0C DUP6 PUSH2 0x10BF JUMP JUMPDEST DUP1 PUSH1 0x0 JUMPDEST DUP6 DUP2 LT ISZERO PUSH2 0xD48 JUMPI DUP5 DUP5 SUB DUP10 MSTORE DUP2 MLOAD PUSH2 0xD29 DUP6 DUP3 PUSH2 0xCC2 JUMP JUMPDEST SWAP5 POP PUSH2 0xD34 DUP4 PUSH2 0x10FA JUMP JUMPDEST SWAP3 POP PUSH1 0x20 DUP11 ADD SWAP10 POP POP PUSH1 0x1 DUP2 ADD SWAP1 POP PUSH2 0xD10 JUMP JUMPDEST POP DUP3 SWAP8 POP DUP8 SWAP6 POP POP POP POP POP POP SWAP3 SWAP2 POP POP JUMP JUMPDEST PUSH2 0xD63 DUP2 PUSH2 0x1194 JUMP JUMPDEST DUP3 MSTORE POP POP JUMP JUMPDEST PUSH1 0x0 PUSH2 0xD74 DUP3 PUSH2 0x10EF JUMP JUMPDEST PUSH2 0xD7E DUP2 DUP6 PUSH2 0x1118 JUMP JUMPDEST SWAP4 POP PUSH2 0xD8E DUP2 DUP6 PUSH1 0x20 DUP7 ADD PUSH2 0x11A6 JUMP JUMPDEST PUSH2 0xD97 DUP2 PUSH2 0x1382 JUMP JUMPDEST DUP5 ADD SWAP2 POP POP SWAP3 SWAP2 POP POP JUMP JUMPDEST PUSH1 0x0 PUSH2 0xDAD DUP3 PUSH2 0x10EF JUMP JUMPDEST PUSH2 0xDB7 DUP2 DUP6 PUSH2 0x1129 JUMP JUMPDEST SWAP4 POP PUSH2 0xDC7 DUP2 DUP6 PUSH1 0x20 DUP7 ADD PUSH2 0x11A6 JUMP JUMPDEST PUSH2 0xDD0 DUP2 PUSH2 0x1382 JUMP JUMPDEST DUP5 ADD SWAP2 POP POP SWAP3 SWAP2 POP POP JUMP JUMPDEST PUSH1 0x0 DUP2 SLOAD PUSH2 0xDE8 DUP2 PUSH2 0x1203 JUMP JUMPDEST PUSH2 0xDF2 DUP2 DUP7 PUSH2 0x113A JUMP JUMPDEST SWAP5 POP PUSH1 0x1 DUP3 AND PUSH1 0x0 DUP2 EQ PUSH2 0xE0D JUMPI PUSH1 0x1 DUP2 EQ PUSH2 0xE1E JUMPI PUSH2 0xE51 JUMP JUMPDEST PUSH1 0xFF NOT DUP4 AND DUP7 MSTORE DUP2 DUP7 ADD SWAP4 POP PUSH2 0xE51 JUMP JUMPDEST PUSH2 0xE27 DUP6 PUSH2 0x10CF JUMP JUMPDEST PUSH1 0x0 JUMPDEST DUP4 DUP2 LT ISZERO PUSH2 0xE49 JUMPI DUP2 SLOAD DUP2 DUP10 ADD MSTORE PUSH1 0x1 DUP3 ADD SWAP2 POP PUSH1 0x20 DUP2 ADD SWAP1 POP PUSH2 0xE2A JUMP JUMPDEST DUP4 DUP9 ADD SWAP6 POP POP POP JUMPDEST POP POP POP SWAP3 SWAP2 POP POP JUMP JUMPDEST PUSH1 0x0 PUSH2 0xE67 PUSH1 0xD DUP4 PUSH2 0x1129 JUMP JUMPDEST SWAP2 POP PUSH2 0xE72 DUP3 PUSH2 0x1393 JUMP JUMPDEST PUSH1 0x20 DUP3 ADD SWAP1 POP SWAP2 SWAP1 POP JUMP JUMPDEST PUSH1 0x0 PUSH2 0xE8A PUSH1 0xD DUP4 PUSH2 0x1129 JUMP JUMPDEST SWAP2 POP PUSH2 0xE95 DUP3 PUSH2 0x13BC JUMP JUMPDEST PUSH1 0x20 DUP3 ADD SWAP1 POP SWAP2 SWAP1 POP JUMP JUMPDEST PUSH1 0x0 PUSH2 0xEAD PUSH1 0xC DUP4 PUSH2 0x1129 JUMP JUMPDEST SWAP2 POP PUSH2 0xEB8 DUP3 PUSH2 0x13E5 JUMP JUMPDEST PUSH1 0x20 DUP3 ADD SWAP1 POP SWAP2 SWAP1 POP JUMP JUMPDEST PUSH1 0x0 PUSH1 0xA0 DUP4 ADD PUSH1 0x0 DUP4 ADD MLOAD PUSH2 0xEDB PUSH1 0x0 DUP7 ADD DUP3 PUSH2 0xF40 JUMP JUMPDEST POP PUSH1 0x20 DUP4 ADD MLOAD DUP5 DUP3 SUB PUSH1 0x20 DUP7 ADD MSTORE PUSH2 0xEF3 DUP3 DUP3 PUSH2 0xD69 JUMP JUMPDEST SWAP2 POP POP PUSH1 0x40 DUP4 ADD MLOAD DUP5 DUP3 SUB PUSH1 0x40 DUP7 ADD MSTORE PUSH2 0xF0D DUP3 DUP3 PUSH2 0xD69 JUMP JUMPDEST SWAP2 POP POP PUSH1 0x60 DUP4 ADD MLOAD PUSH2 0xF22 PUSH1 0x60 DUP7 ADD DUP3 PUSH2 0xF40 JUMP JUMPDEST POP PUSH1 0x80 DUP4 ADD MLOAD PUSH2 0xF35 PUSH1 0x80 DUP7 ADD DUP3 PUSH2 0xF40 JUMP JUMPDEST POP DUP1 SWAP2 POP POP SWAP3 SWAP2 POP POP JUMP JUMPDEST PUSH2 0xF49 DUP2 PUSH2 0x118A JUMP JUMPDEST DUP3 MSTORE POP POP JUMP JUMPDEST PUSH2 0xF58 DUP2 PUSH2 0x118A JUMP JUMPDEST DUP3 MSTORE POP POP JUMP JUMPDEST PUSH1 0x0 PUSH2 0xF6A DUP3 DUP5 PUSH2 0xDDB JUMP JUMPDEST SWAP2 POP DUP2 SWAP1 POP SWAP3 SWAP2 POP POP JUMP JUMPDEST PUSH1 0x0 PUSH1 0x20 DUP3 ADD SWAP1 POP PUSH2 0xF8A PUSH1 0x0 DUP4 ADD DUP5 PUSH2 0xCD6 JUMP JUMPDEST SWAP3 SWAP2 POP POP JUMP JUMPDEST PUSH1 0x0 PUSH1 0x20 DUP3 ADD SWAP1 POP DUP2 DUP2 SUB PUSH1 0x0 DUP4 ADD MSTORE PUSH2 0xFAA DUP2 DUP5 PUSH2 0xCE5 JUMP JUMPDEST SWAP1 POP SWAP3 SWAP2 POP POP JUMP JUMPDEST PUSH1 0x0 PUSH1 0x80 DUP3 ADD SWAP1 POP DUP2 DUP2 SUB PUSH1 0x0 DUP4 ADD MSTORE PUSH2 0xFCC DUP2 DUP8 PUSH2 0xDA2 JUMP JUMPDEST SWAP1 POP PUSH2 0xFDB PUSH1 0x20 DUP4 ADD DUP7 PUSH2 0xCD6 JUMP JUMPDEST PUSH2 0xFE8 PUSH1 0x40 DUP4 ADD DUP6 PUSH2 0xF4F JUMP JUMPDEST PUSH2 0xFF5 PUSH1 0x60 DUP4 ADD DUP5 PUSH2 0xD5A JUMP JUMPDEST SWAP6 SWAP5 POP POP POP POP POP JUMP JUMPDEST PUSH1 0x0 PUSH1 0x20 DUP3 ADD SWAP1 POP DUP2 DUP2 SUB PUSH1 0x0 DUP4 ADD MSTORE PUSH2 0x1017 DUP2 PUSH2 0xE5A JUMP JUMPDEST SWAP1 POP SWAP2 SWAP1 POP JUMP JUMPDEST PUSH1 0x0 PUSH1 0x20 DUP3 ADD SWAP1 POP DUP2 DUP2 SUB PUSH1 0x0 DUP4 ADD MSTORE PUSH2 0x1037 DUP2 PUSH2 0xE7D JUMP JUMPDEST SWAP1 POP SWAP2 SWAP1 POP JUMP JUMPDEST PUSH1 0x0 PUSH1 0x20 DUP3 ADD SWAP1 POP DUP2 DUP2 SUB PUSH1 0x0 DUP4 ADD MSTORE PUSH2 0x1057 DUP2 PUSH2 0xEA0 JUMP JUMPDEST SWAP1 POP SWAP2 SWAP1 POP JUMP JUMPDEST PUSH1 0x0 PUSH1 0xA0 DUP3 ADD SWAP1 POP PUSH2 0x1073 PUSH1 0x0 DUP4 ADD DUP9 PUSH2 0xF4F JUMP JUMPDEST DUP2 DUP2 SUB PUSH1 0x20 DUP4 ADD MSTORE PUSH2 0x1085 DUP2 DUP8 PUSH2 0xDA2 JUMP JUMPDEST SWAP1 POP DUP2 DUP2 SUB PUSH1 0x40 DUP4 ADD MSTORE PUSH2 0x1099 DUP2 DUP7 PUSH2 0xDA2 JUMP JUMPDEST SWAP1 POP PUSH2 0x10A8 PUSH1 0x60 DUP4 ADD DUP6 PUSH2 0xF4F JUMP JUMPDEST PUSH2 0x10B5 PUSH1 0x80 DUP4 ADD DUP5 PUSH2 0xF4F JUMP JUMPDEST SWAP7 SWAP6 POP POP POP POP POP POP JUMP JUMPDEST PUSH1 0x0 DUP2 SWAP1 POP PUSH1 0x20 DUP3 ADD SWAP1 POP SWAP2 SWAP1 POP JUMP JUMPDEST PUSH1 0x0 DUP2 SWAP1 POP DUP2 PUSH1 0x0 MSTORE PUSH1 0x20 PUSH1 0x0 KECCAK256 SWAP1 POP SWAP2 SWAP1 POP JUMP JUMPDEST PUSH1 0x0 DUP2 MLOAD SWAP1 POP SWAP2 SWAP1 POP JUMP JUMPDEST PUSH1 0x0 DUP2 MLOAD SWAP1 POP SWAP2 SWAP1 POP JUMP JUMPDEST PUSH1 0x0 PUSH1 0x20 DUP3 ADD SWAP1 POP SWAP2 SWAP1 POP JUMP JUMPDEST PUSH1 0x0 DUP3 DUP3 MSTORE PUSH1 0x20 DUP3 ADD SWAP1 POP SWAP3 SWAP2 POP POP JUMP JUMPDEST PUSH1 0x0 DUP3 DUP3 MSTORE PUSH1 0x20 DUP3 ADD SWAP1 POP SWAP3 SWAP2 POP POP JUMP JUMPDEST PUSH1 0x0 DUP3 DUP3 MSTORE PUSH1 0x20 DUP3 ADD SWAP1 POP SWAP3 SWAP2 POP POP JUMP JUMPDEST PUSH1 0x0 DUP2 SWAP1 POP SWAP3 SWAP2 POP POP JUMP JUMPDEST PUSH1 0x0 PUSH2 0x1150 DUP3 PUSH2 0x116A JUMP JUMPDEST SWAP1 POP SWAP2 SWAP1 POP JUMP JUMPDEST PUSH1 0x0 DUP2 SWAP1 POP PUSH2 0x1165 DUP3 PUSH2 0x140E JUMP JUMPDEST SWAP2 SWAP1 POP JUMP JUMPDEST PUSH1 0x0 PUSH20 0xFFFFFFFFFFFFFFFFFFFFFFFFFFFFFFFFFFFFFFFF DUP3 AND SWAP1 POP SWAP2 SWAP1 POP JUMP JUMPDEST PUSH1 0x0 DUP2 SWAP1 POP SWAP2 SWAP1 POP JUMP JUMPDEST PUSH1 0x0 PUSH2 0x119F DUP3 PUSH2 0x1157 JUMP JUMPDEST SWAP1 POP SWAP2 SWAP1 POP JUMP JUMPDEST PUSH1 0x0 JUMPDEST DUP4 DUP2 LT ISZERO PUSH2 0x11C4 JUMPI DUP1 DUP3 ADD MLOAD DUP2 DUP5 ADD MSTORE PUSH1 0x20 DUP2 ADD SWAP1 POP PUSH2 0x11A9 JUMP JUMPDEST DUP4 DUP2 GT ISZERO PUSH2 0x11D3 JUMPI PUSH1 0x0 DUP5 DUP5 ADD MSTORE JUMPDEST POP POP POP POP JUMP JUMPDEST PUSH1 0x0 PUSH2 0x11E4 DUP3 PUSH2 0x118A JUMP JUMPDEST SWAP2 POP PUSH1 0x0 DUP3 EQ ISZERO PUSH2 0x11F8 JUMPI PUSH2 0x11F7 PUSH2 0x127E JUMP JUMPDEST JUMPDEST PUSH1 0x1 DUP3 SUB SWAP1 POP SWAP2 SWAP1 POP JUMP JUMPDEST PUSH1 0x0 PUSH1 0x2 DUP3 DIV SWAP1 POP PUSH1 0x1 DUP3 AND DUP1 PUSH2 0x121B JUMPI PUSH1 0x7F DUP3 AND SWAP2 POP JUMPDEST PUSH1 0x20 DUP3 LT DUP2 EQ ISZERO PUSH2 0x122F JUMPI PUSH2 0x122E PUSH2 0x12DC JUMP JUMPDEST JUMPDEST POP SWAP2 SWAP1 POP JUMP JUMPDEST PUSH1 0x0 PUSH2 0x1240 DUP3 PUSH2 0x118A JUMP JUMPDEST SWAP2 POP PUSH32 0xFFFFFFFFFFFFFFFFFFFFFFFFFFFFFFFFFFFFFFFFFFFFFFFFFFFFFFFFFFFFFFFF DUP3 EQ ISZERO PUSH2 0x1273 JUMPI PUSH2 0x1272 PUSH2 0x127E JUMP JUMPDEST JUMPDEST PUSH1 0x1 DUP3 ADD SWAP1 POP SWAP2 SWAP1 POP JUMP JUMPDEST PUSH32 0x4E487B7100000000000000000000000000000000000000000000000000000000 PUSH1 0x0 MSTORE PUSH1 0x11 PUSH1 0x4 MSTORE PUSH1 0x24 PUSH1 0x0 REVERT JUMPDEST PUSH32 0x4E487B7100000000000000000000000000000000000000000000000000000000 PUSH1 0x0 MSTORE PUSH1 0x21 PUSH1 0x4 MSTORE PUSH1 0x24 PUSH1 0x0 REVERT JUMPDEST PUSH32 0x4E487B7100000000000000000000000000000000000000000000000000000000 PUSH1 0x0 MSTORE PUSH1 0x22 PUSH1 0x4 MSTORE PUSH1 0x24 PUSH1 0x0 REVERT JUMPDEST PUSH32 0x4E487B7100000000000000000000000000000000000000000000000000000000 PUSH1 0x0 MSTORE PUSH1 0x32 PUSH1 0x4 MSTORE PUSH1 0x24 PUSH1 0x0 REVERT JUMPDEST PUSH32 0x4E487B7100000000000000000000000000000000000000000000000000000000 PUSH1 0x0 MSTORE PUSH1 0x41 PUSH1 0x4 MSTORE PUSH1 0x24 PUSH1 0x0 REVERT JUMPDEST PUSH1 0x0 DUP1 REVERT JUMPDEST PUSH1 0x0 DUP1 REVERT JUMPDEST PUSH1 0x0 DUP1 REVERT JUMPDEST PUSH1 0x0 DUP1 REVERT JUMPDEST PUSH1 0x0 DUP1 REVERT JUMPDEST PUSH1 0x0 PUSH1 0x1F NOT PUSH1 0x1F DUP4 ADD AND SWAP1 POP SWAP2 SWAP1 POP JUMP JUMPDEST PUSH32 0x696E76616C696420707269636500000000000000000000000000000000000000 PUSH1 0x0 DUP3 ADD MSTORE POP JUMP JUMPDEST PUSH32 0x4E6F7420616E206F776E65722100000000000000000000000000000000000000 PUSH1 0x0 DUP3 ADD MSTORE POP JUMP JUMPDEST PUSH32 0x6F7574206F662073746F636B0000000000000000000000000000000000000000 PUSH1 0x0 DUP3 ADD MSTORE POP JUMP JUMPDEST PUSH1 0x2 DUP2 LT PUSH2 0x141F JUMPI PUSH2 0x141E PUSH2 0x12AD JUMP JUMPDEST JUMPDEST POP JUMP JUMPDEST PUSH2 0x142B DUP2 PUSH2 0x118A JUMP JUMPDEST DUP2 EQ PUSH2 0x1436 JUMPI PUSH1 0x0 DUP1 REVERT JUMPDEST POP JUMP INVALID LOG2 PUSH5 0x6970667358 0x22 SLT KECCAK256 0xB0 SELFDESTRUCT PUSH18 0x90C87B7E0FB0739D5DA66F75EF17007058B6 PUSH31 0x7BDFD29DC9E0418C495764736F6C6343000807003300000000000000000000 "
				},
				"gasEstimates": {
					"creation": {
						"codeDepositCost": "1046200",
						"executionCost": "3229",
						"totalCost": "1049429"
					},
					"external": {
						"addAlbum(string,string,uint256,uint256)": "infinite",
						"albums(uint256)": "infinite",
						"allAlbums()": "infinite",
						"buy(uint256)": "infinite",
						"orders(uint256)": "infinite",
						"owner()": "2492"
					}
				},
				"methodIdentifiers": {
					"addAlbum(string,string,uint256,uint256)": "c557f979",
					"albums(uint256)": "ea5df059",
					"allAlbums()": "ec34297a",
					"buy(uint256)": "d96a094a",
					"orders(uint256)": "a85c38ef",
					"owner()": "8da5cb5b"
				}
			},
			"storageLayout": {
				"storage": [
					{
						"astId": 29,
						"contract": "contracts/MusicStore.sol:MusicStore",
						"label": "albums",
						"offset": 0,
						"slot": "0",
						"type": "t_array(t_struct(Album)12_storage)dyn_storage"
					},
					{
						"astId": 33,
						"contract": "contracts/MusicStore.sol:MusicStore",
						"label": "orders",
						"offset": 0,
						"slot": "1",
						"type": "t_array(t_struct(Order)22_storage)dyn_storage"
					},
					{
						"astId": 35,
						"contract": "contracts/MusicStore.sol:MusicStore",
						"label": "owner",
						"offset": 0,
						"slot": "2",
						"type": "t_address"
					},
					{
						"astId": 37,
						"contract": "contracts/MusicStore.sol:MusicStore",
						"label": "currentIndex",
						"offset": 0,
						"slot": "3",
						"type": "t_uint256"
					}
				],
				"types": {
					"t_address": {
						"encoding": "inplace",
						"label": "address",
						"numberOfBytes": "20"
					},
					"t_array(t_struct(Album)12_storage)dyn_storage": {
						"base": "t_struct(Album)12_storage",
						"encoding": "dynamic_array",
						"label": "struct MusicStore.Album[]",
						"numberOfBytes": "32"
					},
					"t_array(t_struct(Order)22_storage)dyn_storage": {
						"base": "t_struct(Order)22_storage",
						"encoding": "dynamic_array",
						"label": "struct MusicStore.Order[]",
						"numberOfBytes": "32"
					},
					"t_enum(OrderStatus)25": {
						"encoding": "inplace",
						"label": "enum MusicStore.OrderStatus",
						"numberOfBytes": "1"
					},
					"t_string_storage": {
						"encoding": "bytes",
						"label": "string",
						"numberOfBytes": "32"
					},
					"t_struct(Album)12_storage": {
						"encoding": "inplace",
						"label": "struct MusicStore.Album",
						"members": [
							{
								"astId": 3,
								"contract": "contracts/MusicStore.sol:MusicStore",
								"label": "index",
								"offset": 0,
								"slot": "0",
								"type": "t_uint256"
							},
							{
								"astId": 5,
								"contract": "contracts/MusicStore.sol:MusicStore",
								"label": "uid",
								"offset": 0,
								"slot": "1",
								"type": "t_string_storage"
							},
							{
								"astId": 7,
								"contract": "contracts/MusicStore.sol:MusicStore",
								"label": "title",
								"offset": 0,
								"slot": "2",
								"type": "t_string_storage"
							},
							{
								"astId": 9,
								"contract": "contracts/MusicStore.sol:MusicStore",
								"label": "price",
								"offset": 0,
								"slot": "3",
								"type": "t_uint256"
							},
							{
								"astId": 11,
								"contract": "contracts/MusicStore.sol:MusicStore",
								"label": "quantity",
								"offset": 0,
								"slot": "4",
								"type": "t_uint256"
							}
						],
						"numberOfBytes": "160"
					},
					"t_struct(Order)22_storage": {
						"encoding": "inplace",
						"label": "struct MusicStore.Order",
						"members": [
							{
								"astId": 14,
								"contract": "contracts/MusicStore.sol:MusicStore",
								"label": "albumUid",
								"offset": 0,
								"slot": "0",
								"type": "t_string_storage"
							},
							{
								"astId": 16,
								"contract": "contracts/MusicStore.sol:MusicStore",
								"label": "customer",
								"offset": 0,
								"slot": "1",
								"type": "t_address"
							},
							{
								"astId": 18,
								"contract": "contracts/MusicStore.sol:MusicStore",
								"label": "orderAt",
								"offset": 0,
								"slot": "2",
								"type": "t_uint256"
							},
							{
								"astId": 21,
								"contract": "contracts/MusicStore.sol:MusicStore",
								"label": "status",
								"offset": 0,
								"slot": "3",
								"type": "t_enum(OrderStatus)25"
							}
						],
						"numberOfBytes": "128"
					},
					"t_uint256": {
						"encoding": "inplace",
						"label": "uint256",
						"numberOfBytes": "32"
					}
				}
			},
			"userdoc": {
				"kind": "user",
				"methods": {},
				"version": 1
			}
		}
	}
}