{
	"contracts/MusicStore.sol": {
		"MusicStore": {
			"abi": [
				{
					"inputs": [],
					"stateMutability": "nonpayable",
					"type": "constructor"
				},
				{
					"inputs": [
						{
							"internalType": "string",
							"name": "uid",
							"type": "string"
						},
						{
							"internalType": "string",
							"name": "title",
							"type": "string"
						},
						{
							"internalType": "uint256",
							"name": "price",
							"type": "uint256"
						},
						{
							"internalType": "uint256",
							"name": "quantity",
							"type": "uint256"
						}
					],
					"name": "addAlbum",
					"outputs": [],
					"stateMutability": "nonpayable",
					"type": "function"
				},
				{
					"inputs": [
						{
							"internalType": "uint256",
							"name": "",
							"type": "uint256"
						}
					],
					"name": "albums",
					"outputs": [
						{
							"internalType": "string",
							"name": "uid",
							"type": "string"
						},
						{
							"internalType": "string",
							"name": "title",
							"type": "string"
						},
						{
							"internalType": "uint256",
							"name": "price",
							"type": "uint256"
						},
						{
							"internalType": "uint256",
							"name": "quantity",
							"type": "uint256"
						}
					],
					"stateMutability": "view",
					"type": "function"
				},
				{
					"inputs": [
						{
							"internalType": "uint256",
							"name": "",
							"type": "uint256"
						}
					],
					"name": "orders",
					"outputs": [
						{
							"internalType": "string",
							"name": "albumUid",
							"type": "string"
						},
						{
							"internalType": "address",
							"name": "customer",
							"type": "address"
						},
						{
							"internalType": "uint256",
							"name": "orderAt",
							"type": "uint256"
						},
						{
							"internalType": "enum MusicStore.OrderStatus",
							"name": "status",
							"type": "uint8"
						}
					],
					"stateMutability": "view",
					"type": "function"
				},
				{
					"inputs": [],
					"name": "owner",
					"outputs": [
						{
							"internalType": "address",
							"name": "",
							"type": "address"
						}
					],
					"stateMutability": "view",
					"type": "function"
				}
			],
			"devdoc": {
				"kind": "dev",
				"methods": {},
				"version": 1
			},
			"evm": {
				"assembly": "    /* \"contracts/MusicStore.sol\":57:924  contract MusicStore {... */\n  mstore(0x40, 0x80)\n    /* \"contracts/MusicStore.sol\":545:595  constructor() {... */\n  callvalue\n  dup1\n  iszero\n  tag_1\n  jumpi\n  0x00\n  dup1\n  revert\ntag_1:\n  pop\n    /* \"contracts/MusicStore.sol\":578:588  msg.sender */\n  caller\n    /* \"contracts/MusicStore.sol\":569:588  owner == msg.sender */\n  0xffffffffffffffffffffffffffffffffffffffff\n  and\n    /* \"contracts/MusicStore.sol\":569:574  owner */\n  0x02\n  0x00\n  swap1\n  sload\n  swap1\n  0x0100\n  exp\n  swap1\n  pop\n  pop\n    /* \"contracts/MusicStore.sol\":569:588  owner == msg.sender */\n  pop\n    /* \"contracts/MusicStore.sol\":57:924  contract MusicStore {... */\n  dataSize(sub_0)\n  dup1\n  dataOffset(sub_0)\n  0x00\n  codecopy\n  0x00\n  return\nstop\n\nsub_0: assembly {\n        /* \"contracts/MusicStore.sol\":57:924  contract MusicStore {... */\n      mstore(0x40, 0x80)\n      callvalue\n      dup1\n      iszero\n      tag_1\n      jumpi\n      0x00\n      dup1\n      revert\n    tag_1:\n      pop\n      jumpi(tag_2, lt(calldatasize, 0x04))\n      shr(0xe0, calldataload(0x00))\n      dup1\n      0x8da5cb5b\n      eq\n      tag_3\n      jumpi\n      dup1\n      0xa85c38ef\n      eq\n      tag_4\n      jumpi\n      dup1\n      0xc557f979\n      eq\n      tag_5\n      jumpi\n      dup1\n      0xea5df059\n      eq\n      tag_6\n      jumpi\n    tag_2:\n      0x00\n      dup1\n      revert\n        /* \"contracts/MusicStore.sol\":418:438  address public owner */\n    tag_3:\n      tag_7\n      tag_8\n      jump\t// in\n    tag_7:\n      mload(0x40)\n      tag_9\n      swap2\n      swap1\n      tag_10\n      jump\t// in\n    tag_9:\n      mload(0x40)\n      dup1\n      swap2\n      sub\n      swap1\n      return\n        /* \"contracts/MusicStore.sol\":390:411  Order[] public orders */\n    tag_4:\n      tag_11\n      0x04\n      dup1\n      calldatasize\n      sub\n      dup2\n      add\n      swap1\n      tag_12\n      swap2\n      swap1\n      tag_13\n      jump\t// in\n    tag_12:\n      tag_14\n      jump\t// in\n    tag_11:\n      mload(0x40)\n      tag_15\n      swap5\n      swap4\n      swap3\n      swap2\n      swap1\n      tag_16\n      jump\t// in\n    tag_15:\n      mload(0x40)\n      dup1\n      swap2\n      sub\n      swap1\n      return\n        /* \"contracts/MusicStore.sol\":601:922  function addAlbum(... */\n    tag_5:\n      tag_17\n      0x04\n      dup1\n      calldatasize\n      sub\n      dup2\n      add\n      swap1\n      tag_18\n      swap2\n      swap1\n      tag_19\n      jump\t// in\n    tag_18:\n      tag_20\n      jump\t// in\n    tag_17:\n      stop\n        /* \"contracts/MusicStore.sol\":363:384  Album[] public albums */\n    tag_6:\n      tag_21\n      0x04\n      dup1\n      calldatasize\n      sub\n      dup2\n      add\n      swap1\n      tag_22\n      swap2\n      swap1\n      tag_13\n      jump\t// in\n    tag_22:\n      tag_23\n      jump\t// in\n    tag_21:\n      mload(0x40)\n      tag_24\n      swap5\n      swap4\n      swap3\n      swap2\n      swap1\n      tag_25\n      jump\t// in\n    tag_24:\n      mload(0x40)\n      dup1\n      swap2\n      sub\n      swap1\n      return\n        /* \"contracts/MusicStore.sol\":418:438  address public owner */\n    tag_8:\n      0x02\n      0x00\n      swap1\n      sload\n      swap1\n      0x0100\n      exp\n      swap1\n      div\n      0xffffffffffffffffffffffffffffffffffffffff\n      and\n      dup2\n      jump\t// out\n        /* \"contracts/MusicStore.sol\":390:411  Order[] public orders */\n    tag_14:\n      0x01\n      dup2\n      dup2\n      sload\n      dup2\n      lt\n      tag_26\n      jumpi\n      0x00\n      dup1\n      revert\n    tag_26:\n      swap1\n      0x00\n      mstore\n      keccak256(0x00, 0x20)\n      swap1\n      0x04\n      mul\n      add\n      0x00\n      swap2\n      pop\n      swap1\n      pop\n      dup1\n      0x00\n      add\n      dup1\n      sload\n      tag_28\n      swap1\n      tag_29\n      jump\t// in\n    tag_28:\n      dup1\n      0x1f\n      add\n      0x20\n      dup1\n      swap2\n      div\n      mul\n      0x20\n      add\n      mload(0x40)\n      swap1\n      dup2\n      add\n      0x40\n      mstore\n      dup1\n      swap3\n      swap2\n      swap1\n      dup2\n      dup2\n      mstore\n      0x20\n      add\n      dup3\n      dup1\n      sload\n      tag_30\n      swap1\n      tag_29\n      jump\t// in\n    tag_30:\n      dup1\n      iszero\n      tag_31\n      jumpi\n      dup1\n      0x1f\n      lt\n      tag_32\n      jumpi\n      0x0100\n      dup1\n      dup4\n      sload\n      div\n      mul\n      dup4\n      mstore\n      swap2\n      0x20\n      add\n      swap2\n      jump(tag_31)\n    tag_32:\n      dup3\n      add\n      swap2\n      swap1\n      0x00\n      mstore\n      keccak256(0x00, 0x20)\n      swap1\n    tag_33:\n      dup2\n      sload\n      dup2\n      mstore\n      swap1\n      0x01\n      add\n      swap1\n      0x20\n      add\n      dup1\n      dup4\n      gt\n      tag_33\n      jumpi\n      dup3\n      swap1\n      sub\n      0x1f\n      and\n      dup3\n      add\n      swap2\n    tag_31:\n      pop\n      pop\n      pop\n      pop\n      pop\n      swap1\n      dup1\n      0x01\n      add\n      0x00\n      swap1\n      sload\n      swap1\n      0x0100\n      exp\n      swap1\n      div\n      0xffffffffffffffffffffffffffffffffffffffff\n      and\n      swap1\n      dup1\n      0x02\n      add\n      sload\n      swap1\n      dup1\n      0x03\n      add\n      0x00\n      swap1\n      sload\n      swap1\n      0x0100\n      exp\n      swap1\n      div\n      0xff\n      and\n      swap1\n      pop\n      dup5\n      jump\t// out\n        /* \"contracts/MusicStore.sol\":601:922  function addAlbum(... */\n    tag_20:\n        /* \"contracts/MusicStore.sol\":493:503  msg.sender */\n      caller\n        /* \"contracts/MusicStore.sol\":484:503  owner == msg.sender */\n      0xffffffffffffffffffffffffffffffffffffffff\n      and\n        /* \"contracts/MusicStore.sol\":484:489  owner */\n      0x02\n      0x00\n      swap1\n      sload\n      swap1\n      0x0100\n      exp\n      swap1\n      div\n      0xffffffffffffffffffffffffffffffffffffffff\n      and\n        /* \"contracts/MusicStore.sol\":484:503  owner == msg.sender */\n      0xffffffffffffffffffffffffffffffffffffffff\n      and\n      eq\n        /* \"contracts/MusicStore.sol\":476:521  require(owner == msg.sender, \"Not an owner!\") */\n      tag_35\n      jumpi\n      mload(0x40)\n      0x08c379a000000000000000000000000000000000000000000000000000000000\n      dup2\n      mstore\n      0x04\n      add\n      tag_36\n      swap1\n      tag_37\n      jump\t// in\n    tag_36:\n      mload(0x40)\n      dup1\n      swap2\n      sub\n      swap1\n      revert\n    tag_35:\n        /* \"contracts/MusicStore.sol\":759:765  albums */\n      0x00\n        /* \"contracts/MusicStore.sol\":771:914  Album({... */\n      mload(0x40)\n      dup1\n      0x80\n      add\n      0x40\n      mstore\n      dup1\n        /* \"contracts/MusicStore.sol\":800:803  uid */\n      dup9\n      dup9\n        /* \"contracts/MusicStore.sol\":771:914  Album({... */\n      dup1\n      dup1\n      0x1f\n      add\n      0x20\n      dup1\n      swap2\n      div\n      mul\n      0x20\n      add\n      mload(0x40)\n      swap1\n      dup2\n      add\n      0x40\n      mstore\n      dup1\n      swap4\n      swap3\n      swap2\n      swap1\n      dup2\n      dup2\n      mstore\n      0x20\n      add\n      dup4\n      dup4\n      dup1\n      dup3\n      dup5\n      calldatacopy\n      0x00\n      dup2\n      dup5\n      add\n      mstore\n      not(0x1f)\n      0x1f\n      dup3\n      add\n      and\n      swap1\n      pop\n      dup1\n      dup4\n      add\n      swap3\n      pop\n      pop\n      pop\n      pop\n      pop\n      pop\n      pop\n      dup2\n      mstore\n      0x20\n      add\n        /* \"contracts/MusicStore.sol\":828:833  title */\n      dup7\n      dup7\n        /* \"contracts/MusicStore.sol\":771:914  Album({... */\n      dup1\n      dup1\n      0x1f\n      add\n      0x20\n      dup1\n      swap2\n      div\n      mul\n      0x20\n      add\n      mload(0x40)\n      swap1\n      dup2\n      add\n      0x40\n      mstore\n      dup1\n      swap4\n      swap3\n      swap2\n      swap1\n      dup2\n      dup2\n      mstore\n      0x20\n      add\n      dup4\n      dup4\n      dup1\n      dup3\n      dup5\n      calldatacopy\n      0x00\n      dup2\n      dup5\n      add\n      mstore\n      not(0x1f)\n      0x1f\n      dup3\n      add\n      and\n      swap1\n      pop\n      dup1\n      dup4\n      add\n      swap3\n      pop\n      pop\n      pop\n      pop\n      pop\n      pop\n      pop\n      dup2\n      mstore\n      0x20\n      add\n        /* \"contracts/MusicStore.sol\":858:863  price */\n      dup5\n        /* \"contracts/MusicStore.sol\":771:914  Album({... */\n      dup2\n      mstore\n      0x20\n      add\n        /* \"contracts/MusicStore.sol\":891:899  quantity */\n      dup4\n        /* \"contracts/MusicStore.sol\":771:914  Album({... */\n      dup2\n      mstore\n      pop\n        /* \"contracts/MusicStore.sol\":759:915  albums.push(Album({... */\n      swap1\n      dup1\n      0x01\n      dup2\n      sload\n      add\n      dup1\n      dup3\n      sstore\n      dup1\n      swap2\n      pop\n      pop\n      0x01\n      swap1\n      sub\n      swap1\n      0x00\n      mstore\n      keccak256(0x00, 0x20)\n      swap1\n      0x04\n      mul\n      add\n      0x00\n      swap1\n      swap2\n      swap1\n      swap2\n      swap1\n      swap2\n      pop\n      0x00\n      dup3\n      add\n      mload\n      dup2\n      0x00\n      add\n      swap1\n      dup1\n      mload\n      swap1\n      0x20\n      add\n      swap1\n      tag_40\n      swap3\n      swap2\n      swap1\n      tag_41\n      jump\t// in\n    tag_40:\n      pop\n      0x20\n      dup3\n      add\n      mload\n      dup2\n      0x01\n      add\n      swap1\n      dup1\n      mload\n      swap1\n      0x20\n      add\n      swap1\n      tag_42\n      swap3\n      swap2\n      swap1\n      tag_41\n      jump\t// in\n    tag_42:\n      pop\n      0x40\n      dup3\n      add\n      mload\n      dup2\n      0x02\n      add\n      sstore\n      0x60\n      dup3\n      add\n      mload\n      dup2\n      0x03\n      add\n      sstore\n      pop\n      pop\n        /* \"contracts/MusicStore.sol\":601:922  function addAlbum(... */\n      pop\n      pop\n      pop\n      pop\n      pop\n      pop\n      jump\t// out\n        /* \"contracts/MusicStore.sol\":363:384  Album[] public albums */\n    tag_23:\n      0x00\n      dup2\n      dup2\n      sload\n      dup2\n      lt\n      tag_43\n      jumpi\n      0x00\n      dup1\n      revert\n    tag_43:\n      swap1\n      0x00\n      mstore\n      keccak256(0x00, 0x20)\n      swap1\n      0x04\n      mul\n      add\n      0x00\n      swap2\n      pop\n      swap1\n      pop\n      dup1\n      0x00\n      add\n      dup1\n      sload\n      tag_45\n      swap1\n      tag_29\n      jump\t// in\n    tag_45:\n      dup1\n      0x1f\n      add\n      0x20\n      dup1\n      swap2\n      div\n      mul\n      0x20\n      add\n      mload(0x40)\n      swap1\n      dup2\n      add\n      0x40\n      mstore\n      dup1\n      swap3\n      swap2\n      swap1\n      dup2\n      dup2\n      mstore\n      0x20\n      add\n      dup3\n      dup1\n      sload\n      tag_46\n      swap1\n      tag_29\n      jump\t// in\n    tag_46:\n      dup1\n      iszero\n      tag_47\n      jumpi\n      dup1\n      0x1f\n      lt\n      tag_48\n      jumpi\n      0x0100\n      dup1\n      dup4\n      sload\n      div\n      mul\n      dup4\n      mstore\n      swap2\n      0x20\n      add\n      swap2\n      jump(tag_47)\n    tag_48:\n      dup3\n      add\n      swap2\n      swap1\n      0x00\n      mstore\n      keccak256(0x00, 0x20)\n      swap1\n    tag_49:\n      dup2\n      sload\n      dup2\n      mstore\n      swap1\n      0x01\n      add\n      swap1\n      0x20\n      add\n      dup1\n      dup4\n      gt\n      tag_49\n      jumpi\n      dup3\n      swap1\n      sub\n      0x1f\n      and\n      dup3\n      add\n      swap2\n    tag_47:\n      pop\n      pop\n      pop\n      pop\n      pop\n      swap1\n      dup1\n      0x01\n      add\n      dup1\n      sload\n      tag_50\n      swap1\n      tag_29\n      jump\t// in\n    tag_50:\n      dup1\n      0x1f\n      add\n      0x20\n      dup1\n      swap2\n      div\n      mul\n      0x20\n      add\n      mload(0x40)\n      swap1\n      dup2\n      add\n      0x40\n      mstore\n      dup1\n      swap3\n      swap2\n      swap1\n      dup2\n      dup2\n      mstore\n      0x20\n      add\n      dup3\n      dup1\n      sload\n      tag_51\n      swap1\n      tag_29\n      jump\t// in\n    tag_51:\n      dup1\n      iszero\n      tag_52\n      jumpi\n      dup1\n      0x1f\n      lt\n      tag_53\n      jumpi\n      0x0100\n      dup1\n      dup4\n      sload\n      div\n      mul\n      dup4\n      mstore\n      swap2\n      0x20\n      add\n      swap2\n      jump(tag_52)\n    tag_53:\n      dup3\n      add\n      swap2\n      swap1\n      0x00\n      mstore\n      keccak256(0x00, 0x20)\n      swap1\n    tag_54:\n      dup2\n      sload\n      dup2\n      mstore\n      swap1\n      0x01\n      add\n      swap1\n      0x20\n      add\n      dup1\n      dup4\n      gt\n      tag_54\n      jumpi\n      dup3\n      swap1\n      sub\n      0x1f\n      and\n      dup3\n      add\n      swap2\n    tag_52:\n      pop\n      pop\n      pop\n      pop\n      pop\n      swap1\n      dup1\n      0x02\n      add\n      sload\n      swap1\n      dup1\n      0x03\n      add\n      sload\n      swap1\n      pop\n      dup5\n      jump\t// out\n    tag_41:\n      dup3\n      dup1\n      sload\n      tag_55\n      swap1\n      tag_29\n      jump\t// in\n    tag_55:\n      swap1\n      0x00\n      mstore\n      keccak256(0x00, 0x20)\n      swap1\n      0x1f\n      add\n      0x20\n      swap1\n      div\n      dup2\n      add\n      swap3\n      dup3\n      tag_57\n      jumpi\n      0x00\n      dup6\n      sstore\n      jump(tag_56)\n    tag_57:\n      dup3\n      0x1f\n      lt\n      tag_58\n      jumpi\n      dup1\n      mload\n      not(0xff)\n      and\n      dup4\n      dup1\n      add\n      or\n      dup6\n      sstore\n      jump(tag_56)\n    tag_58:\n      dup3\n      dup1\n      add\n      0x01\n      add\n      dup6\n      sstore\n      dup3\n      iszero\n      tag_56\n      jumpi\n      swap2\n      dup3\n      add\n    tag_59:\n      dup3\n      dup2\n      gt\n      iszero\n      tag_60\n      jumpi\n      dup3\n      mload\n      dup3\n      sstore\n      swap2\n      0x20\n      add\n      swap2\n      swap1\n      0x01\n      add\n      swap1\n      jump(tag_59)\n    tag_60:\n    tag_56:\n      pop\n      swap1\n      pop\n      tag_61\n      swap2\n      swap1\n      tag_62\n      jump\t// in\n    tag_61:\n      pop\n      swap1\n      jump\t// out\n    tag_62:\n    tag_63:\n      dup1\n      dup3\n      gt\n      iszero\n      tag_64\n      jumpi\n      0x00\n      dup2\n      0x00\n      swap1\n      sstore\n      pop\n      0x01\n      add\n      jump(tag_63)\n    tag_64:\n      pop\n      swap1\n      jump\t// out\n        /* \"#utility.yul\":21:574   */\n    tag_66:\n        /* \"#utility.yul\":79:87   */\n      0x00\n        /* \"#utility.yul\":89:95   */\n      dup1\n        /* \"#utility.yul\":139:142   */\n      dup4\n        /* \"#utility.yul\":132:136   */\n      0x1f\n        /* \"#utility.yul\":124:130   */\n      dup5\n        /* \"#utility.yul\":120:137   */\n      add\n        /* \"#utility.yul\":116:143   */\n      slt\n        /* \"#utility.yul\":106:228   */\n      tag_68\n      jumpi\n        /* \"#utility.yul\":147:226   */\n      tag_69\n      tag_70\n      jump\t// in\n    tag_69:\n        /* \"#utility.yul\":106:228   */\n    tag_68:\n        /* \"#utility.yul\":260:266   */\n      dup3\n        /* \"#utility.yul\":247:267   */\n      calldataload\n        /* \"#utility.yul\":237:267   */\n      swap1\n      pop\n        /* \"#utility.yul\":290:308   */\n      0xffffffffffffffff\n        /* \"#utility.yul\":282:288   */\n      dup2\n        /* \"#utility.yul\":279:309   */\n      gt\n        /* \"#utility.yul\":276:393   */\n      iszero\n      tag_71\n      jumpi\n        /* \"#utility.yul\":312:391   */\n      tag_72\n      tag_73\n      jump\t// in\n    tag_72:\n        /* \"#utility.yul\":276:393   */\n    tag_71:\n        /* \"#utility.yul\":426:430   */\n      0x20\n        /* \"#utility.yul\":418:424   */\n      dup4\n        /* \"#utility.yul\":414:431   */\n      add\n        /* \"#utility.yul\":402:431   */\n      swap2\n      pop\n        /* \"#utility.yul\":480:483   */\n      dup4\n        /* \"#utility.yul\":472:476   */\n      0x01\n        /* \"#utility.yul\":464:470   */\n      dup3\n        /* \"#utility.yul\":460:477   */\n      mul\n        /* \"#utility.yul\":450:458   */\n      dup4\n        /* \"#utility.yul\":446:478   */\n      add\n        /* \"#utility.yul\":443:484   */\n      gt\n        /* \"#utility.yul\":440:568   */\n      iszero\n      tag_74\n      jumpi\n        /* \"#utility.yul\":487:566   */\n      tag_75\n      tag_76\n      jump\t// in\n    tag_75:\n        /* \"#utility.yul\":440:568   */\n    tag_74:\n        /* \"#utility.yul\":21:574   */\n      swap3\n      pop\n      swap3\n      swap1\n      pop\n      jump\t// out\n        /* \"#utility.yul\":580:719   */\n    tag_77:\n        /* \"#utility.yul\":626:631   */\n      0x00\n        /* \"#utility.yul\":664:670   */\n      dup2\n        /* \"#utility.yul\":651:671   */\n      calldataload\n        /* \"#utility.yul\":642:671   */\n      swap1\n      pop\n        /* \"#utility.yul\":680:713   */\n      tag_79\n        /* \"#utility.yul\":707:712   */\n      dup2\n        /* \"#utility.yul\":680:713   */\n      tag_80\n      jump\t// in\n    tag_79:\n        /* \"#utility.yul\":580:719   */\n      swap3\n      swap2\n      pop\n      pop\n      jump\t// out\n        /* \"#utility.yul\":725:1890   */\n    tag_19:\n        /* \"#utility.yul\":835:841   */\n      0x00\n        /* \"#utility.yul\":843:849   */\n      dup1\n        /* \"#utility.yul\":851:857   */\n      0x00\n        /* \"#utility.yul\":859:865   */\n      dup1\n        /* \"#utility.yul\":867:873   */\n      0x00\n        /* \"#utility.yul\":875:881   */\n      dup1\n        /* \"#utility.yul\":924:927   */\n      0x80\n        /* \"#utility.yul\":912:921   */\n      dup8\n        /* \"#utility.yul\":903:910   */\n      dup10\n        /* \"#utility.yul\":899:922   */\n      sub\n        /* \"#utility.yul\":895:928   */\n      slt\n        /* \"#utility.yul\":892:1012   */\n      iszero\n      tag_82\n      jumpi\n        /* \"#utility.yul\":931:1010   */\n      tag_83\n      tag_84\n      jump\t// in\n    tag_83:\n        /* \"#utility.yul\":892:1012   */\n    tag_82:\n        /* \"#utility.yul\":1079:1080   */\n      0x00\n        /* \"#utility.yul\":1068:1077   */\n      dup8\n        /* \"#utility.yul\":1064:1081   */\n      add\n        /* \"#utility.yul\":1051:1082   */\n      calldataload\n        /* \"#utility.yul\":1109:1127   */\n      0xffffffffffffffff\n        /* \"#utility.yul\":1101:1107   */\n      dup2\n        /* \"#utility.yul\":1098:1128   */\n      gt\n        /* \"#utility.yul\":1095:1212   */\n      iszero\n      tag_85\n      jumpi\n        /* \"#utility.yul\":1131:1210   */\n      tag_86\n      tag_87\n      jump\t// in\n    tag_86:\n        /* \"#utility.yul\":1095:1212   */\n    tag_85:\n        /* \"#utility.yul\":1244:1309   */\n      tag_88\n        /* \"#utility.yul\":1301:1308   */\n      dup10\n        /* \"#utility.yul\":1292:1298   */\n      dup3\n        /* \"#utility.yul\":1281:1290   */\n      dup11\n        /* \"#utility.yul\":1277:1299   */\n      add\n        /* \"#utility.yul\":1244:1309   */\n      tag_66\n      jump\t// in\n    tag_88:\n        /* \"#utility.yul\":1226:1309   */\n      swap7\n      pop\n      swap7\n      pop\n        /* \"#utility.yul\":1022:1319   */\n      pop\n        /* \"#utility.yul\":1386:1388   */\n      0x20\n        /* \"#utility.yul\":1375:1384   */\n      dup8\n        /* \"#utility.yul\":1371:1389   */\n      add\n        /* \"#utility.yul\":1358:1390   */\n      calldataload\n        /* \"#utility.yul\":1417:1435   */\n      0xffffffffffffffff\n        /* \"#utility.yul\":1409:1415   */\n      dup2\n        /* \"#utility.yul\":1406:1436   */\n      gt\n        /* \"#utility.yul\":1403:1520   */\n      iszero\n      tag_89\n      jumpi\n        /* \"#utility.yul\":1439:1518   */\n      tag_90\n      tag_87\n      jump\t// in\n    tag_90:\n        /* \"#utility.yul\":1403:1520   */\n    tag_89:\n        /* \"#utility.yul\":1552:1617   */\n      tag_91\n        /* \"#utility.yul\":1609:1616   */\n      dup10\n        /* \"#utility.yul\":1600:1606   */\n      dup3\n        /* \"#utility.yul\":1589:1598   */\n      dup11\n        /* \"#utility.yul\":1585:1607   */\n      add\n        /* \"#utility.yul\":1552:1617   */\n      tag_66\n      jump\t// in\n    tag_91:\n        /* \"#utility.yul\":1534:1617   */\n      swap5\n      pop\n      swap5\n      pop\n        /* \"#utility.yul\":1329:1627   */\n      pop\n        /* \"#utility.yul\":1666:1668   */\n      0x40\n        /* \"#utility.yul\":1692:1745   */\n      tag_92\n        /* \"#utility.yul\":1737:1744   */\n      dup10\n        /* \"#utility.yul\":1728:1734   */\n      dup3\n        /* \"#utility.yul\":1717:1726   */\n      dup11\n        /* \"#utility.yul\":1713:1735   */\n      add\n        /* \"#utility.yul\":1692:1745   */\n      tag_77\n      jump\t// in\n    tag_92:\n        /* \"#utility.yul\":1682:1745   */\n      swap3\n      pop\n        /* \"#utility.yul\":1637:1755   */\n      pop\n        /* \"#utility.yul\":1794:1796   */\n      0x60\n        /* \"#utility.yul\":1820:1873   */\n      tag_93\n        /* \"#utility.yul\":1865:1872   */\n      dup10\n        /* \"#utility.yul\":1856:1862   */\n      dup3\n        /* \"#utility.yul\":1845:1854   */\n      dup11\n        /* \"#utility.yul\":1841:1863   */\n      add\n        /* \"#utility.yul\":1820:1873   */\n      tag_77\n      jump\t// in\n    tag_93:\n        /* \"#utility.yul\":1810:1873   */\n      swap2\n      pop\n        /* \"#utility.yul\":1765:1883   */\n      pop\n        /* \"#utility.yul\":725:1890   */\n      swap3\n      swap6\n      pop\n      swap3\n      swap6\n      pop\n      swap3\n      swap6\n      jump\t// out\n        /* \"#utility.yul\":1896:2225   */\n    tag_13:\n        /* \"#utility.yul\":1955:1961   */\n      0x00\n        /* \"#utility.yul\":2004:2006   */\n      0x20\n        /* \"#utility.yul\":1992:2001   */\n      dup3\n        /* \"#utility.yul\":1983:1990   */\n      dup5\n        /* \"#utility.yul\":1979:2002   */\n      sub\n        /* \"#utility.yul\":1975:2007   */\n      slt\n        /* \"#utility.yul\":1972:2091   */\n      iszero\n      tag_95\n      jumpi\n        /* \"#utility.yul\":2010:2089   */\n      tag_96\n      tag_84\n      jump\t// in\n    tag_96:\n        /* \"#utility.yul\":1972:2091   */\n    tag_95:\n        /* \"#utility.yul\":2130:2131   */\n      0x00\n        /* \"#utility.yul\":2155:2208   */\n      tag_97\n        /* \"#utility.yul\":2200:2207   */\n      dup5\n        /* \"#utility.yul\":2191:2197   */\n      dup3\n        /* \"#utility.yul\":2180:2189   */\n      dup6\n        /* \"#utility.yul\":2176:2198   */\n      add\n        /* \"#utility.yul\":2155:2208   */\n      tag_77\n      jump\t// in\n    tag_97:\n        /* \"#utility.yul\":2145:2208   */\n      swap2\n      pop\n        /* \"#utility.yul\":2101:2218   */\n      pop\n        /* \"#utility.yul\":1896:2225   */\n      swap3\n      swap2\n      pop\n      pop\n      jump\t// out\n        /* \"#utility.yul\":2231:2349   */\n    tag_98:\n        /* \"#utility.yul\":2318:2342   */\n      tag_100\n        /* \"#utility.yul\":2336:2341   */\n      dup2\n        /* \"#utility.yul\":2318:2342   */\n      tag_101\n      jump\t// in\n    tag_100:\n        /* \"#utility.yul\":2313:2316   */\n      dup3\n        /* \"#utility.yul\":2306:2343   */\n      mstore\n        /* \"#utility.yul\":2231:2349   */\n      pop\n      pop\n      jump\t// out\n        /* \"#utility.yul\":2355:2510   */\n    tag_102:\n        /* \"#utility.yul\":2454:2503   */\n      tag_104\n        /* \"#utility.yul\":2497:2502   */\n      dup2\n        /* \"#utility.yul\":2454:2503   */\n      tag_105\n      jump\t// in\n    tag_104:\n        /* \"#utility.yul\":2449:2452   */\n      dup3\n        /* \"#utility.yul\":2442:2504   */\n      mstore\n        /* \"#utility.yul\":2355:2510   */\n      pop\n      pop\n      jump\t// out\n        /* \"#utility.yul\":2516:2880   */\n    tag_106:\n        /* \"#utility.yul\":2604:2607   */\n      0x00\n        /* \"#utility.yul\":2632:2671   */\n      tag_108\n        /* \"#utility.yul\":2665:2670   */\n      dup3\n        /* \"#utility.yul\":2632:2671   */\n      tag_109\n      jump\t// in\n    tag_108:\n        /* \"#utility.yul\":2687:2758   */\n      tag_110\n        /* \"#utility.yul\":2751:2757   */\n      dup2\n        /* \"#utility.yul\":2746:2749   */\n      dup6\n        /* \"#utility.yul\":2687:2758   */\n      tag_111\n      jump\t// in\n    tag_110:\n        /* \"#utility.yul\":2680:2758   */\n      swap4\n      pop\n        /* \"#utility.yul\":2767:2819   */\n      tag_112\n        /* \"#utility.yul\":2812:2818   */\n      dup2\n        /* \"#utility.yul\":2807:2810   */\n      dup6\n        /* \"#utility.yul\":2800:2804   */\n      0x20\n        /* \"#utility.yul\":2793:2798   */\n      dup7\n        /* \"#utility.yul\":2789:2805   */\n      add\n        /* \"#utility.yul\":2767:2819   */\n      tag_113\n      jump\t// in\n    tag_112:\n        /* \"#utility.yul\":2844:2873   */\n      tag_114\n        /* \"#utility.yul\":2866:2872   */\n      dup2\n        /* \"#utility.yul\":2844:2873   */\n      tag_115\n      jump\t// in\n    tag_114:\n        /* \"#utility.yul\":2839:2842   */\n      dup5\n        /* \"#utility.yul\":2835:2874   */\n      add\n        /* \"#utility.yul\":2828:2874   */\n      swap2\n      pop\n        /* \"#utility.yul\":2608:2880   */\n      pop\n        /* \"#utility.yul\":2516:2880   */\n      swap3\n      swap2\n      pop\n      pop\n      jump\t// out\n        /* \"#utility.yul\":2886:3252   */\n    tag_116:\n        /* \"#utility.yul\":3028:3031   */\n      0x00\n        /* \"#utility.yul\":3049:3116   */\n      tag_118\n        /* \"#utility.yul\":3113:3115   */\n      0x0d\n        /* \"#utility.yul\":3108:3111   */\n      dup4\n        /* \"#utility.yul\":3049:3116   */\n      tag_111\n      jump\t// in\n    tag_118:\n        /* \"#utility.yul\":3042:3116   */\n      swap2\n      pop\n        /* \"#utility.yul\":3125:3218   */\n      tag_119\n        /* \"#utility.yul\":3214:3217   */\n      dup3\n        /* \"#utility.yul\":3125:3218   */\n      tag_120\n      jump\t// in\n    tag_119:\n        /* \"#utility.yul\":3243:3245   */\n      0x20\n        /* \"#utility.yul\":3238:3241   */\n      dup3\n        /* \"#utility.yul\":3234:3246   */\n      add\n        /* \"#utility.yul\":3227:3246   */\n      swap1\n      pop\n        /* \"#utility.yul\":2886:3252   */\n      swap2\n      swap1\n      pop\n      jump\t// out\n        /* \"#utility.yul\":3258:3376   */\n    tag_121:\n        /* \"#utility.yul\":3345:3369   */\n      tag_123\n        /* \"#utility.yul\":3363:3368   */\n      dup2\n        /* \"#utility.yul\":3345:3369   */\n      tag_124\n      jump\t// in\n    tag_123:\n        /* \"#utility.yul\":3340:3343   */\n      dup3\n        /* \"#utility.yul\":3333:3370   */\n      mstore\n        /* \"#utility.yul\":3258:3376   */\n      pop\n      pop\n      jump\t// out\n        /* \"#utility.yul\":3382:3604   */\n    tag_10:\n        /* \"#utility.yul\":3475:3479   */\n      0x00\n        /* \"#utility.yul\":3513:3515   */\n      0x20\n        /* \"#utility.yul\":3502:3511   */\n      dup3\n        /* \"#utility.yul\":3498:3516   */\n      add\n        /* \"#utility.yul\":3490:3516   */\n      swap1\n      pop\n        /* \"#utility.yul\":3526:3597   */\n      tag_126\n        /* \"#utility.yul\":3594:3595   */\n      0x00\n        /* \"#utility.yul\":3583:3592   */\n      dup4\n        /* \"#utility.yul\":3579:3596   */\n      add\n        /* \"#utility.yul\":3570:3576   */\n      dup5\n        /* \"#utility.yul\":3526:3597   */\n      tag_98\n      jump\t// in\n    tag_126:\n        /* \"#utility.yul\":3382:3604   */\n      swap3\n      swap2\n      pop\n      pop\n      jump\t// out\n        /* \"#utility.yul\":3610:4278   */\n    tag_16:\n        /* \"#utility.yul\":3819:3823   */\n      0x00\n        /* \"#utility.yul\":3857:3860   */\n      0x80\n        /* \"#utility.yul\":3846:3855   */\n      dup3\n        /* \"#utility.yul\":3842:3861   */\n      add\n        /* \"#utility.yul\":3834:3861   */\n      swap1\n      pop\n        /* \"#utility.yul\":3907:3916   */\n      dup2\n        /* \"#utility.yul\":3901:3905   */\n      dup2\n        /* \"#utility.yul\":3897:3917   */\n      sub\n        /* \"#utility.yul\":3893:3894   */\n      0x00\n        /* \"#utility.yul\":3882:3891   */\n      dup4\n        /* \"#utility.yul\":3878:3895   */\n      add\n        /* \"#utility.yul\":3871:3918   */\n      mstore\n        /* \"#utility.yul\":3935:4013   */\n      tag_128\n        /* \"#utility.yul\":4008:4012   */\n      dup2\n        /* \"#utility.yul\":3999:4005   */\n      dup8\n        /* \"#utility.yul\":3935:4013   */\n      tag_106\n      jump\t// in\n    tag_128:\n        /* \"#utility.yul\":3927:4013   */\n      swap1\n      pop\n        /* \"#utility.yul\":4023:4095   */\n      tag_129\n        /* \"#utility.yul\":4091:4093   */\n      0x20\n        /* \"#utility.yul\":4080:4089   */\n      dup4\n        /* \"#utility.yul\":4076:4094   */\n      add\n        /* \"#utility.yul\":4067:4073   */\n      dup7\n        /* \"#utility.yul\":4023:4095   */\n      tag_98\n      jump\t// in\n    tag_129:\n        /* \"#utility.yul\":4105:4177   */\n      tag_130\n        /* \"#utility.yul\":4173:4175   */\n      0x40\n        /* \"#utility.yul\":4162:4171   */\n      dup4\n        /* \"#utility.yul\":4158:4176   */\n      add\n        /* \"#utility.yul\":4149:4155   */\n      dup6\n        /* \"#utility.yul\":4105:4177   */\n      tag_121\n      jump\t// in\n    tag_130:\n        /* \"#utility.yul\":4187:4271   */\n      tag_131\n        /* \"#utility.yul\":4267:4269   */\n      0x60\n        /* \"#utility.yul\":4256:4265   */\n      dup4\n        /* \"#utility.yul\":4252:4270   */\n      add\n        /* \"#utility.yul\":4243:4249   */\n      dup5\n        /* \"#utility.yul\":4187:4271   */\n      tag_102\n      jump\t// in\n    tag_131:\n        /* \"#utility.yul\":3610:4278   */\n      swap6\n      swap5\n      pop\n      pop\n      pop\n      pop\n      pop\n      jump\t// out\n        /* \"#utility.yul\":4284:5019   */\n    tag_25:\n        /* \"#utility.yul\":4501:4505   */\n      0x00\n        /* \"#utility.yul\":4539:4542   */\n      0x80\n        /* \"#utility.yul\":4528:4537   */\n      dup3\n        /* \"#utility.yul\":4524:4543   */\n      add\n        /* \"#utility.yul\":4516:4543   */\n      swap1\n      pop\n        /* \"#utility.yul\":4589:4598   */\n      dup2\n        /* \"#utility.yul\":4583:4587   */\n      dup2\n        /* \"#utility.yul\":4579:4599   */\n      sub\n        /* \"#utility.yul\":4575:4576   */\n      0x00\n        /* \"#utility.yul\":4564:4573   */\n      dup4\n        /* \"#utility.yul\":4560:4577   */\n      add\n        /* \"#utility.yul\":4553:4600   */\n      mstore\n        /* \"#utility.yul\":4617:4695   */\n      tag_133\n        /* \"#utility.yul\":4690:4694   */\n      dup2\n        /* \"#utility.yul\":4681:4687   */\n      dup8\n        /* \"#utility.yul\":4617:4695   */\n      tag_106\n      jump\t// in\n    tag_133:\n        /* \"#utility.yul\":4609:4695   */\n      swap1\n      pop\n        /* \"#utility.yul\":4742:4751   */\n      dup2\n        /* \"#utility.yul\":4736:4740   */\n      dup2\n        /* \"#utility.yul\":4732:4752   */\n      sub\n        /* \"#utility.yul\":4727:4729   */\n      0x20\n        /* \"#utility.yul\":4716:4725   */\n      dup4\n        /* \"#utility.yul\":4712:4730   */\n      add\n        /* \"#utility.yul\":4705:4753   */\n      mstore\n        /* \"#utility.yul\":4770:4848   */\n      tag_134\n        /* \"#utility.yul\":4843:4847   */\n      dup2\n        /* \"#utility.yul\":4834:4840   */\n      dup7\n        /* \"#utility.yul\":4770:4848   */\n      tag_106\n      jump\t// in\n    tag_134:\n        /* \"#utility.yul\":4762:4848   */\n      swap1\n      pop\n        /* \"#utility.yul\":4858:4930   */\n      tag_135\n        /* \"#utility.yul\":4926:4928   */\n      0x40\n        /* \"#utility.yul\":4915:4924   */\n      dup4\n        /* \"#utility.yul\":4911:4929   */\n      add\n        /* \"#utility.yul\":4902:4908   */\n      dup6\n        /* \"#utility.yul\":4858:4930   */\n      tag_121\n      jump\t// in\n    tag_135:\n        /* \"#utility.yul\":4940:5012   */\n      tag_136\n        /* \"#utility.yul\":5008:5010   */\n      0x60\n        /* \"#utility.yul\":4997:5006   */\n      dup4\n        /* \"#utility.yul\":4993:5011   */\n      add\n        /* \"#utility.yul\":4984:4990   */\n      dup5\n        /* \"#utility.yul\":4940:5012   */\n      tag_121\n      jump\t// in\n    tag_136:\n        /* \"#utility.yul\":4284:5019   */\n      swap6\n      swap5\n      pop\n      pop\n      pop\n      pop\n      pop\n      jump\t// out\n        /* \"#utility.yul\":5025:5444   */\n    tag_37:\n        /* \"#utility.yul\":5191:5195   */\n      0x00\n        /* \"#utility.yul\":5229:5231   */\n      0x20\n        /* \"#utility.yul\":5218:5227   */\n      dup3\n        /* \"#utility.yul\":5214:5232   */\n      add\n        /* \"#utility.yul\":5206:5232   */\n      swap1\n      pop\n        /* \"#utility.yul\":5278:5287   */\n      dup2\n        /* \"#utility.yul\":5272:5276   */\n      dup2\n        /* \"#utility.yul\":5268:5288   */\n      sub\n        /* \"#utility.yul\":5264:5265   */\n      0x00\n        /* \"#utility.yul\":5253:5262   */\n      dup4\n        /* \"#utility.yul\":5249:5266   */\n      add\n        /* \"#utility.yul\":5242:5289   */\n      mstore\n        /* \"#utility.yul\":5306:5437   */\n      tag_138\n        /* \"#utility.yul\":5432:5436   */\n      dup2\n        /* \"#utility.yul\":5306:5437   */\n      tag_116\n      jump\t// in\n    tag_138:\n        /* \"#utility.yul\":5298:5437   */\n      swap1\n      pop\n        /* \"#utility.yul\":5025:5444   */\n      swap2\n      swap1\n      pop\n      jump\t// out\n        /* \"#utility.yul\":5531:5630   */\n    tag_109:\n        /* \"#utility.yul\":5583:5589   */\n      0x00\n        /* \"#utility.yul\":5617:5622   */\n      dup2\n        /* \"#utility.yul\":5611:5623   */\n      mload\n        /* \"#utility.yul\":5601:5623   */\n      swap1\n      pop\n        /* \"#utility.yul\":5531:5630   */\n      swap2\n      swap1\n      pop\n      jump\t// out\n        /* \"#utility.yul\":5636:5805   */\n    tag_111:\n        /* \"#utility.yul\":5720:5731   */\n      0x00\n        /* \"#utility.yul\":5754:5760   */\n      dup3\n        /* \"#utility.yul\":5749:5752   */\n      dup3\n        /* \"#utility.yul\":5742:5761   */\n      mstore\n        /* \"#utility.yul\":5794:5798   */\n      0x20\n        /* \"#utility.yul\":5789:5792   */\n      dup3\n        /* \"#utility.yul\":5785:5799   */\n      add\n        /* \"#utility.yul\":5770:5799   */\n      swap1\n      pop\n        /* \"#utility.yul\":5636:5805   */\n      swap3\n      swap2\n      pop\n      pop\n      jump\t// out\n        /* \"#utility.yul\":5811:5907   */\n    tag_101:\n        /* \"#utility.yul\":5848:5855   */\n      0x00\n        /* \"#utility.yul\":5877:5901   */\n      tag_144\n        /* \"#utility.yul\":5895:5900   */\n      dup3\n        /* \"#utility.yul\":5877:5901   */\n      tag_145\n      jump\t// in\n    tag_144:\n        /* \"#utility.yul\":5866:5901   */\n      swap1\n      pop\n        /* \"#utility.yul\":5811:5907   */\n      swap2\n      swap1\n      pop\n      jump\t// out\n        /* \"#utility.yul\":5913:6052   */\n    tag_146:\n        /* \"#utility.yul\":5964:5971   */\n      0x00\n        /* \"#utility.yul\":5993:5998   */\n      dup2\n        /* \"#utility.yul\":5982:5998   */\n      swap1\n      pop\n        /* \"#utility.yul\":5999:6046   */\n      tag_148\n        /* \"#utility.yul\":6040:6045   */\n      dup3\n        /* \"#utility.yul\":5999:6046   */\n      tag_149\n      jump\t// in\n    tag_148:\n        /* \"#utility.yul\":5913:6052   */\n      swap2\n      swap1\n      pop\n      jump\t// out\n        /* \"#utility.yul\":6058:6184   */\n    tag_145:\n        /* \"#utility.yul\":6095:6102   */\n      0x00\n        /* \"#utility.yul\":6135:6177   */\n      0xffffffffffffffffffffffffffffffffffffffff\n        /* \"#utility.yul\":6128:6133   */\n      dup3\n        /* \"#utility.yul\":6124:6178   */\n      and\n        /* \"#utility.yul\":6113:6178   */\n      swap1\n      pop\n        /* \"#utility.yul\":6058:6184   */\n      swap2\n      swap1\n      pop\n      jump\t// out\n        /* \"#utility.yul\":6190:6267   */\n    tag_124:\n        /* \"#utility.yul\":6227:6234   */\n      0x00\n        /* \"#utility.yul\":6256:6261   */\n      dup2\n        /* \"#utility.yul\":6245:6261   */\n      swap1\n      pop\n        /* \"#utility.yul\":6190:6267   */\n      swap2\n      swap1\n      pop\n      jump\t// out\n        /* \"#utility.yul\":6273:6412   */\n    tag_105:\n        /* \"#utility.yul\":6335:6344   */\n      0x00\n        /* \"#utility.yul\":6368:6406   */\n      tag_153\n        /* \"#utility.yul\":6400:6405   */\n      dup3\n        /* \"#utility.yul\":6368:6406   */\n      tag_146\n      jump\t// in\n    tag_153:\n        /* \"#utility.yul\":6355:6406   */\n      swap1\n      pop\n        /* \"#utility.yul\":6273:6412   */\n      swap2\n      swap1\n      pop\n      jump\t// out\n        /* \"#utility.yul\":6418:6725   */\n    tag_113:\n        /* \"#utility.yul\":6486:6487   */\n      0x00\n        /* \"#utility.yul\":6496:6609   */\n    tag_155:\n        /* \"#utility.yul\":6510:6516   */\n      dup4\n        /* \"#utility.yul\":6507:6508   */\n      dup2\n        /* \"#utility.yul\":6504:6517   */\n      lt\n        /* \"#utility.yul\":6496:6609   */\n      iszero\n      tag_157\n      jumpi\n        /* \"#utility.yul\":6595:6596   */\n      dup1\n        /* \"#utility.yul\":6590:6593   */\n      dup3\n        /* \"#utility.yul\":6586:6597   */\n      add\n        /* \"#utility.yul\":6580:6598   */\n      mload\n        /* \"#utility.yul\":6576:6577   */\n      dup2\n        /* \"#utility.yul\":6571:6574   */\n      dup5\n        /* \"#utility.yul\":6567:6578   */\n      add\n        /* \"#utility.yul\":6560:6599   */\n      mstore\n        /* \"#utility.yul\":6532:6534   */\n      0x20\n        /* \"#utility.yul\":6529:6530   */\n      dup2\n        /* \"#utility.yul\":6525:6535   */\n      add\n        /* \"#utility.yul\":6520:6535   */\n      swap1\n      pop\n        /* \"#utility.yul\":6496:6609   */\n      jump(tag_155)\n    tag_157:\n        /* \"#utility.yul\":6627:6633   */\n      dup4\n        /* \"#utility.yul\":6624:6625   */\n      dup2\n        /* \"#utility.yul\":6621:6634   */\n      gt\n        /* \"#utility.yul\":6618:6719   */\n      iszero\n      tag_158\n      jumpi\n        /* \"#utility.yul\":6707:6708   */\n      0x00\n        /* \"#utility.yul\":6698:6704   */\n      dup5\n        /* \"#utility.yul\":6693:6696   */\n      dup5\n        /* \"#utility.yul\":6689:6705   */\n      add\n        /* \"#utility.yul\":6682:6709   */\n      mstore\n        /* \"#utility.yul\":6618:6719   */\n    tag_158:\n        /* \"#utility.yul\":6467:6725   */\n      pop\n        /* \"#utility.yul\":6418:6725   */\n      pop\n      pop\n      pop\n      jump\t// out\n        /* \"#utility.yul\":6731:7051   */\n    tag_29:\n        /* \"#utility.yul\":6775:6781   */\n      0x00\n        /* \"#utility.yul\":6812:6813   */\n      0x02\n        /* \"#utility.yul\":6806:6810   */\n      dup3\n        /* \"#utility.yul\":6802:6814   */\n      div\n        /* \"#utility.yul\":6792:6814   */\n      swap1\n      pop\n        /* \"#utility.yul\":6859:6860   */\n      0x01\n        /* \"#utility.yul\":6853:6857   */\n      dup3\n        /* \"#utility.yul\":6849:6861   */\n      and\n        /* \"#utility.yul\":6880:6898   */\n      dup1\n        /* \"#utility.yul\":6870:6951   */\n      tag_160\n      jumpi\n        /* \"#utility.yul\":6936:6940   */\n      0x7f\n        /* \"#utility.yul\":6928:6934   */\n      dup3\n        /* \"#utility.yul\":6924:6941   */\n      and\n        /* \"#utility.yul\":6914:6941   */\n      swap2\n      pop\n        /* \"#utility.yul\":6870:6951   */\n    tag_160:\n        /* \"#utility.yul\":6998:7000   */\n      0x20\n        /* \"#utility.yul\":6990:6996   */\n      dup3\n        /* \"#utility.yul\":6987:7001   */\n      lt\n        /* \"#utility.yul\":6967:6985   */\n      dup2\n        /* \"#utility.yul\":6964:7002   */\n      eq\n        /* \"#utility.yul\":6961:7045   */\n      iszero\n      tag_161\n      jumpi\n        /* \"#utility.yul\":7017:7035   */\n      tag_162\n      tag_163\n      jump\t// in\n    tag_162:\n        /* \"#utility.yul\":6961:7045   */\n    tag_161:\n        /* \"#utility.yul\":6782:7051   */\n      pop\n        /* \"#utility.yul\":6731:7051   */\n      swap2\n      swap1\n      pop\n      jump\t// out\n        /* \"#utility.yul\":7057:7237   */\n    tag_164:\n        /* \"#utility.yul\":7105:7182   */\n      0x4e487b7100000000000000000000000000000000000000000000000000000000\n        /* \"#utility.yul\":7102:7103   */\n      0x00\n        /* \"#utility.yul\":7095:7183   */\n      mstore\n        /* \"#utility.yul\":7202:7206   */\n      0x21\n        /* \"#utility.yul\":7199:7200   */\n      0x04\n        /* \"#utility.yul\":7192:7207   */\n      mstore\n        /* \"#utility.yul\":7226:7230   */\n      0x24\n        /* \"#utility.yul\":7223:7224   */\n      0x00\n        /* \"#utility.yul\":7216:7231   */\n      revert\n        /* \"#utility.yul\":7243:7423   */\n    tag_163:\n        /* \"#utility.yul\":7291:7368   */\n      0x4e487b7100000000000000000000000000000000000000000000000000000000\n        /* \"#utility.yul\":7288:7289   */\n      0x00\n        /* \"#utility.yul\":7281:7369   */\n      mstore\n        /* \"#utility.yul\":7388:7392   */\n      0x22\n        /* \"#utility.yul\":7385:7386   */\n      0x04\n        /* \"#utility.yul\":7378:7393   */\n      mstore\n        /* \"#utility.yul\":7412:7416   */\n      0x24\n        /* \"#utility.yul\":7409:7410   */\n      0x00\n        /* \"#utility.yul\":7402:7417   */\n      revert\n        /* \"#utility.yul\":7429:7546   */\n    tag_73:\n        /* \"#utility.yul\":7538:7539   */\n      0x00\n        /* \"#utility.yul\":7535:7536   */\n      dup1\n        /* \"#utility.yul\":7528:7540   */\n      revert\n        /* \"#utility.yul\":7552:7669   */\n    tag_70:\n        /* \"#utility.yul\":7661:7662   */\n      0x00\n        /* \"#utility.yul\":7658:7659   */\n      dup1\n        /* \"#utility.yul\":7651:7663   */\n      revert\n        /* \"#utility.yul\":7675:7792   */\n    tag_76:\n        /* \"#utility.yul\":7784:7785   */\n      0x00\n        /* \"#utility.yul\":7781:7782   */\n      dup1\n        /* \"#utility.yul\":7774:7786   */\n      revert\n        /* \"#utility.yul\":7798:7915   */\n    tag_87:\n        /* \"#utility.yul\":7907:7908   */\n      0x00\n        /* \"#utility.yul\":7904:7905   */\n      dup1\n        /* \"#utility.yul\":7897:7909   */\n      revert\n        /* \"#utility.yul\":7921:8038   */\n    tag_84:\n        /* \"#utility.yul\":8030:8031   */\n      0x00\n        /* \"#utility.yul\":8027:8028   */\n      dup1\n        /* \"#utility.yul\":8020:8032   */\n      revert\n        /* \"#utility.yul\":8044:8146   */\n    tag_115:\n        /* \"#utility.yul\":8085:8091   */\n      0x00\n        /* \"#utility.yul\":8136:8138   */\n      0x1f\n        /* \"#utility.yul\":8132:8139   */\n      not\n        /* \"#utility.yul\":8127:8129   */\n      0x1f\n        /* \"#utility.yul\":8120:8125   */\n      dup4\n        /* \"#utility.yul\":8116:8130   */\n      add\n        /* \"#utility.yul\":8112:8140   */\n      and\n        /* \"#utility.yul\":8102:8140   */\n      swap1\n      pop\n        /* \"#utility.yul\":8044:8146   */\n      swap2\n      swap1\n      pop\n      jump\t// out\n        /* \"#utility.yul\":8152:8315   */\n    tag_120:\n        /* \"#utility.yul\":8292:8307   */\n      0x4e6f7420616e206f776e65722100000000000000000000000000000000000000\n        /* \"#utility.yul\":8288:8289   */\n      0x00\n        /* \"#utility.yul\":8280:8286   */\n      dup3\n        /* \"#utility.yul\":8276:8290   */\n      add\n        /* \"#utility.yul\":8269:8308   */\n      mstore\n        /* \"#utility.yul\":8152:8315   */\n      pop\n      jump\t// out\n        /* \"#utility.yul\":8321:8440   */\n    tag_149:\n        /* \"#utility.yul\":8408:8409   */\n      0x02\n        /* \"#utility.yul\":8401:8406   */\n      dup2\n        /* \"#utility.yul\":8398:8410   */\n      lt\n        /* \"#utility.yul\":8388:8434   */\n      tag_175\n      jumpi\n        /* \"#utility.yul\":8414:8432   */\n      tag_176\n      tag_164\n      jump\t// in\n    tag_176:\n        /* \"#utility.yul\":8388:8434   */\n    tag_175:\n        /* \"#utility.yul\":8321:8440   */\n      pop\n      jump\t// out\n        /* \"#utility.yul\":8446:8568   */\n    tag_80:\n        /* \"#utility.yul\":8519:8543   */\n      tag_178\n        /* \"#utility.yul\":8537:8542   */\n      dup2\n        /* \"#utility.yul\":8519:8543   */\n      tag_124\n      jump\t// in\n    tag_178:\n        /* \"#utility.yul\":8512:8517   */\n      dup2\n        /* \"#utility.yul\":8509:8544   */\n      eq\n        /* \"#utility.yul\":8499:8562   */\n      tag_179\n      jumpi\n        /* \"#utility.yul\":8558:8559   */\n      0x00\n        /* \"#utility.yul\":8555:8556   */\n      dup1\n        /* \"#utility.yul\":8548:8560   */\n      revert\n        /* \"#utility.yul\":8499:8562   */\n    tag_179:\n        /* \"#utility.yul\":8446:8568   */\n      pop\n      jump\t// out\n\n    auxdata: 0xa2646970667358221220207250fe073bb3077a25a342b05cb387bd0dc1f64061ac09e9a38925bb367d2f64736f6c63430008070033\n}\n",
				"bytecode": {
					"linkReferences": {},
					"object": "608060405234801561001057600080fd5b503373ffffffffffffffffffffffffffffffffffffffff16600260009054906101000a90505050610a51806100466000396000f3fe608060405234801561001057600080fd5b506004361061004c5760003560e01c80638da5cb5b14610051578063a85c38ef1461006f578063c557f979146100a2578063ea5df059146100be575b600080fd5b6100596100f1565b6040516100669190610783565b60405180910390f35b610089600480360381019061008491906106cd565b610117565b604051610099949392919061079e565b60405180910390f35b6100bc60048036038101906100b79190610626565b61020c565b005b6100d860048036038101906100d391906106cd565b6103c8565b6040516100e894939291906107ea565b60405180910390f35b600260009054906101000a900473ffffffffffffffffffffffffffffffffffffffff1681565b6001818154811061012757600080fd5b906000526020600020906004020160009150905080600001805461014a9061090d565b80601f01602080910402602001604051908101604052809291908181526020018280546101769061090d565b80156101c35780601f10610198576101008083540402835291602001916101c3565b820191906000526020600020905b8154815290600101906020018083116101a657829003601f168201915b5050505050908060010160009054906101000a900473ffffffffffffffffffffffffffffffffffffffff16908060020154908060030160009054906101000a900460ff16905084565b3373ffffffffffffffffffffffffffffffffffffffff16600260009054906101000a900473ffffffffffffffffffffffffffffffffffffffff1673ffffffffffffffffffffffffffffffffffffffff161461029c576040517f08c379a00000000000000000000000000000000000000000000000000000000081526004016102939061083d565b60405180910390fd5b6000604051806080016040528088888080601f016020809104026020016040519081016040528093929190818152602001838380828437600081840152601f19601f82011690508083019250505050505050815260200186868080601f016020809104026020016040519081016040528093929190818152602001838380828437600081840152601f19601f820116905080830192505050505050508152602001848152602001838152509080600181540180825580915050600190039060005260206000209060040201600090919091909150600082015181600001908051906020019061038c929190610518565b5060208201518160010190805190602001906103a9929190610518565b5060408201518160020155606082015181600301555050505050505050565b600081815481106103d857600080fd5b90600052602060002090600402016000915090508060000180546103fb9061090d565b80601f01602080910402602001604051908101604052809291908181526020018280546104279061090d565b80156104745780601f1061044957610100808354040283529160200191610474565b820191906000526020600020905b81548152906001019060200180831161045757829003601f168201915b5050505050908060010180546104899061090d565b80601f01602080910402602001604051908101604052809291908181526020018280546104b59061090d565b80156105025780601f106104d757610100808354040283529160200191610502565b820191906000526020600020905b8154815290600101906020018083116104e557829003601f168201915b5050505050908060020154908060030154905084565b8280546105249061090d565b90600052602060002090601f016020900481019282610546576000855561058d565b82601f1061055f57805160ff191683800117855561058d565b8280016001018555821561058d579182015b8281111561058c578251825591602001919060010190610571565b5b50905061059a919061059e565b5090565b5b808211156105b757600081600090555060010161059f565b5090565b60008083601f8401126105d1576105d06109a2565b5b8235905067ffffffffffffffff8111156105ee576105ed61099d565b5b60208301915083600182028301111561060a576106096109a7565b5b9250929050565b60008135905061062081610a04565b92915050565b60008060008060008060808789031215610643576106426109b1565b5b600087013567ffffffffffffffff811115610661576106606109ac565b5b61066d89828a016105bb565b9650965050602087013567ffffffffffffffff8111156106905761068f6109ac565b5b61069c89828a016105bb565b945094505060406106af89828a01610611565b92505060606106c089828a01610611565b9150509295509295509295565b6000602082840312156106e3576106e26109b1565b5b60006106f184828501610611565b91505092915050565b61070381610879565b82525050565b610712816108c8565b82525050565b60006107238261085d565b61072d8185610868565b935061073d8185602086016108da565b610746816109b6565b840191505092915050565b600061075e600d83610868565b9150610769826109c7565b602082019050919050565b61077d816108be565b82525050565b600060208201905061079860008301846106fa565b92915050565b600060808201905081810360008301526107b88187610718565b90506107c760208301866106fa565b6107d46040830185610774565b6107e16060830184610709565b95945050505050565b600060808201905081810360008301526108048187610718565b905081810360208301526108188186610718565b90506108276040830185610774565b6108346060830184610774565b95945050505050565b6000602082019050818103600083015261085681610751565b9050919050565b600081519050919050565b600082825260208201905092915050565b60006108848261089e565b9050919050565b6000819050610899826109f0565b919050565b600073ffffffffffffffffffffffffffffffffffffffff82169050919050565b6000819050919050565b60006108d38261088b565b9050919050565b60005b838110156108f85780820151818401526020810190506108dd565b83811115610907576000848401525b50505050565b6000600282049050600182168061092557607f821691505b602082108114156109395761093861096e565b5b50919050565b7f4e487b7100000000000000000000000000000000000000000000000000000000600052602160045260246000fd5b7f4e487b7100000000000000000000000000000000000000000000000000000000600052602260045260246000fd5b600080fd5b600080fd5b600080fd5b600080fd5b600080fd5b6000601f19601f8301169050919050565b7f4e6f7420616e206f776e65722100000000000000000000000000000000000000600082015250565b60028110610a0157610a0061093f565b5b50565b610a0d816108be565b8114610a1857600080fd5b5056fea2646970667358221220207250fe073bb3077a25a342b05cb387bd0dc1f64061ac09e9a38925bb367d2f64736f6c63430008070033",
					"opcodes": "PUSH1 0x80 PUSH1 0x40 MSTORE CALLVALUE DUP1 ISZERO PUSH2 0x10 JUMPI PUSH1 0x0 DUP1 REVERT JUMPDEST POP CALLER PUSH20 0xFFFFFFFFFFFFFFFFFFFFFFFFFFFFFFFFFFFFFFFF AND PUSH1 0x2 PUSH1 0x0 SWAP1 SLOAD SWAP1 PUSH2 0x100 EXP SWAP1 POP POP POP PUSH2 0xA51 DUP1 PUSH2 0x46 PUSH1 0x0 CODECOPY PUSH1 0x0 RETURN INVALID PUSH1 0x80 PUSH1 0x40 MSTORE CALLVALUE DUP1 ISZERO PUSH2 0x10 JUMPI PUSH1 0x0 DUP1 REVERT JUMPDEST POP PUSH1 0x4 CALLDATASIZE LT PUSH2 0x4C JUMPI PUSH1 0x0 CALLDATALOAD PUSH1 0xE0 SHR DUP1 PUSH4 0x8DA5CB5B EQ PUSH2 0x51 JUMPI DUP1 PUSH4 0xA85C38EF EQ PUSH2 0x6F JUMPI DUP1 PUSH4 0xC557F979 EQ PUSH2 0xA2 JUMPI DUP1 PUSH4 0xEA5DF059 EQ PUSH2 0xBE JUMPI JUMPDEST PUSH1 0x0 DUP1 REVERT JUMPDEST PUSH2 0x59 PUSH2 0xF1 JUMP JUMPDEST PUSH1 0x40 MLOAD PUSH2 0x66 SWAP2 SWAP1 PUSH2 0x783 JUMP JUMPDEST PUSH1 0x40 MLOAD DUP1 SWAP2 SUB SWAP1 RETURN JUMPDEST PUSH2 0x89 PUSH1 0x4 DUP1 CALLDATASIZE SUB DUP2 ADD SWAP1 PUSH2 0x84 SWAP2 SWAP1 PUSH2 0x6CD JUMP JUMPDEST PUSH2 0x117 JUMP JUMPDEST PUSH1 0x40 MLOAD PUSH2 0x99 SWAP5 SWAP4 SWAP3 SWAP2 SWAP1 PUSH2 0x79E JUMP JUMPDEST PUSH1 0x40 MLOAD DUP1 SWAP2 SUB SWAP1 RETURN JUMPDEST PUSH2 0xBC PUSH1 0x4 DUP1 CALLDATASIZE SUB DUP2 ADD SWAP1 PUSH2 0xB7 SWAP2 SWAP1 PUSH2 0x626 JUMP JUMPDEST PUSH2 0x20C JUMP JUMPDEST STOP JUMPDEST PUSH2 0xD8 PUSH1 0x4 DUP1 CALLDATASIZE SUB DUP2 ADD SWAP1 PUSH2 0xD3 SWAP2 SWAP1 PUSH2 0x6CD JUMP JUMPDEST PUSH2 0x3C8 JUMP JUMPDEST PUSH1 0x40 MLOAD PUSH2 0xE8 SWAP5 SWAP4 SWAP3 SWAP2 SWAP1 PUSH2 0x7EA JUMP JUMPDEST PUSH1 0x40 MLOAD DUP1 SWAP2 SUB SWAP1 RETURN JUMPDEST PUSH1 0x2 PUSH1 0x0 SWAP1 SLOAD SWAP1 PUSH2 0x100 EXP SWAP1 DIV PUSH20 0xFFFFFFFFFFFFFFFFFFFFFFFFFFFFFFFFFFFFFFFF AND DUP2 JUMP JUMPDEST PUSH1 0x1 DUP2 DUP2 SLOAD DUP2 LT PUSH2 0x127 JUMPI PUSH1 0x0 DUP1 REVERT JUMPDEST SWAP1 PUSH1 0x0 MSTORE PUSH1 0x20 PUSH1 0x0 KECCAK256 SWAP1 PUSH1 0x4 MUL ADD PUSH1 0x0 SWAP2 POP SWAP1 POP DUP1 PUSH1 0x0 ADD DUP1 SLOAD PUSH2 0x14A SWAP1 PUSH2 0x90D JUMP JUMPDEST DUP1 PUSH1 0x1F ADD PUSH1 0x20 DUP1 SWAP2 DIV MUL PUSH1 0x20 ADD PUSH1 0x40 MLOAD SWAP1 DUP2 ADD PUSH1 0x40 MSTORE DUP1 SWAP3 SWAP2 SWAP1 DUP2 DUP2 MSTORE PUSH1 0x20 ADD DUP3 DUP1 SLOAD PUSH2 0x176 SWAP1 PUSH2 0x90D JUMP JUMPDEST DUP1 ISZERO PUSH2 0x1C3 JUMPI DUP1 PUSH1 0x1F LT PUSH2 0x198 JUMPI PUSH2 0x100 DUP1 DUP4 SLOAD DIV MUL DUP4 MSTORE SWAP2 PUSH1 0x20 ADD SWAP2 PUSH2 0x1C3 JUMP JUMPDEST DUP3 ADD SWAP2 SWAP1 PUSH1 0x0 MSTORE PUSH1 0x20 PUSH1 0x0 KECCAK256 SWAP1 JUMPDEST DUP2 SLOAD DUP2 MSTORE SWAP1 PUSH1 0x1 ADD SWAP1 PUSH1 0x20 ADD DUP1 DUP4 GT PUSH2 0x1A6 JUMPI DUP3 SWAP1 SUB PUSH1 0x1F AND DUP3 ADD SWAP2 JUMPDEST POP POP POP POP POP SWAP1 DUP1 PUSH1 0x1 ADD PUSH1 0x0 SWAP1 SLOAD SWAP1 PUSH2 0x100 EXP SWAP1 DIV PUSH20 0xFFFFFFFFFFFFFFFFFFFFFFFFFFFFFFFFFFFFFFFF AND SWAP1 DUP1 PUSH1 0x2 ADD SLOAD SWAP1 DUP1 PUSH1 0x3 ADD PUSH1 0x0 SWAP1 SLOAD SWAP1 PUSH2 0x100 EXP SWAP1 DIV PUSH1 0xFF AND SWAP1 POP DUP5 JUMP JUMPDEST CALLER PUSH20 0xFFFFFFFFFFFFFFFFFFFFFFFFFFFFFFFFFFFFFFFF AND PUSH1 0x2 PUSH1 0x0 SWAP1 SLOAD SWAP1 PUSH2 0x100 EXP SWAP1 DIV PUSH20 0xFFFFFFFFFFFFFFFFFFFFFFFFFFFFFFFFFFFFFFFF AND PUSH20 0xFFFFFFFFFFFFFFFFFFFFFFFFFFFFFFFFFFFFFFFF AND EQ PUSH2 0x29C JUMPI PUSH1 0x40 MLOAD PUSH32 0x8C379A000000000000000000000000000000000000000000000000000000000 DUP2 MSTORE PUSH1 0x4 ADD PUSH2 0x293 SWAP1 PUSH2 0x83D JUMP JUMPDEST PUSH1 0x40 MLOAD DUP1 SWAP2 SUB SWAP1 REVERT JUMPDEST PUSH1 0x0 PUSH1 0x40 MLOAD DUP1 PUSH1 0x80 ADD PUSH1 0x40 MSTORE DUP1 DUP9 DUP9 DUP1 DUP1 PUSH1 0x1F ADD PUSH1 0x20 DUP1 SWAP2 DIV MUL PUSH1 0x20 ADD PUSH1 0x40 MLOAD SWAP1 DUP2 ADD PUSH1 0x40 MSTORE DUP1 SWAP4 SWAP3 SWAP2 SWAP1 DUP2 DUP2 MSTORE PUSH1 0x20 ADD DUP4 DUP4 DUP1 DUP3 DUP5 CALLDATACOPY PUSH1 0x0 DUP2 DUP5 ADD MSTORE PUSH1 0x1F NOT PUSH1 0x1F DUP3 ADD AND SWAP1 POP DUP1 DUP4 ADD SWAP3 POP POP POP POP POP POP POP DUP2 MSTORE PUSH1 0x20 ADD DUP7 DUP7 DUP1 DUP1 PUSH1 0x1F ADD PUSH1 0x20 DUP1 SWAP2 DIV MUL PUSH1 0x20 ADD PUSH1 0x40 MLOAD SWAP1 DUP2 ADD PUSH1 0x40 MSTORE DUP1 SWAP4 SWAP3 SWAP2 SWAP1 DUP2 DUP2 MSTORE PUSH1 0x20 ADD DUP4 DUP4 DUP1 DUP3 DUP5 CALLDATACOPY PUSH1 0x0 DUP2 DUP5 ADD MSTORE PUSH1 0x1F NOT PUSH1 0x1F DUP3 ADD AND SWAP1 POP DUP1 DUP4 ADD SWAP3 POP POP POP POP POP POP POP DUP2 MSTORE PUSH1 0x20 ADD DUP5 DUP2 MSTORE PUSH1 0x20 ADD DUP4 DUP2 MSTORE POP SWAP1 DUP1 PUSH1 0x1 DUP2 SLOAD ADD DUP1 DUP3 SSTORE DUP1 SWAP2 POP POP PUSH1 0x1 SWAP1 SUB SWAP1 PUSH1 0x0 MSTORE PUSH1 0x20 PUSH1 0x0 KECCAK256 SWAP1 PUSH1 0x4 MUL ADD PUSH1 0x0 SWAP1 SWAP2 SWAP1 SWAP2 SWAP1 SWAP2 POP PUSH1 0x0 DUP3 ADD MLOAD DUP2 PUSH1 0x0 ADD SWAP1 DUP1 MLOAD SWAP1 PUSH1 0x20 ADD SWAP1 PUSH2 0x38C SWAP3 SWAP2 SWAP1 PUSH2 0x518 JUMP JUMPDEST POP PUSH1 0x20 DUP3 ADD MLOAD DUP2 PUSH1 0x1 ADD SWAP1 DUP1 MLOAD SWAP1 PUSH1 0x20 ADD SWAP1 PUSH2 0x3A9 SWAP3 SWAP2 SWAP1 PUSH2 0x518 JUMP JUMPDEST POP PUSH1 0x40 DUP3 ADD MLOAD DUP2 PUSH1 0x2 ADD SSTORE PUSH1 0x60 DUP3 ADD MLOAD DUP2 PUSH1 0x3 ADD SSTORE POP POP POP POP POP POP POP POP JUMP JUMPDEST PUSH1 0x0 DUP2 DUP2 SLOAD DUP2 LT PUSH2 0x3D8 JUMPI PUSH1 0x0 DUP1 REVERT JUMPDEST SWAP1 PUSH1 0x0 MSTORE PUSH1 0x20 PUSH1 0x0 KECCAK256 SWAP1 PUSH1 0x4 MUL ADD PUSH1 0x0 SWAP2 POP SWAP1 POP DUP1 PUSH1 0x0 ADD DUP1 SLOAD PUSH2 0x3FB SWAP1 PUSH2 0x90D JUMP JUMPDEST DUP1 PUSH1 0x1F ADD PUSH1 0x20 DUP1 SWAP2 DIV MUL PUSH1 0x20 ADD PUSH1 0x40 MLOAD SWAP1 DUP2 ADD PUSH1 0x40 MSTORE DUP1 SWAP3 SWAP2 SWAP1 DUP2 DUP2 MSTORE PUSH1 0x20 ADD DUP3 DUP1 SLOAD PUSH2 0x427 SWAP1 PUSH2 0x90D JUMP JUMPDEST DUP1 ISZERO PUSH2 0x474 JUMPI DUP1 PUSH1 0x1F LT PUSH2 0x449 JUMPI PUSH2 0x100 DUP1 DUP4 SLOAD DIV MUL DUP4 MSTORE SWAP2 PUSH1 0x20 ADD SWAP2 PUSH2 0x474 JUMP JUMPDEST DUP3 ADD SWAP2 SWAP1 PUSH1 0x0 MSTORE PUSH1 0x20 PUSH1 0x0 KECCAK256 SWAP1 JUMPDEST DUP2 SLOAD DUP2 MSTORE SWAP1 PUSH1 0x1 ADD SWAP1 PUSH1 0x20 ADD DUP1 DUP4 GT PUSH2 0x457 JUMPI DUP3 SWAP1 SUB PUSH1 0x1F AND DUP3 ADD SWAP2 JUMPDEST POP POP POP POP POP SWAP1 DUP1 PUSH1 0x1 ADD DUP1 SLOAD PUSH2 0x489 SWAP1 PUSH2 0x90D JUMP JUMPDEST DUP1 PUSH1 0x1F ADD PUSH1 0x20 DUP1 SWAP2 DIV MUL PUSH1 0x20 ADD PUSH1 0x40 MLOAD SWAP1 DUP2 ADD PUSH1 0x40 MSTORE DUP1 SWAP3 SWAP2 SWAP1 DUP2 DUP2 MSTORE PUSH1 0x20 ADD DUP3 DUP1 SLOAD PUSH2 0x4B5 SWAP1 PUSH2 0x90D JUMP JUMPDEST DUP1 ISZERO PUSH2 0x502 JUMPI DUP1 PUSH1 0x1F LT PUSH2 0x4D7 JUMPI PUSH2 0x100 DUP1 DUP4 SLOAD DIV MUL DUP4 MSTORE SWAP2 PUSH1 0x20 ADD SWAP2 PUSH2 0x502 JUMP JUMPDEST DUP3 ADD SWAP2 SWAP1 PUSH1 0x0 MSTORE PUSH1 0x20 PUSH1 0x0 KECCAK256 SWAP1 JUMPDEST DUP2 SLOAD DUP2 MSTORE SWAP1 PUSH1 0x1 ADD SWAP1 PUSH1 0x20 ADD DUP1 DUP4 GT PUSH2 0x4E5 JUMPI DUP3 SWAP1 SUB PUSH1 0x1F AND DUP3 ADD SWAP2 JUMPDEST POP POP POP POP POP SWAP1 DUP1 PUSH1 0x2 ADD SLOAD SWAP1 DUP1 PUSH1 0x3 ADD SLOAD SWAP1 POP DUP5 JUMP JUMPDEST DUP3 DUP1 SLOAD PUSH2 0x524 SWAP1 PUSH2 0x90D JUMP JUMPDEST SWAP1 PUSH1 0x0 MSTORE PUSH1 0x20 PUSH1 0x0 KECCAK256 SWAP1 PUSH1 0x1F ADD PUSH1 0x20 SWAP1 DIV DUP2 ADD SWAP3 DUP3 PUSH2 0x546 JUMPI PUSH1 0x0 DUP6 SSTORE PUSH2 0x58D JUMP JUMPDEST DUP3 PUSH1 0x1F LT PUSH2 0x55F JUMPI DUP1 MLOAD PUSH1 0xFF NOT AND DUP4 DUP1 ADD OR DUP6 SSTORE PUSH2 0x58D JUMP JUMPDEST DUP3 DUP1 ADD PUSH1 0x1 ADD DUP6 SSTORE DUP3 ISZERO PUSH2 0x58D JUMPI SWAP2 DUP3 ADD JUMPDEST DUP3 DUP2 GT ISZERO PUSH2 0x58C JUMPI DUP3 MLOAD DUP3 SSTORE SWAP2 PUSH1 0x20 ADD SWAP2 SWAP1 PUSH1 0x1 ADD SWAP1 PUSH2 0x571 JUMP JUMPDEST JUMPDEST POP SWAP1 POP PUSH2 0x59A SWAP2 SWAP1 PUSH2 0x59E JUMP JUMPDEST POP SWAP1 JUMP JUMPDEST JUMPDEST DUP1 DUP3 GT ISZERO PUSH2 0x5B7 JUMPI PUSH1 0x0 DUP2 PUSH1 0x0 SWAP1 SSTORE POP PUSH1 0x1 ADD PUSH2 0x59F JUMP JUMPDEST POP SWAP1 JUMP JUMPDEST PUSH1 0x0 DUP1 DUP4 PUSH1 0x1F DUP5 ADD SLT PUSH2 0x5D1 JUMPI PUSH2 0x5D0 PUSH2 0x9A2 JUMP JUMPDEST JUMPDEST DUP3 CALLDATALOAD SWAP1 POP PUSH8 0xFFFFFFFFFFFFFFFF DUP2 GT ISZERO PUSH2 0x5EE JUMPI PUSH2 0x5ED PUSH2 0x99D JUMP JUMPDEST JUMPDEST PUSH1 0x20 DUP4 ADD SWAP2 POP DUP4 PUSH1 0x1 DUP3 MUL DUP4 ADD GT ISZERO PUSH2 0x60A JUMPI PUSH2 0x609 PUSH2 0x9A7 JUMP JUMPDEST JUMPDEST SWAP3 POP SWAP3 SWAP1 POP JUMP JUMPDEST PUSH1 0x0 DUP2 CALLDATALOAD SWAP1 POP PUSH2 0x620 DUP2 PUSH2 0xA04 JUMP JUMPDEST SWAP3 SWAP2 POP POP JUMP JUMPDEST PUSH1 0x0 DUP1 PUSH1 0x0 DUP1 PUSH1 0x0 DUP1 PUSH1 0x80 DUP8 DUP10 SUB SLT ISZERO PUSH2 0x643 JUMPI PUSH2 0x642 PUSH2 0x9B1 JUMP JUMPDEST JUMPDEST PUSH1 0x0 DUP8 ADD CALLDATALOAD PUSH8 0xFFFFFFFFFFFFFFFF DUP2 GT ISZERO PUSH2 0x661 JUMPI PUSH2 0x660 PUSH2 0x9AC JUMP JUMPDEST JUMPDEST PUSH2 0x66D DUP10 DUP3 DUP11 ADD PUSH2 0x5BB JUMP JUMPDEST SWAP7 POP SWAP7 POP POP PUSH1 0x20 DUP8 ADD CALLDATALOAD PUSH8 0xFFFFFFFFFFFFFFFF DUP2 GT ISZERO PUSH2 0x690 JUMPI PUSH2 0x68F PUSH2 0x9AC JUMP JUMPDEST JUMPDEST PUSH2 0x69C DUP10 DUP3 DUP11 ADD PUSH2 0x5BB JUMP JUMPDEST SWAP5 POP SWAP5 POP POP PUSH1 0x40 PUSH2 0x6AF DUP10 DUP3 DUP11 ADD PUSH2 0x611 JUMP JUMPDEST SWAP3 POP POP PUSH1 0x60 PUSH2 0x6C0 DUP10 DUP3 DUP11 ADD PUSH2 0x611 JUMP JUMPDEST SWAP2 POP POP SWAP3 SWAP6 POP SWAP3 SWAP6 POP SWAP3 SWAP6 JUMP JUMPDEST PUSH1 0x0 PUSH1 0x20 DUP3 DUP5 SUB SLT ISZERO PUSH2 0x6E3 JUMPI PUSH2 0x6E2 PUSH2 0x9B1 JUMP JUMPDEST JUMPDEST PUSH1 0x0 PUSH2 0x6F1 DUP5 DUP3 DUP6 ADD PUSH2 0x611 JUMP JUMPDEST SWAP2 POP POP SWAP3 SWAP2 POP POP JUMP JUMPDEST PUSH2 0x703 DUP2 PUSH2 0x879 JUMP JUMPDEST DUP3 MSTORE POP POP JUMP JUMPDEST PUSH2 0x712 DUP2 PUSH2 0x8C8 JUMP JUMPDEST DUP3 MSTORE POP POP JUMP JUMPDEST PUSH1 0x0 PUSH2 0x723 DUP3 PUSH2 0x85D JUMP JUMPDEST PUSH2 0x72D DUP2 DUP6 PUSH2 0x868 JUMP JUMPDEST SWAP4 POP PUSH2 0x73D DUP2 DUP6 PUSH1 0x20 DUP7 ADD PUSH2 0x8DA JUMP JUMPDEST PUSH2 0x746 DUP2 PUSH2 0x9B6 JUMP JUMPDEST DUP5 ADD SWAP2 POP POP SWAP3 SWAP2 POP POP JUMP JUMPDEST PUSH1 0x0 PUSH2 0x75E PUSH1 0xD DUP4 PUSH2 0x868 JUMP JUMPDEST SWAP2 POP PUSH2 0x769 DUP3 PUSH2 0x9C7 JUMP JUMPDEST PUSH1 0x20 DUP3 ADD SWAP1 POP SWAP2 SWAP1 POP JUMP JUMPDEST PUSH2 0x77D DUP2 PUSH2 0x8BE JUMP JUMPDEST DUP3 MSTORE POP POP JUMP JUMPDEST PUSH1 0x0 PUSH1 0x20 DUP3 ADD SWAP1 POP PUSH2 0x798 PUSH1 0x0 DUP4 ADD DUP5 PUSH2 0x6FA JUMP JUMPDEST SWAP3 SWAP2 POP POP JUMP JUMPDEST PUSH1 0x0 PUSH1 0x80 DUP3 ADD SWAP1 POP DUP2 DUP2 SUB PUSH1 0x0 DUP4 ADD MSTORE PUSH2 0x7B8 DUP2 DUP8 PUSH2 0x718 JUMP JUMPDEST SWAP1 POP PUSH2 0x7C7 PUSH1 0x20 DUP4 ADD DUP7 PUSH2 0x6FA JUMP JUMPDEST PUSH2 0x7D4 PUSH1 0x40 DUP4 ADD DUP6 PUSH2 0x774 JUMP JUMPDEST PUSH2 0x7E1 PUSH1 0x60 DUP4 ADD DUP5 PUSH2 0x709 JUMP JUMPDEST SWAP6 SWAP5 POP POP POP POP POP JUMP JUMPDEST PUSH1 0x0 PUSH1 0x80 DUP3 ADD SWAP1 POP DUP2 DUP2 SUB PUSH1 0x0 DUP4 ADD MSTORE PUSH2 0x804 DUP2 DUP8 PUSH2 0x718 JUMP JUMPDEST SWAP1 POP DUP2 DUP2 SUB PUSH1 0x20 DUP4 ADD MSTORE PUSH2 0x818 DUP2 DUP7 PUSH2 0x718 JUMP JUMPDEST SWAP1 POP PUSH2 0x827 PUSH1 0x40 DUP4 ADD DUP6 PUSH2 0x774 JUMP JUMPDEST PUSH2 0x834 PUSH1 0x60 DUP4 ADD DUP5 PUSH2 0x774 JUMP JUMPDEST SWAP6 SWAP5 POP POP POP POP POP JUMP JUMPDEST PUSH1 0x0 PUSH1 0x20 DUP3 ADD SWAP1 POP DUP2 DUP2 SUB PUSH1 0x0 DUP4 ADD MSTORE PUSH2 0x856 DUP2 PUSH2 0x751 JUMP JUMPDEST SWAP1 POP SWAP2 SWAP1 POP JUMP JUMPDEST PUSH1 0x0 DUP2 MLOAD SWAP1 POP SWAP2 SWAP1 POP JUMP JUMPDEST PUSH1 0x0 DUP3 DUP3 MSTORE PUSH1 0x20 DUP3 ADD SWAP1 POP SWAP3 SWAP2 POP POP JUMP JUMPDEST PUSH1 0x0 PUSH2 0x884 DUP3 PUSH2 0x89E JUMP JUMPDEST SWAP1 POP SWAP2 SWAP1 POP JUMP JUMPDEST PUSH1 0x0 DUP2 SWAP1 POP PUSH2 0x899 DUP3 PUSH2 0x9F0 JUMP JUMPDEST SWAP2 SWAP1 POP JUMP JUMPDEST PUSH1 0x0 PUSH20 0xFFFFFFFFFFFFFFFFFFFFFFFFFFFFFFFFFFFFFFFF DUP3 AND SWAP1 POP SWAP2 SWAP1 POP JUMP JUMPDEST PUSH1 0x0 DUP2 SWAP1 POP SWAP2 SWAP1 POP JUMP JUMPDEST PUSH1 0x0 PUSH2 0x8D3 DUP3 PUSH2 0x88B JUMP JUMPDEST SWAP1 POP SWAP2 SWAP1 POP JUMP JUMPDEST PUSH1 0x0 JUMPDEST DUP4 DUP2 LT ISZERO PUSH2 0x8F8 JUMPI DUP1 DUP3 ADD MLOAD DUP2 DUP5 ADD MSTORE PUSH1 0x20 DUP2 ADD SWAP1 POP PUSH2 0x8DD JUMP JUMPDEST DUP4 DUP2 GT ISZERO PUSH2 0x907 JUMPI PUSH1 0x0 DUP5 DUP5 ADD MSTORE JUMPDEST POP POP POP POP JUMP JUMPDEST PUSH1 0x0 PUSH1 0x2 DUP3 DIV SWAP1 POP PUSH1 0x1 DUP3 AND DUP1 PUSH2 0x925 JUMPI PUSH1 0x7F DUP3 AND SWAP2 POP JUMPDEST PUSH1 0x20 DUP3 LT DUP2 EQ ISZERO PUSH2 0x939 JUMPI PUSH2 0x938 PUSH2 0x96E JUMP JUMPDEST JUMPDEST POP SWAP2 SWAP1 POP JUMP JUMPDEST PUSH32 0x4E487B7100000000000000000000000000000000000000000000000000000000 PUSH1 0x0 MSTORE PUSH1 0x21 PUSH1 0x4 MSTORE PUSH1 0x24 PUSH1 0x0 REVERT JUMPDEST PUSH32 0x4E487B7100000000000000000000000000000000000000000000000000000000 PUSH1 0x0 MSTORE PUSH1 0x22 PUSH1 0x4 MSTORE PUSH1 0x24 PUSH1 0x0 REVERT JUMPDEST PUSH1 0x0 DUP1 REVERT JUMPDEST PUSH1 0x0 DUP1 REVERT JUMPDEST PUSH1 0x0 DUP1 REVERT JUMPDEST PUSH1 0x0 DUP1 REVERT JUMPDEST PUSH1 0x0 DUP1 REVERT JUMPDEST PUSH1 0x0 PUSH1 0x1F NOT PUSH1 0x1F DUP4 ADD AND SWAP1 POP SWAP2 SWAP1 POP JUMP JUMPDEST PUSH32 0x4E6F7420616E206F776E65722100000000000000000000000000000000000000 PUSH1 0x0 DUP3 ADD MSTORE POP JUMP JUMPDEST PUSH1 0x2 DUP2 LT PUSH2 0xA01 JUMPI PUSH2 0xA00 PUSH2 0x93F JUMP JUMPDEST JUMPDEST POP JUMP JUMPDEST PUSH2 0xA0D DUP2 PUSH2 0x8BE JUMP JUMPDEST DUP2 EQ PUSH2 0xA18 JUMPI PUSH1 0x0 DUP1 REVERT JUMPDEST POP JUMP INVALID LOG2 PUSH5 0x6970667358 0x22 SLT KECCAK256 KECCAK256 PUSH19 0x50FE073BB3077A25A342B05CB387BD0DC1F640 PUSH2 0xAC09 0xE9 LOG3 DUP10 0x25 0xBB CALLDATASIZE PUSH30 0x2F64736F6C63430008070033000000000000000000000000000000000000 "
				},
				"gasEstimates": {
					"creation": {
						"codeDepositCost": "528200",
						"executionCost": "2704",
						"totalCost": "530904"
					},
					"external": {
						"addAlbum(string,string,uint256,uint256)": "infinite",
						"albums(uint256)": "infinite",
						"orders(uint256)": "infinite",
						"owner()": "2492"
					}
				},
				"methodIdentifiers": {
					"addAlbum(string,string,uint256,uint256)": "c557f979",
					"albums(uint256)": "ea5df059",
					"orders(uint256)": "a85c38ef",
					"owner()": "8da5cb5b"
				}
			},
			"storageLayout": {
				"storage": [
					{
						"astId": 27,
						"contract": "contracts/MusicStore.sol:MusicStore",
						"label": "albums",
						"offset": 0,
						"slot": "0",
						"type": "t_array(t_struct(Album)10_storage)dyn_storage"
					},
					{
						"astId": 31,
						"contract": "contracts/MusicStore.sol:MusicStore",
						"label": "orders",
						"offset": 0,
						"slot": "1",
						"type": "t_array(t_struct(Order)20_storage)dyn_storage"
					},
					{
						"astId": 33,
						"contract": "contracts/MusicStore.sol:MusicStore",
						"label": "owner",
						"offset": 0,
						"slot": "2",
						"type": "t_address"
					}
				],
				"types": {
					"t_address": {
						"encoding": "inplace",
						"label": "address",
						"numberOfBytes": "20"
					},
					"t_array(t_struct(Album)10_storage)dyn_storage": {
						"base": "t_struct(Album)10_storage",
						"encoding": "dynamic_array",
						"label": "struct MusicStore.Album[]",
						"numberOfBytes": "32"
					},
					"t_array(t_struct(Order)20_storage)dyn_storage": {
						"base": "t_struct(Order)20_storage",
						"encoding": "dynamic_array",
						"label": "struct MusicStore.Order[]",
						"numberOfBytes": "32"
					},
					"t_enum(OrderStatus)23": {
						"encoding": "inplace",
						"label": "enum MusicStore.OrderStatus",
						"numberOfBytes": "1"
					},
					"t_string_storage": {
						"encoding": "bytes",
						"label": "string",
						"numberOfBytes": "32"
					},
					"t_struct(Album)10_storage": {
						"encoding": "inplace",
						"label": "struct MusicStore.Album",
						"members": [
							{
								"astId": 3,
								"contract": "contracts/MusicStore.sol:MusicStore",
								"label": "uid",
								"offset": 0,
								"slot": "0",
								"type": "t_string_storage"
							},
							{
								"astId": 5,
								"contract": "contracts/MusicStore.sol:MusicStore",
								"label": "title",
								"offset": 0,
								"slot": "1",
								"type": "t_string_storage"
							},
							{
								"astId": 7,
								"contract": "contracts/MusicStore.sol:MusicStore",
								"label": "price",
								"offset": 0,
								"slot": "2",
								"type": "t_uint256"
							},
							{
								"astId": 9,
								"contract": "contracts/MusicStore.sol:MusicStore",
								"label": "quantity",
								"offset": 0,
								"slot": "3",
								"type": "t_uint256"
							}
						],
						"numberOfBytes": "128"
					},
					"t_struct(Order)20_storage": {
						"encoding": "inplace",
						"label": "struct MusicStore.Order",
						"members": [
							{
								"astId": 12,
								"contract": "contracts/MusicStore.sol:MusicStore",
								"label": "albumUid",
								"offset": 0,
								"slot": "0",
								"type": "t_string_storage"
							},
							{
								"astId": 14,
								"contract": "contracts/MusicStore.sol:MusicStore",
								"label": "customer",
								"offset": 0,
								"slot": "1",
								"type": "t_address"
							},
							{
								"astId": 16,
								"contract": "contracts/MusicStore.sol:MusicStore",
								"label": "orderAt",
								"offset": 0,
								"slot": "2",
								"type": "t_uint256"
							},
							{
								"astId": 19,
								"contract": "contracts/MusicStore.sol:MusicStore",
								"label": "status",
								"offset": 0,
								"slot": "3",
								"type": "t_enum(OrderStatus)23"
							}
						],
						"numberOfBytes": "128"
					},
					"t_uint256": {
						"encoding": "inplace",
						"label": "uint256",
						"numberOfBytes": "32"
					}
				}
			},
			"userdoc": {
				"kind": "user",
				"methods": {},
				"version": 1
			}
		}
	}
}